{
  "_format": "hh-sol-artifact-1",
  "contractName": "CMTATStandaloneERC7551",
  "sourceName": "contracts/deployment/ERC7551/CMTATStandaloneERC7551.sol",
  "abi": [
    {
      "inputs": [
        {
          "internalType": "address",
          "name": "forwarderIrrevocable",
          "type": "address"
        },
        {
          "internalType": "address",
          "name": "admin",
          "type": "address"
        },
        {
          "components": [
            {
              "internalType": "string",
              "name": "name",
              "type": "string"
            },
            {
              "internalType": "string",
              "name": "symbol",
              "type": "string"
            },
            {
              "internalType": "uint8",
              "name": "decimalsIrrevocable",
              "type": "uint8"
            }
          ],
          "internalType": "struct ICMTATConstructor.ERC20Attributes",
          "name": "ERC20Attributes_",
          "type": "tuple"
        },
        {
          "components": [
            {
              "internalType": "string",
              "name": "tokenId",
              "type": "string"
            },
            {
              "components": [
                {
                  "internalType": "string",
                  "name": "name",
                  "type": "string"
                },
                {
                  "internalType": "string",
                  "name": "uri",
                  "type": "string"
                },
                {
                  "internalType": "bytes32",
                  "name": "documentHash",
                  "type": "bytes32"
                }
              ],
              "internalType": "struct IERC1643CMTAT.DocumentInfo",
              "name": "terms",
              "type": "tuple"
            },
            {
              "internalType": "string",
              "name": "information",
              "type": "string"
            }
          ],
          "internalType": "struct ICMTATConstructor.ExtraInformationAttributes",
          "name": "extraInformationAttributes_",
          "type": "tuple"
        },
        {
          "components": [
            {
              "internalType": "contract IRuleEngine",
              "name": "ruleEngine",
              "type": "address"
            },
            {
              "internalType": "contract ISnapshotEngine",
              "name": "snapshotEngine",
              "type": "address"
            },
            {
              "internalType": "contract IERC1643",
              "name": "documentEngine",
              "type": "address"
            }
          ],
          "internalType": "struct ICMTATConstructor.Engine",
          "name": "engines_",
          "type": "tuple"
        }
      ],
      "stateMutability": "nonpayable",
      "type": "constructor"
    },
    {
      "inputs": [],
      "name": "AccessControlBadConfirmation",
      "type": "error"
    },
    {
      "inputs": [
        {
          "internalType": "address",
          "name": "account",
          "type": "address"
        },
        {
          "internalType": "bytes32",
          "name": "neededRole",
          "type": "bytes32"
        }
      ],
      "name": "AccessControlUnauthorizedAccount",
      "type": "error"
    },
    {
      "inputs": [],
      "name": "CMTAT_AccessControlModule_AddressZeroNotAllowed",
      "type": "error"
    },
    {
      "inputs": [],
      "name": "CMTAT_BurnModule_AccountsValueslengthMismatch",
      "type": "error"
    },
    {
      "inputs": [],
      "name": "CMTAT_BurnModule_EmptyAccounts",
      "type": "error"
    },
    {
      "inputs": [],
      "name": "CMTAT_DocumentEngineModule_SameValue",
      "type": "error"
    },
    {
      "inputs": [],
      "name": "CMTAT_ERC20EnforcementModule_ValueExceedsActiveBalance",
      "type": "error"
    },
    {
      "inputs": [],
      "name": "CMTAT_ERC20EnforcementModule_ValueExceedsAvailableBalance",
      "type": "error"
    },
    {
      "inputs": [],
      "name": "CMTAT_ERC20EnforcementModule_ValueExceedsFrozenBalance",
      "type": "error"
    },
    {
      "inputs": [],
      "name": "CMTAT_Enforcement_AccountsValueslengthMismatch",
      "type": "error"
    },
    {
      "inputs": [],
      "name": "CMTAT_Enforcement_EmptyAccounts",
      "type": "error"
    },
    {
      "inputs": [
        {
          "internalType": "address",
          "name": "from",
          "type": "address"
        },
        {
          "internalType": "address",
          "name": "to",
          "type": "address"
        },
        {
          "internalType": "uint256",
          "name": "amount",
          "type": "uint256"
        }
      ],
      "name": "CMTAT_InvalidTransfer",
      "type": "error"
    },
    {
      "inputs": [],
      "name": "CMTAT_MintModule_AccountsValueslengthMismatch",
      "type": "error"
    },
    {
      "inputs": [],
      "name": "CMTAT_MintModule_EmptyAccounts",
      "type": "error"
    },
    {
      "inputs": [],
      "name": "CMTAT_MintModule_EmptyTos",
      "type": "error"
    },
    {
      "inputs": [],
      "name": "CMTAT_MintModule_TosValueslengthMismatch",
      "type": "error"
    },
    {
      "inputs": [],
      "name": "CMTAT_PauseModule_ContractIsDeactivated",
      "type": "error"
    },
    {
      "inputs": [],
      "name": "CMTAT_SnapshotModule_SameValue",
      "type": "error"
    },
    {
      "inputs": [],
      "name": "CMTAT_ValidationModule_SameValue",
      "type": "error"
    },
    {
      "inputs": [
        {
          "internalType": "address",
          "name": "spender",
          "type": "address"
        },
        {
          "internalType": "uint256",
          "name": "allowance",
          "type": "uint256"
        },
        {
          "internalType": "uint256",
          "name": "needed",
          "type": "uint256"
        }
      ],
      "name": "ERC20InsufficientAllowance",
      "type": "error"
    },
    {
      "inputs": [
        {
          "internalType": "address",
          "name": "sender",
          "type": "address"
        },
        {
          "internalType": "uint256",
          "name": "balance",
          "type": "uint256"
        },
        {
          "internalType": "uint256",
          "name": "needed",
          "type": "uint256"
        }
      ],
      "name": "ERC20InsufficientBalance",
      "type": "error"
    },
    {
      "inputs": [
        {
          "internalType": "address",
          "name": "approver",
          "type": "address"
        }
      ],
      "name": "ERC20InvalidApprover",
      "type": "error"
    },
    {
      "inputs": [
        {
          "internalType": "address",
          "name": "receiver",
          "type": "address"
        }
      ],
      "name": "ERC20InvalidReceiver",
      "type": "error"
    },
    {
      "inputs": [
        {
          "internalType": "address",
          "name": "sender",
          "type": "address"
        }
      ],
      "name": "ERC20InvalidSender",
      "type": "error"
    },
    {
      "inputs": [
        {
          "internalType": "address",
          "name": "spender",
          "type": "address"
        }
      ],
      "name": "ERC20InvalidSpender",
      "type": "error"
    },
    {
      "inputs": [],
      "name": "EnforcedPause",
      "type": "error"
    },
    {
      "inputs": [],
      "name": "ExpectedPause",
      "type": "error"
    },
    {
      "inputs": [],
      "name": "InvalidInitialization",
      "type": "error"
    },
    {
      "inputs": [],
      "name": "NotInitializing",
      "type": "error"
    },
    {
      "anonymous": false,
      "inputs": [
        {
          "indexed": true,
          "internalType": "address",
          "name": "account",
          "type": "address"
        },
        {
          "indexed": true,
          "internalType": "bool",
          "name": "isFrozen",
          "type": "bool"
        },
        {
          "indexed": true,
          "internalType": "address",
          "name": "enforcer",
          "type": "address"
        },
        {
          "indexed": false,
          "internalType": "bytes",
          "name": "data",
          "type": "bytes"
        }
      ],
      "name": "AddressFrozen",
      "type": "event"
    },
    {
      "anonymous": false,
      "inputs": [
        {
          "indexed": true,
          "internalType": "address",
          "name": "owner",
          "type": "address"
        },
        {
          "indexed": true,
          "internalType": "address",
          "name": "spender",
          "type": "address"
        },
        {
          "indexed": false,
          "internalType": "uint256",
          "name": "value",
          "type": "uint256"
        }
      ],
      "name": "Approval",
      "type": "event"
    },
    {
      "anonymous": false,
      "inputs": [
        {
          "indexed": true,
          "internalType": "address",
          "name": "burner",
          "type": "address"
        },
        {
          "indexed": false,
          "internalType": "address[]",
          "name": "accounts",
          "type": "address[]"
        },
        {
          "indexed": false,
          "internalType": "uint256[]",
          "name": "values",
          "type": "uint256[]"
        },
        {
          "indexed": false,
          "internalType": "bytes",
          "name": "data",
          "type": "bytes"
        }
      ],
      "name": "BatchBurn",
      "type": "event"
    },
    {
      "anonymous": false,
      "inputs": [
        {
          "indexed": true,
          "internalType": "address",
          "name": "minter",
          "type": "address"
        },
        {
          "indexed": false,
          "internalType": "address[]",
          "name": "accounts",
          "type": "address[]"
        },
        {
          "indexed": false,
          "internalType": "uint256[]",
          "name": "values",
          "type": "uint256[]"
        }
      ],
      "name": "BatchMint",
      "type": "event"
    },
    {
      "anonymous": false,
      "inputs": [
        {
          "indexed": true,
          "internalType": "address",
          "name": "burner",
          "type": "address"
        },
        {
          "indexed": true,
          "internalType": "address",
          "name": "account",
          "type": "address"
        },
        {
          "indexed": false,
          "internalType": "uint256",
          "name": "value",
          "type": "uint256"
        },
        {
          "indexed": false,
          "internalType": "bytes",
          "name": "data",
          "type": "bytes"
        }
      ],
      "name": "Burn",
      "type": "event"
    },
    {
      "anonymous": false,
      "inputs": [
        {
          "indexed": true,
          "internalType": "address",
          "name": "burner",
          "type": "address"
        },
        {
          "indexed": true,
          "internalType": "address",
          "name": "account",
          "type": "address"
        },
        {
          "indexed": true,
          "internalType": "address",
          "name": "spender",
          "type": "address"
        },
        {
          "indexed": false,
          "internalType": "uint256",
          "name": "value",
          "type": "uint256"
        }
      ],
      "name": "BurnFrom",
      "type": "event"
    },
    {
      "anonymous": false,
      "inputs": [
        {
          "indexed": true,
          "internalType": "address",
          "name": "from",
          "type": "address"
        },
        {
          "indexed": false,
          "internalType": "uint256",
          "name": "value",
          "type": "uint256"
        },
        {
          "indexed": true,
          "internalType": "address",
          "name": "sender",
          "type": "address"
        }
      ],
      "name": "CrosschainBurn",
      "type": "event"
    },
    {
      "anonymous": false,
      "inputs": [
        {
          "indexed": true,
          "internalType": "address",
          "name": "to",
          "type": "address"
        },
        {
          "indexed": false,
          "internalType": "uint256",
          "name": "value",
          "type": "uint256"
        },
        {
          "indexed": true,
          "internalType": "address",
          "name": "sender",
          "type": "address"
        }
      ],
      "name": "CrosschainMint",
      "type": "event"
    },
    {
      "anonymous": false,
      "inputs": [
        {
          "indexed": false,
          "internalType": "address",
          "name": "account",
          "type": "address"
        }
      ],
      "name": "Deactivated",
      "type": "event"
    },
    {
      "anonymous": false,
      "inputs": [
        {
          "indexed": true,
          "internalType": "contract IERC1643",
          "name": "newDocumentEngine",
          "type": "address"
        }
      ],
      "name": "DocumentEngine",
      "type": "event"
    },
    {
      "anonymous": false,
      "inputs": [
        {
          "indexed": true,
          "internalType": "address",
          "name": "enforcer",
          "type": "address"
        },
        {
          "indexed": true,
          "internalType": "address",
          "name": "account",
          "type": "address"
        },
        {
          "indexed": false,
          "internalType": "uint256",
          "name": "amount",
          "type": "uint256"
        },
        {
          "indexed": false,
          "internalType": "bytes",
          "name": "data",
          "type": "bytes"
        }
      ],
      "name": "Enforcement",
      "type": "event"
    },
    {
      "anonymous": false,
      "inputs": [
        {
          "indexed": false,
          "internalType": "string",
          "name": "newInformation",
          "type": "string"
        }
      ],
      "name": "Information",
      "type": "event"
    },
    {
      "anonymous": false,
      "inputs": [
        {
          "indexed": false,
          "internalType": "uint64",
          "name": "version",
          "type": "uint64"
        }
      ],
      "name": "Initialized",
      "type": "event"
    },
    {
      "anonymous": false,
      "inputs": [
        {
          "indexed": false,
          "internalType": "string",
          "name": "newMetaData",
          "type": "string"
        }
      ],
      "name": "MetaData",
      "type": "event"
    },
    {
      "anonymous": false,
      "inputs": [
        {
          "indexed": true,
          "internalType": "address",
          "name": "minter",
          "type": "address"
        },
        {
          "indexed": true,
          "internalType": "address",
          "name": "account",
          "type": "address"
        },
        {
          "indexed": false,
          "internalType": "uint256",
          "name": "value",
          "type": "uint256"
        },
        {
          "indexed": false,
          "internalType": "bytes",
          "name": "data",
          "type": "bytes"
        }
      ],
      "name": "Mint",
      "type": "event"
    },
    {
      "anonymous": false,
      "inputs": [
        {
          "indexed": true,
          "internalType": "string",
          "name": "newNameIndexed",
          "type": "string"
        },
        {
          "indexed": false,
          "internalType": "string",
          "name": "newName",
          "type": "string"
        }
      ],
      "name": "Name",
      "type": "event"
    },
    {
      "anonymous": false,
      "inputs": [
        {
          "indexed": false,
          "internalType": "address",
          "name": "account",
          "type": "address"
        }
      ],
      "name": "Paused",
      "type": "event"
    },
    {
      "anonymous": false,
      "inputs": [
        {
          "indexed": true,
          "internalType": "bytes32",
          "name": "role",
          "type": "bytes32"
        },
        {
          "indexed": true,
          "internalType": "bytes32",
          "name": "previousAdminRole",
          "type": "bytes32"
        },
        {
          "indexed": true,
          "internalType": "bytes32",
          "name": "newAdminRole",
          "type": "bytes32"
        }
      ],
      "name": "RoleAdminChanged",
      "type": "event"
    },
    {
      "anonymous": false,
      "inputs": [
        {
          "indexed": true,
          "internalType": "bytes32",
          "name": "role",
          "type": "bytes32"
        },
        {
          "indexed": true,
          "internalType": "address",
          "name": "account",
          "type": "address"
        },
        {
          "indexed": true,
          "internalType": "address",
          "name": "sender",
          "type": "address"
        }
      ],
      "name": "RoleGranted",
      "type": "event"
    },
    {
      "anonymous": false,
      "inputs": [
        {
          "indexed": true,
          "internalType": "bytes32",
          "name": "role",
          "type": "bytes32"
        },
        {
          "indexed": true,
          "internalType": "address",
          "name": "account",
          "type": "address"
        },
        {
          "indexed": true,
          "internalType": "address",
          "name": "sender",
          "type": "address"
        }
      ],
      "name": "RoleRevoked",
      "type": "event"
    },
    {
      "anonymous": false,
      "inputs": [
        {
          "indexed": true,
          "internalType": "contract IRuleEngine",
          "name": "newRuleEngine",
          "type": "address"
        }
      ],
      "name": "RuleEngine",
      "type": "event"
    },
    {
      "anonymous": false,
      "inputs": [
        {
          "indexed": true,
          "internalType": "contract ISnapshotEngine",
          "name": "newSnapshotEngine",
          "type": "address"
        }
      ],
      "name": "SnapshotEngine",
      "type": "event"
    },
    {
      "anonymous": false,
      "inputs": [
        {
          "indexed": true,
          "internalType": "address",
          "name": "account",
          "type": "address"
        },
        {
          "indexed": true,
          "internalType": "address",
          "name": "spender",
          "type": "address"
        },
        {
          "indexed": false,
          "internalType": "uint256",
          "name": "value",
          "type": "uint256"
        }
      ],
      "name": "Spend",
      "type": "event"
    },
    {
      "anonymous": false,
      "inputs": [
        {
          "indexed": true,
          "internalType": "string",
          "name": "newSymbolIndexed",
          "type": "string"
        },
        {
          "indexed": false,
          "internalType": "string",
          "name": "newSymbol",
          "type": "string"
        }
      ],
      "name": "Symbol",
      "type": "event"
    },
    {
      "anonymous": false,
      "inputs": [
        {
          "components": [
            {
              "internalType": "string",
              "name": "name",
              "type": "string"
            },
            {
              "components": [
                {
                  "internalType": "string",
                  "name": "uri",
                  "type": "string"
                },
                {
                  "internalType": "bytes32",
                  "name": "documentHash",
                  "type": "bytes32"
                },
                {
                  "internalType": "uint256",
                  "name": "lastModified",
                  "type": "uint256"
                }
              ],
              "internalType": "struct IERC1643.Document",
              "name": "doc",
              "type": "tuple"
            }
          ],
          "indexed": false,
          "internalType": "struct ICMTATBase.Terms",
          "name": "newTerm",
          "type": "tuple"
        }
      ],
      "name": "Term",
      "type": "event"
    },
    {
      "anonymous": false,
      "inputs": [
        {
          "indexed": true,
          "internalType": "string",
          "name": "newTokenIdIndexed",
          "type": "string"
        },
        {
          "indexed": false,
          "internalType": "string",
          "name": "newTokenId",
          "type": "string"
        }
      ],
      "name": "TokenId",
      "type": "event"
    },
    {
      "anonymous": false,
      "inputs": [
        {
          "indexed": true,
          "internalType": "address",
          "name": "account",
          "type": "address"
        },
        {
          "indexed": false,
          "internalType": "uint256",
          "name": "value",
          "type": "uint256"
        },
        {
          "indexed": false,
          "internalType": "bytes",
          "name": "data",
          "type": "bytes"
        }
      ],
      "name": "TokensFrozen",
      "type": "event"
    },
    {
      "anonymous": false,
      "inputs": [
        {
          "indexed": true,
          "internalType": "address",
          "name": "account",
          "type": "address"
        },
        {
          "indexed": false,
          "internalType": "uint256",
          "name": "value",
          "type": "uint256"
        },
        {
          "indexed": false,
          "internalType": "bytes",
          "name": "data",
          "type": "bytes"
        }
      ],
      "name": "TokensUnfrozen",
      "type": "event"
    },
    {
      "anonymous": false,
      "inputs": [
        {
          "indexed": true,
          "internalType": "address",
          "name": "from",
          "type": "address"
        },
        {
          "indexed": true,
          "internalType": "address",
          "name": "to",
          "type": "address"
        },
        {
          "indexed": false,
          "internalType": "uint256",
          "name": "value",
          "type": "uint256"
        }
      ],
      "name": "Transfer",
      "type": "event"
    },
    {
      "anonymous": false,
      "inputs": [
        {
          "indexed": false,
          "internalType": "address",
          "name": "account",
          "type": "address"
        }
      ],
      "name": "Unpaused",
      "type": "event"
    },
    {
      "inputs": [],
      "name": "BURNER_FROM_ROLE",
      "outputs": [
        {
          "internalType": "bytes32",
          "name": "",
          "type": "bytes32"
        }
      ],
      "stateMutability": "view",
      "type": "function"
    },
    {
      "inputs": [],
      "name": "BURNER_ROLE",
      "outputs": [
        {
          "internalType": "bytes32",
          "name": "",
          "type": "bytes32"
        }
      ],
      "stateMutability": "view",
      "type": "function"
    },
    {
      "inputs": [],
      "name": "CROSS_CHAIN_ROLE",
      "outputs": [
        {
          "internalType": "bytes32",
          "name": "",
          "type": "bytes32"
        }
      ],
      "stateMutability": "view",
      "type": "function"
    },
    {
      "inputs": [],
      "name": "DEFAULT_ADMIN_ROLE",
      "outputs": [
        {
          "internalType": "bytes32",
          "name": "",
          "type": "bytes32"
        }
      ],
      "stateMutability": "view",
      "type": "function"
    },
    {
      "inputs": [],
      "name": "DOCUMENT_ROLE",
      "outputs": [
        {
          "internalType": "bytes32",
          "name": "",
          "type": "bytes32"
        }
      ],
      "stateMutability": "view",
      "type": "function"
    },
    {
      "inputs": [],
      "name": "ENFORCER_ROLE",
      "outputs": [
        {
          "internalType": "bytes32",
          "name": "",
          "type": "bytes32"
        }
      ],
      "stateMutability": "view",
      "type": "function"
    },
    {
      "inputs": [],
      "name": "ERC20ENFORCER_ROLE",
      "outputs": [
        {
          "internalType": "bytes32",
          "name": "",
          "type": "bytes32"
        }
      ],
      "stateMutability": "view",
      "type": "function"
    },
    {
      "inputs": [],
      "name": "EXTRA_INFORMATION_ROLE",
      "outputs": [
        {
          "internalType": "bytes32",
          "name": "",
          "type": "bytes32"
        }
      ],
      "stateMutability": "view",
      "type": "function"
    },
    {
      "inputs": [],
      "name": "MINTER_ROLE",
      "outputs": [
        {
          "internalType": "bytes32",
          "name": "",
          "type": "bytes32"
        }
      ],
      "stateMutability": "view",
      "type": "function"
    },
    {
      "inputs": [],
      "name": "PAUSER_ROLE",
      "outputs": [
        {
          "internalType": "bytes32",
          "name": "",
          "type": "bytes32"
        }
      ],
      "stateMutability": "view",
      "type": "function"
    },
    {
      "inputs": [],
      "name": "SNAPSHOOTER_ROLE",
      "outputs": [
        {
          "internalType": "bytes32",
          "name": "",
          "type": "bytes32"
        }
      ],
      "stateMutability": "view",
      "type": "function"
    },
    {
      "inputs": [
        {
          "internalType": "address",
          "name": "owner",
          "type": "address"
        },
        {
          "internalType": "address",
          "name": "spender",
          "type": "address"
        }
      ],
      "name": "allowance",
      "outputs": [
        {
          "internalType": "uint256",
          "name": "",
          "type": "uint256"
        }
      ],
      "stateMutability": "view",
      "type": "function"
    },
    {
      "inputs": [
        {
          "internalType": "address",
          "name": "spender",
          "type": "address"
        },
        {
          "internalType": "uint256",
          "name": "value",
          "type": "uint256"
        }
      ],
      "name": "approve",
      "outputs": [
        {
          "internalType": "bool",
          "name": "",
          "type": "bool"
        }
      ],
      "stateMutability": "nonpayable",
      "type": "function"
    },
    {
      "inputs": [
        {
          "internalType": "address",
          "name": "account",
          "type": "address"
        }
      ],
      "name": "balanceOf",
      "outputs": [
        {
          "internalType": "uint256",
          "name": "",
          "type": "uint256"
        }
      ],
      "stateMutability": "view",
      "type": "function"
    },
    {
      "inputs": [
        {
          "internalType": "address[]",
          "name": "addresses",
          "type": "address[]"
        }
      ],
      "name": "batchBalanceOf",
      "outputs": [
        {
          "internalType": "uint256[]",
          "name": "balances",
          "type": "uint256[]"
        },
        {
          "internalType": "uint256",
          "name": "totalSupply_",
          "type": "uint256"
        }
      ],
      "stateMutability": "view",
      "type": "function"
    },
    {
      "inputs": [
        {
          "internalType": "address[]",
          "name": "accounts",
          "type": "address[]"
        },
        {
          "internalType": "uint256[]",
          "name": "values",
          "type": "uint256[]"
        }
      ],
      "name": "batchBurn",
      "outputs": [],
      "stateMutability": "nonpayable",
      "type": "function"
    },
    {
      "inputs": [
        {
          "internalType": "address[]",
          "name": "accounts",
          "type": "address[]"
        },
        {
          "internalType": "uint256[]",
          "name": "values",
          "type": "uint256[]"
        },
        {
          "internalType": "bytes",
          "name": "data",
          "type": "bytes"
        }
      ],
      "name": "batchBurn",
      "outputs": [],
      "stateMutability": "nonpayable",
      "type": "function"
    },
    {
      "inputs": [
        {
          "internalType": "address[]",
          "name": "accounts",
          "type": "address[]"
        },
        {
          "internalType": "uint256[]",
          "name": "values",
          "type": "uint256[]"
        }
      ],
      "name": "batchMint",
      "outputs": [],
      "stateMutability": "nonpayable",
      "type": "function"
    },
    {
      "inputs": [
        {
          "internalType": "address[]",
          "name": "accounts",
          "type": "address[]"
        },
        {
          "internalType": "bool[]",
          "name": "freezes",
          "type": "bool[]"
        }
      ],
      "name": "batchSetAddressFrozen",
      "outputs": [],
      "stateMutability": "nonpayable",
      "type": "function"
    },
    {
      "inputs": [
        {
          "internalType": "address[]",
          "name": "tos",
          "type": "address[]"
        },
        {
          "internalType": "uint256[]",
          "name": "values",
          "type": "uint256[]"
        }
      ],
      "name": "batchTransfer",
      "outputs": [
        {
          "internalType": "bool",
          "name": "success_",
          "type": "bool"
        }
      ],
      "stateMutability": "nonpayable",
      "type": "function"
    },
    {
      "inputs": [
        {
          "internalType": "uint256",
          "name": "value",
          "type": "uint256"
        }
      ],
      "name": "burn",
      "outputs": [],
      "stateMutability": "nonpayable",
      "type": "function"
    },
    {
      "inputs": [
        {
          "internalType": "address",
          "name": "account",
          "type": "address"
        },
        {
          "internalType": "uint256",
          "name": "value",
          "type": "uint256"
        },
        {
          "internalType": "bytes",
          "name": "data",
          "type": "bytes"
        }
      ],
      "name": "burn",
      "outputs": [],
      "stateMutability": "nonpayable",
      "type": "function"
    },
    {
      "inputs": [
        {
          "internalType": "address",
          "name": "account",
          "type": "address"
        },
        {
          "internalType": "uint256",
          "name": "value",
          "type": "uint256"
        }
      ],
      "name": "burn",
      "outputs": [],
      "stateMutability": "nonpayable",
      "type": "function"
    },
    {
      "inputs": [
        {
          "internalType": "address",
          "name": "from",
          "type": "address"
        },
        {
          "internalType": "address",
          "name": "to",
          "type": "address"
        },
        {
          "internalType": "uint256",
          "name": "amountToBurn",
          "type": "uint256"
        },
        {
          "internalType": "uint256",
          "name": "amountToMint",
          "type": "uint256"
        },
        {
          "internalType": "bytes",
          "name": "data",
          "type": "bytes"
        }
      ],
      "name": "burnAndMint",
      "outputs": [],
      "stateMutability": "nonpayable",
      "type": "function"
    },
    {
      "inputs": [
        {
          "internalType": "address",
          "name": "account",
          "type": "address"
        },
        {
          "internalType": "uint256",
          "name": "value",
          "type": "uint256"
        }
      ],
      "name": "burnFrom",
      "outputs": [],
      "stateMutability": "nonpayable",
      "type": "function"
    },
    {
      "inputs": [
        {
          "internalType": "address",
          "name": "from",
          "type": "address"
        },
        {
          "internalType": "address",
          "name": "to",
          "type": "address"
        },
        {
          "internalType": "uint256",
          "name": "value",
          "type": "uint256"
        }
      ],
      "name": "canTransfer",
      "outputs": [
        {
          "internalType": "bool",
          "name": "",
          "type": "bool"
        }
      ],
      "stateMutability": "view",
      "type": "function"
    },
    {
      "inputs": [
        {
          "internalType": "address",
          "name": "spender",
          "type": "address"
        },
        {
          "internalType": "address",
          "name": "from",
          "type": "address"
        },
        {
          "internalType": "address",
          "name": "to",
          "type": "address"
        },
        {
          "internalType": "uint256",
          "name": "value",
          "type": "uint256"
        }
      ],
      "name": "canTransferFrom",
      "outputs": [
        {
          "internalType": "bool",
          "name": "",
          "type": "bool"
        }
      ],
      "stateMutability": "view",
      "type": "function"
    },
    {
      "inputs": [
        {
          "internalType": "address",
          "name": "from",
          "type": "address"
        },
        {
          "internalType": "uint256",
          "name": "value",
          "type": "uint256"
        }
      ],
      "name": "crosschainBurn",
      "outputs": [],
      "stateMutability": "nonpayable",
      "type": "function"
    },
    {
      "inputs": [
        {
          "internalType": "address",
          "name": "to",
          "type": "address"
        },
        {
          "internalType": "uint256",
          "name": "value",
          "type": "uint256"
        }
      ],
      "name": "crosschainMint",
      "outputs": [],
      "stateMutability": "nonpayable",
      "type": "function"
    },
    {
      "inputs": [],
      "name": "deactivateContract",
      "outputs": [],
      "stateMutability": "nonpayable",
      "type": "function"
    },
    {
      "inputs": [],
      "name": "deactivated",
      "outputs": [
        {
          "internalType": "bool",
          "name": "",
          "type": "bool"
        }
      ],
      "stateMutability": "view",
      "type": "function"
    },
    {
      "inputs": [],
      "name": "decimals",
      "outputs": [
        {
          "internalType": "uint8",
          "name": "",
          "type": "uint8"
        }
      ],
      "stateMutability": "view",
      "type": "function"
    },
    {
      "inputs": [
        {
          "internalType": "address",
          "name": "from",
          "type": "address"
        },
        {
          "internalType": "address",
          "name": "to",
          "type": "address"
        },
        {
          "internalType": "uint256",
          "name": "value",
          "type": "uint256"
        }
      ],
      "name": "detectTransferRestriction",
      "outputs": [
        {
          "internalType": "uint8",
          "name": "code",
          "type": "uint8"
        }
      ],
      "stateMutability": "view",
      "type": "function"
    },
    {
      "inputs": [
        {
          "internalType": "address",
          "name": "spender",
          "type": "address"
        },
        {
          "internalType": "address",
          "name": "from",
          "type": "address"
        },
        {
          "internalType": "address",
          "name": "to",
          "type": "address"
        },
        {
          "internalType": "uint256",
          "name": "value",
          "type": "uint256"
        }
      ],
      "name": "detectTransferRestrictionFrom",
      "outputs": [
        {
          "internalType": "uint8",
          "name": "code",
          "type": "uint8"
        }
      ],
      "stateMutability": "view",
      "type": "function"
    },
    {
      "inputs": [],
      "name": "documentEngine",
      "outputs": [
        {
          "internalType": "contract IERC1643",
          "name": "documentEngine_",
          "type": "address"
        }
      ],
      "stateMutability": "view",
      "type": "function"
    },
    {
      "inputs": [
        {
          "internalType": "address",
          "name": "from",
          "type": "address"
        },
        {
          "internalType": "address",
          "name": "to",
          "type": "address"
        },
        {
          "internalType": "uint256",
          "name": "value",
          "type": "uint256"
        },
        {
          "internalType": "bytes",
          "name": "data",
          "type": "bytes"
        }
      ],
      "name": "forcedTransfer",
      "outputs": [
        {
          "internalType": "bool",
          "name": "",
          "type": "bool"
        }
      ],
      "stateMutability": "nonpayable",
      "type": "function"
    },
    {
      "inputs": [
        {
          "internalType": "address",
          "name": "from",
          "type": "address"
        },
        {
          "internalType": "address",
          "name": "to",
          "type": "address"
        },
        {
          "internalType": "uint256",
          "name": "value",
          "type": "uint256"
        }
      ],
      "name": "forcedTransfer",
      "outputs": [
        {
          "internalType": "bool",
          "name": "",
          "type": "bool"
        }
      ],
      "stateMutability": "nonpayable",
      "type": "function"
    },
    {
      "inputs": [
        {
          "internalType": "address",
          "name": "account",
          "type": "address"
        },
        {
          "internalType": "uint256",
          "name": "value",
          "type": "uint256"
        }
      ],
      "name": "freezePartialTokens",
      "outputs": [],
      "stateMutability": "nonpayable",
      "type": "function"
    },
    {
      "inputs": [
        {
          "internalType": "address",
          "name": "account",
          "type": "address"
        },
        {
          "internalType": "uint256",
          "name": "value",
          "type": "uint256"
        },
        {
          "internalType": "bytes",
          "name": "data",
          "type": "bytes"
        }
      ],
      "name": "freezePartialTokens",
      "outputs": [],
      "stateMutability": "nonpayable",
      "type": "function"
    },
    {
      "inputs": [
        {
          "internalType": "address",
          "name": "account",
          "type": "address"
        }
      ],
      "name": "getActiveBalanceOf",
      "outputs": [
        {
          "internalType": "uint256",
          "name": "",
          "type": "uint256"
        }
      ],
      "stateMutability": "view",
      "type": "function"
    },
    {
      "inputs": [],
      "name": "getAllDocuments",
      "outputs": [
        {
          "internalType": "string[]",
          "name": "documentNames_",
          "type": "string[]"
        }
      ],
      "stateMutability": "view",
      "type": "function"
    },
    {
      "inputs": [
        {
          "internalType": "string",
          "name": "name",
          "type": "string"
        }
      ],
      "name": "getDocument",
      "outputs": [
        {
          "components": [
            {
              "internalType": "string",
              "name": "uri",
              "type": "string"
            },
            {
              "internalType": "bytes32",
              "name": "documentHash",
              "type": "bytes32"
            },
            {
              "internalType": "uint256",
              "name": "lastModified",
              "type": "uint256"
            }
          ],
          "internalType": "struct IERC1643.Document",
          "name": "document",
          "type": "tuple"
        }
      ],
      "stateMutability": "view",
      "type": "function"
    },
    {
      "inputs": [
        {
          "internalType": "address",
          "name": "account",
          "type": "address"
        }
      ],
      "name": "getFrozenTokens",
      "outputs": [
        {
          "internalType": "uint256",
          "name": "",
          "type": "uint256"
        }
      ],
      "stateMutability": "view",
      "type": "function"
    },
    {
      "inputs": [
        {
          "internalType": "bytes32",
          "name": "role",
          "type": "bytes32"
        }
      ],
      "name": "getRoleAdmin",
      "outputs": [
        {
          "internalType": "bytes32",
          "name": "",
          "type": "bytes32"
        }
      ],
      "stateMutability": "view",
      "type": "function"
    },
    {
      "inputs": [
        {
          "internalType": "bytes32",
          "name": "role",
          "type": "bytes32"
        },
        {
          "internalType": "address",
          "name": "account",
          "type": "address"
        }
      ],
      "name": "grantRole",
      "outputs": [],
      "stateMutability": "nonpayable",
      "type": "function"
    },
    {
      "inputs": [
        {
          "internalType": "bytes32",
          "name": "role",
          "type": "bytes32"
        },
        {
          "internalType": "address",
          "name": "account",
          "type": "address"
        }
      ],
      "name": "hasRole",
      "outputs": [
        {
          "internalType": "bool",
          "name": "",
          "type": "bool"
        }
      ],
      "stateMutability": "view",
      "type": "function"
    },
    {
      "inputs": [],
      "name": "information",
      "outputs": [
        {
          "internalType": "string",
          "name": "information_",
          "type": "string"
        }
      ],
      "stateMutability": "view",
      "type": "function"
    },
    {
      "inputs": [
        {
          "internalType": "address",
          "name": "admin",
          "type": "address"
        },
        {
          "components": [
            {
              "internalType": "string",
              "name": "name",
              "type": "string"
            },
            {
              "internalType": "string",
              "name": "symbol",
              "type": "string"
            },
            {
              "internalType": "uint8",
              "name": "decimalsIrrevocable",
              "type": "uint8"
            }
          ],
          "internalType": "struct ICMTATConstructor.ERC20Attributes",
          "name": "ERC20Attributes_",
          "type": "tuple"
        },
        {
          "components": [
            {
              "internalType": "string",
              "name": "tokenId",
              "type": "string"
            },
            {
              "components": [
                {
                  "internalType": "string",
                  "name": "name",
                  "type": "string"
                },
                {
                  "internalType": "string",
                  "name": "uri",
                  "type": "string"
                },
                {
                  "internalType": "bytes32",
                  "name": "documentHash",
                  "type": "bytes32"
                }
              ],
              "internalType": "struct IERC1643CMTAT.DocumentInfo",
              "name": "terms",
              "type": "tuple"
            },
            {
              "internalType": "string",
              "name": "information",
              "type": "string"
            }
          ],
          "internalType": "struct ICMTATConstructor.ExtraInformationAttributes",
          "name": "extraInformationAttributes_",
          "type": "tuple"
        },
        {
          "components": [
            {
              "internalType": "contract IRuleEngine",
              "name": "ruleEngine",
              "type": "address"
            },
            {
              "internalType": "contract ISnapshotEngine",
              "name": "snapshotEngine",
              "type": "address"
            },
            {
              "internalType": "contract IERC1643",
              "name": "documentEngine",
              "type": "address"
            }
          ],
          "internalType": "struct ICMTATConstructor.Engine",
          "name": "engines_",
          "type": "tuple"
        }
      ],
      "name": "initialize",
      "outputs": [],
      "stateMutability": "nonpayable",
      "type": "function"
    },
    {
      "inputs": [
        {
          "internalType": "address",
          "name": "account",
          "type": "address"
        }
      ],
      "name": "isFrozen",
      "outputs": [
        {
          "internalType": "bool",
          "name": "isFrozen_",
          "type": "bool"
        }
      ],
      "stateMutability": "view",
      "type": "function"
    },
    {
      "inputs": [
        {
          "internalType": "address",
          "name": "forwarder",
          "type": "address"
        }
      ],
      "name": "isTrustedForwarder",
      "outputs": [
        {
          "internalType": "bool",
          "name": "",
          "type": "bool"
        }
      ],
      "stateMutability": "view",
      "type": "function"
    },
    {
      "inputs": [
        {
          "internalType": "uint8",
          "name": "restrictionCode",
          "type": "uint8"
        }
      ],
      "name": "messageForTransferRestriction",
      "outputs": [
        {
          "internalType": "string",
          "name": "message",
          "type": "string"
        }
      ],
      "stateMutability": "view",
      "type": "function"
    },
    {
      "inputs": [],
      "name": "metaData",
      "outputs": [
        {
          "internalType": "string",
          "name": "metadata_",
          "type": "string"
        }
      ],
      "stateMutability": "view",
      "type": "function"
    },
    {
      "inputs": [
        {
          "internalType": "address",
          "name": "account",
          "type": "address"
        },
        {
          "internalType": "uint256",
          "name": "value",
          "type": "uint256"
        }
      ],
      "name": "mint",
      "outputs": [],
      "stateMutability": "nonpayable",
      "type": "function"
    },
    {
      "inputs": [
        {
          "internalType": "address",
          "name": "account",
          "type": "address"
        },
        {
          "internalType": "uint256",
          "name": "value",
          "type": "uint256"
        },
        {
          "internalType": "bytes",
          "name": "data",
          "type": "bytes"
        }
      ],
      "name": "mint",
      "outputs": [],
      "stateMutability": "nonpayable",
      "type": "function"
    },
    {
      "inputs": [],
      "name": "name",
      "outputs": [
        {
          "internalType": "string",
          "name": "",
          "type": "string"
        }
      ],
      "stateMutability": "view",
      "type": "function"
    },
    {
      "inputs": [],
      "name": "pause",
      "outputs": [],
      "stateMutability": "nonpayable",
      "type": "function"
    },
    {
      "inputs": [],
      "name": "paused",
      "outputs": [
        {
          "internalType": "bool",
          "name": "",
          "type": "bool"
        }
      ],
      "stateMutability": "view",
      "type": "function"
    },
    {
      "inputs": [
        {
          "internalType": "bytes32",
          "name": "role",
          "type": "bytes32"
        },
        {
          "internalType": "address",
          "name": "callerConfirmation",
          "type": "address"
        }
      ],
      "name": "renounceRole",
      "outputs": [],
      "stateMutability": "nonpayable",
      "type": "function"
    },
    {
      "inputs": [
        {
          "internalType": "bytes32",
          "name": "role",
          "type": "bytes32"
        },
        {
          "internalType": "address",
          "name": "account",
          "type": "address"
        }
      ],
      "name": "revokeRole",
      "outputs": [],
      "stateMutability": "nonpayable",
      "type": "function"
    },
    {
      "inputs": [],
      "name": "ruleEngine",
      "outputs": [
        {
          "internalType": "contract IRuleEngine",
          "name": "",
          "type": "address"
        }
      ],
      "stateMutability": "view",
      "type": "function"
    },
    {
      "inputs": [
        {
          "internalType": "address",
          "name": "account",
          "type": "address"
        },
        {
          "internalType": "bool",
          "name": "freeze",
          "type": "bool"
        },
        {
          "internalType": "bytes",
          "name": "data",
          "type": "bytes"
        }
      ],
      "name": "setAddressFrozen",
      "outputs": [],
      "stateMutability": "nonpayable",
      "type": "function"
    },
    {
      "inputs": [
        {
          "internalType": "address",
          "name": "account",
          "type": "address"
        },
        {
          "internalType": "bool",
          "name": "freeze",
          "type": "bool"
        }
      ],
      "name": "setAddressFrozen",
      "outputs": [],
      "stateMutability": "nonpayable",
      "type": "function"
    },
    {
      "inputs": [
        {
          "internalType": "contract IERC1643",
          "name": "documentEngine_",
          "type": "address"
        }
      ],
      "name": "setDocumentEngine",
      "outputs": [],
      "stateMutability": "nonpayable",
      "type": "function"
    },
    {
      "inputs": [
        {
          "internalType": "string",
          "name": "information_",
          "type": "string"
        }
      ],
      "name": "setInformation",
      "outputs": [],
      "stateMutability": "nonpayable",
      "type": "function"
    },
    {
      "inputs": [
        {
          "internalType": "string",
          "name": "metadata_",
          "type": "string"
        }
      ],
      "name": "setMetaData",
      "outputs": [],
      "stateMutability": "nonpayable",
      "type": "function"
    },
    {
      "inputs": [
        {
          "internalType": "string",
          "name": "name_",
          "type": "string"
        }
      ],
      "name": "setName",
      "outputs": [],
      "stateMutability": "nonpayable",
      "type": "function"
    },
    {
      "inputs": [
        {
          "internalType": "contract IRuleEngine",
          "name": "ruleEngine_",
          "type": "address"
        }
      ],
      "name": "setRuleEngine",
      "outputs": [],
      "stateMutability": "nonpayable",
      "type": "function"
    },
    {
      "inputs": [
        {
          "internalType": "contract ISnapshotEngine",
          "name": "snapshotEngine_",
          "type": "address"
        }
      ],
      "name": "setSnapshotEngine",
      "outputs": [],
      "stateMutability": "nonpayable",
      "type": "function"
    },
    {
      "inputs": [
        {
          "internalType": "string",
          "name": "symbol_",
          "type": "string"
        }
      ],
      "name": "setSymbol",
      "outputs": [],
      "stateMutability": "nonpayable",
      "type": "function"
    },
    {
      "inputs": [
        {
          "internalType": "bytes32",
          "name": "hash",
          "type": "bytes32"
        },
        {
          "internalType": "string",
          "name": "uri",
          "type": "string"
        }
      ],
      "name": "setTerms",
      "outputs": [],
      "stateMutability": "nonpayable",
      "type": "function"
    },
    {
      "inputs": [
        {
          "components": [
            {
              "internalType": "string",
              "name": "name",
              "type": "string"
            },
            {
              "internalType": "string",
              "name": "uri",
              "type": "string"
            },
            {
              "internalType": "bytes32",
              "name": "documentHash",
              "type": "bytes32"
            }
          ],
          "internalType": "struct IERC1643CMTAT.DocumentInfo",
          "name": "terms_",
          "type": "tuple"
        }
      ],
      "name": "setTerms",
      "outputs": [],
      "stateMutability": "nonpayable",
      "type": "function"
    },
    {
      "inputs": [
        {
          "internalType": "string",
          "name": "tokenId_",
          "type": "string"
        }
      ],
      "name": "setTokenId",
      "outputs": [],
      "stateMutability": "nonpayable",
      "type": "function"
    },
    {
      "inputs": [],
      "name": "snapshotEngine",
      "outputs": [
        {
          "internalType": "contract ISnapshotEngine",
          "name": "",
          "type": "address"
        }
      ],
      "stateMutability": "view",
      "type": "function"
    },
    {
      "inputs": [
        {
          "internalType": "bytes4",
          "name": "interfaceId",
          "type": "bytes4"
        }
      ],
      "name": "supportsInterface",
      "outputs": [
        {
          "internalType": "bool",
          "name": "",
          "type": "bool"
        }
      ],
      "stateMutability": "view",
      "type": "function"
    },
    {
      "inputs": [],
      "name": "symbol",
      "outputs": [
        {
          "internalType": "string",
          "name": "",
          "type": "string"
        }
      ],
      "stateMutability": "view",
      "type": "function"
    },
    {
      "inputs": [],
      "name": "terms",
      "outputs": [
        {
          "components": [
            {
              "internalType": "string",
              "name": "name",
              "type": "string"
            },
            {
              "components": [
                {
                  "internalType": "string",
                  "name": "uri",
                  "type": "string"
                },
                {
                  "internalType": "bytes32",
                  "name": "documentHash",
                  "type": "bytes32"
                },
                {
                  "internalType": "uint256",
                  "name": "lastModified",
                  "type": "uint256"
                }
              ],
              "internalType": "struct IERC1643.Document",
              "name": "doc",
              "type": "tuple"
            }
          ],
          "internalType": "struct ICMTATBase.Terms",
          "name": "terms_",
          "type": "tuple"
        }
      ],
      "stateMutability": "view",
      "type": "function"
    },
    {
      "inputs": [],
      "name": "termsHash",
      "outputs": [
        {
          "internalType": "bytes32",
          "name": "hash_",
          "type": "bytes32"
        }
      ],
      "stateMutability": "view",
      "type": "function"
    },
    {
      "inputs": [],
      "name": "tokenId",
      "outputs": [
        {
          "internalType": "string",
          "name": "tokenId_",
          "type": "string"
        }
      ],
      "stateMutability": "view",
      "type": "function"
    },
    {
      "inputs": [],
      "name": "totalSupply",
      "outputs": [
        {
          "internalType": "uint256",
          "name": "",
          "type": "uint256"
        }
      ],
      "stateMutability": "view",
      "type": "function"
    },
    {
      "inputs": [
        {
          "internalType": "address",
          "name": "to",
          "type": "address"
        },
        {
          "internalType": "uint256",
          "name": "value",
          "type": "uint256"
        }
      ],
      "name": "transfer",
      "outputs": [
        {
          "internalType": "bool",
          "name": "",
          "type": "bool"
        }
      ],
      "stateMutability": "nonpayable",
      "type": "function"
    },
    {
      "inputs": [
        {
          "internalType": "address",
          "name": "from",
          "type": "address"
        },
        {
          "internalType": "address",
          "name": "to",
          "type": "address"
        },
        {
          "internalType": "uint256",
          "name": "value",
          "type": "uint256"
        }
      ],
      "name": "transferFrom",
      "outputs": [
        {
          "internalType": "bool",
          "name": "",
          "type": "bool"
        }
      ],
      "stateMutability": "nonpayable",
      "type": "function"
    },
    {
      "inputs": [],
      "name": "trustedForwarder",
      "outputs": [
        {
          "internalType": "address",
          "name": "",
          "type": "address"
        }
      ],
      "stateMutability": "view",
      "type": "function"
    },
    {
      "inputs": [
        {
          "internalType": "address",
          "name": "account",
          "type": "address"
        },
        {
          "internalType": "uint256",
          "name": "value",
          "type": "uint256"
        }
      ],
      "name": "unfreezePartialTokens",
      "outputs": [],
      "stateMutability": "nonpayable",
      "type": "function"
    },
    {
      "inputs": [
        {
          "internalType": "address",
          "name": "account",
          "type": "address"
        },
        {
          "internalType": "uint256",
          "name": "value",
          "type": "uint256"
        },
        {
          "internalType": "bytes",
          "name": "data",
          "type": "bytes"
        }
      ],
      "name": "unfreezePartialTokens",
      "outputs": [],
      "stateMutability": "nonpayable",
      "type": "function"
    },
    {
      "inputs": [],
      "name": "unpause",
      "outputs": [],
      "stateMutability": "nonpayable",
      "type": "function"
    },
    {
      "inputs": [],
      "name": "version",
      "outputs": [
        {
          "internalType": "string",
          "name": "version_",
          "type": "string"
        }
      ],
      "stateMutability": "view",
      "type": "function"
    }
  ],
  "bytecode": "0x60a060405234801561000f575f5ffd5b506040516163bb3803806163bb83398101604081905261002e91610a59565b6001600160a01b03851660805261004784848484610051565b5050505050610e23565b5f61005a610157565b805490915060ff6801000000000000000082041615906001600160401b03165f811580156100855750825b90505f826001600160401b031660011480156100a05750303b155b9050811580156100ae575080155b156100cc5760405163f92ee8a960e01b815260040160405180910390fd5b84546001600160401b031916600117855583156100fa57845460ff60401b1916680100000000000000001785555b61010689898989610181565b831561014c57845460ff60401b19168555604051600181527fc7f505b2f371ae2175ee4913f4499e1f2633a7b5936321eed1cdaeb6115181d29060200160405180910390a15b505050505050505050565b5f807ff0c57e16840df040f15088dc2f81fe391c3923bec73e23a9662efc9c229c6a005b92915050565b6101896101bc565b6101916101e3565b6101996101e3565b6101a16101eb565b6101aa81610203565b6101b684848484610219565b50505050565b6101c461023c565b6101e157604051631afcd79f60e31b815260040160405180910390fd5b565b6101e16101bc565b6101f36101bc565b6101fb6101e3565b6101e16101e3565b61020b6101bc565b80516102169061025a565b50565b6102216101bc565b6101b68484848460200151856040015161027a60201b60201c565b5f610245610157565b5468010000000000000000900460ff16919050565b6102626101bc565b6001600160a01b0381161561021657610216816102d2565b6102826101bc565b61028b8561033a565b6040840151845160208601516102a2929190610377565b8251602084015160408501516102b99291906103e7565b6102c28261042e565b6102cb81610470565b5050505050565b7f77c8cc897d160e7bf5b10921804e357da17ae27460d4a6b5d9b27ffddf159d0080546001600160a01b0319166001600160a01b03831690811782556040517f37213fe93a5aae50df0ef53f98b81c048e51b3ab2969309a103a647e44b61918905f90a25050565b6103426101bc565b6001600160a01b0381166103695760405163011d80f760e01b815260040160405180910390fd5b6103735f826104b2565b5050565b61037f6101bc565b7f9bd8d607565c0370ae5f91651ca67fd26d4438022bf72037316600e29e6a3a00805460ff191660ff85161781557f9bd8d607565c0370ae5f91651ca67fd26d4438022bf72037316600e29e6a3a026103d88382610bec565b50600181016102cb8482610bec565b6103ef6101bc565b7fd2d5d34c4a4dea00599692d3257c0aebc5e0359176118cd2364ab9b008c2d10061041a818561055b565b61042481846105b8565b6101b6818361062e565b6104366101bc565b6001600160a01b03811615610216577f1387b97dfab601d3023cb57858a6be29329babb05c85597ddbe4926c1193a900610373818361066c565b6104786101bc565b6001600160a01b03811615610216577fbd0905600c85d707dc53eba2e146c1c2527cd32ac3ff6b86846155151b3e270061037381836106b3565b5f5f51602061639b5f395f51905f526104cb84846106fa565b61054b575f848152602082815260408083206001600160a01b03871684529091529020805460ff1916600117905561050161070c565b6001600160a01b0316836001600160a01b0316857f2f8788117e7eff1d82e926ec794901d17c78024a50270940304540a733656f0d60405160405180910390a4600191505061017b565b5f91505061017b565b5092915050565b816105668282610bec565b50806040516105759190610ca6565b60405180910390207f6403c68076c59949275ad9be2137a73c51043d7d6af6a38473047a0bc45df492826040516105ac9190610cbc565b60405180910390a25050565b805160018301906105c99082610bec565b5060408101516003830155602081015160028301906105e89082610bec565b504260048301556040517f581e063ae59068f13a21b5707b10eee615c714e8939e873cf5b90b8254d9979c90610622906001850190610d70565b60405180910390a15050565b6005820161063c8282610bec565b507fff8fea957fb7cb582ef297c1c74436fe7a9914efbc52adf197600dc9d171efbc816040516106229190610cbc565b81546001600160a01b0319166001600160a01b03821690811783556040517f3dc265c6e8a49e40f12f64811a094f799e44b4d033c7478793093908cbbb5bca905f90a25050565b81546001600160a01b0319166001600160a01b03821690811783556040517f24456fffb8d75313fe808b19e17ae308e592a8159329a02fb396773d5aacbd10905f90a25050565b5f610705838361071a565b9392505050565b5f610715610725565b905090565b5f610705838361072e565b5f610715610739565b5f610705838361077f565b5f36601480821080159061075157506107513361078a565b156107775761076436828403815f610dc6565b61076d91610ded565b60601c9250505090565b339250505090565b5f61070583836107af565b5f61079460805190565b6001600160a01b0316826001600160a01b0316149050919050565b6001600160a01b0381165f9081527fb7db2dd08fcb62d0c9e08c51941cae53c267786a0b75803fb7960902fc8ef97d602052604081205460ff16156107f65750600161017b565b505f8281525f51602061639b5f395f51905f52602090815260408083206001600160a01b038516845290915290205460ff1661017b565b6001600160a01b0381168114610216575f5ffd5b634e487b7160e01b5f52604160045260245ffd5b604051606081016001600160401b038111828210171561087757610877610841565b60405290565b5f82601f83011261088c575f5ffd5b81516001600160401b038111156108a5576108a5610841565b604051601f8201601f19908116603f011681016001600160401b03811182821017156108d3576108d3610841565b6040528181528382016020018510156108ea575f5ffd5b8160208501602083015e5f918101602001919091529392505050565b5f60608284031215610916575f5ffd5b61091e610855565b82519091506001600160401b03811115610936575f5ffd5b6109428482850161087d565b82525060208201516001600160401b0381111561095d575f5ffd5b82016060818503121561096e575f5ffd5b610976610855565b81516001600160401b0381111561098b575f5ffd5b6109978682850161087d565b82525060208201516001600160401b038111156109b2575f5ffd5b6109be8682850161087d565b60208381019190915260409384015184840152840191909152508201516001600160401b038111156109ee575f5ffd5b6109fa8482850161087d565b60408301525092915050565b5f60608284031215610a16575f5ffd5b610a1e610855565b90508151610a2b8161082d565b81526020820151610a3b8161082d565b60208201526040820151610a4e8161082d565b604082015292915050565b5f5f5f5f5f60e08688031215610a6d575f5ffd5b8551610a788161082d565b6020870151909550610a898161082d565b60408701519094506001600160401b03811115610aa4575f5ffd5b860160608189031215610ab5575f5ffd5b610abd610855565b81516001600160401b03811115610ad2575f5ffd5b610ade8a82850161087d565b82525060208201516001600160401b03811115610af9575f5ffd5b610b058a82850161087d565b6020830152506040820151915060ff82168214610b20575f5ffd5b604081019190915260608701519093506001600160401b03811115610b43575f5ffd5b610b4f88828901610906565b925050610b5f8760808801610a06565b90509295509295909350565b600181811c90821680610b7f57607f821691505b602082108103610b9d57634e487b7160e01b5f52602260045260245ffd5b50919050565b601f821115610be757805f5260205f20601f840160051c81016020851015610bc85750805b601f840160051c820191505b818110156102cb575f8155600101610bd4565b505050565b81516001600160401b03811115610c0557610c05610841565b610c1981610c138454610b6b565b84610ba3565b6020601f821160018114610c4b575f8315610c345750848201515b5f19600385901b1c1916600184901b1784556102cb565b5f84815260208120601f198516915b82811015610c7a5787850151825560209485019460019092019101610c5a565b5084821015610c9757868401515f19600387901b60f8161c191681555b50505050600190811b01905550565b5f82518060208501845e5f920191825250919050565b602081525f82518060208401528060208501604085015e5f604082850101526040601f19601f83011684010191505092915050565b5f8154610cfd81610b6b565b808552600182168015610d175760018114610d3357610d67565b60ff1983166020870152602082151560051b8701019350610d67565b845f5260205f205f5b83811015610d5e5781546020828a010152600182019150602081019050610d3c565b87016020019450505b50505092915050565b60208152604060208201525f610d896060830184610cf1565b601f1983820301604084015260608152610da96060820160018601610cf1565b600285015460208301526003909401546040909101525090919050565b5f5f85851115610dd4575f5ffd5b83861115610de0575f5ffd5b5050820193919092039150565b80356001600160601b03198116906014841015610554576001600160601b031960149490940360031b84901b1690921692915050565b608051615552610e495f395f81816107f9015281816108b30152613ae101526155525ff3fe608060405234801561000f575f5ffd5b50600436106104b1575f3560e01c80637ccb6a641161026e578063bca353be11610156578063d821f81a116100ca578063e236aabf1161008f578063e236aabf14610b3c578063e46638e614610b4f578063e583983614610b62578063e63ab1e914610b75578063f47b774014610b9c578063fcf196b414610ba4575f5ffd5b8063d821f81a14610adc578063dcfd616f14610aef578063dd347bef14610b02578063dd62ed3e14610b15578063e1833a2f14610b28575f5ffd5b8063d32c7bb51161011b578063d32c7bb514610a67578063d4ce141514610a7a578063d502562514610a8d578063d539139314610aa2578063d547741f14610ab6578063d7ffbbaa14610ac9575f5ffd5b8063bca353be14610a1e578063c47f002714610a26578063c69c09cf14610a39578063ce34e6eb14610a4c578063cf790d8d14610a5f575f5ffd5b80639fa5f50b116101ed578063a9059cbb116101b2578063a9059cbb146109c2578063a99ac245146109d5578063b1f5569f146109e8578063b311d9fd146109fb578063b84c824614610a03578063baf2a4eb14610a16575f5ffd5b80639fa5f50b146109595780639fc1d0e71461096e578063a217fddf14610981578063a4a0a30114610988578063a76aa6fc1461099b575f5ffd5b80639082a6fb116102335780639082a6fb1461090557806391d148541461091857806394d008ef1461092b57806395d89b411461093e5780639dc29fac14610946575f5ffd5b80637ccb6a64146108915780637da0a877146108b15780637f4ab1dd146108d75780638456cb59146108ea57806388d695b2146108f2575f5ffd5b80632f2ff15d1161039c5780634a6cc677116103105780635c975abb116102d55780635c975abb146108295780636439fd7514610831578063685731071461084557806370a08231146108585780637157797f1461086b57806379cc67901461087e575f5ffd5b80634a6cc6771461079a5780634d5592ea146107ad57806354fd4d50146107c0578063556ed30e146107e1578063572b6c05146107e9575f5ffd5b80633c626e0c116103615780633c626e0c146107325780633f4ba83a1461074657806340c10f191461074e57806342966c681461076157806344d1718714610774578063492c661014610787575f5ffd5b80632f2ff15d146106cc578063313ce567146106df578063334c0a6d146106f9578063336110791461070c57806336568abe1461071f575f5ffd5b806318bf507711610433578063248a9ca3116103f8578063248a9ca314610631578063276f7aad14610644578063282c51f3146106575780632a8437cc1461066b5780632b8c49e3146106925780632c721b98146106a5575f5ffd5b806318bf5077146105be5780631a7af379146105d15780631fe56f7d146105e457806323b872dd146105f7578063246b72ec1461060a575f5ffd5b8063158b1a5711610479578063158b1a571461053b5780631758a8e91461055c57806317d70f7c1461057c57806318160ddd1461058457806318796d44146105ab575f5ffd5b806301ffc9a7146104b557806306fdde03146104dd578063095ea7b3146104f25780630c3cc61a14610505578063125c4a3314610526575b5f5ffd5b6104c86104c3366004614186565b610bac565b60405190151581526020015b60405180910390f35b6104e5610bcb565b6040516104d491906141db565b6104c8610500366004614201565b610bda565b610518610513366004614272565b610bfb565b6040516104d49291906142b0565b610539610534366004614201565b610cc7565b005b61054e6105493660046142fc565b610cfc565b6040519081526020016104d4565b610564610d06565b6040516001600160a01b0390911681526020016104d4565b6104e5610d27565b7f52c63247e1f47db19d5ce0460030c497f067ca4cebf71ba98eeadabe20bace025461054e565b6105396105b9366004614354565b610dcb565b6105396105cc366004614201565b610deb565b6105396105df3660046143ca565b610e5e565b6105396105f2366004614201565b610e97565b6104c8610605366004614434565b610ec7565b61054e7f809a0fc49fc0600540f1d39e23454e1f6f215bc7505fa22b17c154616570ddef81565b61054e61063f366004614472565b610ef0565b610539610652366004614489565b610f10565b61054e5f5160206153bb5f395f51905f5281565b61054e7f5bfe08abba057c54e6a28bce27ce8c53eb21d7a94376a70d475b5dee60b6c4e281565b6105396106a0366004614201565b610f86565b61054e7fdd7c9aafbb91d54fb2041db1d5b172ea665309b32f5fffdbddf452802a1e3b2081565b6105396106da3660046144d0565b611001565b6106e7611023565b60405160ff90911681526020016104d4565b6105396107073660046144fe565b61102c565b61053961071a3660046142fc565b611083565b61053961072d3660046144d0565b6110f2565b61054e5f51602061543b5f395f51905f5281565b610539611135565b61053961075c366004614201565b6111ab565b61053961076f366004614472565b6111db565b6105396107823660046144fe565b611265565b6105396107953660046147a7565b6112bc565b6105396107a83660046143ca565b6113b9565b6104c86107bb36600461489e565b611431565b6040805180820190915260058152640332e302e360dc1b60208201526104e5565b6104c861148a565b6104c86107f73660046142fc565b7f00000000000000000000000000000000000000000000000000000000000000006001600160a01b0390811691161490565b6104c86114b8565b61054e5f51602061549b5f395f51905f5281565b6105396108533660046143ca565b6114c1565b61054e6108663660046142fc565b61152a565b6104c861087936600461490b565b61156d565b61053961088c366004614201565b611585565b6108a461089f366004614959565b6115cd565b6040516104d491906149be565b7f0000000000000000000000000000000000000000000000000000000000000000610564565b6104e56108e53660046149d0565b6116ac565b6105396116e2565b6104c86109003660046143ca565b611717565b61054e6109133660046142fc565b611745565b6104c86109263660046144d0565b61174f565b6105396109393660046144fe565b61175a565b6104e56117b1565b610539610954366004614201565b6117bb565b6109616117eb565b6040516104d491906149eb565b6104c861097c366004614434565b611881565b61054e5f81565b6105396109963660046142fc565b6118b1565b61054e7f620d362b92b6ef580d4e86c5675d679fe08d31dff47b72f281959a4eecdd036a81565b6104c86109d0366004614201565b6118fd565b6105396109e3366004614a5b565b611920565b6105396109f6366004614aa3565b611977565b61054e6119f2565b610539610a11366004614b4c565b611a08565b6104e5611aa4565b610539611acd565b610539610a34366004614b4c565b611b54565b610539610a47366004614b7e565b611be2565b610539610a5a366004614baa565b611c12565b610564611c3a565b6106e7610a7536600461490b565b611c62565b6106e7610a88366004614434565b611d36565b610a95611def565b6040516104d49190614be0565b61054e5f51602061545b5f395f51905f5281565b610539610ac43660046144d0565b611f7f565b610539610ad7366004614b4c565b611f9b565b610539610aea366004614b4c565b612002565b610539610afd366004614b4c565b61207c565b610539610b103660046144fe565b6120e3565b61054e610b23366004614c18565b61213a565b61054e5f5160206154bb5f395f51905f5281565b610539610b4a3660046142fc565b612183565b6104c8610b5d366004614434565b612205565b6104c8610b703660046142fc565b612211565b61054e7f65d7a28e3265b37a6474929f336521b332c1681b933f6cb9f3376673440d862a81565b6104e5612250565b61056461228e565b5f610bb6826122b6565b80610bc55750610bc5826122ea565b92915050565b6060610bd561230e565b905090565b5f5f610be461234c565b9050610bf1818585612355565b5060019392505050565b60605f826001600160401b03811115610c1657610c16614549565b604051908082528060200260200182016040528015610c3f578160200160208202803683370190505b5091505f5b83811015610c9b57610c76858583818110610c6157610c61614c44565b905060200201602081019061086691906142fc565b838281518110610c8857610c88614c44565b6020908102919091010152600101610c44565b507f52c63247e1f47db19d5ce0460030c497f067ca4cebf71ba98eeadabe20bace025490509250929050565b5f51602061543b5f395f51905f52610cde81612362565b610cf7838360405180602001604052805f815250612373565b505050565b5f610bc582612420565b5f805f5160206154fd5f395f51905f525b546001600160a01b031692915050565b60605f5f5160206153db5f395f51905f525b9050805f018054610d4990614c58565b80601f0160208091040260200160405190810160405280929190818152602001828054610d7590614c58565b8015610dc05780601f10610d9757610100808354040283529160200191610dc0565b820191905f5260205f20905b815481529060010190602001808311610da357829003601f168201915b505050505091505090565b610dd786858484611265565b610de38584848461175a565b505050505050565b610df3612435565b610dfc3361245d565b610e0461234c565b6001600160a01b0316826001600160a01b03167fde22baff038e3a3e08407cbdf617deed74e869a7ba517df611e33131c6e6ea0483604051610e4891815260200190565b60405180910390a3610e5a8282612487565b5050565b5f51602061549b5f395f51905f52610e7581612362565b610e908585858560405180602001604052805f81525061249d565b5050505050565b5f51602061543b5f395f51905f52610eae81612362565b610cf7838360405180602001604052805f81525061253d565b5f610edb610ed361234c565b8585856125f5565b610ee684848461263c565b90505b9392505050565b5f9081525f51602061547b5f395f51905f52602052604090206001015490565b5f5160206154bb5f395f51905f52610f2781612362565b604080516080810182525f60608201818152825282516020601f87018190048102820181019094528581529092808301919087908790819084018382808284375f920191909152505050908252506020018690529050610e90816126ad565b610f8e612435565b610f973361245d565b5f610fa061234c565b9050610faa61234c565b6001600160a01b0316836001600160a01b03167fb90795a66650155983e242cac3e1ac1a4dc26f8ed2987f3ce416a34e00111fd484604051610fee91815260200190565b60405180910390a3610cf78184846126c5565b61100a82610ef0565b61101381612362565b61101d838361277e565b50505050565b5f610bd5612827565b5f51602061543b5f395f51905f5261104381612362565b610e90858585858080601f0160208091040260200160405190810160405280939291908181526020018383808284375f9201919091525061253d92505050565b7fdd7c9aafbb91d54fb2041db1d5b172ea665309b32f5fffdbddf452802a1e3b206110ad81612362565b5f5160206154fd5f395f51905f5280546001600160a01b038481169116036110e8576040516399e8777160e01b815260040160405180910390fd5b610cf7818461283c565b6110fa61234c565b6001600160a01b0316816001600160a01b03161461112b5760405163334bd91960e11b815260040160405180910390fd5b610cf78282612883565b7f65d7a28e3265b37a6474929f336521b332c1681b933f6cb9f3376673440d862a61115f81612362565b7fab1527b6135145d8da1edcbd6b7b270624e17f2b41c74a8c746ff388ad454700805460ff16156111a357604051631b19da4d60e11b815260040160405180910390fd5b610e5a61291a565b5f51602061545b5f395f51905f526111c281612362565b610cf7838360405180602001604052805f815250612992565b7f5bfe08abba057c54e6a28bce27ce8c53eb21d7a94376a70d475b5dee60b6c4e261120581612362565b61120d612435565b5f61121661234c565b6040518481529091506001600160a01b03821690819081907f543d84a473f60119968e980557a2b597b79e98849b4f68fb540e9900408a10439060200160405180910390a4610cf781846129f5565b5f5160206153bb5f395f51905f5261127c81612362565b610e90858585858080601f0160208091040260200160405190810160405280939291908181526020018383808284375f92019190915250612a0b92505050565b5f6112c5612a61565b805490915060ff600160401b82041615906001600160401b03165f811580156112eb5750825b90505f826001600160401b031660011480156113065750303b155b905081158015611314575080155b156113325760405163f92ee8a960e01b815260040160405180910390fd5b845467ffffffffffffffff19166001178555831561135c57845460ff60401b1916600160401b1785555b61136889898989612a89565b83156113ae57845460ff60401b19168555604051600181527fc7f505b2f371ae2175ee4913f4499e1f2633a7b5936321eed1cdaeb6115181d29060200160405180910390a15b505050505050505050565b5f5160206153bb5f395f51905f526113d081612362565b6113dc85858585612abe565b6113e461234c565b6001600160a01b03167f72daf4490e83933de80c122aa40ad26e3d1312ac3efbf2edcee640aa8556ddc6868686866040516114229493929190614d02565b60405180910390a25050505050565b5f8061143c81612362565b61147d87878787878080601f0160208091040260200160405190810160405280939291908181526020018383808284375f92019190915250612b5992505050565b5060019695505050505050565b5f807fab1527b6135145d8da1edcbd6b7b270624e17f2b41c74a8c746ff388ad4547005b5460ff1692915050565b5f610bd5612c30565b5f51602061545b5f395f51905f526114d881612362565b6114e485858585612c58565b6114ec61234c565b6001600160a01b03167fbc3f1481a323af3866d85a300235055c5b81e0ab3563d50b17226f63072161f0868686866040516114229493929190614d44565b5f807f52c63247e1f47db19d5ce0460030c497f067ca4cebf71ba98eeadabe20bace005b6001600160a01b039093165f9081526020939093525050604090205490565b5f61157a85858585612cf0565b90505b949350505050565b7f5bfe08abba057c54e6a28bce27ce8c53eb21d7a94376a70d475b5dee60b6c4e26115af81612362565b6115b7612435565b5f6115c061234c565b905061101d8185856126c5565b6115ef6040518060600160405280606081526020015f81526020015f81525090565b5f5160206154fd5f395f51905f5280546001600160a01b03161561167d578054604051631f32da9960e21b81526001600160a01b0390911690637ccb6a649061163c9086906004016141db565b5f60405180830381865afa158015611656573d5f5f3e3d5ffd5b505050506040513d5f823e601f3d908101601f19168201604052610ee99190810190614dc2565b5050604080516080810182525f6060820181815282526020820181905291810191909152919050565b50919050565b606060051960ff8316016116d9576040518060600160405280602281526020016154db6022913992915050565b610bc582612d19565b7f65d7a28e3265b37a6474929f336521b332c1681b933f6cb9f3376673440d862a61170c81612362565b611714612f1e565b50565b5f5f51602061545b5f395f51905f5261172f81612362565b61173b86868686612f7b565b9695505050505050565b5f610bc582613020565b5f610ee98383613059565b5f51602061545b5f395f51905f5261177181612362565b610e90858585858080601f0160208091040260200160405190810160405280939291908181526020018383808284375f9201919091525061299292505050565b6060610bd5613064565b5f5160206153bb5f395f51905f526117d281612362565b610cf7838360405180602001604052805f815250612a0b565b5f5160206154fd5f395f51905f528054606091906001600160a01b03161561187d57805460408051639fa5f50b60e01b815290516001600160a01b0390921691639fa5f50b916004808201925f929091908290030181865afa158015611853573d5f5f3e3d5ffd5b505050506040513d5f823e601f3d908101601f1916820160405261187a9190810190614e43565b91505b5090565b5f8061188c81612362565b6118a685858560405180602001604052805f815250612b59565b506001949350505050565b5f6118bb81612362565b6118c361228e565b6001600160a01b0316826001600160a01b0316036118f457604051630725a47560e31b815260040160405180910390fd5b610e5a826130a2565b5f5f61190761234c565b90506119155f8286866125f5565b610bf181858561310a565b5f51602061549b5f395f51905f5261193781612362565b610e90858585858080601f0160208091040260200160405190810160405280939291908181526020018383808284375f9201919091525061316792505050565b5f5160206153bb5f395f51905f5261198e81612362565b61199a86868686612abe565b6119a261234c565b6001600160a01b03167f72daf4490e83933de80c122aa40ad26e3d1312ac3efbf2edcee640aa8556ddc687878787876040516119e2959493929190614f01565b60405180910390a2505050505050565b5f6119fb611def565b6020015160200151905090565b5f611a1281612362565b5f51602061541b5f395f51905f527f9bd8d607565c0370ae5f91651ca67fd26d4438022bf72037316600e29e6a3a02611a4c848683614f8b565b508383604051611a5d929190615044565b60405180910390207f4a48eefa86906ea82ddc91803a5f00818355982247dc29c521714f6dc207aacd8585604051611a96929190615053565b60405180910390a250505050565b60605f7f2727314c926b592b6f70e7d6d2e4677ebcac070f293306927f71fe77858eec00610d39565b5f611ad781612362565b611adf613194565b7fab1527b6135145d8da1edcbd6b7b270624e17f2b41c74a8c746ff388ad454700805460ff191660011781557f749cb6b4c510bc468cf6b9c2086d6f0a54d6b18e25d37bf3200e68eab0880c00611b3461234c565b6040516001600160a01b0390911681526020015b60405180910390a15050565b5f611b5e81612362565b5f51602061541b5f395f51905f527f9bd8d607565c0370ae5f91651ca67fd26d4438022bf72037316600e29e6a3a01611b98848683614f8b565b508383604051611ba9929190615044565b60405180910390207fe4e4a54c5c394e44fde10a0ae1277d8bd8621848cc8dfd73eddd39bcf9f2d9b28585604051611a96929190615053565b5f51602061549b5f395f51905f52611bf981612362565b610cf7838360405180602001604052805f815250613167565b5f5160206154bb5f395f51905f52611c2981612362565b610e5a611c3583615081565b6126ad565b5f807f1387b97dfab601d3023cb57858a6be29329babb05c85597ddbe4926c1193a900610d17565b5f5f611c6c61228e565b9050611c7786612211565b15611c875760055b91505061157d565b5f611c938686866131b9565b905060ff811615611ca757915061157d9050565b6001600160a01b03821615611d305760405163d32c7bb560e01b81526001600160a01b0383169063d32c7bb590611ce8908a908a908a908a9060040161508c565b602060405180830381865afa158015611d03573d5f5f3e3d5ffd5b505050506040513d601f19601f82011682018060405250810190611d2791906150b6565b9250505061157d565b5f611d27565b5f5f611d4061228e565b90505f611d4e8686866131b9565b905060ff811615611d62579150610ee99050565b6001600160a01b03821615611de95760405163d4ce141560e01b81526001600160a01b0383169063d4ce141590611da1908990899089906004016150d1565b602060405180830381865afa158015611dbc573d5f5f3e3d5ffd5b505050506040513d601f19601f82011682018060405250810190611de091906150b6565b92505050610ee9565b5f611de0565b611df761414d565b604080518082019091527fd2d5d34c4a4dea00599692d3257c0aebc5e0359176118cd2364ab9b008c2d10180545f5160206153db5f395f51905f5292919082908290611e4290614c58565b80601f0160208091040260200160405190810160405280929190818152602001828054611e6e90614c58565b8015611eb95780601f10611e9057610100808354040283529160200191611eb9565b820191905f5260205f20905b815481529060010190602001808311611e9c57829003601f168201915b50505050508152602001600182016040518060600160405290815f82018054611ee190614c58565b80601f0160208091040260200160405190810160405280929190818152602001828054611f0d90614c58565b8015611f585780601f10611f2f57610100808354040283529160200191611f58565b820191905f5260205f20905b815481529060010190602001808311611f3b57829003601f168201915b50505050508152602001600182015481526020016002820154815250508152505091505090565b611f8882610ef0565b611f9181612362565b61101d8383612883565b5f5160206154bb5f395f51905f52611fb281612362565b5f5f5160206153db5f395f51905f52905061101d8185858080601f0160208091040260200160405190810160405280939291908181526020018383808284375f9201919091525061320892505050565b5f5160206154bb5f395f51905f5261201981612362565b5f7f2727314c926b592b6f70e7d6d2e4677ebcac070f293306927f71fe77858eec00905061101d8185858080601f0160208091040260200160405190810160405280939291908181526020018383808284375f9201919091525061324692505050565b5f5160206154bb5f395f51905f5261209381612362565b5f5f5160206153db5f395f51905f52905061101d8185858080601f0160208091040260200160405190810160405280939291908181526020018383808284375f9201919091525061328192505050565b5f51602061543b5f395f51905f526120fa81612362565b610e90858585858080601f0160208091040260200160405190810160405280939291908181526020018383808284375f9201919091525061237392505050565b6001600160a01b039182165f9081527f52c63247e1f47db19d5ce0460030c497f067ca4cebf71ba98eeadabe20bace016020908152604080832093909416825291909152205490565b7f809a0fc49fc0600540f1d39e23454e1f6f215bc7505fa22b17c154616570ddef6121ad81612362565b7f1387b97dfab601d3023cb57858a6be29329babb05c85597ddbe4926c1193a90080546001600160a01b038481169116036121fb576040516311ecd5d560e21b815260040160405180910390fd5b610cf781846132de565b5f610ee6848484613325565b6001600160a01b0381165f9081527f0c7bc8a17be064111d299d7669f49519cb26c58611b72d9f6ccc40a1e1184e00602052604081205460ff16610bc5565b7fd2d5d34c4a4dea00599692d3257c0aebc5e0359176118cd2364ab9b008c2d10580546060915f5160206153db5f395f51905f5291610d4990614c58565b5f807f77c8cc897d160e7bf5b10921804e357da17ae27460d4a6b5d9b27ffddf159d00610d17565b5f6001600160e01b03198216637965db0b60e01b1480610bc557506301ffc9a760e01b6001600160e01b0319831614610bc5565b5f6001600160e01b03198216630cccc66560e21b1480610bc55750610bc5826122b6565b7f9bd8d607565c0370ae5f91651ca67fd26d4438022bf72037316600e29e6a3a0180546060915f51602061541b5f395f51905f5291610d4990614c58565b5f610bd561334d565b610cf78383836001613356565b6117148161236e61234c565b61344c565b5f5160206153fb5f395f51905f525f61238b8561152a565b6001600160a01b0386165f90815260208490526040812054919250906123b2908690615109565b9050808210156123d5576040516349d7d08d60e11b815260040160405180910390fd5b6001600160a01b0386165f8181526020859052604090819020839055517eee657b17bb8f27ffd14d58b7a6f3f8d780dc721da687b065b4ce100c332e25906119e2908890889061511c565b5f805f5160206153fb5f395f51905f5261154e565b61243d6114b8565b1561245b5760405163d93c066560e01b815260040160405180910390fd5b565b6117147f620d362b92b6ef580d4e86c5675d679fe08d31dff47b72f281959a4eecdd036a8261344c565b6124935f5f84846125f5565b610e5a8282613485565b6124a98585858561348f565b7f0c7bc8a17be064111d299d7669f49519cb26c58611b72d9f6ccc40a1e1184e005f5b858110156125345761252c828888848181106124ea576124ea614c44565b90506020020160208101906124ff91906142fc565b87878581811061251157612511614c44565b90506020020160208101906125269190615134565b866134cd565b6001016124cc565b50505050505050565b6001600160a01b0383165f9081525f5160206153fb5f395f51905f526020819052604090912054831115612584576040516309f1994960e41b815260040160405180910390fd5b6001600160a01b0384165f908152602082905260409020546125a790849061514f565b6001600160a01b0385165f81815260208490526040908190209290925590517f57e0f3d4013a11f83fec76f5798b11b0ac9894fe75a459c7c18b95b248fa022590611a96908690869061511c565b6126018484848461354b565b61260d84848484613555565b8383839091926125345760405163013a574760e41b8152600401612633939291906150d1565b60405180910390fd5b5f5f612649858585613663565b90508015610ee65761265961234c565b6001600160a01b0316856001600160a01b03167f7c2b9369bf4a6bd9745889c658ad00a4d57e280c4c80fa1c74db2a9e52c136358560405161269d91815260200190565b60405180910390a3949350505050565b5f5160206153db5f395f51905f52610e5a8183613685565b6126d08284836136ef565b826001600160a01b0316826001600160a01b03167f7c2b9369bf4a6bd9745889c658ad00a4d57e280c4c80fa1c74db2a9e52c136358360405161271591815260200190565b60405180910390a3826001600160a01b0316826001600160a01b0316846001600160a01b03167f543d84a473f60119968e980557a2b597b79e98849b4f68fb540e9900408a10438460405161276c91815260200190565b60405180910390a4610cf782826129f5565b5f5f51602061547b5f395f51905f52612797848461174f565b612817575f848152602082815260408083206001600160a01b03871684529091529020805460ff191660011790556127cd61234c565b6001600160a01b0316836001600160a01b0316857f2f8788117e7eff1d82e926ec794901d17c78024a50270940304540a733656f0d60405160405180910390a46001915050610bc5565b5f915050610bc5565b5092915050565b5f805f51602061541b5f395f51905f526114ae565b81546001600160a01b0319166001600160a01b03821690811783556040517f24456fffb8d75313fe808b19e17ae308e592a8159329a02fb396773d5aacbd10905f90a25050565b5f5f51602061547b5f395f51905f5261289c848461174f565b15612817575f848152602082815260408083206001600160a01b03871684529091529020805460ff191690556128d061234c565b6001600160a01b0316836001600160a01b0316857ff6391f5c32d9c69d2a47ea670b442974b53935d1edc7fd64eb21e047a839171b60405160405180910390a46001915050610bc5565b612922613194565b7fcd5ed15c6e187e77e9aee88184c21f4f2182ab5827cb3b7e07fbedcd63f03300805460ff191681557f5db9ee0a495bf2e6ff9c91a7834c1ba4fdd244a5e8aa4e537bd38aeae4b073aa61297461234c565b6040516001600160a01b03909116815260200160405180910390a150565b61299c8383612487565b826001600160a01b03166129ae61234c565b6001600160a01b03167f30c99b8e9449992bd7616d2645b02ee0a2b6f229a45d6b56b686963ff0c5349784846040516129e892919061511c565b60405180910390a3505050565b612a015f835f846125f5565b610e5a828261374d565b612a1583836129f5565b826001600160a01b0316612a2761234c565b6001600160a01b03167f21e3428dd0c1de86ad5cb0d4df91049f26e9711489b51d1e9b5d5a53ebae1f6384846040516129e892919061511c565b5f807ff0c57e16840df040f15088dc2f81fe391c3923bec73e23a9662efc9c229c6a00610bc5565b612a91613757565b612a9961377c565b612aa161377c565b612aa9613784565b612ab28161379c565b61101d848484846137af565b5f839003612adf576040516311eaa8e760e21b815260040160405180910390fd5b828114612aff57604051637a9d6e6d60e01b815260040160405180910390fd5b5f5b83811015610e9057612b51858583818110612b1e57612b1e614c44565b9050602002016020810190612b3391906142fc565b848484818110612b4557612b45614c44565b905060200201356129f5565b600101612b01565b612b648483836137cc565b6001600160a01b038316612b8157612b7c84836138f2565b612bd6565b5f612b8c858561213a565b90505f81118015612b9d57505f1981105b15612bc95782811015612bbb57612bb685855f5f613356565b612bc9565b612bc985858584035f613356565b612bd485858561310a565b505b836001600160a01b0316612be861234c565b6001600160a01b03167f9aaf0e2b2a23aa776f679b9fe17552a7fa59d6cb1057b37156024a8c587a947f8484604051612c2292919061511c565b60405180910390a350505050565b5f807fcd5ed15c6e187e77e9aee88184c21f4f2182ab5827cb3b7e07fbedcd63f033006114ae565b82612c7657604051630c7e659960e01b815260040160405180910390fd5b828114612c96576040516307a4e50160e21b815260040160405180910390fd5b5f5b83811015610e9057612ce8858583818110612cb557612cb5614c44565b9050602002016020810190612cca91906142fc565b848484818110612cdc57612cdc614c44565b90506020020135612487565b600101612c98565b5f612cfb8483613926565b612d0657505f61157d565b612d1285858585613962565b905061157d565b60605f612d2461228e565b905060ff8316612d5957505060408051808201909152600d81526c2737a932b9ba3934b1ba34b7b760991b6020820152919050565b60011960ff841601612d9057505060408051808201909152600d81526c456e666f72636564506175736560981b6020820152919050565b5f1960ff841601612dcc57505060408051808201909152601381527210dbdb9d1c9858dd11195858dd1a5d985d1959606a1b6020820152919050565b60021960ff841601612e0657505060408051808201909152601081526f20b23239233937b6a4b9a33937bd32b760811b6020820152919050565b60031960ff841601612e3e57505060408051808201909152600e81526d20b232392a37a4b9a33937bd32b760911b6020820152919050565b60041960ff841601612e7b57505060408051808201909152601381527220b2323929b832b73232b924b9a33937bd32b760691b6020820152919050565b6001600160a01b03811615612ef557604051637f4ab1dd60e01b815260ff841660048201526001600160a01b03821690637f4ab1dd906024015f60405180830381865afa158015612ece573d5f5f3e3d5ffd5b505050506040513d5f823e601f3d908101601f19168201604052610ee99190810190615162565b505060408051808201909152600b81526a556e6b6e6f776e436f646560a81b6020820152919050565b612f26612435565b7fcd5ed15c6e187e77e9aee88184c21f4f2182ab5827cb3b7e07fbedcd63f03300805460ff191660011781557f62e78cea01bee320cd4e420270b5ea74000d11b0c9f74754ebdbfc544b05a25861297461234c565b5f83612f9a57604051634723eac960e01b815260040160405180910390fd5b5f612fa361234c565b9050848314612fc557604051637e81047760e11b815260040160405180910390fd5b5f5b8581101561147d5761301882888884818110612fe557612fe5614c44565b9050602002016020810190612ffa91906142fc565b87878581811061300c5761300c614c44565b9050602002013561396f565b600101612fc7565b6001600160a01b0381165f9081525f5160206153fb5f395f51905f526020819052604082205461304f8461152a565b610ee9919061514f565b5f610ee98383613986565b7f9bd8d607565c0370ae5f91651ca67fd26d4438022bf72037316600e29e6a3a0280546060915f51602061541b5f395f51905f5291610d4990614c58565b7f77c8cc897d160e7bf5b10921804e357da17ae27460d4a6b5d9b27ffddf159d0080546001600160a01b0319166001600160a01b03831690811782556040517f37213fe93a5aae50df0ef53f98b81c048e51b3ab2969309a103a647e44b61918905f90a25050565b6001600160a01b03831661313357604051634b637e8f60e11b81525f6004820152602401612633565b6001600160a01b03821661315c5760405163ec442f0560e01b81525f6004820152602401612633565b610cf7838383613991565b7f0c7bc8a17be064111d299d7669f49519cb26c58611b72d9f6ccc40a1e1184e0061101d818585856134cd565b61319c6114b8565b61245b57604051638dfc202b60e01b815260040160405180910390fd5b5f5f6131c485610cfc565b905080156131f4575f816131d78761152a565b6131e1919061514f565b9050808411156131f2576006611de0565b505b6131ff858585613a6b565b95945050505050565b600582016132168282615193565b507fff8fea957fb7cb582ef297c1c74436fe7a9914efbc52adf197600dc9d171efbc81604051611b4891906141db565b816132518282615193565b507ff9deba4938ba20070ec5a45ddf59bccba49cf83124215228ec1232182ef0ba2b81604051611b4891906141db565b8161328c8282615193565b508060405161329b919061524d565b60405180910390207f6403c68076c59949275ad9be2137a73c51043d7d6af6a38473047a0bc45df492826040516132d291906141db565b60405180910390a25050565b81546001600160a01b0319166001600160a01b03821690811783556040517f3dc265c6e8a49e40f12f64811a094f799e44b4d033c7478793093908cbbb5bca905f90a25050565b5f6133308483613926565b61333b57505f610ee9565b613346848484613ac4565b9050610ee9565b5f610bd5613ad0565b7f52c63247e1f47db19d5ce0460030c497f067ca4cebf71ba98eeadabe20bace006001600160a01b0385166133a05760405163e602df0560e01b81525f6004820152602401612633565b6001600160a01b0384166133c957604051634a1406b160e11b81525f6004820152602401612633565b6001600160a01b038086165f90815260018301602090815260408083209388168352929052208390558115610e9057836001600160a01b0316856001600160a01b03167f8c5be1e5ebec7d5bd14f71427d1e84f3dd0314c0f7b2291e5b200ac8c7c3b9258560405161343d91815260200190565b60405180910390a35050505050565b613456828261174f565b610e5a5760405163e2517d3f60e01b81526001600160a01b038216600482015260248101839052604401612633565b610e5a8282613b3a565b826134ad57604051630e35356160e11b815260040160405180910390fd5b82811461101d5760405163142e444b60e01b815260040160405180910390fd5b6001600160a01b0383165f908152602085905260409020805460ff19168315151790556134f861234c565b6001600160a01b0316821515846001600160a01b03167f5c115173b119951ab162218e6a2495eb7b93888dda22421e2be9c4ee5d7108828460405161353d91906141db565b60405180910390a450505050565b61101d8382613b6e565b5f613561858585613b95565b61356c57505f61157d565b5f61357561228e565b90506001600160a01b03811615613657576001600160a01b038616156135f957604051631f2d7a6560e11b81526001600160a01b03821690633e5af4ca906135c790899089908990899060040161508c565b5f604051808303815f87803b1580156135de575f5ffd5b505af11580156135f0573d5f5f3e3d5ffd5b50505050613657565b6040516322ebca6d60e21b81526001600160a01b03821690638baf29b490613629908890889088906004016150d1565b5f604051808303815f87803b158015613640575f5ffd5b505af1158015613652573d5f5f3e3d5ffd5b505050505b50506001949350505050565b5f5f61366d61234c565b905061367a8582856136ef565b6118a685858561310a565b805160018301906136969082615193565b5060408101516003830155602081015160028301906136b59082615193565b504260048301556040517f581e063ae59068f13a21b5707b10eee615c714e8939e873cf5b90b8254d9979c90611b489060018501906152e2565b5f6136fa848461213a565b90505f1981101561101d578181101561373f57604051637dc7a0d960e11b81526001600160a01b03841660048201526024810182905260448101839052606401612633565b61101d84848484035f613356565b610e5a82826138f2565b61375f613c0d565b61245b57604051631afcd79f60e31b815260040160405180910390fd5b61245b613757565b61378c613757565b61379461377c565b61245b61377c565b6137a4613757565b805161171490613c26565b6137b7613757565b61101d84848484602001518560400151613c46565b5f6137d68461152a565b905080831115613825576137e861234c565b816137f3818661514f565b60405163391434e360e21b81526001600160a01b03909316600484015260248301919091526044820152606401612633565b6001600160a01b0384165f9081525f5160206153fb5f395f51905f5260208190526040822054909190613858908461514f565b905080851115610de3575f61386d828761514f565b6001600160a01b0388165f9081526020859052604090205490915061389390829061514f565b6001600160a01b0388165f81815260208690526040908190209290925590517f57e0f3d4013a11f83fec76f5798b11b0ac9894fe75a459c7c18b95b248fa0225906138e1908490899061511c565b60405180910390a250505050505050565b6001600160a01b03821661391b57604051634b637e8f60e11b81525f6004820152602401612633565b610e5a825f83613991565b5f5f61393184612420565b90508015610bf1575f816139448661152a565b61394e919061514f565b9050808411156118a6575f92505050610bc5565b5f61157a85858585613c95565b61397b5f8484846125f5565b610cf7838383613cb9565b5f610ee98383613cc4565b5f61399a611c3a565b90506001600160a01b03811615613a6057806001600160a01b031663df271a8885856139c58861152a565b6139ce8861152a565b7f52c63247e1f47db19d5ce0460030c497f067ca4cebf71ba98eeadabe20bace02546040516001600160e01b031960e088901b1681526001600160a01b03958616600482015294909316602485015260448401919091526064830152608482015260a4015f604051808303815f87803b158015613a49575f5ffd5b505af1158015613a5b573d5f5f3e3d5ffd5b505050505b61101d848484613ccf565b5f613a7461148a565b15613a80576001613346565b613a886114b8565b15613a94576002613346565b613a9d84612211565b15613aa9576003613346565b613ab283612211565b15613abe576004613346565b5f613346565b5f610ee6848484613e0d565b5f366014808210801590613b0c57507f00000000000000000000000000000000000000000000000000000000000000006001600160a01b031633145b15613b3257613b1f36828403815f615338565b613b289161535f565b60601c9250505090565b339250505090565b6001600160a01b038216613b635760405163ec442f0560e01b81525f6004820152602401612633565b610e5a5f8383613991565b613b788282613926565b610e5a576040516301c9bcfb60e31b815260040160405180910390fd5b5f6001600160a01b038316613bad5761334682613e2f565b6001600160a01b038216613bc45761334683613e2f565b613bcd84612211565b80613bdc5750613bdc83612211565b80613beb5750613beb82612211565b80613bf95750613bf96114b8565b15613c0557505f610ee9565b506001610ee9565b5f613c16612a61565b54600160401b900460ff16919050565b613c2e613757565b6001600160a01b0381161561171457611714816130a2565b613c4e613757565b613c5785613e5b565b613c6d8460400151855f01518660200151613e94565b613c83835f015184602001518560400151613ef1565b613c8c82613f25565b610e9081613f67565b5f613ca285858585613f96565b613cad57505f61157d565b612d1285858585613fa3565b610cf783838361310a565b5f610ee98383614039565b7f52c63247e1f47db19d5ce0460030c497f067ca4cebf71ba98eeadabe20bace006001600160a01b038416613d1c5781816002015f828254613d119190615109565b90915550613d8c9050565b6001600160a01b0384165f9081526020829052604090205482811015613d6e5760405163391434e360e21b81526001600160a01b03861660048201526024810182905260448101849052606401612633565b6001600160a01b0385165f9081526020839052604090209083900390555b6001600160a01b038316613daa576002810180548390039055613dc8565b6001600160a01b0383165f9081526020829052604090208054830190555b826001600160a01b0316846001600160a01b03167fddf252ad1be2c89b69c2b068fc378daa952ba7f163c4a11628f55a4df523b3ef84604051612c2291815260200190565b5f613e19848484614062565b613e2457505f610ee9565b61334684848461406f565b5f613e3861148a565b80613e475750613e4782612211565b15613e5357505f919050565b506001919050565b613e63613757565b6001600160a01b038116613e8a5760405163011d80f760e01b815260040160405180910390fd5b610e5a5f8261277e565b613e9c613757565b5f51602061541b5f395f51905f52805460ff191660ff85161781557f9bd8d607565c0370ae5f91651ca67fd26d4438022bf72037316600e29e6a3a02613ee28382615193565b5060018101610e908482615193565b613ef9613757565b5f5160206153db5f395f51905f52613f118185613281565b613f1b8184613685565b61101d8183613208565b613f2d613757565b6001600160a01b03811615611714577f1387b97dfab601d3023cb57858a6be29329babb05c85597ddbe4926c1193a900610e5a81836132de565b613f6f613757565b6001600160a01b03811615611714575f5160206154fd5f395f51905f52610e5a818361283c565b5f61157a8585858561410b565b5f5f613fad61228e565b90506001600160a01b0381161561402f57604051637157797f60e01b81526001600160a01b03821690637157797f90613ff090899089908990899060040161508c565b602060405180830381865afa15801561400b573d5f5f3e3d5ffd5b505050506040513d601f19601f82011682018060405250810190611c7f919061539f565b600191505061157d565b5f6140448183614117565b1561405157506001610bc5565b61405b8383614117565b9050610bc5565b5f610ee65f85858561410b565b5f5f61407961228e565b90506001600160a01b03811615614101576040516372331c7360e11b81526001600160a01b0382169063e46638e6906140ba908890889088906004016150d1565b602060405180830381865afa1580156140d5573d5f5f3e3d5ffd5b505050506040513d601f19601f820116820180604052508101906140f9919061539f565b915050610ee9565b6001915050610ee9565b5f61157a858585613b95565b5f9182525f51602061547b5f395f51905f52602090815260408084206001600160a01b0393909316845291905290205460ff1690565b6040518060400160405280606081526020016141816040518060600160405280606081526020015f81526020015f81525090565b905290565b5f60208284031215614196575f5ffd5b81356001600160e01b031981168114610ee9575f5ffd5b5f81518084528060208401602086015e5f602082860101526020601f19601f83011685010191505092915050565b602081525f610ee960208301846141ad565b6001600160a01b0381168114611714575f5ffd5b5f5f60408385031215614212575f5ffd5b823561421d816141ed565b946020939093013593505050565b5f5f83601f84011261423b575f5ffd5b5081356001600160401b03811115614251575f5ffd5b6020830191508360208260051b850101111561426b575f5ffd5b9250929050565b5f5f60208385031215614283575f5ffd5b82356001600160401b03811115614298575f5ffd5b6142a48582860161422b565b90969095509350505050565b604080825283519082018190525f9060208501906060840190835b818110156142e95783518352602093840193909201916001016142cb565b5050602093909301939093525092915050565b5f6020828403121561430c575f5ffd5b8135610ee9816141ed565b5f5f83601f840112614327575f5ffd5b5081356001600160401b0381111561433d575f5ffd5b60208301915083602082850101111561426b575f5ffd5b5f5f5f5f5f5f60a08789031215614369575f5ffd5b8635614374816141ed565b95506020870135614384816141ed565b9450604087013593506060870135925060808701356001600160401b038111156143ac575f5ffd5b6143b889828a01614317565b979a9699509497509295939492505050565b5f5f5f5f604085870312156143dd575f5ffd5b84356001600160401b038111156143f2575f5ffd5b6143fe8782880161422b565b90955093505060208501356001600160401b0381111561441c575f5ffd5b6144288782880161422b565b95989497509550505050565b5f5f5f60608486031215614446575f5ffd5b8335614451816141ed565b92506020840135614461816141ed565b929592945050506040919091013590565b5f60208284031215614482575f5ffd5b5035919050565b5f5f5f6040848603121561449b575f5ffd5b8335925060208401356001600160401b038111156144b7575f5ffd5b6144c386828701614317565b9497909650939450505050565b5f5f604083850312156144e1575f5ffd5b8235915060208301356144f3816141ed565b809150509250929050565b5f5f5f5f60608587031215614511575f5ffd5b843561451c816141ed565b93506020850135925060408501356001600160401b0381111561453d575f5ffd5b61442887828801614317565b634e487b7160e01b5f52604160045260245ffd5b604051606081016001600160401b038111828210171561457f5761457f614549565b60405290565b604051601f8201601f191681016001600160401b03811182821017156145ad576145ad614549565b604052919050565b5f6001600160401b038211156145cd576145cd614549565b50601f01601f191660200190565b5f6145ed6145e8846145b5565b614585565b9050828152838383011115614600575f5ffd5b828260208301375f602084830101529392505050565b5f82601f830112614625575f5ffd5b610ee9838335602085016145db565b60ff81168114611714575f5ffd5b5f60608284031215614652575f5ffd5b61465a61455d565b905081356001600160401b03811115614671575f5ffd5b61467d84828501614616565b82525060208201356001600160401b03811115614698575f5ffd5b6146a484828501614616565b60208301525060409182013591810191909152919050565b5f606082840312156146cc575f5ffd5b6146d461455d565b905081356001600160401b038111156146eb575f5ffd5b6146f784828501614616565b82525060208201356001600160401b03811115614712575f5ffd5b61471e84828501614642565b60208301525060408201356001600160401b0381111561473c575f5ffd5b61474884828501614616565b60408301525092915050565b5f60608284031215614764575f5ffd5b61476c61455d565b90508135614779816141ed565b81526020820135614789816141ed565b6020820152604082013561479c816141ed565b604082015292915050565b5f5f5f5f60c085870312156147ba575f5ffd5b84356147c5816141ed565b935060208501356001600160401b038111156147df575f5ffd5b8501606081880312156147f0575f5ffd5b6147f861455d565b81356001600160401b0381111561480d575f5ffd5b61481989828501614616565b82525060208201356001600160401b03811115614834575f5ffd5b61484089828501614616565b6020830152506040820135915061485682614634565b60408181019290925293508501356001600160401b03811115614877575f5ffd5b614883878288016146bc565b9250506148938660608701614754565b905092959194509250565b5f5f5f5f5f608086880312156148b2575f5ffd5b85356148bd816141ed565b945060208601356148cd816141ed565b93506040860135925060608601356001600160401b038111156148ee575f5ffd5b6148fa88828901614317565b969995985093965092949392505050565b5f5f5f5f6080858703121561491e575f5ffd5b8435614929816141ed565b93506020850135614939816141ed565b92506040850135614949816141ed565b9396929550929360600135925050565b5f60208284031215614969575f5ffd5b81356001600160401b0381111561497e575f5ffd5b61157d84828501614616565b5f81516060845261499e60608501826141ad565b905060208301516020850152604083015160408501528091505092915050565b602081525f610ee9602083018461498a565b5f602082840312156149e0575f5ffd5b8135610ee981614634565b5f602082016020835280845180835260408501915060408160051b8601019250602086015f5b82811015614a4257603f19878603018452614a2d8583516141ad565b94506020938401939190910190600101614a11565b50929695505050505050565b8015158114611714575f5ffd5b5f5f5f5f60608587031215614a6e575f5ffd5b8435614a79816141ed565b93506020850135614a8981614a4e565b925060408501356001600160401b0381111561453d575f5ffd5b5f5f5f5f5f60608688031215614ab7575f5ffd5b85356001600160401b03811115614acc575f5ffd5b614ad88882890161422b565b90965094505060208601356001600160401b03811115614af6575f5ffd5b614b028882890161422b565b90945092505060408601356001600160401b03811115614b20575f5ffd5b8601601f81018813614b30575f5ffd5b614b3f888235602084016145db565b9150509295509295909350565b5f5f60208385031215614b5d575f5ffd5b82356001600160401b03811115614b72575f5ffd5b6142a485828601614317565b5f5f60408385031215614b8f575f5ffd5b8235614b9a816141ed565b915060208301356144f381614a4e565b5f60208284031215614bba575f5ffd5b81356001600160401b03811115614bcf575f5ffd5b820160608185031215610ee9575f5ffd5b602081525f825160406020840152614bfb60608401826141ad565b90506020840151601f198483030160408501526131ff828261498a565b5f5f60408385031215614c29575f5ffd5b8235614c34816141ed565b915060208301356144f3816141ed565b634e487b7160e01b5f52603260045260245ffd5b600181811c90821680614c6c57607f821691505b6020821081036116a657634e487b7160e01b5f52602260045260245ffd5b8183526020830192505f815f5b84811015614cc8578135614caa816141ed565b6001600160a01b031686526020958601959190910190600101614c97565b5093949350505050565b8183525f6001600160fb1b03831115614ce9575f5ffd5b8260051b80836020870137939093016020019392505050565b606081525f614d15606083018688614c8a565b8281036020840152614d28818587614cd2565b83810360409094019390935250505f8152602001949350505050565b604081525f614d57604083018688614c8a565b8281036020840152614d6a818587614cd2565b979650505050505050565b5f82601f830112614d84575f5ffd5b8151614d926145e8826145b5565b818152846020838601011115614da6575f5ffd5b8160208501602083015e5f918101602001919091529392505050565b5f60208284031215614dd2575f5ffd5b81516001600160401b03811115614de7575f5ffd5b820160608185031215614df8575f5ffd5b614e0061455d565b81516001600160401b03811115614e15575f5ffd5b614e2186828501614d75565b8252506020820151602082015260408201516040820152809250505092915050565b5f60208284031215614e53575f5ffd5b81516001600160401b03811115614e68575f5ffd5b8201601f81018413614e78575f5ffd5b80516001600160401b03811115614e9157614e91614549565b8060051b614ea160208201614585565b91825260208184018101929081019087841115614ebc575f5ffd5b6020850192505b83831015614d6a5782516001600160401b03811115614ee0575f5ffd5b614eef89602083890101614d75565b83525060209283019290910190614ec3565b606081525f614f14606083018789614c8a565b8281036020840152614f27818688614cd2565b90508281036040840152614f3b81856141ad565b98975050505050505050565b601f821115610cf757805f5260205f20601f840160051c81016020851015614f6c5750805b601f840160051c820191505b81811015610e90575f8155600101614f78565b6001600160401b03831115614fa257614fa2614549565b614fb683614fb08354614c58565b83614f47565b5f601f841160018114614fe7575f8515614fd05750838201355b5f19600387901b1c1916600186901b178355610e90565b5f83815260208120601f198716915b828110156150165786850135825560209485019460019092019101614ff6565b5086821015615032575f1960f88860031b161c19848701351681555b505060018560011b0183555050505050565b818382375f9101908152919050565b60208152816020820152818360408301375f818301604090810191909152601f909201601f19160101919050565b5f610bc53683614642565b6001600160a01b039485168152928416602084015292166040820152606081019190915260800190565b5f602082840312156150c6575f5ffd5b8151610ee981614634565b6001600160a01b039384168152919092166020820152604081019190915260600190565b634e487b7160e01b5f52601160045260245ffd5b80820180821115610bc557610bc56150f5565b828152604060208201525f610ee660408301846141ad565b5f60208284031215615144575f5ffd5b8135610ee981614a4e565b81810381811115610bc557610bc56150f5565b5f60208284031215615172575f5ffd5b81516001600160401b03811115615187575f5ffd5b61157d84828501614d75565b81516001600160401b038111156151ac576151ac614549565b6151c0816151ba8454614c58565b84614f47565b6020601f8211600181146151f2575f83156151db5750848201515b5f19600385901b1c1916600184901b178455610e90565b5f84815260208120601f198516915b828110156152215787850151825560209485019460019092019101615201565b508482101561523e57868401515f19600387901b60f8161c191681555b50505050600190811b01905550565b5f82518060208501845e5f920191825250919050565b5f815461526f81614c58565b80855260018216801561528957600181146152a5576152d9565b60ff1983166020870152602082151560051b87010193506152d9565b845f5260205f205f5b838110156152d05781546020828a0101526001820191506020810190506152ae565b87016020019450505b50505092915050565b60208152604060208201525f6152fb6060830184615263565b601f198382030160408401526060815261531b6060820160018601615263565b600285015460208301526003909401546040909101525090919050565b5f5f85851115615346575f5ffd5b83861115615352575f5ffd5b5050820193919092039150565b80356bffffffffffffffffffffffff198116906014841015612820576bffffffffffffffffffffffff1960149490940360031b84901b1690921692915050565b5f602082840312156153af575f5ffd5b8151610ee981614a4e56fe3c11d16cbaffd01df69ce1c404f6340ee057498f5f00246190ea54220576a848d2d5d34c4a4dea00599692d3257c0aebc5e0359176118cd2364ab9b008c2d1009d8059a24cb596f1948a937c2c163cf14465c2a24abfd3cd009eec4ac4c398009bd8d607565c0370ae5f91651ca67fd26d4438022bf72037316600e29e6a3a00d62f75bf68b069bc8e2abd495a949fafec67a4e5a5b7cb36aedf0dd51eec7e729f2df0fed2c77648de5860a4cc508cd0818c85b8b8a1ab4ceeef8d981c8956a602dd7bc7dec4dceedda775e58dd541e08a116c6c53815c0bd028192f7b626800973ef39d76cc2c6090feab1c030bec6ab5db557f64df047a4c4f9b5953cf1df3921df7a58eb4ea112afa962b8186161404ecda2e8fe97f8246026d02ad1a74b74164647246726f6d3a696e73756666696369656e7441637469766542616c616e6365bd0905600c85d707dc53eba2e146c1c2527cd32ac3ff6b86846155151b3e2700a264697066735822122063f203ca9f9ad0899744ca9b41956ba3783feff08e19df2323558066749f82db64736f6c634300081e003302dd7bc7dec4dceedda775e58dd541e08a116c6c53815c0bd028192f7b626800",
  "linkReferences": {},
  "deployedLinkReferences": {}
}