{
  "_format": "hh-sol-artifact-1",
  "contractName": "CMTATStandaloneAllowlist",
  "sourceName": "contracts/deployment/allowlist/CMTATStandaloneAllowlist.sol",
  "abi": [
    {
      "inputs": [
        {
          "internalType": "address",
          "name": "forwarderIrrevocable",
          "type": "address"
        },
        {
          "internalType": "address",
          "name": "admin",
          "type": "address"
        },
        {
          "components": [
            {
              "internalType": "string",
              "name": "name",
              "type": "string"
            },
            {
              "internalType": "string",
              "name": "symbol",
              "type": "string"
            },
            {
              "internalType": "uint8",
              "name": "decimalsIrrevocable",
              "type": "uint8"
            }
          ],
          "internalType": "struct ICMTATConstructor.ERC20Attributes",
          "name": "ERC20Attributes_",
          "type": "tuple"
        },
        {
          "components": [
            {
              "internalType": "string",
              "name": "tokenId",
              "type": "string"
            },
            {
              "components": [
                {
                  "internalType": "string",
                  "name": "name",
                  "type": "string"
                },
                {
                  "internalType": "string",
                  "name": "uri",
                  "type": "string"
                },
                {
                  "internalType": "bytes32",
                  "name": "documentHash",
                  "type": "bytes32"
                }
              ],
              "internalType": "struct IERC1643CMTAT.DocumentInfo",
              "name": "terms",
              "type": "tuple"
            },
            {
              "internalType": "string",
              "name": "information",
              "type": "string"
            }
          ],
          "internalType": "struct ICMTATConstructor.ExtraInformationAttributes",
          "name": "extraInformationAttributes_",
          "type": "tuple"
        },
        {
          "internalType": "contract ISnapshotEngine",
          "name": "snapshotEngine_",
          "type": "address"
        },
        {
          "internalType": "contract IERC1643",
          "name": "documentEngine_",
          "type": "address"
        }
      ],
      "stateMutability": "nonpayable",
      "type": "constructor"
    },
    {
      "inputs": [],
      "name": "AccessControlBadConfirmation",
      "type": "error"
    },
    {
      "inputs": [
        {
          "internalType": "address",
          "name": "account",
          "type": "address"
        },
        {
          "internalType": "bytes32",
          "name": "neededRole",
          "type": "bytes32"
        }
      ],
      "name": "AccessControlUnauthorizedAccount",
      "type": "error"
    },
    {
      "inputs": [],
      "name": "CMTAT_AccessControlModule_AddressZeroNotAllowed",
      "type": "error"
    },
    {
      "inputs": [],
      "name": "CMTAT_BurnModule_AccountsValueslengthMismatch",
      "type": "error"
    },
    {
      "inputs": [],
      "name": "CMTAT_BurnModule_EmptyAccounts",
      "type": "error"
    },
    {
      "inputs": [],
      "name": "CMTAT_DocumentEngineModule_SameValue",
      "type": "error"
    },
    {
      "inputs": [],
      "name": "CMTAT_ERC20EnforcementModule_ValueExceedsActiveBalance",
      "type": "error"
    },
    {
      "inputs": [],
      "name": "CMTAT_ERC20EnforcementModule_ValueExceedsAvailableBalance",
      "type": "error"
    },
    {
      "inputs": [],
      "name": "CMTAT_ERC20EnforcementModule_ValueExceedsFrozenBalance",
      "type": "error"
    },
    {
      "inputs": [],
      "name": "CMTAT_Enforcement_AccountsValueslengthMismatch",
      "type": "error"
    },
    {
      "inputs": [],
      "name": "CMTAT_Enforcement_EmptyAccounts",
      "type": "error"
    },
    {
      "inputs": [
        {
          "internalType": "address",
          "name": "from",
          "type": "address"
        },
        {
          "internalType": "address",
          "name": "to",
          "type": "address"
        },
        {
          "internalType": "uint256",
          "name": "amount",
          "type": "uint256"
        }
      ],
      "name": "CMTAT_InvalidTransfer",
      "type": "error"
    },
    {
      "inputs": [],
      "name": "CMTAT_MintModule_AccountsValueslengthMismatch",
      "type": "error"
    },
    {
      "inputs": [],
      "name": "CMTAT_MintModule_EmptyAccounts",
      "type": "error"
    },
    {
      "inputs": [],
      "name": "CMTAT_MintModule_EmptyTos",
      "type": "error"
    },
    {
      "inputs": [],
      "name": "CMTAT_MintModule_TosValueslengthMismatch",
      "type": "error"
    },
    {
      "inputs": [],
      "name": "CMTAT_PauseModule_ContractIsDeactivated",
      "type": "error"
    },
    {
      "inputs": [],
      "name": "CMTAT_SnapshotModule_SameValue",
      "type": "error"
    },
    {
      "inputs": [
        {
          "internalType": "address",
          "name": "spender",
          "type": "address"
        },
        {
          "internalType": "uint256",
          "name": "allowance",
          "type": "uint256"
        },
        {
          "internalType": "uint256",
          "name": "needed",
          "type": "uint256"
        }
      ],
      "name": "ERC20InsufficientAllowance",
      "type": "error"
    },
    {
      "inputs": [
        {
          "internalType": "address",
          "name": "sender",
          "type": "address"
        },
        {
          "internalType": "uint256",
          "name": "balance",
          "type": "uint256"
        },
        {
          "internalType": "uint256",
          "name": "needed",
          "type": "uint256"
        }
      ],
      "name": "ERC20InsufficientBalance",
      "type": "error"
    },
    {
      "inputs": [
        {
          "internalType": "address",
          "name": "approver",
          "type": "address"
        }
      ],
      "name": "ERC20InvalidApprover",
      "type": "error"
    },
    {
      "inputs": [
        {
          "internalType": "address",
          "name": "receiver",
          "type": "address"
        }
      ],
      "name": "ERC20InvalidReceiver",
      "type": "error"
    },
    {
      "inputs": [
        {
          "internalType": "address",
          "name": "sender",
          "type": "address"
        }
      ],
      "name": "ERC20InvalidSender",
      "type": "error"
    },
    {
      "inputs": [
        {
          "internalType": "address",
          "name": "spender",
          "type": "address"
        }
      ],
      "name": "ERC20InvalidSpender",
      "type": "error"
    },
    {
      "inputs": [],
      "name": "EnforcedPause",
      "type": "error"
    },
    {
      "inputs": [],
      "name": "ExpectedPause",
      "type": "error"
    },
    {
      "inputs": [],
      "name": "InvalidInitialization",
      "type": "error"
    },
    {
      "inputs": [],
      "name": "NotInitializing",
      "type": "error"
    },
    {
      "anonymous": false,
      "inputs": [
        {
          "indexed": true,
          "internalType": "address",
          "name": "account",
          "type": "address"
        },
        {
          "indexed": true,
          "internalType": "bool",
          "name": "status",
          "type": "bool"
        },
        {
          "indexed": true,
          "internalType": "address",
          "name": "enforcer",
          "type": "address"
        },
        {
          "indexed": false,
          "internalType": "bytes",
          "name": "data",
          "type": "bytes"
        }
      ],
      "name": "AddressAddedToAllowlist",
      "type": "event"
    },
    {
      "anonymous": false,
      "inputs": [
        {
          "indexed": true,
          "internalType": "address",
          "name": "account",
          "type": "address"
        },
        {
          "indexed": true,
          "internalType": "bool",
          "name": "isFrozen",
          "type": "bool"
        },
        {
          "indexed": true,
          "internalType": "address",
          "name": "enforcer",
          "type": "address"
        },
        {
          "indexed": false,
          "internalType": "bytes",
          "name": "data",
          "type": "bytes"
        }
      ],
      "name": "AddressFrozen",
      "type": "event"
    },
    {
      "anonymous": false,
      "inputs": [
        {
          "indexed": true,
          "internalType": "address",
          "name": "operator",
          "type": "address"
        },
        {
          "indexed": false,
          "internalType": "bool",
          "name": "status",
          "type": "bool"
        }
      ],
      "name": "AllowlistEnableStatus",
      "type": "event"
    },
    {
      "anonymous": false,
      "inputs": [
        {
          "indexed": true,
          "internalType": "address",
          "name": "owner",
          "type": "address"
        },
        {
          "indexed": true,
          "internalType": "address",
          "name": "spender",
          "type": "address"
        },
        {
          "indexed": false,
          "internalType": "uint256",
          "name": "value",
          "type": "uint256"
        }
      ],
      "name": "Approval",
      "type": "event"
    },
    {
      "anonymous": false,
      "inputs": [
        {
          "indexed": true,
          "internalType": "address",
          "name": "burner",
          "type": "address"
        },
        {
          "indexed": false,
          "internalType": "address[]",
          "name": "accounts",
          "type": "address[]"
        },
        {
          "indexed": false,
          "internalType": "uint256[]",
          "name": "values",
          "type": "uint256[]"
        },
        {
          "indexed": false,
          "internalType": "bytes",
          "name": "data",
          "type": "bytes"
        }
      ],
      "name": "BatchBurn",
      "type": "event"
    },
    {
      "anonymous": false,
      "inputs": [
        {
          "indexed": true,
          "internalType": "address",
          "name": "minter",
          "type": "address"
        },
        {
          "indexed": false,
          "internalType": "address[]",
          "name": "accounts",
          "type": "address[]"
        },
        {
          "indexed": false,
          "internalType": "uint256[]",
          "name": "values",
          "type": "uint256[]"
        }
      ],
      "name": "BatchMint",
      "type": "event"
    },
    {
      "anonymous": false,
      "inputs": [
        {
          "indexed": true,
          "internalType": "address",
          "name": "burner",
          "type": "address"
        },
        {
          "indexed": true,
          "internalType": "address",
          "name": "account",
          "type": "address"
        },
        {
          "indexed": false,
          "internalType": "uint256",
          "name": "value",
          "type": "uint256"
        },
        {
          "indexed": false,
          "internalType": "bytes",
          "name": "data",
          "type": "bytes"
        }
      ],
      "name": "Burn",
      "type": "event"
    },
    {
      "anonymous": false,
      "inputs": [
        {
          "indexed": false,
          "internalType": "address",
          "name": "account",
          "type": "address"
        }
      ],
      "name": "Deactivated",
      "type": "event"
    },
    {
      "anonymous": false,
      "inputs": [
        {
          "indexed": true,
          "internalType": "contract IERC1643",
          "name": "newDocumentEngine",
          "type": "address"
        }
      ],
      "name": "DocumentEngine",
      "type": "event"
    },
    {
      "anonymous": false,
      "inputs": [
        {
          "indexed": true,
          "internalType": "address",
          "name": "enforcer",
          "type": "address"
        },
        {
          "indexed": true,
          "internalType": "address",
          "name": "account",
          "type": "address"
        },
        {
          "indexed": false,
          "internalType": "uint256",
          "name": "amount",
          "type": "uint256"
        },
        {
          "indexed": false,
          "internalType": "bytes",
          "name": "data",
          "type": "bytes"
        }
      ],
      "name": "Enforcement",
      "type": "event"
    },
    {
      "anonymous": false,
      "inputs": [
        {
          "indexed": false,
          "internalType": "string",
          "name": "newInformation",
          "type": "string"
        }
      ],
      "name": "Information",
      "type": "event"
    },
    {
      "anonymous": false,
      "inputs": [
        {
          "indexed": false,
          "internalType": "uint64",
          "name": "version",
          "type": "uint64"
        }
      ],
      "name": "Initialized",
      "type": "event"
    },
    {
      "anonymous": false,
      "inputs": [
        {
          "indexed": true,
          "internalType": "address",
          "name": "minter",
          "type": "address"
        },
        {
          "indexed": true,
          "internalType": "address",
          "name": "account",
          "type": "address"
        },
        {
          "indexed": false,
          "internalType": "uint256",
          "name": "value",
          "type": "uint256"
        },
        {
          "indexed": false,
          "internalType": "bytes",
          "name": "data",
          "type": "bytes"
        }
      ],
      "name": "Mint",
      "type": "event"
    },
    {
      "anonymous": false,
      "inputs": [
        {
          "indexed": true,
          "internalType": "string",
          "name": "newNameIndexed",
          "type": "string"
        },
        {
          "indexed": false,
          "internalType": "string",
          "name": "newName",
          "type": "string"
        }
      ],
      "name": "Name",
      "type": "event"
    },
    {
      "anonymous": false,
      "inputs": [
        {
          "indexed": false,
          "internalType": "address",
          "name": "account",
          "type": "address"
        }
      ],
      "name": "Paused",
      "type": "event"
    },
    {
      "anonymous": false,
      "inputs": [
        {
          "indexed": true,
          "internalType": "bytes32",
          "name": "role",
          "type": "bytes32"
        },
        {
          "indexed": true,
          "internalType": "bytes32",
          "name": "previousAdminRole",
          "type": "bytes32"
        },
        {
          "indexed": true,
          "internalType": "bytes32",
          "name": "newAdminRole",
          "type": "bytes32"
        }
      ],
      "name": "RoleAdminChanged",
      "type": "event"
    },
    {
      "anonymous": false,
      "inputs": [
        {
          "indexed": true,
          "internalType": "bytes32",
          "name": "role",
          "type": "bytes32"
        },
        {
          "indexed": true,
          "internalType": "address",
          "name": "account",
          "type": "address"
        },
        {
          "indexed": true,
          "internalType": "address",
          "name": "sender",
          "type": "address"
        }
      ],
      "name": "RoleGranted",
      "type": "event"
    },
    {
      "anonymous": false,
      "inputs": [
        {
          "indexed": true,
          "internalType": "bytes32",
          "name": "role",
          "type": "bytes32"
        },
        {
          "indexed": true,
          "internalType": "address",
          "name": "account",
          "type": "address"
        },
        {
          "indexed": true,
          "internalType": "address",
          "name": "sender",
          "type": "address"
        }
      ],
      "name": "RoleRevoked",
      "type": "event"
    },
    {
      "anonymous": false,
      "inputs": [
        {
          "indexed": true,
          "internalType": "contract ISnapshotEngine",
          "name": "newSnapshotEngine",
          "type": "address"
        }
      ],
      "name": "SnapshotEngine",
      "type": "event"
    },
    {
      "anonymous": false,
      "inputs": [
        {
          "indexed": true,
          "internalType": "address",
          "name": "account",
          "type": "address"
        },
        {
          "indexed": true,
          "internalType": "address",
          "name": "spender",
          "type": "address"
        },
        {
          "indexed": false,
          "internalType": "uint256",
          "name": "value",
          "type": "uint256"
        }
      ],
      "name": "Spend",
      "type": "event"
    },
    {
      "anonymous": false,
      "inputs": [
        {
          "indexed": true,
          "internalType": "string",
          "name": "newSymbolIndexed",
          "type": "string"
        },
        {
          "indexed": false,
          "internalType": "string",
          "name": "newSymbol",
          "type": "string"
        }
      ],
      "name": "Symbol",
      "type": "event"
    },
    {
      "anonymous": false,
      "inputs": [
        {
          "components": [
            {
              "internalType": "string",
              "name": "name",
              "type": "string"
            },
            {
              "components": [
                {
                  "internalType": "string",
                  "name": "uri",
                  "type": "string"
                },
                {
                  "internalType": "bytes32",
                  "name": "documentHash",
                  "type": "bytes32"
                },
                {
                  "internalType": "uint256",
                  "name": "lastModified",
                  "type": "uint256"
                }
              ],
              "internalType": "struct IERC1643.Document",
              "name": "doc",
              "type": "tuple"
            }
          ],
          "indexed": false,
          "internalType": "struct ICMTATBase.Terms",
          "name": "newTerm",
          "type": "tuple"
        }
      ],
      "name": "Term",
      "type": "event"
    },
    {
      "anonymous": false,
      "inputs": [
        {
          "indexed": true,
          "internalType": "string",
          "name": "newTokenIdIndexed",
          "type": "string"
        },
        {
          "indexed": false,
          "internalType": "string",
          "name": "newTokenId",
          "type": "string"
        }
      ],
      "name": "TokenId",
      "type": "event"
    },
    {
      "anonymous": false,
      "inputs": [
        {
          "indexed": true,
          "internalType": "address",
          "name": "account",
          "type": "address"
        },
        {
          "indexed": false,
          "internalType": "uint256",
          "name": "value",
          "type": "uint256"
        },
        {
          "indexed": false,
          "internalType": "bytes",
          "name": "data",
          "type": "bytes"
        }
      ],
      "name": "TokensFrozen",
      "type": "event"
    },
    {
      "anonymous": false,
      "inputs": [
        {
          "indexed": true,
          "internalType": "address",
          "name": "account",
          "type": "address"
        },
        {
          "indexed": false,
          "internalType": "uint256",
          "name": "value",
          "type": "uint256"
        },
        {
          "indexed": false,
          "internalType": "bytes",
          "name": "data",
          "type": "bytes"
        }
      ],
      "name": "TokensUnfrozen",
      "type": "event"
    },
    {
      "anonymous": false,
      "inputs": [
        {
          "indexed": true,
          "internalType": "address",
          "name": "from",
          "type": "address"
        },
        {
          "indexed": true,
          "internalType": "address",
          "name": "to",
          "type": "address"
        },
        {
          "indexed": false,
          "internalType": "uint256",
          "name": "value",
          "type": "uint256"
        }
      ],
      "name": "Transfer",
      "type": "event"
    },
    {
      "anonymous": false,
      "inputs": [
        {
          "indexed": false,
          "internalType": "address",
          "name": "account",
          "type": "address"
        }
      ],
      "name": "Unpaused",
      "type": "event"
    },
    {
      "inputs": [],
      "name": "ALLOWLIST_ROLE",
      "outputs": [
        {
          "internalType": "bytes32",
          "name": "",
          "type": "bytes32"
        }
      ],
      "stateMutability": "view",
      "type": "function"
    },
    {
      "inputs": [],
      "name": "BURNER_ROLE",
      "outputs": [
        {
          "internalType": "bytes32",
          "name": "",
          "type": "bytes32"
        }
      ],
      "stateMutability": "view",
      "type": "function"
    },
    {
      "inputs": [],
      "name": "DEFAULT_ADMIN_ROLE",
      "outputs": [
        {
          "internalType": "bytes32",
          "name": "",
          "type": "bytes32"
        }
      ],
      "stateMutability": "view",
      "type": "function"
    },
    {
      "inputs": [],
      "name": "DOCUMENT_ROLE",
      "outputs": [
        {
          "internalType": "bytes32",
          "name": "",
          "type": "bytes32"
        }
      ],
      "stateMutability": "view",
      "type": "function"
    },
    {
      "inputs": [],
      "name": "ENFORCER_ROLE",
      "outputs": [
        {
          "internalType": "bytes32",
          "name": "",
          "type": "bytes32"
        }
      ],
      "stateMutability": "view",
      "type": "function"
    },
    {
      "inputs": [],
      "name": "ERC20ENFORCER_ROLE",
      "outputs": [
        {
          "internalType": "bytes32",
          "name": "",
          "type": "bytes32"
        }
      ],
      "stateMutability": "view",
      "type": "function"
    },
    {
      "inputs": [],
      "name": "EXTRA_INFORMATION_ROLE",
      "outputs": [
        {
          "internalType": "bytes32",
          "name": "",
          "type": "bytes32"
        }
      ],
      "stateMutability": "view",
      "type": "function"
    },
    {
      "inputs": [],
      "name": "MINTER_ROLE",
      "outputs": [
        {
          "internalType": "bytes32",
          "name": "",
          "type": "bytes32"
        }
      ],
      "stateMutability": "view",
      "type": "function"
    },
    {
      "inputs": [],
      "name": "PAUSER_ROLE",
      "outputs": [
        {
          "internalType": "bytes32",
          "name": "",
          "type": "bytes32"
        }
      ],
      "stateMutability": "view",
      "type": "function"
    },
    {
      "inputs": [],
      "name": "SNAPSHOOTER_ROLE",
      "outputs": [
        {
          "internalType": "bytes32",
          "name": "",
          "type": "bytes32"
        }
      ],
      "stateMutability": "view",
      "type": "function"
    },
    {
      "inputs": [
        {
          "internalType": "address",
          "name": "owner",
          "type": "address"
        },
        {
          "internalType": "address",
          "name": "spender",
          "type": "address"
        }
      ],
      "name": "allowance",
      "outputs": [
        {
          "internalType": "uint256",
          "name": "",
          "type": "uint256"
        }
      ],
      "stateMutability": "view",
      "type": "function"
    },
    {
      "inputs": [
        {
          "internalType": "address",
          "name": "spender",
          "type": "address"
        },
        {
          "internalType": "uint256",
          "name": "value",
          "type": "uint256"
        }
      ],
      "name": "approve",
      "outputs": [
        {
          "internalType": "bool",
          "name": "",
          "type": "bool"
        }
      ],
      "stateMutability": "nonpayable",
      "type": "function"
    },
    {
      "inputs": [
        {
          "internalType": "address",
          "name": "account",
          "type": "address"
        }
      ],
      "name": "balanceOf",
      "outputs": [
        {
          "internalType": "uint256",
          "name": "",
          "type": "uint256"
        }
      ],
      "stateMutability": "view",
      "type": "function"
    },
    {
      "inputs": [
        {
          "internalType": "address[]",
          "name": "addresses",
          "type": "address[]"
        }
      ],
      "name": "batchBalanceOf",
      "outputs": [
        {
          "internalType": "uint256[]",
          "name": "balances",
          "type": "uint256[]"
        },
        {
          "internalType": "uint256",
          "name": "totalSupply_",
          "type": "uint256"
        }
      ],
      "stateMutability": "view",
      "type": "function"
    },
    {
      "inputs": [
        {
          "internalType": "address[]",
          "name": "accounts",
          "type": "address[]"
        },
        {
          "internalType": "uint256[]",
          "name": "values",
          "type": "uint256[]"
        }
      ],
      "name": "batchBurn",
      "outputs": [],
      "stateMutability": "nonpayable",
      "type": "function"
    },
    {
      "inputs": [
        {
          "internalType": "address[]",
          "name": "accounts",
          "type": "address[]"
        },
        {
          "internalType": "uint256[]",
          "name": "values",
          "type": "uint256[]"
        },
        {
          "internalType": "bytes",
          "name": "data",
          "type": "bytes"
        }
      ],
      "name": "batchBurn",
      "outputs": [],
      "stateMutability": "nonpayable",
      "type": "function"
    },
    {
      "inputs": [
        {
          "internalType": "address[]",
          "name": "accounts",
          "type": "address[]"
        },
        {
          "internalType": "uint256[]",
          "name": "values",
          "type": "uint256[]"
        }
      ],
      "name": "batchMint",
      "outputs": [],
      "stateMutability": "nonpayable",
      "type": "function"
    },
    {
      "inputs": [
        {
          "internalType": "address[]",
          "name": "accounts",
          "type": "address[]"
        },
        {
          "internalType": "bool[]",
          "name": "status",
          "type": "bool[]"
        }
      ],
      "name": "batchSetAddressAllowlist",
      "outputs": [],
      "stateMutability": "nonpayable",
      "type": "function"
    },
    {
      "inputs": [
        {
          "internalType": "address[]",
          "name": "accounts",
          "type": "address[]"
        },
        {
          "internalType": "bool[]",
          "name": "freezes",
          "type": "bool[]"
        }
      ],
      "name": "batchSetAddressFrozen",
      "outputs": [],
      "stateMutability": "nonpayable",
      "type": "function"
    },
    {
      "inputs": [
        {
          "internalType": "address[]",
          "name": "tos",
          "type": "address[]"
        },
        {
          "internalType": "uint256[]",
          "name": "values",
          "type": "uint256[]"
        }
      ],
      "name": "batchTransfer",
      "outputs": [
        {
          "internalType": "bool",
          "name": "success_",
          "type": "bool"
        }
      ],
      "stateMutability": "nonpayable",
      "type": "function"
    },
    {
      "inputs": [
        {
          "internalType": "address",
          "name": "account",
          "type": "address"
        },
        {
          "internalType": "uint256",
          "name": "value",
          "type": "uint256"
        },
        {
          "internalType": "bytes",
          "name": "data",
          "type": "bytes"
        }
      ],
      "name": "burn",
      "outputs": [],
      "stateMutability": "nonpayable",
      "type": "function"
    },
    {
      "inputs": [
        {
          "internalType": "address",
          "name": "account",
          "type": "address"
        },
        {
          "internalType": "uint256",
          "name": "value",
          "type": "uint256"
        }
      ],
      "name": "burn",
      "outputs": [],
      "stateMutability": "nonpayable",
      "type": "function"
    },
    {
      "inputs": [
        {
          "internalType": "address",
          "name": "from",
          "type": "address"
        },
        {
          "internalType": "address",
          "name": "to",
          "type": "address"
        },
        {
          "internalType": "uint256",
          "name": "amountToBurn",
          "type": "uint256"
        },
        {
          "internalType": "uint256",
          "name": "amountToMint",
          "type": "uint256"
        },
        {
          "internalType": "bytes",
          "name": "data",
          "type": "bytes"
        }
      ],
      "name": "burnAndMint",
      "outputs": [],
      "stateMutability": "nonpayable",
      "type": "function"
    },
    {
      "inputs": [
        {
          "internalType": "address",
          "name": "from",
          "type": "address"
        },
        {
          "internalType": "address",
          "name": "to",
          "type": "address"
        },
        {
          "internalType": "uint256",
          "name": "value",
          "type": "uint256"
        }
      ],
      "name": "canTransfer",
      "outputs": [
        {
          "internalType": "bool",
          "name": "",
          "type": "bool"
        }
      ],
      "stateMutability": "view",
      "type": "function"
    },
    {
      "inputs": [
        {
          "internalType": "address",
          "name": "spender",
          "type": "address"
        },
        {
          "internalType": "address",
          "name": "from",
          "type": "address"
        },
        {
          "internalType": "address",
          "name": "to",
          "type": "address"
        },
        {
          "internalType": "uint256",
          "name": "value",
          "type": "uint256"
        }
      ],
      "name": "canTransferFrom",
      "outputs": [
        {
          "internalType": "bool",
          "name": "",
          "type": "bool"
        }
      ],
      "stateMutability": "view",
      "type": "function"
    },
    {
      "inputs": [],
      "name": "deactivateContract",
      "outputs": [],
      "stateMutability": "nonpayable",
      "type": "function"
    },
    {
      "inputs": [],
      "name": "deactivated",
      "outputs": [
        {
          "internalType": "bool",
          "name": "",
          "type": "bool"
        }
      ],
      "stateMutability": "view",
      "type": "function"
    },
    {
      "inputs": [],
      "name": "decimals",
      "outputs": [
        {
          "internalType": "uint8",
          "name": "",
          "type": "uint8"
        }
      ],
      "stateMutability": "view",
      "type": "function"
    },
    {
      "inputs": [],
      "name": "documentEngine",
      "outputs": [
        {
          "internalType": "contract IERC1643",
          "name": "documentEngine_",
          "type": "address"
        }
      ],
      "stateMutability": "view",
      "type": "function"
    },
    {
      "inputs": [
        {
          "internalType": "bool",
          "name": "status",
          "type": "bool"
        }
      ],
      "name": "enableAllowlist",
      "outputs": [],
      "stateMutability": "nonpayable",
      "type": "function"
    },
    {
      "inputs": [
        {
          "internalType": "address",
          "name": "from",
          "type": "address"
        },
        {
          "internalType": "address",
          "name": "to",
          "type": "address"
        },
        {
          "internalType": "uint256",
          "name": "value",
          "type": "uint256"
        },
        {
          "internalType": "bytes",
          "name": "data",
          "type": "bytes"
        }
      ],
      "name": "forcedTransfer",
      "outputs": [
        {
          "internalType": "bool",
          "name": "",
          "type": "bool"
        }
      ],
      "stateMutability": "nonpayable",
      "type": "function"
    },
    {
      "inputs": [
        {
          "internalType": "address",
          "name": "from",
          "type": "address"
        },
        {
          "internalType": "address",
          "name": "to",
          "type": "address"
        },
        {
          "internalType": "uint256",
          "name": "value",
          "type": "uint256"
        }
      ],
      "name": "forcedTransfer",
      "outputs": [
        {
          "internalType": "bool",
          "name": "",
          "type": "bool"
        }
      ],
      "stateMutability": "nonpayable",
      "type": "function"
    },
    {
      "inputs": [
        {
          "internalType": "address",
          "name": "account",
          "type": "address"
        },
        {
          "internalType": "uint256",
          "name": "value",
          "type": "uint256"
        }
      ],
      "name": "freezePartialTokens",
      "outputs": [],
      "stateMutability": "nonpayable",
      "type": "function"
    },
    {
      "inputs": [
        {
          "internalType": "address",
          "name": "account",
          "type": "address"
        },
        {
          "internalType": "uint256",
          "name": "value",
          "type": "uint256"
        },
        {
          "internalType": "bytes",
          "name": "data",
          "type": "bytes"
        }
      ],
      "name": "freezePartialTokens",
      "outputs": [],
      "stateMutability": "nonpayable",
      "type": "function"
    },
    {
      "inputs": [
        {
          "internalType": "address",
          "name": "account",
          "type": "address"
        }
      ],
      "name": "getActiveBalanceOf",
      "outputs": [
        {
          "internalType": "uint256",
          "name": "",
          "type": "uint256"
        }
      ],
      "stateMutability": "view",
      "type": "function"
    },
    {
      "inputs": [],
      "name": "getAllDocuments",
      "outputs": [
        {
          "internalType": "string[]",
          "name": "documentNames_",
          "type": "string[]"
        }
      ],
      "stateMutability": "view",
      "type": "function"
    },
    {
      "inputs": [
        {
          "internalType": "string",
          "name": "name",
          "type": "string"
        }
      ],
      "name": "getDocument",
      "outputs": [
        {
          "components": [
            {
              "internalType": "string",
              "name": "uri",
              "type": "string"
            },
            {
              "internalType": "bytes32",
              "name": "documentHash",
              "type": "bytes32"
            },
            {
              "internalType": "uint256",
              "name": "lastModified",
              "type": "uint256"
            }
          ],
          "internalType": "struct IERC1643.Document",
          "name": "document",
          "type": "tuple"
        }
      ],
      "stateMutability": "view",
      "type": "function"
    },
    {
      "inputs": [
        {
          "internalType": "address",
          "name": "account",
          "type": "address"
        }
      ],
      "name": "getFrozenTokens",
      "outputs": [
        {
          "internalType": "uint256",
          "name": "",
          "type": "uint256"
        }
      ],
      "stateMutability": "view",
      "type": "function"
    },
    {
      "inputs": [
        {
          "internalType": "bytes32",
          "name": "role",
          "type": "bytes32"
        }
      ],
      "name": "getRoleAdmin",
      "outputs": [
        {
          "internalType": "bytes32",
          "name": "",
          "type": "bytes32"
        }
      ],
      "stateMutability": "view",
      "type": "function"
    },
    {
      "inputs": [
        {
          "internalType": "bytes32",
          "name": "role",
          "type": "bytes32"
        },
        {
          "internalType": "address",
          "name": "account",
          "type": "address"
        }
      ],
      "name": "grantRole",
      "outputs": [],
      "stateMutability": "nonpayable",
      "type": "function"
    },
    {
      "inputs": [
        {
          "internalType": "bytes32",
          "name": "role",
          "type": "bytes32"
        },
        {
          "internalType": "address",
          "name": "account",
          "type": "address"
        }
      ],
      "name": "hasRole",
      "outputs": [
        {
          "internalType": "bool",
          "name": "",
          "type": "bool"
        }
      ],
      "stateMutability": "view",
      "type": "function"
    },
    {
      "inputs": [],
      "name": "information",
      "outputs": [
        {
          "internalType": "string",
          "name": "information_",
          "type": "string"
        }
      ],
      "stateMutability": "view",
      "type": "function"
    },
    {
      "inputs": [
        {
          "internalType": "address",
          "name": "admin",
          "type": "address"
        },
        {
          "components": [
            {
              "internalType": "string",
              "name": "name",
              "type": "string"
            },
            {
              "internalType": "string",
              "name": "symbol",
              "type": "string"
            },
            {
              "internalType": "uint8",
              "name": "decimalsIrrevocable",
              "type": "uint8"
            }
          ],
          "internalType": "struct ICMTATConstructor.ERC20Attributes",
          "name": "ERC20Attributes_",
          "type": "tuple"
        },
        {
          "components": [
            {
              "internalType": "string",
              "name": "tokenId",
              "type": "string"
            },
            {
              "components": [
                {
                  "internalType": "string",
                  "name": "name",
                  "type": "string"
                },
                {
                  "internalType": "string",
                  "name": "uri",
                  "type": "string"
                },
                {
                  "internalType": "bytes32",
                  "name": "documentHash",
                  "type": "bytes32"
                }
              ],
              "internalType": "struct IERC1643CMTAT.DocumentInfo",
              "name": "terms",
              "type": "tuple"
            },
            {
              "internalType": "string",
              "name": "information",
              "type": "string"
            }
          ],
          "internalType": "struct ICMTATConstructor.ExtraInformationAttributes",
          "name": "extraInformationAttributes_",
          "type": "tuple"
        },
        {
          "internalType": "contract ISnapshotEngine",
          "name": "snapshotEngine_",
          "type": "address"
        },
        {
          "internalType": "contract IERC1643",
          "name": "documentEngine_",
          "type": "address"
        }
      ],
      "name": "initialize",
      "outputs": [],
      "stateMutability": "nonpayable",
      "type": "function"
    },
    {
      "inputs": [],
      "name": "isAllowlistEnabled",
      "outputs": [
        {
          "internalType": "bool",
          "name": "",
          "type": "bool"
        }
      ],
      "stateMutability": "view",
      "type": "function"
    },
    {
      "inputs": [
        {
          "internalType": "address",
          "name": "account",
          "type": "address"
        }
      ],
      "name": "isAllowlisted",
      "outputs": [
        {
          "internalType": "bool",
          "name": "",
          "type": "bool"
        }
      ],
      "stateMutability": "view",
      "type": "function"
    },
    {
      "inputs": [
        {
          "internalType": "address",
          "name": "account",
          "type": "address"
        }
      ],
      "name": "isFrozen",
      "outputs": [
        {
          "internalType": "bool",
          "name": "isFrozen_",
          "type": "bool"
        }
      ],
      "stateMutability": "view",
      "type": "function"
    },
    {
      "inputs": [
        {
          "internalType": "address",
          "name": "forwarder",
          "type": "address"
        }
      ],
      "name": "isTrustedForwarder",
      "outputs": [
        {
          "internalType": "bool",
          "name": "",
          "type": "bool"
        }
      ],
      "stateMutability": "view",
      "type": "function"
    },
    {
      "inputs": [
        {
          "internalType": "address",
          "name": "account",
          "type": "address"
        },
        {
          "internalType": "uint256",
          "name": "value",
          "type": "uint256"
        }
      ],
      "name": "mint",
      "outputs": [],
      "stateMutability": "nonpayable",
      "type": "function"
    },
    {
      "inputs": [
        {
          "internalType": "address",
          "name": "account",
          "type": "address"
        },
        {
          "internalType": "uint256",
          "name": "value",
          "type": "uint256"
        },
        {
          "internalType": "bytes",
          "name": "data",
          "type": "bytes"
        }
      ],
      "name": "mint",
      "outputs": [],
      "stateMutability": "nonpayable",
      "type": "function"
    },
    {
      "inputs": [],
      "name": "name",
      "outputs": [
        {
          "internalType": "string",
          "name": "",
          "type": "string"
        }
      ],
      "stateMutability": "view",
      "type": "function"
    },
    {
      "inputs": [],
      "name": "pause",
      "outputs": [],
      "stateMutability": "nonpayable",
      "type": "function"
    },
    {
      "inputs": [],
      "name": "paused",
      "outputs": [
        {
          "internalType": "bool",
          "name": "",
          "type": "bool"
        }
      ],
      "stateMutability": "view",
      "type": "function"
    },
    {
      "inputs": [
        {
          "internalType": "bytes32",
          "name": "role",
          "type": "bytes32"
        },
        {
          "internalType": "address",
          "name": "callerConfirmation",
          "type": "address"
        }
      ],
      "name": "renounceRole",
      "outputs": [],
      "stateMutability": "nonpayable",
      "type": "function"
    },
    {
      "inputs": [
        {
          "internalType": "bytes32",
          "name": "role",
          "type": "bytes32"
        },
        {
          "internalType": "address",
          "name": "account",
          "type": "address"
        }
      ],
      "name": "revokeRole",
      "outputs": [],
      "stateMutability": "nonpayable",
      "type": "function"
    },
    {
      "inputs": [
        {
          "internalType": "address",
          "name": "account",
          "type": "address"
        },
        {
          "internalType": "bool",
          "name": "status",
          "type": "bool"
        },
        {
          "internalType": "bytes",
          "name": "data",
          "type": "bytes"
        }
      ],
      "name": "setAddressAllowlist",
      "outputs": [],
      "stateMutability": "nonpayable",
      "type": "function"
    },
    {
      "inputs": [
        {
          "internalType": "address",
          "name": "account",
          "type": "address"
        },
        {
          "internalType": "bool",
          "name": "status",
          "type": "bool"
        }
      ],
      "name": "setAddressAllowlist",
      "outputs": [],
      "stateMutability": "nonpayable",
      "type": "function"
    },
    {
      "inputs": [
        {
          "internalType": "address",
          "name": "account",
          "type": "address"
        },
        {
          "internalType": "bool",
          "name": "freeze",
          "type": "bool"
        },
        {
          "internalType": "bytes",
          "name": "data",
          "type": "bytes"
        }
      ],
      "name": "setAddressFrozen",
      "outputs": [],
      "stateMutability": "nonpayable",
      "type": "function"
    },
    {
      "inputs": [
        {
          "internalType": "address",
          "name": "account",
          "type": "address"
        },
        {
          "internalType": "bool",
          "name": "freeze",
          "type": "bool"
        }
      ],
      "name": "setAddressFrozen",
      "outputs": [],
      "stateMutability": "nonpayable",
      "type": "function"
    },
    {
      "inputs": [
        {
          "internalType": "contract IERC1643",
          "name": "documentEngine_",
          "type": "address"
        }
      ],
      "name": "setDocumentEngine",
      "outputs": [],
      "stateMutability": "nonpayable",
      "type": "function"
    },
    {
      "inputs": [
        {
          "internalType": "string",
          "name": "information_",
          "type": "string"
        }
      ],
      "name": "setInformation",
      "outputs": [],
      "stateMutability": "nonpayable",
      "type": "function"
    },
    {
      "inputs": [
        {
          "internalType": "string",
          "name": "name_",
          "type": "string"
        }
      ],
      "name": "setName",
      "outputs": [],
      "stateMutability": "nonpayable",
      "type": "function"
    },
    {
      "inputs": [
        {
          "internalType": "contract ISnapshotEngine",
          "name": "snapshotEngine_",
          "type": "address"
        }
      ],
      "name": "setSnapshotEngine",
      "outputs": [],
      "stateMutability": "nonpayable",
      "type": "function"
    },
    {
      "inputs": [
        {
          "internalType": "string",
          "name": "symbol_",
          "type": "string"
        }
      ],
      "name": "setSymbol",
      "outputs": [],
      "stateMutability": "nonpayable",
      "type": "function"
    },
    {
      "inputs": [
        {
          "components": [
            {
              "internalType": "string",
              "name": "name",
              "type": "string"
            },
            {
              "internalType": "string",
              "name": "uri",
              "type": "string"
            },
            {
              "internalType": "bytes32",
              "name": "documentHash",
              "type": "bytes32"
            }
          ],
          "internalType": "struct IERC1643CMTAT.DocumentInfo",
          "name": "terms_",
          "type": "tuple"
        }
      ],
      "name": "setTerms",
      "outputs": [],
      "stateMutability": "nonpayable",
      "type": "function"
    },
    {
      "inputs": [
        {
          "internalType": "string",
          "name": "tokenId_",
          "type": "string"
        }
      ],
      "name": "setTokenId",
      "outputs": [],
      "stateMutability": "nonpayable",
      "type": "function"
    },
    {
      "inputs": [],
      "name": "snapshotEngine",
      "outputs": [
        {
          "internalType": "contract ISnapshotEngine",
          "name": "",
          "type": "address"
        }
      ],
      "stateMutability": "view",
      "type": "function"
    },
    {
      "inputs": [
        {
          "internalType": "bytes4",
          "name": "interfaceId",
          "type": "bytes4"
        }
      ],
      "name": "supportsInterface",
      "outputs": [
        {
          "internalType": "bool",
          "name": "",
          "type": "bool"
        }
      ],
      "stateMutability": "view",
      "type": "function"
    },
    {
      "inputs": [],
      "name": "symbol",
      "outputs": [
        {
          "internalType": "string",
          "name": "",
          "type": "string"
        }
      ],
      "stateMutability": "view",
      "type": "function"
    },
    {
      "inputs": [],
      "name": "terms",
      "outputs": [
        {
          "components": [
            {
              "internalType": "string",
              "name": "name",
              "type": "string"
            },
            {
              "components": [
                {
                  "internalType": "string",
                  "name": "uri",
                  "type": "string"
                },
                {
                  "internalType": "bytes32",
                  "name": "documentHash",
                  "type": "bytes32"
                },
                {
                  "internalType": "uint256",
                  "name": "lastModified",
                  "type": "uint256"
                }
              ],
              "internalType": "struct IERC1643.Document",
              "name": "doc",
              "type": "tuple"
            }
          ],
          "internalType": "struct ICMTATBase.Terms",
          "name": "terms_",
          "type": "tuple"
        }
      ],
      "stateMutability": "view",
      "type": "function"
    },
    {
      "inputs": [],
      "name": "tokenId",
      "outputs": [
        {
          "internalType": "string",
          "name": "tokenId_",
          "type": "string"
        }
      ],
      "stateMutability": "view",
      "type": "function"
    },
    {
      "inputs": [],
      "name": "totalSupply",
      "outputs": [
        {
          "internalType": "uint256",
          "name": "",
          "type": "uint256"
        }
      ],
      "stateMutability": "view",
      "type": "function"
    },
    {
      "inputs": [
        {
          "internalType": "address",
          "name": "to",
          "type": "address"
        },
        {
          "internalType": "uint256",
          "name": "value",
          "type": "uint256"
        }
      ],
      "name": "transfer",
      "outputs": [
        {
          "internalType": "bool",
          "name": "",
          "type": "bool"
        }
      ],
      "stateMutability": "nonpayable",
      "type": "function"
    },
    {
      "inputs": [
        {
          "internalType": "address",
          "name": "from",
          "type": "address"
        },
        {
          "internalType": "address",
          "name": "to",
          "type": "address"
        },
        {
          "internalType": "uint256",
          "name": "value",
          "type": "uint256"
        }
      ],
      "name": "transferFrom",
      "outputs": [
        {
          "internalType": "bool",
          "name": "",
          "type": "bool"
        }
      ],
      "stateMutability": "nonpayable",
      "type": "function"
    },
    {
      "inputs": [],
      "name": "trustedForwarder",
      "outputs": [
        {
          "internalType": "address",
          "name": "",
          "type": "address"
        }
      ],
      "stateMutability": "view",
      "type": "function"
    },
    {
      "inputs": [
        {
          "internalType": "address",
          "name": "account",
          "type": "address"
        },
        {
          "internalType": "uint256",
          "name": "value",
          "type": "uint256"
        }
      ],
      "name": "unfreezePartialTokens",
      "outputs": [],
      "stateMutability": "nonpayable",
      "type": "function"
    },
    {
      "inputs": [
        {
          "internalType": "address",
          "name": "account",
          "type": "address"
        },
        {
          "internalType": "uint256",
          "name": "value",
          "type": "uint256"
        },
        {
          "internalType": "bytes",
          "name": "data",
          "type": "bytes"
        }
      ],
      "name": "unfreezePartialTokens",
      "outputs": [],
      "stateMutability": "nonpayable",
      "type": "function"
    },
    {
      "inputs": [],
      "name": "unpause",
      "outputs": [],
      "stateMutability": "nonpayable",
      "type": "function"
    },
    {
      "inputs": [],
      "name": "version",
      "outputs": [
        {
          "internalType": "string",
          "name": "version_",
          "type": "string"
        }
      ],
      "stateMutability": "view",
      "type": "function"
    }
  ],
  "bytecode": "0x60a060405234801561000f575f5ffd5b506040516157ea3803806157ea83398101604081905261002e9161098a565b6001600160a01b0386166080526100488585858585610053565b505050505050610d62565b5f61005c61015b565b805490915060ff6801000000000000000082041615906001600160401b03165f811580156100875750825b90505f826001600160401b031660011480156100a25750303b155b9050811580156100b0575080155b156100ce5760405163f92ee8a960e01b815260040160405180910390fd5b84546001600160401b031916600117855583156100fc57845460ff60401b1916680100000000000000001785555b6101098a8a8a8a8a610185565b831561014f57845460ff60401b19168555604051600181527fc7f505b2f371ae2175ee4913f4499e1f2633a7b5936321eed1cdaeb6115181d29060200160405180910390a15b50505050505050505050565b5f807ff0c57e16840df040f15088dc2f81fe391c3923bec73e23a9662efc9c229c6a005b92915050565b61018d6101b9565b6101956101e0565b61019d6101e0565b6101a56101e8565b6101b28585858585610200565b5050505050565b6101c161021d565b6101de57604051631afcd79f60e31b815260040160405180910390fd5b565b6101de6101b9565b6101f06101b9565b6101f86101e0565b6101de6101e0565b6102086101b9565b610215858585858561023b565b6101b261028c565b5f61022661015b565b5468010000000000000000900460ff16919050565b6102436101b9565b61024c856102c4565b604084015184516020860151610263929190610301565b82516020840151604085015161027a929190610371565b610283826103be565b6101b281610403565b6102946101b9565b5f7f53076eaf2d1e2f915f2e0487c9f92cca686c37fd47bf11f95f0da313b2809800805460ff1916600117905550565b6102cc6101b9565b6001600160a01b0381166102f35760405163011d80f760e01b815260040160405180910390fd5b6102fd5f82610445565b5050565b6103096101b9565b7f9bd8d607565c0370ae5f91651ca67fd26d4438022bf72037316600e29e6a3a00805460ff191660ff85161781557f9bd8d607565c0370ae5f91651ca67fd26d4438022bf72037316600e29e6a3a026103628382610b2b565b50600181016101b28482610b2b565b6103796101b9565b7fd2d5d34c4a4dea00599692d3257c0aebc5e0359176118cd2364ab9b008c2d1006103a481856104ee565b6103ae818461054b565b6103b881836105c1565b50505050565b6103c66101b9565b6001600160a01b03811615610400577f1387b97dfab601d3023cb57858a6be29329babb05c85597ddbe4926c1193a9006102fd81836105ff565b50565b61040b6101b9565b6001600160a01b03811615610400577fbd0905600c85d707dc53eba2e146c1c2527cd32ac3ff6b86846155151b3e27006102fd8183610646565b5f5f5160206157ca5f395f51905f5261045e848461068d565b6104de575f848152602082815260408083206001600160a01b03871684529091529020805460ff1916600117905561049461069f565b6001600160a01b0316836001600160a01b0316857f2f8788117e7eff1d82e926ec794901d17c78024a50270940304540a733656f0d60405160405180910390a4600191505061017f565b5f91505061017f565b5092915050565b816104f98282610b2b565b50806040516105089190610be5565b60405180910390207f6403c68076c59949275ad9be2137a73c51043d7d6af6a38473047a0bc45df4928260405161053f9190610bfb565b60405180910390a25050565b8051600183019061055c9082610b2b565b50604081015160038301556020810151600283019061057b9082610b2b565b504260048301556040517f581e063ae59068f13a21b5707b10eee615c714e8939e873cf5b90b8254d9979c906105b5906001850190610caf565b60405180910390a15050565b600582016105cf8282610b2b565b507fff8fea957fb7cb582ef297c1c74436fe7a9914efbc52adf197600dc9d171efbc816040516105b59190610bfb565b81546001600160a01b0319166001600160a01b03821690811783556040517f3dc265c6e8a49e40f12f64811a094f799e44b4d033c7478793093908cbbb5bca905f90a25050565b81546001600160a01b0319166001600160a01b03821690811783556040517f24456fffb8d75313fe808b19e17ae308e592a8159329a02fb396773d5aacbd10905f90a25050565b5f61069883836106ad565b9392505050565b5f6106a86106b8565b905090565b5f61069883836106fe565b5f3660148082108015906106d057506106d03361077c565b156106f6576106e336828403815f610d05565b6106ec91610d2c565b60601c9250505090565b339250505090565b6001600160a01b0381165f9081527fb7db2dd08fcb62d0c9e08c51941cae53c267786a0b75803fb7960902fc8ef97d602052604081205460ff16156107455750600161017f565b505f8281525f5160206157ca5f395f51905f52602090815260408083206001600160a01b038516845290915290205460ff1661017f565b5f61078660805190565b6001600160a01b0316826001600160a01b0316149050919050565b6001600160a01b0381168114610400575f5ffd5b634e487b7160e01b5f52604160045260245ffd5b604051606081016001600160401b03811182821017156107eb576107eb6107b5565b60405290565b5f82601f830112610800575f5ffd5b81516001600160401b03811115610819576108196107b5565b604051601f8201601f19908116603f011681016001600160401b0381118282101715610847576108476107b5565b60405281815283820160200185101561085e575f5ffd5b8160208501602083015e5f918101602001919091529392505050565b5f6060828403121561088a575f5ffd5b6108926107c9565b82519091506001600160401b038111156108aa575f5ffd5b6108b6848285016107f1565b82525060208201516001600160401b038111156108d1575f5ffd5b8201606081850312156108e2575f5ffd5b6108ea6107c9565b81516001600160401b038111156108ff575f5ffd5b61090b868285016107f1565b82525060208201516001600160401b03811115610926575f5ffd5b610932868285016107f1565b60208381019190915260409384015184840152840191909152508201516001600160401b03811115610962575f5ffd5b61096e848285016107f1565b60408301525092915050565b8051610985816107a1565b919050565b5f5f5f5f5f5f60c0878903121561099f575f5ffd5b86516109aa816107a1565b60208801519096506109bb816107a1565b60408801519095506001600160401b038111156109d6575f5ffd5b87016060818a0312156109e7575f5ffd5b6109ef6107c9565b81516001600160401b03811115610a04575f5ffd5b610a108b8285016107f1565b82525060208201516001600160401b03811115610a2b575f5ffd5b610a378b8285016107f1565b6020830152506040820151915060ff82168214610a52575f5ffd5b604081019190915260608801519094506001600160401b03811115610a75575f5ffd5b610a8189828a0161087a565b935050610a906080880161097a565b9150610a9e60a0880161097a565b90509295509295509295565b600181811c90821680610abe57607f821691505b602082108103610adc57634e487b7160e01b5f52602260045260245ffd5b50919050565b601f821115610b2657805f5260205f20601f840160051c81016020851015610b075750805b601f840160051c820191505b818110156101b2575f8155600101610b13565b505050565b81516001600160401b03811115610b4457610b446107b5565b610b5881610b528454610aaa565b84610ae2565b6020601f821160018114610b8a575f8315610b735750848201515b5f19600385901b1c1916600184901b1784556101b2565b5f84815260208120601f198516915b82811015610bb95787850151825560209485019460019092019101610b99565b5084821015610bd657868401515f19600387901b60f8161c191681555b50505050600190811b01905550565b5f82518060208501845e5f920191825250919050565b602081525f82518060208401528060208501604085015e5f604082850101526040601f19601f83011684010191505092915050565b5f8154610c3c81610aaa565b808552600182168015610c565760018114610c7257610ca6565b60ff1983166020870152602082151560051b8701019350610ca6565b845f5260205f205f5b83811015610c9d5781546020828a010152600182019150602081019050610c7b565b87016020019450505b50505092915050565b60208152604060208201525f610cc86060830184610c30565b601f1983820301604084015260608152610ce86060820160018601610c30565b600285015460208301526003909401546040909101525090919050565b5f5f85851115610d13575f5ffd5b83861115610d1f575f5ffd5b5050820193919092039150565b80356001600160601b031981169060148410156104e7576001600160601b031960149490940360031b84901b1690921692915050565b608051614a42610d885f395f81816107680152818161080f0152612b690152614a425ff3fe608060405234801561000f575f5ffd5b5060043610610459575f3560e01c80637157797f11610242578063c47f002711610140578063dcfd616f116100bf578063e46638e611610084578063e46638e614610a43578063e583983614610a56578063e63ab1e914610a69578063f46e284614610a90578063f47b774014610aa3575f5ffd5b8063dcfd616f146109e3578063dd347bef146109f6578063dd62ed3e14610a09578063e1833a2f14610a1c578063e236aabf14610a30575f5ffd5b8063d146fd1b11610105578063d146fd1b1461098c578063d502562514610994578063d5391393146109a9578063d547741f146109bd578063d7ffbbaa146109d0575f5ffd5b8063c47f002714610938578063c69c09cf1461094b578063ccdc806b1461095e578063ce34e6eb14610971578063cf790d8d14610984575f5ffd5b806395d89b41116101cc578063a9059cbb11610191578063a9059cbb146108e4578063a99ac245146108f7578063b1f5569f1461090a578063b84c82461461091d578063bca353be14610930575f5ffd5b806395d89b411461089a5780639dc29fac146108a25780639fa5f50b146108b55780639fc1d0e7146108ca578063a217fddf146108dd575f5ffd5b80638456cb59116102125780638456cb591461084657806388d695b21461084e5780639082a6fb1461086157806391d148541461087457806394d008ef14610887575f5ffd5b80637157797f146107da5780637ccb6a64146107ed5780637da0a8771461080d5780637e06ce6414610833575f5ffd5b80632c721b981161035a57806344d17187116102d9578063572b6c051161029e578063572b6c05146107585780635c975abb146107985780636439fd75146107a057806368573107146107b457806370a08231146107c7575f5ffd5b806344d17187146106f65780634a6cc677146107095780634d5592ea1461071c57806354fd4d501461072f578063556ed30e14610750575f5ffd5b8063336110791161031f57806333611079146106a157806336568abe146106b45780633c626e0c146106c75780633f4ba83a146106db57806340c10f19146106e3575f5ffd5b80632c721b98146106265780632f2ff15d1461064d5780633030b53214610660578063313ce56714610674578063334c0a6d1461068e575f5ffd5b806317d70f7c116103e657806323b872dd116103ab57806323b872dd146105b2578063246b72ec146105c5578063248a9ca3146105ec578063282c51f3146105ff578063299ed63a14610613575f5ffd5b806317d70f7c1461054a57806318160ddd1461055257806318796d44146105795780631a7af3791461058c5780631fe56f7d1461059f575f5ffd5b80630c3cc61a1161042c5780630c3cc61a146104c05780631172f73a146104e1578063125c4a33146104f6578063158b1a57146105095780631758a8e91461052a575f5ffd5b806301ffc9a71461045d57806305a3b8091461048557806306fdde0314610498578063095ea7b3146104ad575b5f5ffd5b61047061046b3660046137ac565b610aab565b60405190151581526020015b60405180910390f35b6104706104933660046137e7565b610ae1565b6104a0610b20565b60405161047c9190613830565b6104706104bb366004613842565b610b2f565b6104d36104ce3660046138b3565b610b50565b60405161047c9291906138f1565b6104f46104ef36600461393d565b610c1d565b005b6104f4610504366004613842565b610c56565b61051c6105173660046137e7565b610c8b565b60405190815260200161047c565b610532610c95565b6040516001600160a01b03909116815260200161047c565b6104a0610cb6565b7f52c63247e1f47db19d5ce0460030c497f067ca4cebf71ba98eeadabe20bace025461051c565b6104f46105873660046139e4565b610d57565b6104f461059a36600461393d565b610d77565b6104f46105ad366004613842565b610da9565b6104706105c0366004613a5a565b610dd9565b61051c7f809a0fc49fc0600540f1d39e23454e1f6f215bc7505fa22b17c154616570ddef81565b61051c6105fa366004613a98565b610e02565b61051c5f51602061488d5f395f51905f5281565b6104f4610621366004613abe565b610e22565b61051c7fdd7c9aafbb91d54fb2041db1d5b172ea665309b32f5fffdbddf452802a1e3b2081565b6104f461065b366004613b10565b610e79565b61051c5f5160206149ad5f395f51905f5281565b61067c610e9b565b60405160ff909116815260200161047c565b6104f461069c366004613b3e565b610ea4565b6104f46106af3660046137e7565b610efb565b6104f46106c2366004613b10565b610f6a565b61051c5f51602061492d5f395f51905f5281565b6104f4610fad565b6104f46106f1366004613842565b611027565b6104f4610704366004613b3e565b611057565b6104f461071736600461393d565b6110ae565b61047061072a366004613b88565b611126565b6040805180820190915260058152640332e302e360dc1b60208201526104a0565b61047061117f565b6104706107663660046137e7565b7f00000000000000000000000000000000000000000000000000000000000000006001600160a01b0390811691161490565b6104706111ad565b61051c5f51602061498d5f395f51905f5281565b6104f46107c236600461393d565b6111b6565b61051c6107d53660046137e7565b61121f565b6104706107e8366004613bf5565b611262565b6108006107fb366004613d2e565b6112a5565b60405161047c9190613d93565b7f0000000000000000000000000000000000000000000000000000000000000000610532565b6104f4610841366004613da5565b611384565b6104f4611405565b61047061085c36600461393d565b61143a565b61051c61086f3660046137e7565b611468565b610470610882366004613b10565b611472565b6104f4610895366004613b3e565b61147d565b6104a06114d4565b6104f46108b0366004613842565b6114de565b6108bd61150e565b60405161047c9190613dbe565b6104706108d8366004613a5a565b6115a4565b61051c5f81565b6104706108f2366004613842565b6115d4565b6104f4610905366004613abe565b6115f7565b6104f4610918366004613e21565b61164e565b6104f461092b366004613eca565b6116c9565b6104f4611765565b6104f4610946366004613eca565b6117ec565b6104f4610959366004613efc565b61187a565b6104f461096c366004613efc565b6118aa565b6104f461097f366004613f26565b6118da565b610532611902565b61047061192a565b61099c611933565b60405161047c9190613f5c565b61051c5f51602061494d5f395f51905f5281565b6104f46109cb366004613b10565b611ac3565b6104f46109de366004613eca565b611adf565b6104f46109f1366004613eca565b611b46565b6104f4610a04366004613b3e565b611bad565b61051c610a17366004613f9d565b611c04565b61051c5f5160206149cd5f395f51905f5281565b6104f4610a3e3660046137e7565b611c4d565b610470610a51366004613a5a565b611ccf565b610470610a643660046137e7565b611d0d565b61051c7f65d7a28e3265b37a6474929f336521b332c1681b933f6cb9f3376673440d862a81565b6104f4610a9e3660046140db565b611d4c565b6104a0611e4b565b5f6001600160e01b03198216637965db0b60e01b1480610adb57506301ffc9a760e01b6001600160e01b03198316145b92915050565b6001600160a01b0381165f9081527f53076eaf2d1e2f915f2e0487c9f92cca686c37fd47bf11f95f0da313b2809801602052604081205460ff16610adb565b6060610b2a611e89565b905090565b5f5f610b39611ec7565b9050610b46818585611ed0565b5060019392505050565b60605f826001600160401b03811115610b6b57610b6b613c43565b604051908082528060200260200182016040528015610b94578160200160208202803683370190505b5091505f5b83811015610bf057610bcb858583818110610bb657610bb66141e6565b90506020020160208101906107d591906137e7565b838281518110610bdd57610bdd6141e6565b6020908102919091010152600101610b99565b507f52c63247e1f47db19d5ce0460030c497f067ca4cebf71ba98eeadabe20bace02545b90509250929050565b5f5160206149ad5f395f51905f52610c3481611edd565b610c4f8585858560405180602001604052805f815250611eee565b5050505050565b5f51602061492d5f395f51905f52610c6d81611edd565b610c86838360405180602001604052805f815250611f7b565b505050565b5f610adb82612028565b5f805f5160206149ed5f395f51905f525b546001600160a01b031692915050565b5f5160206148cd5f395f51905f528054606091908190610cd5906141fa565b80601f0160208091040260200160405190810160405280929190818152602001828054610d01906141fa565b8015610d4c5780601f10610d2357610100808354040283529160200191610d4c565b820191905f5260205f20905b815481529060010190602001808311610d2f57829003601f168201915b505050505091505090565b610d6386858484611057565b610d6f8584848461147d565b505050505050565b5f51602061498d5f395f51905f52610d8e81611edd565b610c4f8585858560405180602001604052805f81525061203d565b5f51602061492d5f395f51905f52610dc081611edd565b610c86838360405180602001604052805f8152506120d4565b5f610ded610de5611ec7565b85858561218c565b610df88484846121df565b90505b9392505050565b5f9081525f51602061496d5f395f51905f52602052604090206001015490565b5f5160206149ad5f395f51905f52610e3981611edd565b610c4f858585858080601f0160208091040260200160405190810160405280939291908181526020018383808284375f9201919091525061225092505050565b610e8282610e02565b610e8b81611edd565b610e95838361226a565b50505050565b5f610b2a612313565b5f51602061492d5f395f51905f52610ebb81611edd565b610c4f858585858080601f0160208091040260200160405190810160405280939291908181526020018383808284375f920191909152506120d492505050565b7fdd7c9aafbb91d54fb2041db1d5b172ea665309b32f5fffdbddf452802a1e3b20610f2581611edd565b5f5160206149ed5f395f51905f5280546001600160a01b03848116911603610f60576040516399e8777160e01b815260040160405180910390fd5b610c868184612328565b610f72611ec7565b6001600160a01b0316816001600160a01b031614610fa35760405163334bd91960e11b815260040160405180910390fd5b610c86828261236f565b7f65d7a28e3265b37a6474929f336521b332c1681b933f6cb9f3376673440d862a610fd781611edd565b7fab1527b6135145d8da1edcbd6b7b270624e17f2b41c74a8c746ff388ad454700805460ff161561101b57604051631b19da4d60e11b815260040160405180910390fd5b611023612406565b5050565b5f51602061494d5f395f51905f5261103e81611edd565b610c86838360405180602001604052805f81525061247e565b5f51602061488d5f395f51905f5261106e81611edd565b610c4f858585858080601f0160208091040260200160405190810160405280939291908181526020018383808284375f920191909152506124e192505050565b5f51602061488d5f395f51905f526110c581611edd565b6110d185858585612537565b6110d9611ec7565b6001600160a01b03167f72daf4490e83933de80c122aa40ad26e3d1312ac3efbf2edcee640aa8556ddc68686868660405161111794939291906142a4565b60405180910390a25050505050565b5f8061113181611edd565b61117287878787878080601f0160208091040260200160405190810160405280939291908181526020018383808284375f920191909152506125d292505050565b5060019695505050505050565b5f807fab1527b6135145d8da1edcbd6b7b270624e17f2b41c74a8c746ff388ad4547005b5460ff1692915050565b5f610b2a6126a9565b5f51602061494d5f395f51905f526111cd81611edd565b6111d9858585856126d1565b6111e1611ec7565b6001600160a01b03167fbc3f1481a323af3866d85a300235055c5b81e0ab3563d50b17226f63072161f08686868660405161111794939291906142e6565b5f807f52c63247e1f47db19d5ce0460030c497f067ca4cebf71ba98eeadabe20bace005b6001600160a01b039093165f9081526020939093525050604090205490565b5f61126e858585612769565b61127957505f61129d565b6112838483612775565b61128e57505f61129d565b61129a858585856127b1565b90505b949350505050565b6112c76040518060600160405280606081526020015f81526020015f81525090565b5f5160206149ed5f395f51905f5280546001600160a01b031615611355578054604051631f32da9960e21b81526001600160a01b0390911690637ccb6a6490611314908690600401613830565b5f60405180830381865afa15801561132e573d5f5f3e3d5ffd5b505050506040513d5f823e601f3d908101601f19168201604052610dfb9190810190614364565b5050604080516080810182525f6060820181815282526020820181905291810191909152919050565b50919050565b5f5160206149ad5f395f51905f5261139b81611edd565b5f5160206148ad5f395f51905f52805460ff19168315151790556113bd611ec7565b6001600160a01b03167fa3f824af5a2478acbc3ce3dcae8753d46534d7d12165a2bf78d335e3fb55d755836040516113f9911515815260200190565b60405180910390a25050565b7f65d7a28e3265b37a6474929f336521b332c1681b933f6cb9f3376673440d862a61142f81611edd565b6114376127be565b50565b5f5f51602061494d5f395f51905f5261145281611edd565b61145e8686868661281b565b9695505050505050565b5f610adb826128c0565b5f610dfb83836128f9565b5f51602061494d5f395f51905f5261149481611edd565b610c4f858585858080601f0160208091040260200160405190810160405280939291908181526020018383808284375f9201919091525061247e92505050565b6060610b2a612904565b5f51602061488d5f395f51905f526114f581611edd565b610c86838360405180602001604052805f8152506124e1565b5f5160206149ed5f395f51905f528054606091906001600160a01b0316156115a057805460408051639fa5f50b60e01b815290516001600160a01b0390921691639fa5f50b916004808201925f929091908290030181865afa158015611576573d5f5f3e3d5ffd5b505050506040513d5f823e601f3d908101601f1916820160405261159d91908101906143e5565b91505b5090565b5f806115af81611edd565b6115c985858560405180602001604052805f8152506125d2565b506001949350505050565b5f5f6115de611ec7565b90506115ec5f82868661218c565b610b46818585612942565b5f51602061498d5f395f51905f5261160e81611edd565b610c4f858585858080601f0160208091040260200160405190810160405280939291908181526020018383808284375f9201919091525061299f92505050565b5f51602061488d5f395f51905f5261166581611edd565b61167186868686612537565b611679611ec7565b6001600160a01b03167f72daf4490e83933de80c122aa40ad26e3d1312ac3efbf2edcee640aa8556ddc687878787876040516116b99594939291906144a3565b60405180910390a2505050505050565b5f6116d381611edd565b5f51602061490d5f395f51905f527f9bd8d607565c0370ae5f91651ca67fd26d4438022bf72037316600e29e6a3a0261170d84868361452d565b50838360405161171e9291906145e6565b60405180910390207f4a48eefa86906ea82ddc91803a5f00818355982247dc29c521714f6dc207aacd85856040516117579291906145f5565b60405180910390a250505050565b5f61176f81611edd565b6117776129cc565b7fab1527b6135145d8da1edcbd6b7b270624e17f2b41c74a8c746ff388ad454700805460ff191660011781557f749cb6b4c510bc468cf6b9c2086d6f0a54d6b18e25d37bf3200e68eab0880c006117cc611ec7565b6040516001600160a01b0390911681526020015b60405180910390a15050565b5f6117f681611edd565b5f51602061490d5f395f51905f527f9bd8d607565c0370ae5f91651ca67fd26d4438022bf72037316600e29e6a3a0161183084868361452d565b5083836040516118419291906145e6565b60405180910390207fe4e4a54c5c394e44fde10a0ae1277d8bd8621848cc8dfd73eddd39bcf9f2d9b285856040516117579291906145f5565b5f51602061498d5f395f51905f5261189181611edd565b610c86838360405180602001604052805f81525061299f565b5f5160206149ad5f395f51905f526118c181611edd565b610c86838360405180602001604052805f815250612250565b5f5160206149cd5f395f51905f526118f181611edd565b6110236118fd83614623565b6129f3565b5f807f1387b97dfab601d3023cb57858a6be29329babb05c85597ddbe4926c1193a900610ca6565b5f610b2a612a0b565b61193b613773565b604080518082019091527fd2d5d34c4a4dea00599692d3257c0aebc5e0359176118cd2364ab9b008c2d10180545f5160206148cd5f395f51905f5292919082908290611986906141fa565b80601f01602080910402602001604051908101604052809291908181526020018280546119b2906141fa565b80156119fd5780601f106119d4576101008083540402835291602001916119fd565b820191905f5260205f20905b8154815290600101906020018083116119e057829003601f168201915b50505050508152602001600182016040518060600160405290815f82018054611a25906141fa565b80601f0160208091040260200160405190810160405280929190818152602001828054611a51906141fa565b8015611a9c5780601f10611a7357610100808354040283529160200191611a9c565b820191905f5260205f20905b815481529060010190602001808311611a7f57829003601f168201915b50505050508152602001600182015481526020016002820154815250508152505091505090565b611acc82610e02565b611ad581611edd565b610e95838361236f565b5f5160206149cd5f395f51905f52611af681611edd565b5f5f5160206148cd5f395f51905f529050610e958185858080601f0160208091040260200160405190810160405280939291908181526020018383808284375f92019190915250612a2092505050565b5f5160206149cd5f395f51905f52611b5d81611edd565b5f5f5160206148cd5f395f51905f529050610e958185858080601f0160208091040260200160405190810160405280939291908181526020018383808284375f92019190915250612a5e92505050565b5f51602061492d5f395f51905f52611bc481611edd565b610c4f858585858080601f0160208091040260200160405190810160405280939291908181526020018383808284375f92019190915250611f7b92505050565b6001600160a01b039182165f9081527f52c63247e1f47db19d5ce0460030c497f067ca4cebf71ba98eeadabe20bace016020908152604080832093909416825291909152205490565b7f809a0fc49fc0600540f1d39e23454e1f6f215bc7505fa22b17c154616570ddef611c7781611edd565b7f1387b97dfab601d3023cb57858a6be29329babb05c85597ddbe4926c1193a90080546001600160a01b03848116911603611cc5576040516311ecd5d560e21b815260040160405180910390fd5b610c868184612aaf565b5f611cdb5f8585612769565b611ce657505f610dfb565b611cf08483612775565b611cfb57505f610dfb565b611d06848484612af6565b9050610dfb565b6001600160a01b0381165f9081527f0c7bc8a17be064111d299d7669f49519cb26c58611b72d9f6ccc40a1e1184e00602052604081205460ff16610adb565b5f611d55612b03565b805490915060ff600160401b82041615906001600160401b03165f81158015611d7b5750825b90505f826001600160401b03166001148015611d965750303b155b905081158015611da4575080155b15611dc25760405163f92ee8a960e01b815260040160405180910390fd5b845467ffffffffffffffff191660011785558315611dec57845460ff60401b1916600160401b1785555b611df98a8a8a8a8a612b2b565b8315611e3f57845460ff60401b19168555604051600181527fc7f505b2f371ae2175ee4913f4499e1f2633a7b5936321eed1cdaeb6115181d29060200160405180910390a15b50505050505050505050565b7fd2d5d34c4a4dea00599692d3257c0aebc5e0359176118cd2364ab9b008c2d10580546060915f5160206148cd5f395f51905f5291610cd5906141fa565b7f9bd8d607565c0370ae5f91651ca67fd26d4438022bf72037316600e29e6a3a0180546060915f51602061490d5f395f51905f5291610cd5906141fa565b5f610b2a612b58565b610c868383836001612bc2565b61143781611ee9611ec7565b612cb8565b611efa85858585612cf1565b5f5160206148ad5f395f51905f525f5b85811015611f7257611f6a82888884818110611f2857611f286141e6565b9050602002016020810190611f3d91906137e7565b878785818110611f4f57611f4f6141e6565b9050602002016020810190611f649190613da5565b86612d2f565b600101611f0a565b50505050505050565b5f5160206148ed5f395f51905f525f611f938561121f565b6001600160a01b0386165f9081526020849052604081205491925090611fba908690614642565b905080821015611fdd576040516349d7d08d60e11b815260040160405180910390fd5b6001600160a01b0386165f8181526020859052604090819020839055517eee657b17bb8f27ffd14d58b7a6f3f8d780dc721da687b065b4ce100c332e25906116b99088908890614655565b5f805f5160206148ed5f395f51905f52611243565b61204985858585612cf1565b7f0c7bc8a17be064111d299d7669f49519cb26c58611b72d9f6ccc40a1e1184e005f5b85811015611f72576120cc8288888481811061208a5761208a6141e6565b905060200201602081019061209f91906137e7565b8787858181106120b1576120b16141e6565b90506020020160208101906120c69190613da5565b86612daf565b60010161206c565b6001600160a01b0383165f9081525f5160206148ed5f395f51905f52602081905260409091205483111561211b576040516309f1994960e41b815260040160405180910390fd5b6001600160a01b0384165f9081526020829052604090205461213e90849061466d565b6001600160a01b0385165f81815260208490526040908190209290925590517f57e0f3d4013a11f83fec76f5798b11b0ac9894fe75a459c7c18b95b248fa0225906117579086908690614655565b61219884848484612e1f565b6121a3848484612e29565b610e955760405163013a574760e41b81526001600160a01b03808516600483015283166024820152604481018290526064015b60405180910390fd5b5f5f6121ec858585612ebc565b90508015610df8576121fc611ec7565b6001600160a01b0316856001600160a01b03167f7c2b9369bf4a6bd9745889c658ad00a4d57e280c4c80fa1c74db2a9e52c136358560405161224091815260200190565b60405180910390a3949350505050565b5f5160206148ad5f395f51905f52610e9581858585612d2f565b5f5f51602061496d5f395f51905f526122838484611472565b612303575f848152602082815260408083206001600160a01b03871684529091529020805460ff191660011790556122b9611ec7565b6001600160a01b0316836001600160a01b0316857f2f8788117e7eff1d82e926ec794901d17c78024a50270940304540a733656f0d60405160405180910390a46001915050610adb565b5f915050610adb565b5092915050565b5f805f51602061490d5f395f51905f526111a3565b81546001600160a01b0319166001600160a01b03821690811783556040517f24456fffb8d75313fe808b19e17ae308e592a8159329a02fb396773d5aacbd10905f90a25050565b5f5f51602061496d5f395f51905f526123888484611472565b15612303575f848152602082815260408083206001600160a01b03871684529091529020805460ff191690556123bc611ec7565b6001600160a01b0316836001600160a01b0316857ff6391f5c32d9c69d2a47ea670b442974b53935d1edc7fd64eb21e047a839171b60405160405180910390a46001915050610adb565b61240e6129cc565b7fcd5ed15c6e187e77e9aee88184c21f4f2182ab5827cb3b7e07fbedcd63f03300805460ff191681557f5db9ee0a495bf2e6ff9c91a7834c1ba4fdd244a5e8aa4e537bd38aeae4b073aa612460611ec7565b6040516001600160a01b03909116815260200160405180910390a150565b6124888383612ede565b826001600160a01b031661249a611ec7565b6001600160a01b03167f30c99b8e9449992bd7616d2645b02ee0a2b6f229a45d6b56b686963ff0c5349784846040516124d4929190614655565b60405180910390a3505050565b6124eb8383612ef4565b826001600160a01b03166124fd611ec7565b6001600160a01b03167f21e3428dd0c1de86ad5cb0d4df91049f26e9711489b51d1e9b5d5a53ebae1f6384846040516124d4929190614655565b5f839003612558576040516311eaa8e760e21b815260040160405180910390fd5b82811461257857604051637a9d6e6d60e01b815260040160405180910390fd5b5f5b83811015610c4f576125ca858583818110612597576125976141e6565b90506020020160208101906125ac91906137e7565b8484848181106125be576125be6141e6565b90506020020135612ef4565b60010161257a565b6125dd848383612f0a565b6001600160a01b0383166125fa576125f58483613030565b61264f565b5f6126058585611c04565b90505f8111801561261657505f1981105b1561264257828110156126345761262f85855f5f612bc2565b612642565b61264285858584035f612bc2565b61264d858585612942565b505b836001600160a01b0316612661611ec7565b6001600160a01b03167f9aaf0e2b2a23aa776f679b9fe17552a7fa59d6cb1057b37156024a8c587a947f848460405161269b929190614655565b60405180910390a350505050565b5f807fcd5ed15c6e187e77e9aee88184c21f4f2182ab5827cb3b7e07fbedcd63f033006111a3565b826126ef57604051630c7e659960e01b815260040160405180910390fd5b82811461270f576040516307a4e50160e21b815260040160405180910390fd5b5f5b83811015610c4f5761276185858381811061272e5761272e6141e6565b905060200201602081019061274391906137e7565b848484818110612755576127556141e6565b90506020020135612ede565b600101612711565b5f610df8848484612e29565b5f5f61278084612028565b90508015610b46575f816127938661121f565b61279d919061466d565b9050808411156115c9575f92505050610adb565b5f61129a85858585613064565b6127c6613070565b7fcd5ed15c6e187e77e9aee88184c21f4f2182ab5827cb3b7e07fbedcd63f03300805460ff191660011781557f62e78cea01bee320cd4e420270b5ea74000d11b0c9f74754ebdbfc544b05a258612460611ec7565b5f8361283a57604051634723eac960e01b815260040160405180910390fd5b5f612843611ec7565b905084831461286557604051637e81047760e11b815260040160405180910390fd5b5f5b85811015611172576128b882888884818110612885576128856141e6565b905060200201602081019061289a91906137e7565b8787858181106128ac576128ac6141e6565b90506020020135613096565b600101612867565b6001600160a01b0381165f9081525f5160206148ed5f395f51905f52602081905260408220546128ef8461121f565b610dfb919061466d565b5f610dfb83836130ad565b7f9bd8d607565c0370ae5f91651ca67fd26d4438022bf72037316600e29e6a3a0280546060915f51602061490d5f395f51905f5291610cd5906141fa565b6001600160a01b03831661296b57604051634b637e8f60e11b81525f60048201526024016121d6565b6001600160a01b0382166129945760405163ec442f0560e01b81525f60048201526024016121d6565b610c868383836130d6565b7f0c7bc8a17be064111d299d7669f49519cb26c58611b72d9f6ccc40a1e1184e00610e9581858585612daf565b6129d46111ad565b6129f157604051638dfc202b60e01b815260040160405180910390fd5b565b5f5160206148cd5f395f51905f5261102381836131b0565b5f805f5160206148ad5f395f51905f526111a3565b60058201612a2e8282614680565b507fff8fea957fb7cb582ef297c1c74436fe7a9914efbc52adf197600dc9d171efbc816040516117e09190613830565b81612a698282614680565b5080604051612a78919061473a565b60405180910390207f6403c68076c59949275ad9be2137a73c51043d7d6af6a38473047a0bc45df492826040516113f99190613830565b81546001600160a01b0319166001600160a01b03821690811783556040517f3dc265c6e8a49e40f12f64811a094f799e44b4d033c7478793093908cbbb5bca905f90a25050565b5f610df85f858585613064565b5f807ff0c57e16840df040f15088dc2f81fe391c3923bec73e23a9662efc9c229c6a00610adb565b612b3361321a565b612b3b61323f565b612b4361323f565b612b4b613247565b610c4f858585858561325f565b5f366014808210801590612b9457507f00000000000000000000000000000000000000000000000000000000000000006001600160a01b031633145b15612bba57612ba736828403815f614750565b612bb091614777565b60601c9250505090565b339250505090565b7f52c63247e1f47db19d5ce0460030c497f067ca4cebf71ba98eeadabe20bace006001600160a01b038516612c0c5760405163e602df0560e01b81525f60048201526024016121d6565b6001600160a01b038416612c3557604051634a1406b160e11b81525f60048201526024016121d6565b6001600160a01b038086165f90815260018301602090815260408083209388168352929052208390558115610c4f57836001600160a01b0316856001600160a01b03167f8c5be1e5ebec7d5bd14f71427d1e84f3dd0314c0f7b2291e5b200ac8c7c3b92585604051612ca991815260200190565b60405180910390a35050505050565b612cc28282611472565b6110235760405163e2517d3f60e01b81526001600160a01b0382166004820152602481018390526044016121d6565b82612d0f57604051630e35356160e11b815260040160405180910390fd5b828114610e955760405163142e444b60e01b815260040160405180910390fd5b6001600160a01b0383165f9081526001850160205260409020805460ff1916831515179055612d5c611ec7565b6001600160a01b0316821515846001600160a01b03167fd55f9f204b4fadecbd45c41b7328fbc1b093870cb28da02353c3f9f692ae590a84604051612da19190613830565b60405180910390a450505050565b6001600160a01b0383165f908152602085905260409020805460ff1916831515179055612dda611ec7565b6001600160a01b0316821515846001600160a01b03167f5c115173b119951ab162218e6a2495eb7b93888dda22421e2be9c4ee5d71088284604051612da19190613830565b610e95838261327c565b5f612e32612a0b565b15612eb1576001600160a01b038316612e4e57611d06826132a3565b6001600160a01b038216612e6557611d06836132a3565b6001600160a01b03841615801590612e835750612e8184610ae1565b155b80612e945750612e9283610ae1565b155b80612ea55750612ea382610ae1565b155b15612eb157505f610dfb565b610df88484846132ad565b5f5f612ec6611ec7565b9050612ed3858285613325565b6115c9858585612942565b612eea5f5f848461218c565b6110238282613383565b612f005f835f8461218c565b611023828261338d565b5f612f148461121f565b905080831115612f6357612f26611ec7565b81612f31818661466d565b60405163391434e360e21b81526001600160a01b039093166004840152602483019190915260448201526064016121d6565b6001600160a01b0384165f9081525f5160206148ed5f395f51905f5260208190526040822054909190612f96908461466d565b905080851115610d6f575f612fab828761466d565b6001600160a01b0388165f90815260208590526040902054909150612fd190829061466d565b6001600160a01b0388165f81815260208690526040908190209290925590517f57e0f3d4013a11f83fec76f5798b11b0ac9894fe75a459c7c18b95b248fa02259061301f9084908990614655565b60405180910390a250505050505050565b6001600160a01b03821661305957604051634b637e8f60e11b81525f60048201526024016121d6565b611023825f836130d6565b5f61129a8585856132ad565b6130786111ad565b156129f15760405163d93c066560e01b815260040160405180910390fd5b6130a25f84848461218c565b610c86838383613397565b5f6130b881836133a2565b156130c557506001610adb565b6130cf83836133a2565b9050610adb565b5f6130df611902565b90506001600160a01b038116156131a557806001600160a01b031663df271a88858561310a8861121f565b6131138861121f565b7f52c63247e1f47db19d5ce0460030c497f067ca4cebf71ba98eeadabe20bace02546040516001600160e01b031960e088901b1681526001600160a01b03958616600482015294909316602485015260448401919091526064830152608482015260a4015f604051808303815f87803b15801561318e575f5ffd5b505af11580156131a0573d5f5f3e3d5ffd5b505050505b610e958484846133d8565b805160018301906131c19082614680565b5060408101516003830155602081015160028301906131e09082614680565b504260048301556040517f581e063ae59068f13a21b5707b10eee615c714e8939e873cf5b90b8254d9979c906117e0906001850190614836565b613222613516565b6129f157604051631afcd79f60e31b815260040160405180910390fd5b6129f161321a565b61324f61321a565b61325761323f565b6129f161323f565b61326761321a565b613274858585858561352f565b610c4f61357e565b6132868282612775565b611023576040516301c9bcfb60e31b815260040160405180910390fd5b5f610adb826135a3565b5f6001600160a01b0383166132c557611d06826132a3565b6001600160a01b0382166132dc57611d06836132a3565b6132e584611d0d565b806132f457506132f483611d0d565b80613303575061330382611d0d565b8061331157506133116111ad565b1561331d57505f610dfb565b506001610dfb565b5f6133308484611c04565b90505f19811015610e95578181101561337557604051637dc7a0d960e11b81526001600160a01b038416600482015260248101829052604481018390526064016121d6565b610e9584848484035f612bc2565b61102382826135d8565b6110238282613030565b610c86838383612942565b5f9182525f51602061496d5f395f51905f52602090815260408084206001600160a01b0393909316845291905290205460ff1690565b7f52c63247e1f47db19d5ce0460030c497f067ca4cebf71ba98eeadabe20bace006001600160a01b0384166134255781816002015f82825461341a9190614642565b909155506134959050565b6001600160a01b0384165f90815260208290526040902054828110156134775760405163391434e360e21b81526001600160a01b038616600482015260248101829052604481018490526064016121d6565b6001600160a01b0385165f9081526020839052604090209083900390555b6001600160a01b0383166134b35760028101805483900390556134d1565b6001600160a01b0383165f9081526020829052604090208054830190555b826001600160a01b0316846001600160a01b03167fddf252ad1be2c89b69c2b068fc378daa952ba7f163c4a11628f55a4df523b3ef8460405161269b91815260200190565b5f61351f612b03565b54600160401b900460ff16919050565b61353761321a565b6135408561360c565b6135568460400151855f01518660200151613645565b61356c835f0151846020015185604001516136a2565b613575826136d6565b610c4f81613718565b61358661321a565b5f5f5160206148ad5f395f51905f52805460ff1916600117905550565b5f6135ac612a0b565b80156135be57506135bc82610ae1565b155b156135ca57505f919050565b610adb82613747565b919050565b6001600160a01b0382166136015760405163ec442f0560e01b81525f60048201526024016121d6565b6110235f83836130d6565b61361461321a565b6001600160a01b03811661363b5760405163011d80f760e01b815260040160405180910390fd5b6110235f8261226a565b61364d61321a565b5f51602061490d5f395f51905f52805460ff191660ff85161781557f9bd8d607565c0370ae5f91651ca67fd26d4438022bf72037316600e29e6a3a026136938382614680565b5060018101610c4f8482614680565b6136aa61321a565b5f5160206148cd5f395f51905f526136c28185612a5e565b6136cc81846131b0565b610e958183612a20565b6136de61321a565b6001600160a01b03811615611437577f1387b97dfab601d3023cb57858a6be29329babb05c85597ddbe4926c1193a9006110238183612aaf565b61372061321a565b6001600160a01b03811615611437575f5160206149ed5f395f51905f526110238183612328565b5f61375061117f565b8061375f575061375f82611d0d565b1561376b57505f919050565b506001919050565b6040518060400160405280606081526020016137a76040518060600160405280606081526020015f81526020015f81525090565b905290565b5f602082840312156137bc575f5ffd5b81356001600160e01b031981168114610dfb575f5ffd5b6001600160a01b0381168114611437575f5ffd5b5f602082840312156137f7575f5ffd5b8135610dfb816137d3565b5f81518084528060208401602086015e5f602082860101526020601f19601f83011685010191505092915050565b602081525f610dfb6020830184613802565b5f5f60408385031215613853575f5ffd5b823561385e816137d3565b946020939093013593505050565b5f5f83601f84011261387c575f5ffd5b5081356001600160401b03811115613892575f5ffd5b6020830191508360208260051b85010111156138ac575f5ffd5b9250929050565b5f5f602083850312156138c4575f5ffd5b82356001600160401b038111156138d9575f5ffd5b6138e58582860161386c565b90969095509350505050565b604080825283519082018190525f9060208501906060840190835b8181101561392a57835183526020938401939092019160010161390c565b5050602093909301939093525092915050565b5f5f5f5f60408587031215613950575f5ffd5b84356001600160401b03811115613965575f5ffd5b6139718782880161386c565b90955093505060208501356001600160401b0381111561398f575f5ffd5b61399b8782880161386c565b95989497509550505050565b5f5f83601f8401126139b7575f5ffd5b5081356001600160401b038111156139cd575f5ffd5b6020830191508360208285010111156138ac575f5ffd5b5f5f5f5f5f5f60a087890312156139f9575f5ffd5b8635613a04816137d3565b95506020870135613a14816137d3565b9450604087013593506060870135925060808701356001600160401b03811115613a3c575f5ffd5b613a4889828a016139a7565b979a9699509497509295939492505050565b5f5f5f60608486031215613a6c575f5ffd5b8335613a77816137d3565b92506020840135613a87816137d3565b929592945050506040919091013590565b5f60208284031215613aa8575f5ffd5b5035919050565b803580151581146135d3575f5ffd5b5f5f5f5f60608587031215613ad1575f5ffd5b8435613adc816137d3565b9350613aea60208601613aaf565b925060408501356001600160401b03811115613b04575f5ffd5b61399b878288016139a7565b5f5f60408385031215613b21575f5ffd5b823591506020830135613b33816137d3565b809150509250929050565b5f5f5f5f60608587031215613b51575f5ffd5b8435613b5c816137d3565b93506020850135925060408501356001600160401b03811115613b04575f5ffd5b80356135d3816137d3565b5f5f5f5f5f60808688031215613b9c575f5ffd5b8535613ba7816137d3565b94506020860135613bb7816137d3565b93506040860135925060608601356001600160401b03811115613bd8575f5ffd5b613be4888289016139a7565b969995985093965092949392505050565b5f5f5f5f60808587031215613c08575f5ffd5b8435613c13816137d3565b93506020850135613c23816137d3565b92506040850135613c33816137d3565b9396929550929360600135925050565b634e487b7160e01b5f52604160045260245ffd5b604051606081016001600160401b0381118282101715613c7957613c79613c43565b60405290565b604051601f8201601f191681016001600160401b0381118282101715613ca757613ca7613c43565b604052919050565b5f6001600160401b03821115613cc757613cc7613c43565b50601f01601f191660200190565b5f613ce7613ce284613caf565b613c7f565b9050828152838383011115613cfa575f5ffd5b828260208301375f602084830101529392505050565b5f82601f830112613d1f575f5ffd5b610dfb83833560208501613cd5565b5f60208284031215613d3e575f5ffd5b81356001600160401b03811115613d53575f5ffd5b61129d84828501613d10565b5f815160608452613d736060850182613802565b905060208301516020850152604083015160408501528091505092915050565b602081525f610dfb6020830184613d5f565b5f60208284031215613db5575f5ffd5b610dfb82613aaf565b5f602082016020835280845180835260408501915060408160051b8601019250602086015f5b82811015613e1557603f19878603018452613e00858351613802565b94506020938401939190910190600101613de4565b50929695505050505050565b5f5f5f5f5f60608688031215613e35575f5ffd5b85356001600160401b03811115613e4a575f5ffd5b613e568882890161386c565b90965094505060208601356001600160401b03811115613e74575f5ffd5b613e808882890161386c565b90945092505060408601356001600160401b03811115613e9e575f5ffd5b8601601f81018813613eae575f5ffd5b613ebd88823560208401613cd5565b9150509295509295909350565b5f5f60208385031215613edb575f5ffd5b82356001600160401b03811115613ef0575f5ffd5b6138e5858286016139a7565b5f5f60408385031215613f0d575f5ffd5b8235613f18816137d3565b9150610c1460208401613aaf565b5f60208284031215613f36575f5ffd5b81356001600160401b03811115613f4b575f5ffd5b820160608185031215610dfb575f5ffd5b602081525f825160406020840152613f776060840182613802565b90506020840151601f19848303016040850152613f948282613d5f565b95945050505050565b5f5f60408385031215613fae575f5ffd5b8235613fb9816137d3565b91506020830135613b33816137d3565b5f60608284031215613fd9575f5ffd5b613fe1613c57565b905081356001600160401b03811115613ff8575f5ffd5b61400484828501613d10565b82525060208201356001600160401b0381111561401f575f5ffd5b61402b84828501613d10565b60208301525060409182013591810191909152919050565b5f60608284031215614053575f5ffd5b61405b613c57565b905081356001600160401b03811115614072575f5ffd5b61407e84828501613d10565b82525060208201356001600160401b03811115614099575f5ffd5b6140a584828501613fc9565b60208301525060408201356001600160401b038111156140c3575f5ffd5b6140cf84828501613d10565b60408301525092915050565b5f5f5f5f5f60a086880312156140ef575f5ffd5b85356140fa816137d3565b945060208601356001600160401b03811115614114575f5ffd5b860160608189031215614125575f5ffd5b61412d613c57565b81356001600160401b03811115614142575f5ffd5b61414e8a828501613d10565b82525060208201356001600160401b03811115614169575f5ffd5b6141758a828501613d10565b6020830152506040820135915060ff82168214614190575f5ffd5b60408181019290925294508601356001600160401b038111156141b1575f5ffd5b6141bd88828901614043565b9350506141cc60608701613b7d565b91506141da60808701613b7d565b90509295509295909350565b634e487b7160e01b5f52603260045260245ffd5b600181811c9082168061420e57607f821691505b60208210810361137e57634e487b7160e01b5f52602260045260245ffd5b8183526020830192505f815f5b8481101561426a57813561424c816137d3565b6001600160a01b031686526020958601959190910190600101614239565b5093949350505050565b8183525f6001600160fb1b0383111561428b575f5ffd5b8260051b80836020870137939093016020019392505050565b606081525f6142b760608301868861422c565b82810360208401526142ca818587614274565b83810360409094019390935250505f8152602001949350505050565b604081525f6142f960408301868861422c565b828103602084015261430c818587614274565b979650505050505050565b5f82601f830112614326575f5ffd5b8151614334613ce282613caf565b818152846020838601011115614348575f5ffd5b8160208501602083015e5f918101602001919091529392505050565b5f60208284031215614374575f5ffd5b81516001600160401b03811115614389575f5ffd5b82016060818503121561439a575f5ffd5b6143a2613c57565b81516001600160401b038111156143b7575f5ffd5b6143c386828501614317565b8252506020820151602082015260408201516040820152809250505092915050565b5f602082840312156143f5575f5ffd5b81516001600160401b0381111561440a575f5ffd5b8201601f8101841361441a575f5ffd5b80516001600160401b0381111561443357614433613c43565b8060051b61444360208201613c7f565b9182526020818401810192908101908784111561445e575f5ffd5b6020850192505b8383101561430c5782516001600160401b03811115614482575f5ffd5b61449189602083890101614317565b83525060209283019290910190614465565b606081525f6144b660608301878961422c565b82810360208401526144c9818688614274565b905082810360408401526144dd8185613802565b98975050505050505050565b601f821115610c8657805f5260205f20601f840160051c8101602085101561450e5750805b601f840160051c820191505b81811015610c4f575f815560010161451a565b6001600160401b0383111561454457614544613c43565b6145588361455283546141fa565b836144e9565b5f601f841160018114614589575f85156145725750838201355b5f19600387901b1c1916600186901b178355610c4f565b5f83815260208120601f198716915b828110156145b85786850135825560209485019460019092019101614598565b50868210156145d4575f1960f88860031b161c19848701351681555b505060018560011b0183555050505050565b818382375f9101908152919050565b60208152816020820152818360408301375f818301604090810191909152601f909201601f19160101919050565b5f610adb3683613fc9565b634e487b7160e01b5f52601160045260245ffd5b80820180821115610adb57610adb61462e565b828152604060208201525f610df86040830184613802565b81810381811115610adb57610adb61462e565b81516001600160401b0381111561469957614699613c43565b6146ad816146a784546141fa565b846144e9565b6020601f8211600181146146df575f83156146c85750848201515b5f19600385901b1c1916600184901b178455610c4f565b5f84815260208120601f198516915b8281101561470e57878501518255602094850194600190920191016146ee565b508482101561472b57868401515f19600387901b60f8161c191681555b50505050600190811b01905550565b5f82518060208501845e5f920191825250919050565b5f5f8585111561475e575f5ffd5b8386111561476a575f5ffd5b5050820193919092039150565b80356bffffffffffffffffffffffff19811690601484101561230c576bffffffffffffffffffffffff1960149490940360031b84901b1690921692915050565b5f81546147c3816141fa565b8085526001821680156147dd57600181146147f95761482d565b60ff1983166020870152602082151560051b870101935061482d565b845f5260205f205f5b838110156148245781546020828a010152600182019150602081019050614802565b87016020019450505b50505092915050565b60208152604060208201525f61484f60608301846147b7565b601f198382030160408401526060815261486f60608201600186016147b7565b60028501546020830152600390940154604090910152509091905056fe3c11d16cbaffd01df69ce1c404f6340ee057498f5f00246190ea54220576a84853076eaf2d1e2f915f2e0487c9f92cca686c37fd47bf11f95f0da313b2809800d2d5d34c4a4dea00599692d3257c0aebc5e0359176118cd2364ab9b008c2d1009d8059a24cb596f1948a937c2c163cf14465c2a24abfd3cd009eec4ac4c398009bd8d607565c0370ae5f91651ca67fd26d4438022bf72037316600e29e6a3a00d62f75bf68b069bc8e2abd495a949fafec67a4e5a5b7cb36aedf0dd51eec7e729f2df0fed2c77648de5860a4cc508cd0818c85b8b8a1ab4ceeef8d981c8956a602dd7bc7dec4dceedda775e58dd541e08a116c6c53815c0bd028192f7b626800973ef39d76cc2c6090feab1c030bec6ab5db557f64df047a4c4f9b5953cf1df326a560d834a19637eccba4611bbc09fb32970bb627da0a70f14f83fdc9822cbc921df7a58eb4ea112afa962b8186161404ecda2e8fe97f8246026d02ad1a74b7bd0905600c85d707dc53eba2e146c1c2527cd32ac3ff6b86846155151b3e2700a2646970667358221220a511149b7438bddd0f6d8b208919c087728cbfe45fa42889856fb08670d20e0f64736f6c634300081e003302dd7bc7dec4dceedda775e58dd541e08a116c6c53815c0bd028192f7b626800",
  "linkReferences": {},
  "deployedLinkReferences": {}
}