{
  "_format": "hh-sol-artifact-1",
  "contractName": "CMTATUpgradeableUUPS",
  "sourceName": "contracts/deployment/CMTATUpgradeableUUPS.sol",
  "abi": [
    {
      "inputs": [
        {
          "internalType": "address",
          "name": "forwarderIrrevocable",
          "type": "address"
        }
      ],
      "stateMutability": "nonpayable",
      "type": "constructor"
    },
    {
      "inputs": [],
      "name": "AccessControlBadConfirmation",
      "type": "error"
    },
    {
      "inputs": [
        {
          "internalType": "address",
          "name": "account",
          "type": "address"
        },
        {
          "internalType": "bytes32",
          "name": "neededRole",
          "type": "bytes32"
        }
      ],
      "name": "AccessControlUnauthorizedAccount",
      "type": "error"
    },
    {
      "inputs": [
        {
          "internalType": "address",
          "name": "target",
          "type": "address"
        }
      ],
      "name": "AddressEmptyCode",
      "type": "error"
    },
    {
      "inputs": [],
      "name": "CMTAT_AccessControlModule_AddressZeroNotAllowed",
      "type": "error"
    },
    {
      "inputs": [],
      "name": "CMTAT_BurnModule_AccountsValueslengthMismatch",
      "type": "error"
    },
    {
      "inputs": [],
      "name": "CMTAT_BurnModule_EmptyAccounts",
      "type": "error"
    },
    {
      "inputs": [],
      "name": "CMTAT_DocumentEngineModule_SameValue",
      "type": "error"
    },
    {
      "inputs": [],
      "name": "CMTAT_ERC20EnforcementModule_ValueExceedsActiveBalance",
      "type": "error"
    },
    {
      "inputs": [],
      "name": "CMTAT_ERC20EnforcementModule_ValueExceedsAvailableBalance",
      "type": "error"
    },
    {
      "inputs": [],
      "name": "CMTAT_ERC20EnforcementModule_ValueExceedsFrozenBalance",
      "type": "error"
    },
    {
      "inputs": [],
      "name": "CMTAT_Enforcement_AccountsValueslengthMismatch",
      "type": "error"
    },
    {
      "inputs": [],
      "name": "CMTAT_Enforcement_EmptyAccounts",
      "type": "error"
    },
    {
      "inputs": [
        {
          "internalType": "address",
          "name": "from",
          "type": "address"
        },
        {
          "internalType": "address",
          "name": "to",
          "type": "address"
        },
        {
          "internalType": "uint256",
          "name": "amount",
          "type": "uint256"
        }
      ],
      "name": "CMTAT_InvalidTransfer",
      "type": "error"
    },
    {
      "inputs": [],
      "name": "CMTAT_MintModule_AccountsValueslengthMismatch",
      "type": "error"
    },
    {
      "inputs": [],
      "name": "CMTAT_MintModule_EmptyAccounts",
      "type": "error"
    },
    {
      "inputs": [],
      "name": "CMTAT_MintModule_EmptyTos",
      "type": "error"
    },
    {
      "inputs": [],
      "name": "CMTAT_MintModule_TosValueslengthMismatch",
      "type": "error"
    },
    {
      "inputs": [],
      "name": "CMTAT_PauseModule_ContractIsDeactivated",
      "type": "error"
    },
    {
      "inputs": [],
      "name": "CMTAT_SnapshotModule_SameValue",
      "type": "error"
    },
    {
      "inputs": [],
      "name": "CMTAT_ValidationModule_SameValue",
      "type": "error"
    },
    {
      "inputs": [
        {
          "internalType": "address",
          "name": "implementation",
          "type": "address"
        }
      ],
      "name": "ERC1967InvalidImplementation",
      "type": "error"
    },
    {
      "inputs": [],
      "name": "ERC1967NonPayable",
      "type": "error"
    },
    {
      "inputs": [
        {
          "internalType": "address",
          "name": "spender",
          "type": "address"
        },
        {
          "internalType": "uint256",
          "name": "allowance",
          "type": "uint256"
        },
        {
          "internalType": "uint256",
          "name": "needed",
          "type": "uint256"
        }
      ],
      "name": "ERC20InsufficientAllowance",
      "type": "error"
    },
    {
      "inputs": [
        {
          "internalType": "address",
          "name": "sender",
          "type": "address"
        },
        {
          "internalType": "uint256",
          "name": "balance",
          "type": "uint256"
        },
        {
          "internalType": "uint256",
          "name": "needed",
          "type": "uint256"
        }
      ],
      "name": "ERC20InsufficientBalance",
      "type": "error"
    },
    {
      "inputs": [
        {
          "internalType": "address",
          "name": "approver",
          "type": "address"
        }
      ],
      "name": "ERC20InvalidApprover",
      "type": "error"
    },
    {
      "inputs": [
        {
          "internalType": "address",
          "name": "receiver",
          "type": "address"
        }
      ],
      "name": "ERC20InvalidReceiver",
      "type": "error"
    },
    {
      "inputs": [
        {
          "internalType": "address",
          "name": "sender",
          "type": "address"
        }
      ],
      "name": "ERC20InvalidSender",
      "type": "error"
    },
    {
      "inputs": [
        {
          "internalType": "address",
          "name": "spender",
          "type": "address"
        }
      ],
      "name": "ERC20InvalidSpender",
      "type": "error"
    },
    {
      "inputs": [],
      "name": "EnforcedPause",
      "type": "error"
    },
    {
      "inputs": [],
      "name": "ExpectedPause",
      "type": "error"
    },
    {
      "inputs": [],
      "name": "FailedCall",
      "type": "error"
    },
    {
      "inputs": [],
      "name": "InvalidInitialization",
      "type": "error"
    },
    {
      "inputs": [],
      "name": "NotInitializing",
      "type": "error"
    },
    {
      "inputs": [],
      "name": "UUPSUnauthorizedCallContext",
      "type": "error"
    },
    {
      "inputs": [
        {
          "internalType": "bytes32",
          "name": "slot",
          "type": "bytes32"
        }
      ],
      "name": "UUPSUnsupportedProxiableUUID",
      "type": "error"
    },
    {
      "anonymous": false,
      "inputs": [
        {
          "indexed": true,
          "internalType": "address",
          "name": "account",
          "type": "address"
        },
        {
          "indexed": true,
          "internalType": "bool",
          "name": "isFrozen",
          "type": "bool"
        },
        {
          "indexed": true,
          "internalType": "address",
          "name": "enforcer",
          "type": "address"
        },
        {
          "indexed": false,
          "internalType": "bytes",
          "name": "data",
          "type": "bytes"
        }
      ],
      "name": "AddressFrozen",
      "type": "event"
    },
    {
      "anonymous": false,
      "inputs": [
        {
          "indexed": true,
          "internalType": "address",
          "name": "owner",
          "type": "address"
        },
        {
          "indexed": true,
          "internalType": "address",
          "name": "spender",
          "type": "address"
        },
        {
          "indexed": false,
          "internalType": "uint256",
          "name": "value",
          "type": "uint256"
        }
      ],
      "name": "Approval",
      "type": "event"
    },
    {
      "anonymous": false,
      "inputs": [
        {
          "indexed": true,
          "internalType": "address",
          "name": "burner",
          "type": "address"
        },
        {
          "indexed": false,
          "internalType": "address[]",
          "name": "accounts",
          "type": "address[]"
        },
        {
          "indexed": false,
          "internalType": "uint256[]",
          "name": "values",
          "type": "uint256[]"
        },
        {
          "indexed": false,
          "internalType": "bytes",
          "name": "data",
          "type": "bytes"
        }
      ],
      "name": "BatchBurn",
      "type": "event"
    },
    {
      "anonymous": false,
      "inputs": [
        {
          "indexed": true,
          "internalType": "address",
          "name": "minter",
          "type": "address"
        },
        {
          "indexed": false,
          "internalType": "address[]",
          "name": "accounts",
          "type": "address[]"
        },
        {
          "indexed": false,
          "internalType": "uint256[]",
          "name": "values",
          "type": "uint256[]"
        }
      ],
      "name": "BatchMint",
      "type": "event"
    },
    {
      "anonymous": false,
      "inputs": [
        {
          "indexed": true,
          "internalType": "address",
          "name": "burner",
          "type": "address"
        },
        {
          "indexed": true,
          "internalType": "address",
          "name": "account",
          "type": "address"
        },
        {
          "indexed": false,
          "internalType": "uint256",
          "name": "value",
          "type": "uint256"
        },
        {
          "indexed": false,
          "internalType": "bytes",
          "name": "data",
          "type": "bytes"
        }
      ],
      "name": "Burn",
      "type": "event"
    },
    {
      "anonymous": false,
      "inputs": [
        {
          "indexed": true,
          "internalType": "address",
          "name": "burner",
          "type": "address"
        },
        {
          "indexed": true,
          "internalType": "address",
          "name": "account",
          "type": "address"
        },
        {
          "indexed": true,
          "internalType": "address",
          "name": "spender",
          "type": "address"
        },
        {
          "indexed": false,
          "internalType": "uint256",
          "name": "value",
          "type": "uint256"
        }
      ],
      "name": "BurnFrom",
      "type": "event"
    },
    {
      "anonymous": false,
      "inputs": [
        {
          "indexed": true,
          "internalType": "address",
          "name": "from",
          "type": "address"
        },
        {
          "indexed": false,
          "internalType": "uint256",
          "name": "value",
          "type": "uint256"
        },
        {
          "indexed": true,
          "internalType": "address",
          "name": "sender",
          "type": "address"
        }
      ],
      "name": "CrosschainBurn",
      "type": "event"
    },
    {
      "anonymous": false,
      "inputs": [
        {
          "indexed": true,
          "internalType": "address",
          "name": "to",
          "type": "address"
        },
        {
          "indexed": false,
          "internalType": "uint256",
          "name": "value",
          "type": "uint256"
        },
        {
          "indexed": true,
          "internalType": "address",
          "name": "sender",
          "type": "address"
        }
      ],
      "name": "CrosschainMint",
      "type": "event"
    },
    {
      "anonymous": false,
      "inputs": [
        {
          "indexed": false,
          "internalType": "address",
          "name": "account",
          "type": "address"
        }
      ],
      "name": "Deactivated",
      "type": "event"
    },
    {
      "anonymous": false,
      "inputs": [
        {
          "indexed": true,
          "internalType": "contract IERC1643",
          "name": "newDocumentEngine",
          "type": "address"
        }
      ],
      "name": "DocumentEngine",
      "type": "event"
    },
    {
      "anonymous": false,
      "inputs": [
        {
          "indexed": true,
          "internalType": "address",
          "name": "enforcer",
          "type": "address"
        },
        {
          "indexed": true,
          "internalType": "address",
          "name": "account",
          "type": "address"
        },
        {
          "indexed": false,
          "internalType": "uint256",
          "name": "amount",
          "type": "uint256"
        },
        {
          "indexed": false,
          "internalType": "bytes",
          "name": "data",
          "type": "bytes"
        }
      ],
      "name": "Enforcement",
      "type": "event"
    },
    {
      "anonymous": false,
      "inputs": [
        {
          "indexed": false,
          "internalType": "string",
          "name": "newInformation",
          "type": "string"
        }
      ],
      "name": "Information",
      "type": "event"
    },
    {
      "anonymous": false,
      "inputs": [
        {
          "indexed": false,
          "internalType": "uint64",
          "name": "version",
          "type": "uint64"
        }
      ],
      "name": "Initialized",
      "type": "event"
    },
    {
      "anonymous": false,
      "inputs": [
        {
          "indexed": true,
          "internalType": "address",
          "name": "minter",
          "type": "address"
        },
        {
          "indexed": true,
          "internalType": "address",
          "name": "account",
          "type": "address"
        },
        {
          "indexed": false,
          "internalType": "uint256",
          "name": "value",
          "type": "uint256"
        },
        {
          "indexed": false,
          "internalType": "bytes",
          "name": "data",
          "type": "bytes"
        }
      ],
      "name": "Mint",
      "type": "event"
    },
    {
      "anonymous": false,
      "inputs": [
        {
          "indexed": true,
          "internalType": "string",
          "name": "newNameIndexed",
          "type": "string"
        },
        {
          "indexed": false,
          "internalType": "string",
          "name": "newName",
          "type": "string"
        }
      ],
      "name": "Name",
      "type": "event"
    },
    {
      "anonymous": false,
      "inputs": [
        {
          "indexed": false,
          "internalType": "address",
          "name": "account",
          "type": "address"
        }
      ],
      "name": "Paused",
      "type": "event"
    },
    {
      "anonymous": false,
      "inputs": [
        {
          "indexed": true,
          "internalType": "bytes32",
          "name": "role",
          "type": "bytes32"
        },
        {
          "indexed": true,
          "internalType": "bytes32",
          "name": "previousAdminRole",
          "type": "bytes32"
        },
        {
          "indexed": true,
          "internalType": "bytes32",
          "name": "newAdminRole",
          "type": "bytes32"
        }
      ],
      "name": "RoleAdminChanged",
      "type": "event"
    },
    {
      "anonymous": false,
      "inputs": [
        {
          "indexed": true,
          "internalType": "bytes32",
          "name": "role",
          "type": "bytes32"
        },
        {
          "indexed": true,
          "internalType": "address",
          "name": "account",
          "type": "address"
        },
        {
          "indexed": true,
          "internalType": "address",
          "name": "sender",
          "type": "address"
        }
      ],
      "name": "RoleGranted",
      "type": "event"
    },
    {
      "anonymous": false,
      "inputs": [
        {
          "indexed": true,
          "internalType": "bytes32",
          "name": "role",
          "type": "bytes32"
        },
        {
          "indexed": true,
          "internalType": "address",
          "name": "account",
          "type": "address"
        },
        {
          "indexed": true,
          "internalType": "address",
          "name": "sender",
          "type": "address"
        }
      ],
      "name": "RoleRevoked",
      "type": "event"
    },
    {
      "anonymous": false,
      "inputs": [
        {
          "indexed": true,
          "internalType": "contract IRuleEngine",
          "name": "newRuleEngine",
          "type": "address"
        }
      ],
      "name": "RuleEngine",
      "type": "event"
    },
    {
      "anonymous": false,
      "inputs": [
        {
          "indexed": true,
          "internalType": "contract ISnapshotEngine",
          "name": "newSnapshotEngine",
          "type": "address"
        }
      ],
      "name": "SnapshotEngine",
      "type": "event"
    },
    {
      "anonymous": false,
      "inputs": [
        {
          "indexed": true,
          "internalType": "address",
          "name": "account",
          "type": "address"
        },
        {
          "indexed": true,
          "internalType": "address",
          "name": "spender",
          "type": "address"
        },
        {
          "indexed": false,
          "internalType": "uint256",
          "name": "value",
          "type": "uint256"
        }
      ],
      "name": "Spend",
      "type": "event"
    },
    {
      "anonymous": false,
      "inputs": [
        {
          "indexed": true,
          "internalType": "string",
          "name": "newSymbolIndexed",
          "type": "string"
        },
        {
          "indexed": false,
          "internalType": "string",
          "name": "newSymbol",
          "type": "string"
        }
      ],
      "name": "Symbol",
      "type": "event"
    },
    {
      "anonymous": false,
      "inputs": [
        {
          "components": [
            {
              "internalType": "string",
              "name": "name",
              "type": "string"
            },
            {
              "components": [
                {
                  "internalType": "string",
                  "name": "uri",
                  "type": "string"
                },
                {
                  "internalType": "bytes32",
                  "name": "documentHash",
                  "type": "bytes32"
                },
                {
                  "internalType": "uint256",
                  "name": "lastModified",
                  "type": "uint256"
                }
              ],
              "internalType": "struct IERC1643.Document",
              "name": "doc",
              "type": "tuple"
            }
          ],
          "indexed": false,
          "internalType": "struct ICMTATBase.Terms",
          "name": "newTerm",
          "type": "tuple"
        }
      ],
      "name": "Term",
      "type": "event"
    },
    {
      "anonymous": false,
      "inputs": [
        {
          "indexed": true,
          "internalType": "string",
          "name": "newTokenIdIndexed",
          "type": "string"
        },
        {
          "indexed": false,
          "internalType": "string",
          "name": "newTokenId",
          "type": "string"
        }
      ],
      "name": "TokenId",
      "type": "event"
    },
    {
      "anonymous": false,
      "inputs": [
        {
          "indexed": true,
          "internalType": "address",
          "name": "account",
          "type": "address"
        },
        {
          "indexed": false,
          "internalType": "uint256",
          "name": "value",
          "type": "uint256"
        },
        {
          "indexed": false,
          "internalType": "bytes",
          "name": "data",
          "type": "bytes"
        }
      ],
      "name": "TokensFrozen",
      "type": "event"
    },
    {
      "anonymous": false,
      "inputs": [
        {
          "indexed": true,
          "internalType": "address",
          "name": "account",
          "type": "address"
        },
        {
          "indexed": false,
          "internalType": "uint256",
          "name": "value",
          "type": "uint256"
        },
        {
          "indexed": false,
          "internalType": "bytes",
          "name": "data",
          "type": "bytes"
        }
      ],
      "name": "TokensUnfrozen",
      "type": "event"
    },
    {
      "anonymous": false,
      "inputs": [
        {
          "indexed": true,
          "internalType": "address",
          "name": "from",
          "type": "address"
        },
        {
          "indexed": true,
          "internalType": "address",
          "name": "to",
          "type": "address"
        },
        {
          "indexed": false,
          "internalType": "uint256",
          "name": "value",
          "type": "uint256"
        }
      ],
      "name": "Transfer",
      "type": "event"
    },
    {
      "anonymous": false,
      "inputs": [
        {
          "indexed": false,
          "internalType": "address",
          "name": "account",
          "type": "address"
        }
      ],
      "name": "Unpaused",
      "type": "event"
    },
    {
      "anonymous": false,
      "inputs": [
        {
          "indexed": true,
          "internalType": "address",
          "name": "implementation",
          "type": "address"
        }
      ],
      "name": "Upgraded",
      "type": "event"
    },
    {
      "inputs": [],
      "name": "BURNER_FROM_ROLE",
      "outputs": [
        {
          "internalType": "bytes32",
          "name": "",
          "type": "bytes32"
        }
      ],
      "stateMutability": "view",
      "type": "function"
    },
    {
      "inputs": [],
      "name": "BURNER_ROLE",
      "outputs": [
        {
          "internalType": "bytes32",
          "name": "",
          "type": "bytes32"
        }
      ],
      "stateMutability": "view",
      "type": "function"
    },
    {
      "inputs": [],
      "name": "CROSS_CHAIN_ROLE",
      "outputs": [
        {
          "internalType": "bytes32",
          "name": "",
          "type": "bytes32"
        }
      ],
      "stateMutability": "view",
      "type": "function"
    },
    {
      "inputs": [],
      "name": "DEFAULT_ADMIN_ROLE",
      "outputs": [
        {
          "internalType": "bytes32",
          "name": "",
          "type": "bytes32"
        }
      ],
      "stateMutability": "view",
      "type": "function"
    },
    {
      "inputs": [],
      "name": "DOCUMENT_ROLE",
      "outputs": [
        {
          "internalType": "bytes32",
          "name": "",
          "type": "bytes32"
        }
      ],
      "stateMutability": "view",
      "type": "function"
    },
    {
      "inputs": [],
      "name": "ENFORCER_ROLE",
      "outputs": [
        {
          "internalType": "bytes32",
          "name": "",
          "type": "bytes32"
        }
      ],
      "stateMutability": "view",
      "type": "function"
    },
    {
      "inputs": [],
      "name": "ERC20ENFORCER_ROLE",
      "outputs": [
        {
          "internalType": "bytes32",
          "name": "",
          "type": "bytes32"
        }
      ],
      "stateMutability": "view",
      "type": "function"
    },
    {
      "inputs": [],
      "name": "EXTRA_INFORMATION_ROLE",
      "outputs": [
        {
          "internalType": "bytes32",
          "name": "",
          "type": "bytes32"
        }
      ],
      "stateMutability": "view",
      "type": "function"
    },
    {
      "inputs": [],
      "name": "MINTER_ROLE",
      "outputs": [
        {
          "internalType": "bytes32",
          "name": "",
          "type": "bytes32"
        }
      ],
      "stateMutability": "view",
      "type": "function"
    },
    {
      "inputs": [],
      "name": "PAUSER_ROLE",
      "outputs": [
        {
          "internalType": "bytes32",
          "name": "",
          "type": "bytes32"
        }
      ],
      "stateMutability": "view",
      "type": "function"
    },
    {
      "inputs": [],
      "name": "PROXY_UPGRADE_ROLE",
      "outputs": [
        {
          "internalType": "bytes32",
          "name": "",
          "type": "bytes32"
        }
      ],
      "stateMutability": "view",
      "type": "function"
    },
    {
      "inputs": [],
      "name": "SNAPSHOOTER_ROLE",
      "outputs": [
        {
          "internalType": "bytes32",
          "name": "",
          "type": "bytes32"
        }
      ],
      "stateMutability": "view",
      "type": "function"
    },
    {
      "inputs": [],
      "name": "UPGRADE_INTERFACE_VERSION",
      "outputs": [
        {
          "internalType": "string",
          "name": "",
          "type": "string"
        }
      ],
      "stateMutability": "view",
      "type": "function"
    },
    {
      "inputs": [
        {
          "internalType": "address",
          "name": "owner",
          "type": "address"
        },
        {
          "internalType": "address",
          "name": "spender",
          "type": "address"
        }
      ],
      "name": "allowance",
      "outputs": [
        {
          "internalType": "uint256",
          "name": "",
          "type": "uint256"
        }
      ],
      "stateMutability": "view",
      "type": "function"
    },
    {
      "inputs": [
        {
          "internalType": "address",
          "name": "spender",
          "type": "address"
        },
        {
          "internalType": "uint256",
          "name": "value",
          "type": "uint256"
        }
      ],
      "name": "approve",
      "outputs": [
        {
          "internalType": "bool",
          "name": "",
          "type": "bool"
        }
      ],
      "stateMutability": "nonpayable",
      "type": "function"
    },
    {
      "inputs": [
        {
          "internalType": "address",
          "name": "account",
          "type": "address"
        }
      ],
      "name": "balanceOf",
      "outputs": [
        {
          "internalType": "uint256",
          "name": "",
          "type": "uint256"
        }
      ],
      "stateMutability": "view",
      "type": "function"
    },
    {
      "inputs": [
        {
          "internalType": "address[]",
          "name": "addresses",
          "type": "address[]"
        }
      ],
      "name": "batchBalanceOf",
      "outputs": [
        {
          "internalType": "uint256[]",
          "name": "balances",
          "type": "uint256[]"
        },
        {
          "internalType": "uint256",
          "name": "totalSupply_",
          "type": "uint256"
        }
      ],
      "stateMutability": "view",
      "type": "function"
    },
    {
      "inputs": [
        {
          "internalType": "address[]",
          "name": "accounts",
          "type": "address[]"
        },
        {
          "internalType": "uint256[]",
          "name": "values",
          "type": "uint256[]"
        }
      ],
      "name": "batchBurn",
      "outputs": [],
      "stateMutability": "nonpayable",
      "type": "function"
    },
    {
      "inputs": [
        {
          "internalType": "address[]",
          "name": "accounts",
          "type": "address[]"
        },
        {
          "internalType": "uint256[]",
          "name": "values",
          "type": "uint256[]"
        },
        {
          "internalType": "bytes",
          "name": "data",
          "type": "bytes"
        }
      ],
      "name": "batchBurn",
      "outputs": [],
      "stateMutability": "nonpayable",
      "type": "function"
    },
    {
      "inputs": [
        {
          "internalType": "address[]",
          "name": "accounts",
          "type": "address[]"
        },
        {
          "internalType": "uint256[]",
          "name": "values",
          "type": "uint256[]"
        }
      ],
      "name": "batchMint",
      "outputs": [],
      "stateMutability": "nonpayable",
      "type": "function"
    },
    {
      "inputs": [
        {
          "internalType": "address[]",
          "name": "accounts",
          "type": "address[]"
        },
        {
          "internalType": "bool[]",
          "name": "freezes",
          "type": "bool[]"
        }
      ],
      "name": "batchSetAddressFrozen",
      "outputs": [],
      "stateMutability": "nonpayable",
      "type": "function"
    },
    {
      "inputs": [
        {
          "internalType": "address[]",
          "name": "tos",
          "type": "address[]"
        },
        {
          "internalType": "uint256[]",
          "name": "values",
          "type": "uint256[]"
        }
      ],
      "name": "batchTransfer",
      "outputs": [
        {
          "internalType": "bool",
          "name": "success_",
          "type": "bool"
        }
      ],
      "stateMutability": "nonpayable",
      "type": "function"
    },
    {
      "inputs": [
        {
          "internalType": "uint256",
          "name": "value",
          "type": "uint256"
        }
      ],
      "name": "burn",
      "outputs": [],
      "stateMutability": "nonpayable",
      "type": "function"
    },
    {
      "inputs": [
        {
          "internalType": "address",
          "name": "account",
          "type": "address"
        },
        {
          "internalType": "uint256",
          "name": "value",
          "type": "uint256"
        },
        {
          "internalType": "bytes",
          "name": "data",
          "type": "bytes"
        }
      ],
      "name": "burn",
      "outputs": [],
      "stateMutability": "nonpayable",
      "type": "function"
    },
    {
      "inputs": [
        {
          "internalType": "address",
          "name": "account",
          "type": "address"
        },
        {
          "internalType": "uint256",
          "name": "value",
          "type": "uint256"
        }
      ],
      "name": "burn",
      "outputs": [],
      "stateMutability": "nonpayable",
      "type": "function"
    },
    {
      "inputs": [
        {
          "internalType": "address",
          "name": "from",
          "type": "address"
        },
        {
          "internalType": "address",
          "name": "to",
          "type": "address"
        },
        {
          "internalType": "uint256",
          "name": "amountToBurn",
          "type": "uint256"
        },
        {
          "internalType": "uint256",
          "name": "amountToMint",
          "type": "uint256"
        },
        {
          "internalType": "bytes",
          "name": "data",
          "type": "bytes"
        }
      ],
      "name": "burnAndMint",
      "outputs": [],
      "stateMutability": "nonpayable",
      "type": "function"
    },
    {
      "inputs": [
        {
          "internalType": "address",
          "name": "account",
          "type": "address"
        },
        {
          "internalType": "uint256",
          "name": "value",
          "type": "uint256"
        }
      ],
      "name": "burnFrom",
      "outputs": [],
      "stateMutability": "nonpayable",
      "type": "function"
    },
    {
      "inputs": [
        {
          "internalType": "address",
          "name": "from",
          "type": "address"
        },
        {
          "internalType": "address",
          "name": "to",
          "type": "address"
        },
        {
          "internalType": "uint256",
          "name": "value",
          "type": "uint256"
        }
      ],
      "name": "canTransfer",
      "outputs": [
        {
          "internalType": "bool",
          "name": "",
          "type": "bool"
        }
      ],
      "stateMutability": "view",
      "type": "function"
    },
    {
      "inputs": [
        {
          "internalType": "address",
          "name": "spender",
          "type": "address"
        },
        {
          "internalType": "address",
          "name": "from",
          "type": "address"
        },
        {
          "internalType": "address",
          "name": "to",
          "type": "address"
        },
        {
          "internalType": "uint256",
          "name": "value",
          "type": "uint256"
        }
      ],
      "name": "canTransferFrom",
      "outputs": [
        {
          "internalType": "bool",
          "name": "",
          "type": "bool"
        }
      ],
      "stateMutability": "view",
      "type": "function"
    },
    {
      "inputs": [
        {
          "internalType": "address",
          "name": "from",
          "type": "address"
        },
        {
          "internalType": "uint256",
          "name": "value",
          "type": "uint256"
        }
      ],
      "name": "crosschainBurn",
      "outputs": [],
      "stateMutability": "nonpayable",
      "type": "function"
    },
    {
      "inputs": [
        {
          "internalType": "address",
          "name": "to",
          "type": "address"
        },
        {
          "internalType": "uint256",
          "name": "value",
          "type": "uint256"
        }
      ],
      "name": "crosschainMint",
      "outputs": [],
      "stateMutability": "nonpayable",
      "type": "function"
    },
    {
      "inputs": [],
      "name": "deactivateContract",
      "outputs": [],
      "stateMutability": "nonpayable",
      "type": "function"
    },
    {
      "inputs": [],
      "name": "deactivated",
      "outputs": [
        {
          "internalType": "bool",
          "name": "",
          "type": "bool"
        }
      ],
      "stateMutability": "view",
      "type": "function"
    },
    {
      "inputs": [],
      "name": "decimals",
      "outputs": [
        {
          "internalType": "uint8",
          "name": "",
          "type": "uint8"
        }
      ],
      "stateMutability": "view",
      "type": "function"
    },
    {
      "inputs": [
        {
          "internalType": "address",
          "name": "from",
          "type": "address"
        },
        {
          "internalType": "address",
          "name": "to",
          "type": "address"
        },
        {
          "internalType": "uint256",
          "name": "value",
          "type": "uint256"
        }
      ],
      "name": "detectTransferRestriction",
      "outputs": [
        {
          "internalType": "uint8",
          "name": "code",
          "type": "uint8"
        }
      ],
      "stateMutability": "view",
      "type": "function"
    },
    {
      "inputs": [
        {
          "internalType": "address",
          "name": "spender",
          "type": "address"
        },
        {
          "internalType": "address",
          "name": "from",
          "type": "address"
        },
        {
          "internalType": "address",
          "name": "to",
          "type": "address"
        },
        {
          "internalType": "uint256",
          "name": "value",
          "type": "uint256"
        }
      ],
      "name": "detectTransferRestrictionFrom",
      "outputs": [
        {
          "internalType": "uint8",
          "name": "code",
          "type": "uint8"
        }
      ],
      "stateMutability": "view",
      "type": "function"
    },
    {
      "inputs": [],
      "name": "documentEngine",
      "outputs": [
        {
          "internalType": "contract IERC1643",
          "name": "documentEngine_",
          "type": "address"
        }
      ],
      "stateMutability": "view",
      "type": "function"
    },
    {
      "inputs": [
        {
          "internalType": "address",
          "name": "from",
          "type": "address"
        },
        {
          "internalType": "address",
          "name": "to",
          "type": "address"
        },
        {
          "internalType": "uint256",
          "name": "value",
          "type": "uint256"
        },
        {
          "internalType": "bytes",
          "name": "data",
          "type": "bytes"
        }
      ],
      "name": "forcedTransfer",
      "outputs": [
        {
          "internalType": "bool",
          "name": "",
          "type": "bool"
        }
      ],
      "stateMutability": "nonpayable",
      "type": "function"
    },
    {
      "inputs": [
        {
          "internalType": "address",
          "name": "from",
          "type": "address"
        },
        {
          "internalType": "address",
          "name": "to",
          "type": "address"
        },
        {
          "internalType": "uint256",
          "name": "value",
          "type": "uint256"
        }
      ],
      "name": "forcedTransfer",
      "outputs": [
        {
          "internalType": "bool",
          "name": "",
          "type": "bool"
        }
      ],
      "stateMutability": "nonpayable",
      "type": "function"
    },
    {
      "inputs": [
        {
          "internalType": "address",
          "name": "account",
          "type": "address"
        },
        {
          "internalType": "uint256",
          "name": "value",
          "type": "uint256"
        }
      ],
      "name": "freezePartialTokens",
      "outputs": [],
      "stateMutability": "nonpayable",
      "type": "function"
    },
    {
      "inputs": [
        {
          "internalType": "address",
          "name": "account",
          "type": "address"
        },
        {
          "internalType": "uint256",
          "name": "value",
          "type": "uint256"
        },
        {
          "internalType": "bytes",
          "name": "data",
          "type": "bytes"
        }
      ],
      "name": "freezePartialTokens",
      "outputs": [],
      "stateMutability": "nonpayable",
      "type": "function"
    },
    {
      "inputs": [
        {
          "internalType": "address",
          "name": "account",
          "type": "address"
        }
      ],
      "name": "getActiveBalanceOf",
      "outputs": [
        {
          "internalType": "uint256",
          "name": "",
          "type": "uint256"
        }
      ],
      "stateMutability": "view",
      "type": "function"
    },
    {
      "inputs": [],
      "name": "getAllDocuments",
      "outputs": [
        {
          "internalType": "string[]",
          "name": "documentNames_",
          "type": "string[]"
        }
      ],
      "stateMutability": "view",
      "type": "function"
    },
    {
      "inputs": [
        {
          "internalType": "string",
          "name": "name",
          "type": "string"
        }
      ],
      "name": "getDocument",
      "outputs": [
        {
          "components": [
            {
              "internalType": "string",
              "name": "uri",
              "type": "string"
            },
            {
              "internalType": "bytes32",
              "name": "documentHash",
              "type": "bytes32"
            },
            {
              "internalType": "uint256",
              "name": "lastModified",
              "type": "uint256"
            }
          ],
          "internalType": "struct IERC1643.Document",
          "name": "document",
          "type": "tuple"
        }
      ],
      "stateMutability": "view",
      "type": "function"
    },
    {
      "inputs": [
        {
          "internalType": "address",
          "name": "account",
          "type": "address"
        }
      ],
      "name": "getFrozenTokens",
      "outputs": [
        {
          "internalType": "uint256",
          "name": "",
          "type": "uint256"
        }
      ],
      "stateMutability": "view",
      "type": "function"
    },
    {
      "inputs": [
        {
          "internalType": "bytes32",
          "name": "role",
          "type": "bytes32"
        }
      ],
      "name": "getRoleAdmin",
      "outputs": [
        {
          "internalType": "bytes32",
          "name": "",
          "type": "bytes32"
        }
      ],
      "stateMutability": "view",
      "type": "function"
    },
    {
      "inputs": [
        {
          "internalType": "bytes32",
          "name": "role",
          "type": "bytes32"
        },
        {
          "internalType": "address",
          "name": "account",
          "type": "address"
        }
      ],
      "name": "grantRole",
      "outputs": [],
      "stateMutability": "nonpayable",
      "type": "function"
    },
    {
      "inputs": [
        {
          "internalType": "bytes32",
          "name": "role",
          "type": "bytes32"
        },
        {
          "internalType": "address",
          "name": "account",
          "type": "address"
        }
      ],
      "name": "hasRole",
      "outputs": [
        {
          "internalType": "bool",
          "name": "",
          "type": "bool"
        }
      ],
      "stateMutability": "view",
      "type": "function"
    },
    {
      "inputs": [],
      "name": "information",
      "outputs": [
        {
          "internalType": "string",
          "name": "information_",
          "type": "string"
        }
      ],
      "stateMutability": "view",
      "type": "function"
    },
    {
      "inputs": [
        {
          "internalType": "address",
          "name": "admin",
          "type": "address"
        },
        {
          "components": [
            {
              "internalType": "string",
              "name": "name",
              "type": "string"
            },
            {
              "internalType": "string",
              "name": "symbol",
              "type": "string"
            },
            {
              "internalType": "uint8",
              "name": "decimalsIrrevocable",
              "type": "uint8"
            }
          ],
          "internalType": "struct ICMTATConstructor.ERC20Attributes",
          "name": "ERC20Attributes_",
          "type": "tuple"
        },
        {
          "components": [
            {
              "internalType": "string",
              "name": "tokenId",
              "type": "string"
            },
            {
              "components": [
                {
                  "internalType": "string",
                  "name": "name",
                  "type": "string"
                },
                {
                  "internalType": "string",
                  "name": "uri",
                  "type": "string"
                },
                {
                  "internalType": "bytes32",
                  "name": "documentHash",
                  "type": "bytes32"
                }
              ],
              "internalType": "struct IERC1643CMTAT.DocumentInfo",
              "name": "terms",
              "type": "tuple"
            },
            {
              "internalType": "string",
              "name": "information",
              "type": "string"
            }
          ],
          "internalType": "struct ICMTATConstructor.ExtraInformationAttributes",
          "name": "extraInformationAttributes_",
          "type": "tuple"
        },
        {
          "components": [
            {
              "internalType": "contract IRuleEngine",
              "name": "ruleEngine",
              "type": "address"
            },
            {
              "internalType": "contract ISnapshotEngine",
              "name": "snapshotEngine",
              "type": "address"
            },
            {
              "internalType": "contract IERC1643",
              "name": "documentEngine",
              "type": "address"
            }
          ],
          "internalType": "struct ICMTATConstructor.Engine",
          "name": "engines_",
          "type": "tuple"
        }
      ],
      "name": "initialize",
      "outputs": [],
      "stateMutability": "nonpayable",
      "type": "function"
    },
    {
      "inputs": [
        {
          "internalType": "address",
          "name": "account",
          "type": "address"
        }
      ],
      "name": "isFrozen",
      "outputs": [
        {
          "internalType": "bool",
          "name": "isFrozen_",
          "type": "bool"
        }
      ],
      "stateMutability": "view",
      "type": "function"
    },
    {
      "inputs": [
        {
          "internalType": "address",
          "name": "forwarder",
          "type": "address"
        }
      ],
      "name": "isTrustedForwarder",
      "outputs": [
        {
          "internalType": "bool",
          "name": "",
          "type": "bool"
        }
      ],
      "stateMutability": "view",
      "type": "function"
    },
    {
      "inputs": [
        {
          "internalType": "uint8",
          "name": "restrictionCode",
          "type": "uint8"
        }
      ],
      "name": "messageForTransferRestriction",
      "outputs": [
        {
          "internalType": "string",
          "name": "message",
          "type": "string"
        }
      ],
      "stateMutability": "view",
      "type": "function"
    },
    {
      "inputs": [
        {
          "internalType": "address",
          "name": "account",
          "type": "address"
        },
        {
          "internalType": "uint256",
          "name": "value",
          "type": "uint256"
        }
      ],
      "name": "mint",
      "outputs": [],
      "stateMutability": "nonpayable",
      "type": "function"
    },
    {
      "inputs": [
        {
          "internalType": "address",
          "name": "account",
          "type": "address"
        },
        {
          "internalType": "uint256",
          "name": "value",
          "type": "uint256"
        },
        {
          "internalType": "bytes",
          "name": "data",
          "type": "bytes"
        }
      ],
      "name": "mint",
      "outputs": [],
      "stateMutability": "nonpayable",
      "type": "function"
    },
    {
      "inputs": [],
      "name": "name",
      "outputs": [
        {
          "internalType": "string",
          "name": "",
          "type": "string"
        }
      ],
      "stateMutability": "view",
      "type": "function"
    },
    {
      "inputs": [],
      "name": "pause",
      "outputs": [],
      "stateMutability": "nonpayable",
      "type": "function"
    },
    {
      "inputs": [],
      "name": "paused",
      "outputs": [
        {
          "internalType": "bool",
          "name": "",
          "type": "bool"
        }
      ],
      "stateMutability": "view",
      "type": "function"
    },
    {
      "inputs": [],
      "name": "proxiableUUID",
      "outputs": [
        {
          "internalType": "bytes32",
          "name": "",
          "type": "bytes32"
        }
      ],
      "stateMutability": "view",
      "type": "function"
    },
    {
      "inputs": [
        {
          "internalType": "bytes32",
          "name": "role",
          "type": "bytes32"
        },
        {
          "internalType": "address",
          "name": "callerConfirmation",
          "type": "address"
        }
      ],
      "name": "renounceRole",
      "outputs": [],
      "stateMutability": "nonpayable",
      "type": "function"
    },
    {
      "inputs": [
        {
          "internalType": "bytes32",
          "name": "role",
          "type": "bytes32"
        },
        {
          "internalType": "address",
          "name": "account",
          "type": "address"
        }
      ],
      "name": "revokeRole",
      "outputs": [],
      "stateMutability": "nonpayable",
      "type": "function"
    },
    {
      "inputs": [],
      "name": "ruleEngine",
      "outputs": [
        {
          "internalType": "contract IRuleEngine",
          "name": "",
          "type": "address"
        }
      ],
      "stateMutability": "view",
      "type": "function"
    },
    {
      "inputs": [
        {
          "internalType": "address",
          "name": "account",
          "type": "address"
        },
        {
          "internalType": "bool",
          "name": "freeze",
          "type": "bool"
        },
        {
          "internalType": "bytes",
          "name": "data",
          "type": "bytes"
        }
      ],
      "name": "setAddressFrozen",
      "outputs": [],
      "stateMutability": "nonpayable",
      "type": "function"
    },
    {
      "inputs": [
        {
          "internalType": "address",
          "name": "account",
          "type": "address"
        },
        {
          "internalType": "bool",
          "name": "freeze",
          "type": "bool"
        }
      ],
      "name": "setAddressFrozen",
      "outputs": [],
      "stateMutability": "nonpayable",
      "type": "function"
    },
    {
      "inputs": [
        {
          "internalType": "contract IERC1643",
          "name": "documentEngine_",
          "type": "address"
        }
      ],
      "name": "setDocumentEngine",
      "outputs": [],
      "stateMutability": "nonpayable",
      "type": "function"
    },
    {
      "inputs": [
        {
          "internalType": "string",
          "name": "information_",
          "type": "string"
        }
      ],
      "name": "setInformation",
      "outputs": [],
      "stateMutability": "nonpayable",
      "type": "function"
    },
    {
      "inputs": [
        {
          "internalType": "string",
          "name": "name_",
          "type": "string"
        }
      ],
      "name": "setName",
      "outputs": [],
      "stateMutability": "nonpayable",
      "type": "function"
    },
    {
      "inputs": [
        {
          "internalType": "contract IRuleEngine",
          "name": "ruleEngine_",
          "type": "address"
        }
      ],
      "name": "setRuleEngine",
      "outputs": [],
      "stateMutability": "nonpayable",
      "type": "function"
    },
    {
      "inputs": [
        {
          "internalType": "contract ISnapshotEngine",
          "name": "snapshotEngine_",
          "type": "address"
        }
      ],
      "name": "setSnapshotEngine",
      "outputs": [],
      "stateMutability": "nonpayable",
      "type": "function"
    },
    {
      "inputs": [
        {
          "internalType": "string",
          "name": "symbol_",
          "type": "string"
        }
      ],
      "name": "setSymbol",
      "outputs": [],
      "stateMutability": "nonpayable",
      "type": "function"
    },
    {
      "inputs": [
        {
          "components": [
            {
              "internalType": "string",
              "name": "name",
              "type": "string"
            },
            {
              "internalType": "string",
              "name": "uri",
              "type": "string"
            },
            {
              "internalType": "bytes32",
              "name": "documentHash",
              "type": "bytes32"
            }
          ],
          "internalType": "struct IERC1643CMTAT.DocumentInfo",
          "name": "terms_",
          "type": "tuple"
        }
      ],
      "name": "setTerms",
      "outputs": [],
      "stateMutability": "nonpayable",
      "type": "function"
    },
    {
      "inputs": [
        {
          "internalType": "string",
          "name": "tokenId_",
          "type": "string"
        }
      ],
      "name": "setTokenId",
      "outputs": [],
      "stateMutability": "nonpayable",
      "type": "function"
    },
    {
      "inputs": [],
      "name": "snapshotEngine",
      "outputs": [
        {
          "internalType": "contract ISnapshotEngine",
          "name": "",
          "type": "address"
        }
      ],
      "stateMutability": "view",
      "type": "function"
    },
    {
      "inputs": [
        {
          "internalType": "bytes4",
          "name": "_interfaceId",
          "type": "bytes4"
        }
      ],
      "name": "supportsInterface",
      "outputs": [
        {
          "internalType": "bool",
          "name": "",
          "type": "bool"
        }
      ],
      "stateMutability": "view",
      "type": "function"
    },
    {
      "inputs": [],
      "name": "symbol",
      "outputs": [
        {
          "internalType": "string",
          "name": "",
          "type": "string"
        }
      ],
      "stateMutability": "view",
      "type": "function"
    },
    {
      "inputs": [],
      "name": "terms",
      "outputs": [
        {
          "components": [
            {
              "internalType": "string",
              "name": "name",
              "type": "string"
            },
            {
              "components": [
                {
                  "internalType": "string",
                  "name": "uri",
                  "type": "string"
                },
                {
                  "internalType": "bytes32",
                  "name": "documentHash",
                  "type": "bytes32"
                },
                {
                  "internalType": "uint256",
                  "name": "lastModified",
                  "type": "uint256"
                }
              ],
              "internalType": "struct IERC1643.Document",
              "name": "doc",
              "type": "tuple"
            }
          ],
          "internalType": "struct ICMTATBase.Terms",
          "name": "terms_",
          "type": "tuple"
        }
      ],
      "stateMutability": "view",
      "type": "function"
    },
    {
      "inputs": [],
      "name": "tokenId",
      "outputs": [
        {
          "internalType": "string",
          "name": "tokenId_",
          "type": "string"
        }
      ],
      "stateMutability": "view",
      "type": "function"
    },
    {
      "inputs": [],
      "name": "totalSupply",
      "outputs": [
        {
          "internalType": "uint256",
          "name": "",
          "type": "uint256"
        }
      ],
      "stateMutability": "view",
      "type": "function"
    },
    {
      "inputs": [
        {
          "internalType": "address",
          "name": "to",
          "type": "address"
        },
        {
          "internalType": "uint256",
          "name": "value",
          "type": "uint256"
        }
      ],
      "name": "transfer",
      "outputs": [
        {
          "internalType": "bool",
          "name": "",
          "type": "bool"
        }
      ],
      "stateMutability": "nonpayable",
      "type": "function"
    },
    {
      "inputs": [
        {
          "internalType": "address",
          "name": "from",
          "type": "address"
        },
        {
          "internalType": "address",
          "name": "to",
          "type": "address"
        },
        {
          "internalType": "uint256",
          "name": "value",
          "type": "uint256"
        }
      ],
      "name": "transferFrom",
      "outputs": [
        {
          "internalType": "bool",
          "name": "",
          "type": "bool"
        }
      ],
      "stateMutability": "nonpayable",
      "type": "function"
    },
    {
      "inputs": [],
      "name": "trustedForwarder",
      "outputs": [
        {
          "internalType": "address",
          "name": "",
          "type": "address"
        }
      ],
      "stateMutability": "view",
      "type": "function"
    },
    {
      "inputs": [
        {
          "internalType": "address",
          "name": "account",
          "type": "address"
        },
        {
          "internalType": "uint256",
          "name": "value",
          "type": "uint256"
        }
      ],
      "name": "unfreezePartialTokens",
      "outputs": [],
      "stateMutability": "nonpayable",
      "type": "function"
    },
    {
      "inputs": [
        {
          "internalType": "address",
          "name": "account",
          "type": "address"
        },
        {
          "internalType": "uint256",
          "name": "value",
          "type": "uint256"
        },
        {
          "internalType": "bytes",
          "name": "data",
          "type": "bytes"
        }
      ],
      "name": "unfreezePartialTokens",
      "outputs": [],
      "stateMutability": "nonpayable",
      "type": "function"
    },
    {
      "inputs": [],
      "name": "unpause",
      "outputs": [],
      "stateMutability": "nonpayable",
      "type": "function"
    },
    {
      "inputs": [
        {
          "internalType": "address",
          "name": "newImplementation",
          "type": "address"
        },
        {
          "internalType": "bytes",
          "name": "data",
          "type": "bytes"
        }
      ],
      "name": "upgradeToAndCall",
      "outputs": [],
      "stateMutability": "payable",
      "type": "function"
    },
    {
      "inputs": [],
      "name": "version",
      "outputs": [
        {
          "internalType": "string",
          "name": "version_",
          "type": "string"
        }
      ],
      "stateMutability": "view",
      "type": "function"
    }
  ],
  "bytecode": "0x60c06040523060a052348015610013575f5ffd5b50604051615df1380380615df1833981016040819052610032916100ff565b6001600160a01b03811660805261004761004d565b5061012c565b7ff0c57e16840df040f15088dc2f81fe391c3923bec73e23a9662efc9c229c6a00805468010000000000000000900460ff161561009d5760405163f92ee8a960e01b815260040160405180910390fd5b80546001600160401b03908116146100fc5780546001600160401b0319166001600160401b0390811782556040519081527fc7f505b2f371ae2175ee4913f4499e1f2633a7b5936321eed1cdaeb6115181d29060200160405180910390a15b50565b5f6020828403121561010f575f5ffd5b81516001600160a01b0381168114610125575f5ffd5b9392505050565b60805160a051615c886101695f395f8181612fb501528181612fde015261313f01525f81816109b101528181610acb01526138880152615c885ff3fe6080604052600436106104a5575f3560e01c806379cc679011610262578063b84c82461161014a578063d7ffbbaa116100be578063e236aabf11610083578063e236aabf14610f14578063e46638e614610f33578063e583983614610f52578063e63ab1e914610f71578063f47b774014610fa4578063fcf196b414610fb8575f5ffd5b8063d7ffbbaa14610e78578063dcfd616f14610e97578063dd347bef14610eb6578063dd62ed3e14610ed5578063e1833a2f14610ef4575f5ffd5b8063cf790d8d1161010f578063cf790d8d14610dc6578063d32c7bb514610dda578063d4ce141514610df9578063d502562514610e18578063d539139314610e39578063d547741f14610e59575f5ffd5b8063b84c824614610d36578063bca353be14610d55578063c47f002714610d69578063c69c09cf14610d88578063ce34e6eb14610da7575f5ffd5b806395d89b41116101e1578063a4a0a301116101a6578063a4a0a30114610c57578063a76aa6fc14610c76578063a9059cbb14610ca9578063a99ac24514610cc8578063ad3cb1cc14610ce7578063b1f5569f14610d17575f5ffd5b806395d89b4114610bd15780639dc29fac14610be55780639fa5f50b14610c045780639fc1d0e714610c25578063a217fddf14610c44575f5ffd5b80638820d98e116102275780638820d98e14610b2257806388d695b214610b555780639082a6fb14610b7457806391d1485414610b9357806394d008ef14610bb2575f5ffd5b806379cc679014610a725780637ccb6a6414610a915780637da0a87714610abd5780637f4ab1dd14610aef5780638456cb5914610b0e575f5ffd5b8063313ce567116103905780634d5592ea11610304578063572b6c05116102c9578063572b6c05146109955780635c975abb146109e15780636439fd75146109f55780636857310714610a1557806370a0823114610a345780637157797f14610a53575f5ffd5b80634d5592ea1461090e5780634f1ef2861461092d57806352d1902d1461094057806354fd4d5014610954578063556ed30e14610981575f5ffd5b80633f4ba83a116103555780633f4ba83a1461085f57806340c10f191461087357806342966c681461089257806344d17187146108b1578063492c6610146108d05780634a6cc677146108ef575f5ffd5b8063313ce567146107bc578063334c0a6d146107e2578063336110791461080157806336568abe146108205780633c626e0c1461083f575f5ffd5b806318bf507711610427578063248a9ca3116103ec578063248a9ca3146106d9578063282c51f3146106f85780632a8437cc146107185780632b8c49e31461074b5780632c721b981461076a5780632f2ff15d1461079d575f5ffd5b806318bf50771461062a5780631a7af379146106495780631fe56f7d1461066857806323b872dd14610687578063246b72ec146106a6575f5ffd5b8063158b1a571161046d578063158b1a571461056b5780631758a8e91461059857806317d70f7c146105c457806318160ddd146105d857806318796d441461060b575f5ffd5b806301ffc9a7146104a957806306fdde03146104dd578063095ea7b3146104fe5780630c3cc61a1461051d578063125c4a331461054a575b5f5ffd5b3480156104b4575f5ffd5b506104c86104c336600461488d565b610fcc565b60405190151581526020015b60405180910390f35b3480156104e8575f5ffd5b506104f1610ff6565b6040516104d491906148e2565b348015610509575f5ffd5b506104c8610518366004614908565b611005565b348015610528575f5ffd5b5061053c610537366004614979565b611026565b6040516104d49291906149b7565b348015610555575f5ffd5b50610569610564366004614908565b6110f2565b005b348015610576575f5ffd5b5061058a610585366004614a03565b611127565b6040519081526020016104d4565b3480156105a3575f5ffd5b506105ac611131565b6040516001600160a01b0390911681526020016104d4565b3480156105cf575f5ffd5b506104f1611152565b3480156105e3575f5ffd5b507f52c63247e1f47db19d5ce0460030c497f067ca4cebf71ba98eeadabe20bace025461058a565b348015610616575f5ffd5b50610569610625366004614a5b565b6111f3565b348015610635575f5ffd5b50610569610644366004614908565b611213565b348015610654575f5ffd5b50610569610663366004614ad1565b611286565b348015610673575f5ffd5b50610569610682366004614908565b6112bf565b348015610692575f5ffd5b506104c86106a1366004614b3b565b6112ef565b3480156106b1575f5ffd5b5061058a7f809a0fc49fc0600540f1d39e23454e1f6f215bc7505fa22b17c154616570ddef81565b3480156106e4575f5ffd5b5061058a6106f3366004614b79565b611318565b348015610703575f5ffd5b5061058a5f516020615ad15f395f51905f5281565b348015610723575f5ffd5b5061058a7f5bfe08abba057c54e6a28bce27ce8c53eb21d7a94376a70d475b5dee60b6c4e281565b348015610756575f5ffd5b50610569610765366004614908565b611338565b348015610775575f5ffd5b5061058a7fdd7c9aafbb91d54fb2041db1d5b172ea665309b32f5fffdbddf452802a1e3b2081565b3480156107a8575f5ffd5b506105696107b7366004614b90565b6113b3565b3480156107c7575f5ffd5b506107d06113d5565b60405160ff90911681526020016104d4565b3480156107ed575f5ffd5b506105696107fc366004614bbe565b6113de565b34801561080c575f5ffd5b5061056961081b366004614a03565b611435565b34801561082b575f5ffd5b5061056961083a366004614b90565b6114a4565b34801561084a575f5ffd5b5061058a5f516020615b715f395f51905f5281565b34801561086a575f5ffd5b506105696114e7565b34801561087e575f5ffd5b5061056961088d366004614908565b61155d565b34801561089d575f5ffd5b506105696108ac366004614b79565b61158d565b3480156108bc575f5ffd5b506105696108cb366004614bbe565b611617565b3480156108db575f5ffd5b506105696108ea366004614e62565b61166e565b3480156108fa575f5ffd5b50610569610909366004614ad1565b611773565b348015610919575f5ffd5b506104c8610928366004614f59565b6117eb565b61056961093b366004614fc6565b611844565b34801561094b575f5ffd5b5061058a61185f565b34801561095f575f5ffd5b506040805180820190915260058152640332e302e360dc1b60208201526104f1565b34801561098c575f5ffd5b506104c861187a565b3480156109a0575f5ffd5b506104c86109af366004614a03565b7f00000000000000000000000000000000000000000000000000000000000000006001600160a01b0390811691161490565b3480156109ec575f5ffd5b506104c86118a8565b348015610a00575f5ffd5b5061058a5f516020615bd15f395f51905f5281565b348015610a20575f5ffd5b50610569610a2f366004614ad1565b6118b1565b348015610a3f575f5ffd5b5061058a610a4e366004614a03565b61191a565b348015610a5e575f5ffd5b506104c8610a6d366004615012565b61195d565b348015610a7d575f5ffd5b50610569610a8c366004614908565b611975565b348015610a9c575f5ffd5b50610ab0610aab366004615060565b6119bd565b6040516104d491906150c5565b348015610ac8575f5ffd5b507f00000000000000000000000000000000000000000000000000000000000000006105ac565b348015610afa575f5ffd5b506104f1610b093660046150d7565b611a9c565b348015610b19575f5ffd5b50610569611ad2565b348015610b2d575f5ffd5b5061058a7f233d5d22cfc2df30a1764cac21e2207537a3711647f2c29fe3702201f65c144481565b348015610b60575f5ffd5b506104c8610b6f366004614ad1565b611b07565b348015610b7f575f5ffd5b5061058a610b8e366004614a03565b611b35565b348015610b9e575f5ffd5b506104c8610bad366004614b90565b611b3f565b348015610bbd575f5ffd5b50610569610bcc366004614bbe565b611b4a565b348015610bdc575f5ffd5b506104f1611ba1565b348015610bf0575f5ffd5b50610569610bff366004614908565b611bab565b348015610c0f575f5ffd5b50610c18611bdb565b6040516104d491906150f2565b348015610c30575f5ffd5b506104c8610c3f366004614b3b565b611c71565b348015610c4f575f5ffd5b5061058a5f81565b348015610c62575f5ffd5b50610569610c71366004614a03565b611ca1565b348015610c81575f5ffd5b5061058a7f620d362b92b6ef580d4e86c5675d679fe08d31dff47b72f281959a4eecdd036a81565b348015610cb4575f5ffd5b506104c8610cc3366004614908565b611ced565b348015610cd3575f5ffd5b50610569610ce2366004615162565b611d10565b348015610cf2575f5ffd5b506104f1604051806040016040528060058152602001640352e302e360dc1b81525081565b348015610d22575f5ffd5b50610569610d313660046151aa565b611d67565b348015610d41575f5ffd5b50610569610d50366004615240565b611de2565b348015610d60575f5ffd5b50610569611e7e565b348015610d74575f5ffd5b50610569610d83366004615240565b611f05565b348015610d93575f5ffd5b50610569610da2366004615272565b611f93565b348015610db2575f5ffd5b50610569610dc136600461529e565b611fc3565b348015610dd1575f5ffd5b506105ac611feb565b348015610de5575f5ffd5b506107d0610df4366004615012565b612013565b348015610e04575f5ffd5b506107d0610e13366004614b3b565b6120e7565b348015610e23575f5ffd5b50610e2c6121a0565b6040516104d491906152d4565b348015610e44575f5ffd5b5061058a5f516020615b915f395f51905f5281565b348015610e64575f5ffd5b50610569610e73366004614b90565b612330565b348015610e83575f5ffd5b50610569610e92366004615240565b61234c565b348015610ea2575f5ffd5b50610569610eb1366004615240565b6123b3565b348015610ec1575f5ffd5b50610569610ed0366004614bbe565b61241a565b348015610ee0575f5ffd5b5061058a610eef36600461530c565b612471565b348015610eff575f5ffd5b5061058a5f516020615bf15f395f51905f5281565b348015610f1f575f5ffd5b50610569610f2e366004614a03565b6124ba565b348015610f3e575f5ffd5b506104c8610f4d366004614b3b565b61253c565b348015610f5d575f5ffd5b506104c8610f6c366004614a03565b612548565b348015610f7c575f5ffd5b5061058a7f65d7a28e3265b37a6474929f336521b332c1681b933f6cb9f3376673440d862a81565b348015610faf575f5ffd5b506104f1612587565b348015610fc3575f5ffd5b506105ac6125c5565b5f6001600160e01b03198216630cccc66560e21b1480610ff05750610ff0826125ed565b92915050565b6060611000612621565b905090565b5f5f61100f61265f565b905061101c818585612668565b5060019392505050565b60605f826001600160401b0381111561104157611041614c09565b60405190808252806020026020018201604052801561106a578160200160208202803683370190505b5091505f5b838110156110c6576110a185858381811061108c5761108c615338565b9050602002016020810190610a4e9190614a03565b8382815181106110b3576110b3615338565b602090810291909101015260010161106f565b507f52c63247e1f47db19d5ce0460030c497f067ca4cebf71ba98eeadabe20bace025490509250929050565b5f516020615b715f395f51905f5261110981612675565b611122838360405180602001604052805f815250612686565b505050565b5f610ff082612733565b5f805f516020615c335f395f51905f525b546001600160a01b031692915050565b5f516020615af15f395f51905f5280546060919081906111719061534c565b80601f016020809104026020016040519081016040528092919081815260200182805461119d9061534c565b80156111e85780601f106111bf576101008083540402835291602001916111e8565b820191905f5260205f20905b8154815290600101906020018083116111cb57829003601f168201915b505050505091505090565b6111ff86858484611617565b61120b85848484611b4a565b505050505050565b61121b612748565b61122433612770565b61122c61265f565b6001600160a01b0316826001600160a01b03167fde22baff038e3a3e08407cbdf617deed74e869a7ba517df611e33131c6e6ea048360405161127091815260200190565b60405180910390a3611282828261279a565b5050565b5f516020615bd15f395f51905f5261129d81612675565b6112b88585858560405180602001604052805f8152506127b0565b5050505050565b5f516020615b715f395f51905f526112d681612675565b611122838360405180602001604052805f815250612850565b5f6113036112fb61265f565b858585612908565b61130e84848461294f565b90505b9392505050565b5f9081525f516020615bb15f395f51905f52602052604090206001015490565b611340612748565b61134933612770565b5f61135261265f565b905061135c61265f565b6001600160a01b0316836001600160a01b03167fb90795a66650155983e242cac3e1ac1a4dc26f8ed2987f3ce416a34e00111fd4846040516113a091815260200190565b60405180910390a36111228184846129c0565b6113bc82611318565b6113c581612675565b6113cf8383612a79565b50505050565b5f611000612b22565b5f516020615b715f395f51905f526113f581612675565b6112b8858585858080601f0160208091040260200160405190810160405280939291908181526020018383808284375f9201919091525061285092505050565b7fdd7c9aafbb91d54fb2041db1d5b172ea665309b32f5fffdbddf452802a1e3b2061145f81612675565b5f516020615c335f395f51905f5280546001600160a01b0384811691160361149a576040516399e8777160e01b815260040160405180910390fd5b6111228184612b37565b6114ac61265f565b6001600160a01b0316816001600160a01b0316146114dd5760405163334bd91960e11b815260040160405180910390fd5b6111228282612b7e565b7f65d7a28e3265b37a6474929f336521b332c1681b933f6cb9f3376673440d862a61151181612675565b7fab1527b6135145d8da1edcbd6b7b270624e17f2b41c74a8c746ff388ad454700805460ff161561155557604051631b19da4d60e11b815260040160405180910390fd5b611282612c15565b5f516020615b915f395f51905f5261157481612675565b611122838360405180602001604052805f815250612c8d565b7f5bfe08abba057c54e6a28bce27ce8c53eb21d7a94376a70d475b5dee60b6c4e26115b781612675565b6115bf612748565b5f6115c861265f565b6040518481529091506001600160a01b03821690819081907f543d84a473f60119968e980557a2b597b79e98849b4f68fb540e9900408a10439060200160405180910390a46111228184612cf0565b5f516020615ad15f395f51905f5261162e81612675565b6112b8858585858080601f0160208091040260200160405190810160405280939291908181526020018383808284375f92019190915250612d0692505050565b5f611677612d5c565b805490915060ff600160401b82041615906001600160401b03165f8115801561169d5750825b90505f826001600160401b031660011480156116b85750303b155b9050811580156116c6575080155b156116e45760405163f92ee8a960e01b815260040160405180910390fd5b845467ffffffffffffffff19166001178555831561170e57845460ff60401b1916600160401b1785555b61171a89898989612d84565b611722612e30565b831561176857845460ff60401b19168555604051600181527fc7f505b2f371ae2175ee4913f4499e1f2633a7b5936321eed1cdaeb6115181d29060200160405180910390a15b505050505050505050565b5f516020615ad15f395f51905f5261178a81612675565b61179685858585612e38565b61179e61265f565b6001600160a01b03167f72daf4490e83933de80c122aa40ad26e3d1312ac3efbf2edcee640aa8556ddc6868686866040516117dc94939291906153f6565b60405180910390a25050505050565b5f806117f681612675565b61183787878787878080601f0160208091040260200160405190810160405280939291908181526020018383808284375f92019190915250612ed392505050565b5060019695505050505050565b61184c612faa565b6118558261304e565b6112828282613078565b5f611868613134565b505f516020615b515f395f51905f5290565b5f807fab1527b6135145d8da1edcbd6b7b270624e17f2b41c74a8c746ff388ad4547005b5460ff1692915050565b5f61100061317d565b5f516020615b915f395f51905f526118c881612675565b6118d4858585856131a5565b6118dc61265f565b6001600160a01b03167fbc3f1481a323af3866d85a300235055c5b81e0ab3563d50b17226f63072161f0868686866040516117dc9493929190615438565b5f807f52c63247e1f47db19d5ce0460030c497f067ca4cebf71ba98eeadabe20bace005b6001600160a01b039093165f9081526020939093525050604090205490565b5f61196a8585858561323d565b90505b949350505050565b7f5bfe08abba057c54e6a28bce27ce8c53eb21d7a94376a70d475b5dee60b6c4e261199f81612675565b6119a7612748565b5f6119b061265f565b90506113cf8185856129c0565b6119df6040518060600160405280606081526020015f81526020015f81525090565b5f516020615c335f395f51905f5280546001600160a01b031615611a6d578054604051631f32da9960e21b81526001600160a01b0390911690637ccb6a6490611a2c9086906004016148e2565b5f60405180830381865afa158015611a46573d5f5f3e3d5ffd5b505050506040513d5f823e601f3d908101601f1916820160405261131191908101906154b6565b5050604080516080810182525f6060820181815282526020820181905291810191909152919050565b50919050565b606060051960ff831601611ac957604051806060016040528060228152602001615c116022913992915050565b610ff082613266565b7f65d7a28e3265b37a6474929f336521b332c1681b933f6cb9f3376673440d862a611afc81612675565b611b0461346b565b50565b5f5f516020615b915f395f51905f52611b1f81612675565b611b2b868686866134c8565b9695505050505050565b5f610ff08261356d565b5f61131183836135a6565b5f516020615b915f395f51905f52611b6181612675565b6112b8858585858080601f0160208091040260200160405190810160405280939291908181526020018383808284375f92019190915250612c8d92505050565b60606110006135b1565b5f516020615ad15f395f51905f52611bc281612675565b611122838360405180602001604052805f815250612d06565b5f516020615c335f395f51905f528054606091906001600160a01b031615611c6d57805460408051639fa5f50b60e01b815290516001600160a01b0390921691639fa5f50b916004808201925f929091908290030181865afa158015611c43573d5f5f3e3d5ffd5b505050506040513d5f823e601f3d908101601f19168201604052611c6a9190810190615536565b91505b5090565b5f80611c7c81612675565b611c9685858560405180602001604052805f815250612ed3565b506001949350505050565b5f611cab81612675565b611cb36125c5565b6001600160a01b0316826001600160a01b031603611ce457604051630725a47560e31b815260040160405180910390fd5b611282826135ef565b5f5f611cf761265f565b9050611d055f828686612908565b61101c818585613657565b5f516020615bd15f395f51905f52611d2781612675565b6112b8858585858080601f0160208091040260200160405190810160405280939291908181526020018383808284375f920191909152506136b492505050565b5f516020615ad15f395f51905f52611d7e81612675565b611d8a86868686612e38565b611d9261265f565b6001600160a01b03167f72daf4490e83933de80c122aa40ad26e3d1312ac3efbf2edcee640aa8556ddc68787878787604051611dd29594939291906155f4565b60405180910390a2505050505050565b5f611dec81612675565b5f516020615b315f395f51905f527f9bd8d607565c0370ae5f91651ca67fd26d4438022bf72037316600e29e6a3a02611e2684868361567e565b508383604051611e37929190615737565b60405180910390207f4a48eefa86906ea82ddc91803a5f00818355982247dc29c521714f6dc207aacd8585604051611e70929190615746565b60405180910390a250505050565b5f611e8881612675565b611e906136e1565b7fab1527b6135145d8da1edcbd6b7b270624e17f2b41c74a8c746ff388ad454700805460ff191660011781557f749cb6b4c510bc468cf6b9c2086d6f0a54d6b18e25d37bf3200e68eab0880c00611ee561265f565b6040516001600160a01b0390911681526020015b60405180910390a15050565b5f611f0f81612675565b5f516020615b315f395f51905f527f9bd8d607565c0370ae5f91651ca67fd26d4438022bf72037316600e29e6a3a01611f4984868361567e565b508383604051611f5a929190615737565b60405180910390207fe4e4a54c5c394e44fde10a0ae1277d8bd8621848cc8dfd73eddd39bcf9f2d9b28585604051611e70929190615746565b5f516020615bd15f395f51905f52611faa81612675565b611122838360405180602001604052805f8152506136b4565b5f516020615bf15f395f51905f52611fda81612675565b611282611fe683615774565b613706565b5f807f1387b97dfab601d3023cb57858a6be29329babb05c85597ddbe4926c1193a900611142565b5f5f61201d6125c5565b905061202886612548565b156120385760055b91505061196d565b5f61204486868661371e565b905060ff81161561205857915061196d9050565b6001600160a01b038216156120e15760405163d32c7bb560e01b81526001600160a01b0383169063d32c7bb590612099908a908a908a908a9060040161577f565b602060405180830381865afa1580156120b4573d5f5f3e3d5ffd5b505050506040513d601f19601f820116820180604052508101906120d891906157a9565b9250505061196d565b5f6120d8565b5f5f6120f16125c5565b90505f6120ff86868661371e565b905060ff8116156121135791506113119050565b6001600160a01b0382161561219a5760405163d4ce141560e01b81526001600160a01b0383169063d4ce141590612152908990899089906004016157c4565b602060405180830381865afa15801561216d573d5f5f3e3d5ffd5b505050506040513d601f19601f8201168201806040525081019061219191906157a9565b92505050611311565b5f612191565b6121a8614854565b604080518082019091527fd2d5d34c4a4dea00599692d3257c0aebc5e0359176118cd2364ab9b008c2d10180545f516020615af15f395f51905f52929190829082906121f39061534c565b80601f016020809104026020016040519081016040528092919081815260200182805461221f9061534c565b801561226a5780601f106122415761010080835404028352916020019161226a565b820191905f5260205f20905b81548152906001019060200180831161224d57829003601f168201915b50505050508152602001600182016040518060600160405290815f820180546122929061534c565b80601f01602080910402602001604051908101604052809291908181526020018280546122be9061534c565b80156123095780601f106122e057610100808354040283529160200191612309565b820191905f5260205f20905b8154815290600101906020018083116122ec57829003601f168201915b50505050508152602001600182015481526020016002820154815250508152505091505090565b61233982611318565b61234281612675565b6113cf8383612b7e565b5f516020615bf15f395f51905f5261236381612675565b5f5f516020615af15f395f51905f5290506113cf8185858080601f0160208091040260200160405190810160405280939291908181526020018383808284375f9201919091525061376d92505050565b5f516020615bf15f395f51905f526123ca81612675565b5f5f516020615af15f395f51905f5290506113cf8185858080601f0160208091040260200160405190810160405280939291908181526020018383808284375f920191909152506137ab92505050565b5f516020615b715f395f51905f5261243181612675565b6112b8858585858080601f0160208091040260200160405190810160405280939291908181526020018383808284375f9201919091525061268692505050565b6001600160a01b039182165f9081527f52c63247e1f47db19d5ce0460030c497f067ca4cebf71ba98eeadabe20bace016020908152604080832093909416825291909152205490565b7f809a0fc49fc0600540f1d39e23454e1f6f215bc7505fa22b17c154616570ddef6124e481612675565b7f1387b97dfab601d3023cb57858a6be29329babb05c85597ddbe4926c1193a90080546001600160a01b03848116911603612532576040516311ecd5d560e21b815260040160405180910390fd5b6111228184613808565b5f61130e84848461384f565b6001600160a01b0381165f9081527f0c7bc8a17be064111d299d7669f49519cb26c58611b72d9f6ccc40a1e1184e00602052604081205460ff16610ff0565b7fd2d5d34c4a4dea00599692d3257c0aebc5e0359176118cd2364ab9b008c2d10580546060915f516020615af15f395f51905f52916111719061534c565b5f807f77c8cc897d160e7bf5b10921804e357da17ae27460d4a6b5d9b27ffddf159d00611142565b5f6001600160e01b03198216637965db0b60e01b1480610ff057506301ffc9a760e01b6001600160e01b0319831614610ff0565b7f9bd8d607565c0370ae5f91651ca67fd26d4438022bf72037316600e29e6a3a0180546060915f516020615b315f395f51905f52916111719061534c565b5f611000613877565b61112283838360016138e1565b611b048161268161265f565b6139d7565b5f516020615b115f395f51905f525f61269e8561191a565b6001600160a01b0386165f90815260208490526040812054919250906126c59086906157fc565b9050808210156126e8576040516349d7d08d60e11b815260040160405180910390fd5b6001600160a01b0386165f8181526020859052604090819020839055517eee657b17bb8f27ffd14d58b7a6f3f8d780dc721da687b065b4ce100c332e2590611dd2908890889061580f565b5f805f516020615b115f395f51905f5261193e565b6127506118a8565b1561276e5760405163d93c066560e01b815260040160405180910390fd5b565b611b047f620d362b92b6ef580d4e86c5675d679fe08d31dff47b72f281959a4eecdd036a826139d7565b6127a65f5f8484612908565b6112828282613a10565b6127bc85858585613a1a565b7f0c7bc8a17be064111d299d7669f49519cb26c58611b72d9f6ccc40a1e1184e005f5b858110156128475761283f828888848181106127fd576127fd615338565b90506020020160208101906128129190614a03565b87878581811061282457612824615338565b90506020020160208101906128399190615827565b86613a58565b6001016127df565b50505050505050565b6001600160a01b0383165f9081525f516020615b115f395f51905f526020819052604090912054831115612897576040516309f1994960e41b815260040160405180910390fd5b6001600160a01b0384165f908152602082905260409020546128ba908490615842565b6001600160a01b0385165f81815260208490526040908190209290925590517f57e0f3d4013a11f83fec76f5798b11b0ac9894fe75a459c7c18b95b248fa022590611e70908690869061580f565b61291484848484613ad6565b61292084848484613ae0565b8383839091926128475760405163013a574760e41b8152600401612946939291906157c4565b60405180910390fd5b5f5f61295c858585613bee565b9050801561130e5761296c61265f565b6001600160a01b0316856001600160a01b03167f7c2b9369bf4a6bd9745889c658ad00a4d57e280c4c80fa1c74db2a9e52c13635856040516129b091815260200190565b60405180910390a3949350505050565b6129cb828483613c10565b826001600160a01b0316826001600160a01b03167f7c2b9369bf4a6bd9745889c658ad00a4d57e280c4c80fa1c74db2a9e52c1363583604051612a1091815260200190565b60405180910390a3826001600160a01b0316826001600160a01b0316846001600160a01b03167f543d84a473f60119968e980557a2b597b79e98849b4f68fb540e9900408a104384604051612a6791815260200190565b60405180910390a46111228282612cf0565b5f5f516020615bb15f395f51905f52612a928484611b3f565b612b12575f848152602082815260408083206001600160a01b03871684529091529020805460ff19166001179055612ac861265f565b6001600160a01b0316836001600160a01b0316857f2f8788117e7eff1d82e926ec794901d17c78024a50270940304540a733656f0d60405160405180910390a46001915050610ff0565b5f915050610ff0565b5092915050565b5f805f516020615b315f395f51905f5261189e565b81546001600160a01b0319166001600160a01b03821690811783556040517f24456fffb8d75313fe808b19e17ae308e592a8159329a02fb396773d5aacbd10905f90a25050565b5f5f516020615bb15f395f51905f52612b978484611b3f565b15612b12575f848152602082815260408083206001600160a01b03871684529091529020805460ff19169055612bcb61265f565b6001600160a01b0316836001600160a01b0316857ff6391f5c32d9c69d2a47ea670b442974b53935d1edc7fd64eb21e047a839171b60405160405180910390a46001915050610ff0565b612c1d6136e1565b7fcd5ed15c6e187e77e9aee88184c21f4f2182ab5827cb3b7e07fbedcd63f03300805460ff191681557f5db9ee0a495bf2e6ff9c91a7834c1ba4fdd244a5e8aa4e537bd38aeae4b073aa612c6f61265f565b6040516001600160a01b03909116815260200160405180910390a150565b612c97838361279a565b826001600160a01b0316612ca961265f565b6001600160a01b03167f30c99b8e9449992bd7616d2645b02ee0a2b6f229a45d6b56b686963ff0c534978484604051612ce392919061580f565b60405180910390a3505050565b612cfc5f835f84612908565b6112828282613c6e565b612d108383612cf0565b826001600160a01b0316612d2261265f565b6001600160a01b03167f21e3428dd0c1de86ad5cb0d4df91049f26e9711489b51d1e9b5d5a53ebae1f638484604051612ce392919061580f565b5f807ff0c57e16840df040f15088dc2f81fe391c3923bec73e23a9662efc9c229c6a00610ff0565b5f612d8d612d5c565b805490915060ff600160401b82041615906001600160401b03165f81158015612db35750825b90505f826001600160401b03166001148015612dce5750303b155b905081158015612ddc575080155b15612dfa5760405163f92ee8a960e01b815260040160405180910390fd5b845467ffffffffffffffff191660011785558315612e2457845460ff60401b1916600160401b1785555b61172289898989613c78565b61276e613cad565b5f839003612e59576040516311eaa8e760e21b815260040160405180910390fd5b828114612e7957604051637a9d6e6d60e01b815260040160405180910390fd5b5f5b838110156112b857612ecb858583818110612e9857612e98615338565b9050602002016020810190612ead9190614a03565b848484818110612ebf57612ebf615338565b90506020020135612cf0565b600101612e7b565b612ede848383613cd2565b6001600160a01b038316612efb57612ef68483613df8565b612f50565b5f612f068585612471565b90505f81118015612f1757505f1981105b15612f435782811015612f3557612f3085855f5f6138e1565b612f43565b612f4385858584035f6138e1565b612f4e858585613657565b505b836001600160a01b0316612f6261265f565b6001600160a01b03167f9aaf0e2b2a23aa776f679b9fe17552a7fa59d6cb1057b37156024a8c587a947f8484604051612f9c92919061580f565b60405180910390a350505050565b306001600160a01b037f000000000000000000000000000000000000000000000000000000000000000016148061303057507f00000000000000000000000000000000000000000000000000000000000000006001600160a01b03166130245f516020615b515f395f51905f52546001600160a01b031690565b6001600160a01b031614155b1561276e5760405163703e46dd60e11b815260040160405180910390fd5b7f233d5d22cfc2df30a1764cac21e2207537a3711647f2c29fe3702201f65c144461128281612675565b816001600160a01b03166352d1902d6040518163ffffffff1660e01b8152600401602060405180830381865afa9250505080156130d2575060408051601f3d908101601f191682019092526130cf91810190615855565b60015b6130fa57604051634c9c8ce360e01b81526001600160a01b0383166004820152602401612946565b5f516020615b515f395f51905f52811461312a57604051632a87526960e21b815260048101829052602401612946565b6111228383613e2c565b306001600160a01b037f0000000000000000000000000000000000000000000000000000000000000000161461276e5760405163703e46dd60e11b815260040160405180910390fd5b5f807fcd5ed15c6e187e77e9aee88184c21f4f2182ab5827cb3b7e07fbedcd63f0330061189e565b826131c357604051630c7e659960e01b815260040160405180910390fd5b8281146131e3576040516307a4e50160e21b815260040160405180910390fd5b5f5b838110156112b85761323585858381811061320257613202615338565b90506020020160208101906132179190614a03565b84848481811061322957613229615338565b9050602002013561279a565b6001016131e5565b5f6132488483613e81565b61325357505f61196d565b61325f85858585613ebd565b905061196d565b60605f6132716125c5565b905060ff83166132a657505060408051808201909152600d81526c2737a932b9ba3934b1ba34b7b760991b6020820152919050565b60011960ff8416016132dd57505060408051808201909152600d81526c456e666f72636564506175736560981b6020820152919050565b5f1960ff84160161331957505060408051808201909152601381527210dbdb9d1c9858dd11195858dd1a5d985d1959606a1b6020820152919050565b60021960ff84160161335357505060408051808201909152601081526f20b23239233937b6a4b9a33937bd32b760811b6020820152919050565b60031960ff84160161338b57505060408051808201909152600e81526d20b232392a37a4b9a33937bd32b760911b6020820152919050565b60041960ff8416016133c857505060408051808201909152601381527220b2323929b832b73232b924b9a33937bd32b760691b6020820152919050565b6001600160a01b0381161561344257604051637f4ab1dd60e01b815260ff841660048201526001600160a01b03821690637f4ab1dd906024015f60405180830381865afa15801561341b573d5f5f3e3d5ffd5b505050506040513d5f823e601f3d908101601f19168201604052611311919081019061586c565b505060408051808201909152600b81526a556e6b6e6f776e436f646560a81b6020820152919050565b613473612748565b7fcd5ed15c6e187e77e9aee88184c21f4f2182ab5827cb3b7e07fbedcd63f03300805460ff191660011781557f62e78cea01bee320cd4e420270b5ea74000d11b0c9f74754ebdbfc544b05a258612c6f61265f565b5f836134e757604051634723eac960e01b815260040160405180910390fd5b5f6134f061265f565b905084831461351257604051637e81047760e11b815260040160405180910390fd5b5f5b85811015611837576135658288888481811061353257613532615338565b90506020020160208101906135479190614a03565b87878581811061355957613559615338565b90506020020135613eca565b600101613514565b6001600160a01b0381165f9081525f516020615b115f395f51905f526020819052604082205461359c8461191a565b6113119190615842565b5f6113118383613ee1565b7f9bd8d607565c0370ae5f91651ca67fd26d4438022bf72037316600e29e6a3a0280546060915f516020615b315f395f51905f52916111719061534c565b7f77c8cc897d160e7bf5b10921804e357da17ae27460d4a6b5d9b27ffddf159d0080546001600160a01b0319166001600160a01b03831690811782556040517f37213fe93a5aae50df0ef53f98b81c048e51b3ab2969309a103a647e44b61918905f90a25050565b6001600160a01b03831661368057604051634b637e8f60e11b81525f6004820152602401612946565b6001600160a01b0382166136a95760405163ec442f0560e01b81525f6004820152602401612946565b611122838383613eec565b7f0c7bc8a17be064111d299d7669f49519cb26c58611b72d9f6ccc40a1e1184e006113cf81858585613a58565b6136e96118a8565b61276e57604051638dfc202b60e01b815260040160405180910390fd5b5f516020615af15f395f51905f526112828183613fc6565b5f5f61372985611127565b90508015613759575f8161373c8761191a565b6137469190615842565b905080841115613757576006612191565b505b613764858585614030565b95945050505050565b6005820161377b828261589d565b507fff8fea957fb7cb582ef297c1c74436fe7a9914efbc52adf197600dc9d171efbc81604051611ef991906148e2565b816137b6828261589d565b50806040516137c5919061596e565b60405180910390207f6403c68076c59949275ad9be2137a73c51043d7d6af6a38473047a0bc45df492826040516137fc91906148e2565b60405180910390a25050565b81546001600160a01b0319166001600160a01b03821690811783556040517f3dc265c6e8a49e40f12f64811a094f799e44b4d033c7478793093908cbbb5bca905f90a25050565b5f61385a8483613e81565b61386557505f611311565b613870848484614089565b9050611311565b5f3660148082108015906138b357507f00000000000000000000000000000000000000000000000000000000000000006001600160a01b031633145b156138d9576138c636828403815f615979565b6138cf916159a0565b60601c9250505090565b339250505090565b7f52c63247e1f47db19d5ce0460030c497f067ca4cebf71ba98eeadabe20bace006001600160a01b03851661392b5760405163e602df0560e01b81525f6004820152602401612946565b6001600160a01b03841661395457604051634a1406b160e11b81525f6004820152602401612946565b6001600160a01b038086165f908152600183016020908152604080832093881683529290522083905581156112b857836001600160a01b0316856001600160a01b03167f8c5be1e5ebec7d5bd14f71427d1e84f3dd0314c0f7b2291e5b200ac8c7c3b925856040516139c891815260200190565b60405180910390a35050505050565b6139e18282611b3f565b6112825760405163e2517d3f60e01b81526001600160a01b038216600482015260248101839052604401612946565b6112828282614095565b82613a3857604051630e35356160e11b815260040160405180910390fd5b8281146113cf5760405163142e444b60e01b815260040160405180910390fd5b6001600160a01b0383165f908152602085905260409020805460ff1916831515179055613a8361265f565b6001600160a01b0316821515846001600160a01b03167f5c115173b119951ab162218e6a2495eb7b93888dda22421e2be9c4ee5d71088284604051613ac891906148e2565b60405180910390a450505050565b6113cf83826140c9565b5f613aec8585856140f0565b613af757505f61196d565b5f613b006125c5565b90506001600160a01b03811615613be2576001600160a01b03861615613b8457604051631f2d7a6560e11b81526001600160a01b03821690633e5af4ca90613b5290899089908990899060040161577f565b5f604051808303815f87803b158015613b69575f5ffd5b505af1158015613b7b573d5f5f3e3d5ffd5b50505050613be2565b6040516322ebca6d60e21b81526001600160a01b03821690638baf29b490613bb4908890889088906004016157c4565b5f604051808303815f87803b158015613bcb575f5ffd5b505af1158015613bdd573d5f5f3e3d5ffd5b505050505b50506001949350505050565b5f5f613bf861265f565b9050613c05858285613c10565b611c96858585613657565b5f613c1b8484612471565b90505f198110156113cf5781811015613c6057604051637dc7a0d960e11b81526001600160a01b03841660048201526024810182905260448101839052606401612946565b6113cf84848484035f6138e1565b6112828282613df8565b613c80613cad565b613c88612e30565b613c90612e30565b613c98614168565b613ca181614180565b6113cf84848484614193565b613cb56141b0565b61276e57604051631afcd79f60e31b815260040160405180910390fd5b5f613cdc8461191a565b905080831115613d2b57613cee61265f565b81613cf98186615842565b60405163391434e360e21b81526001600160a01b03909316600484015260248301919091526044820152606401612946565b6001600160a01b0384165f9081525f516020615b115f395f51905f5260208190526040822054909190613d5e9084615842565b90508085111561120b575f613d738287615842565b6001600160a01b0388165f90815260208590526040902054909150613d99908290615842565b6001600160a01b0388165f81815260208690526040908190209290925590517f57e0f3d4013a11f83fec76f5798b11b0ac9894fe75a459c7c18b95b248fa022590613de7908490899061580f565b60405180910390a250505050505050565b6001600160a01b038216613e2157604051634b637e8f60e11b81525f6004820152602401612946565b611282825f83613eec565b613e35826141c9565b6040516001600160a01b038316907fbc7cd75a20ee27fd9adebab32041f755214dbc6bffa90cc0225b39da2e5c2d3b905f90a2805115613e7957611122828261422c565b611282614295565b5f5f613e8c84612733565b9050801561101c575f81613e9f8661191a565b613ea99190615842565b905080841115611c96575f92505050610ff0565b5f61196a858585856142b4565b613ed65f848484612908565b6111228383836142d8565b5f61131183836142e3565b5f613ef5611feb565b90506001600160a01b03811615613fbb57806001600160a01b031663df271a888585613f208861191a565b613f298861191a565b7f52c63247e1f47db19d5ce0460030c497f067ca4cebf71ba98eeadabe20bace02546040516001600160e01b031960e088901b1681526001600160a01b03958616600482015294909316602485015260448401919091526064830152608482015260a4015f604051808303815f87803b158015613fa4575f5ffd5b505af1158015613fb6573d5f5f3e3d5ffd5b505050505b6113cf84848461430c565b80516001830190613fd7908261589d565b506040810151600383015560208101516002830190613ff6908261589d565b504260048301556040517f581e063ae59068f13a21b5707b10eee615c714e8939e873cf5b90b8254d9979c90611ef9906001850190615a5f565b5f61403961187a565b15614045576001613870565b61404d6118a8565b15614059576002613870565b61406284612548565b1561406e576003613870565b61407783612548565b15614083576004613870565b5f613870565b5f61130e84848461444a565b6001600160a01b0382166140be5760405163ec442f0560e01b81525f6004820152602401612946565b6112825f8383613eec565b6140d38282613e81565b611282576040516301c9bcfb60e31b815260040160405180910390fd5b5f6001600160a01b038316614108576138708261446c565b6001600160a01b03821661411f576138708361446c565b61412884612548565b80614137575061413783612548565b80614146575061414682612548565b8061415457506141546118a8565b1561416057505f611311565b506001611311565b614170613cad565b614178612e30565b61276e612e30565b614188613cad565b8051611b0490614498565b61419b613cad565b6113cf848484846020015185604001516144b8565b5f6141b9612d5c565b54600160401b900460ff16919050565b806001600160a01b03163b5f036141fe57604051634c9c8ce360e01b81526001600160a01b0382166004820152602401612946565b5f516020615b515f395f51905f5280546001600160a01b0319166001600160a01b0392909216919091179055565b60605f5f846001600160a01b031684604051614248919061596e565b5f60405180830381855af49150503d805f8114614280576040519150601f19603f3d011682016040523d82523d5f602084013e614285565b606091505b5091509150613764858383614507565b341561276e5760405163b398979f60e01b815260040160405180910390fd5b5f6142c185858585614563565b6142cc57505f61196d565b61325f85858585614570565b611122838383613657565b5f6142ee8183614606565b156142fb57506001610ff0565b6143058383614606565b9050610ff0565b7f52c63247e1f47db19d5ce0460030c497f067ca4cebf71ba98eeadabe20bace006001600160a01b0384166143595781816002015f82825461434e91906157fc565b909155506143c99050565b6001600160a01b0384165f90815260208290526040902054828110156143ab5760405163391434e360e21b81526001600160a01b03861660048201526024810182905260448101849052606401612946565b6001600160a01b0385165f9081526020839052604090209083900390555b6001600160a01b0383166143e7576002810180548390039055614405565b6001600160a01b0383165f9081526020829052604090208054830190555b826001600160a01b0316846001600160a01b03167fddf252ad1be2c89b69c2b068fc378daa952ba7f163c4a11628f55a4df523b3ef84604051612f9c91815260200190565b5f61445684848461463c565b61446157505f611311565b613870848484614649565b5f61447561187a565b80614484575061448482612548565b1561449057505f919050565b506001919050565b6144a0613cad565b6001600160a01b03811615611b0457611b04816135ef565b6144c0613cad565b6144c9856146e5565b6144df8460400151855f0151866020015161471e565b6144f5835f01518460200151856040015161477b565b6144fe826147af565b6112b8816147f1565b60608261451c5761451782614820565b611311565b815115801561453357506001600160a01b0384163b155b1561455c57604051639996b31560e01b81526001600160a01b0385166004820152602401612946565b5080611311565b5f61196a85858585614848565b5f5f61457a6125c5565b90506001600160a01b038116156145fc57604051637157797f60e01b81526001600160a01b03821690637157797f906145bd90899089908990899060040161577f565b602060405180830381865afa1580156145d8573d5f5f3e3d5ffd5b505050506040513d601f19601f820116820180604052508101906120309190615ab5565b600191505061196d565b5f9182525f516020615bb15f395f51905f52602090815260408084206001600160a01b0393909316845291905290205460ff1690565b5f61130e5f858585614848565b5f5f6146536125c5565b90506001600160a01b038116156146db576040516372331c7360e11b81526001600160a01b0382169063e46638e690614694908890889088906004016157c4565b602060405180830381865afa1580156146af573d5f5f3e3d5ffd5b505050506040513d601f19601f820116820180604052508101906146d39190615ab5565b915050611311565b6001915050611311565b6146ed613cad565b6001600160a01b0381166147145760405163011d80f760e01b815260040160405180910390fd5b6112825f82612a79565b614726613cad565b5f516020615b315f395f51905f52805460ff191660ff85161781557f9bd8d607565c0370ae5f91651ca67fd26d4438022bf72037316600e29e6a3a0261476c838261589d565b50600181016112b8848261589d565b614783613cad565b5f516020615af15f395f51905f5261479b81856137ab565b6147a58184613fc6565b6113cf818361376d565b6147b7613cad565b6001600160a01b03811615611b04577f1387b97dfab601d3023cb57858a6be29329babb05c85597ddbe4926c1193a9006112828183613808565b6147f9613cad565b6001600160a01b03811615611b04575f516020615c335f395f51905f526112828183612b37565b80511561482f57805160208201fd5b60405163d6bda27560e01b815260040160405180910390fd5b5f61196a8585856140f0565b6040518060400160405280606081526020016148886040518060600160405280606081526020015f81526020015f81525090565b905290565b5f6020828403121561489d575f5ffd5b81356001600160e01b031981168114611311575f5ffd5b5f81518084528060208401602086015e5f602082860101526020601f19601f83011685010191505092915050565b602081525f61131160208301846148b4565b6001600160a01b0381168114611b04575f5ffd5b5f5f60408385031215614919575f5ffd5b8235614924816148f4565b946020939093013593505050565b5f5f83601f840112614942575f5ffd5b5081356001600160401b03811115614958575f5ffd5b6020830191508360208260051b8501011115614972575f5ffd5b9250929050565b5f5f6020838503121561498a575f5ffd5b82356001600160401b0381111561499f575f5ffd5b6149ab85828601614932565b90969095509350505050565b604080825283519082018190525f9060208501906060840190835b818110156149f05783518352602093840193909201916001016149d2565b5050602093909301939093525092915050565b5f60208284031215614a13575f5ffd5b8135611311816148f4565b5f5f83601f840112614a2e575f5ffd5b5081356001600160401b03811115614a44575f5ffd5b602083019150836020828501011115614972575f5ffd5b5f5f5f5f5f5f60a08789031215614a70575f5ffd5b8635614a7b816148f4565b95506020870135614a8b816148f4565b9450604087013593506060870135925060808701356001600160401b03811115614ab3575f5ffd5b614abf89828a01614a1e565b979a9699509497509295939492505050565b5f5f5f5f60408587031215614ae4575f5ffd5b84356001600160401b03811115614af9575f5ffd5b614b0587828801614932565b90955093505060208501356001600160401b03811115614b23575f5ffd5b614b2f87828801614932565b95989497509550505050565b5f5f5f60608486031215614b4d575f5ffd5b8335614b58816148f4565b92506020840135614b68816148f4565b929592945050506040919091013590565b5f60208284031215614b89575f5ffd5b5035919050565b5f5f60408385031215614ba1575f5ffd5b823591506020830135614bb3816148f4565b809150509250929050565b5f5f5f5f60608587031215614bd1575f5ffd5b8435614bdc816148f4565b93506020850135925060408501356001600160401b03811115614bfd575f5ffd5b614b2f87828801614a1e565b634e487b7160e01b5f52604160045260245ffd5b604051606081016001600160401b0381118282101715614c3f57614c3f614c09565b60405290565b604051601f8201601f191681016001600160401b0381118282101715614c6d57614c6d614c09565b604052919050565b5f6001600160401b03821115614c8d57614c8d614c09565b50601f01601f191660200190565b5f82601f830112614caa575f5ffd5b8135602083015f614cc2614cbd84614c75565b614c45565b9050828152858383011115614cd5575f5ffd5b828260208301375f92810160200192909252509392505050565b60ff81168114611b04575f5ffd5b5f60608284031215614d0d575f5ffd5b614d15614c1d565b905081356001600160401b03811115614d2c575f5ffd5b614d3884828501614c9b565b82525060208201356001600160401b03811115614d53575f5ffd5b614d5f84828501614c9b565b60208301525060409182013591810191909152919050565b5f60608284031215614d87575f5ffd5b614d8f614c1d565b905081356001600160401b03811115614da6575f5ffd5b614db284828501614c9b565b82525060208201356001600160401b03811115614dcd575f5ffd5b614dd984828501614cfd565b60208301525060408201356001600160401b03811115614df7575f5ffd5b614e0384828501614c9b565b60408301525092915050565b5f60608284031215614e1f575f5ffd5b614e27614c1d565b90508135614e34816148f4565b81526020820135614e44816148f4565b60208201526040820135614e57816148f4565b604082015292915050565b5f5f5f5f60c08587031215614e75575f5ffd5b8435614e80816148f4565b935060208501356001600160401b03811115614e9a575f5ffd5b850160608188031215614eab575f5ffd5b614eb3614c1d565b81356001600160401b03811115614ec8575f5ffd5b614ed489828501614c9b565b82525060208201356001600160401b03811115614eef575f5ffd5b614efb89828501614c9b565b60208301525060408201359150614f1182614cef565b60408181019290925293508501356001600160401b03811115614f32575f5ffd5b614f3e87828801614d77565b925050614f4e8660608701614e0f565b905092959194509250565b5f5f5f5f5f60808688031215614f6d575f5ffd5b8535614f78816148f4565b94506020860135614f88816148f4565b93506040860135925060608601356001600160401b03811115614fa9575f5ffd5b614fb588828901614a1e565b969995985093965092949392505050565b5f5f60408385031215614fd7575f5ffd5b8235614fe2816148f4565b915060208301356001600160401b03811115614ffc575f5ffd5b61500885828601614c9b565b9150509250929050565b5f5f5f5f60808587031215615025575f5ffd5b8435615030816148f4565b93506020850135615040816148f4565b92506040850135615050816148f4565b9396929550929360600135925050565b5f60208284031215615070575f5ffd5b81356001600160401b03811115615085575f5ffd5b61196d84828501614c9b565b5f8151606084526150a560608501826148b4565b905060208301516020850152604083015160408501528091505092915050565b602081525f6113116020830184615091565b5f602082840312156150e7575f5ffd5b813561131181614cef565b5f602082016020835280845180835260408501915060408160051b8601019250602086015f5b8281101561514957603f198786030184526151348583516148b4565b94506020938401939190910190600101615118565b50929695505050505050565b8015158114611b04575f5ffd5b5f5f5f5f60608587031215615175575f5ffd5b8435615180816148f4565b9350602085013561519081615155565b925060408501356001600160401b03811115614bfd575f5ffd5b5f5f5f5f5f606086880312156151be575f5ffd5b85356001600160401b038111156151d3575f5ffd5b6151df88828901614932565b90965094505060208601356001600160401b038111156151fd575f5ffd5b61520988828901614932565b90945092505060408601356001600160401b03811115615227575f5ffd5b61523388828901614c9b565b9150509295509295909350565b5f5f60208385031215615251575f5ffd5b82356001600160401b03811115615266575f5ffd5b6149ab85828601614a1e565b5f5f60408385031215615283575f5ffd5b823561528e816148f4565b91506020830135614bb381615155565b5f602082840312156152ae575f5ffd5b81356001600160401b038111156152c3575f5ffd5b820160608185031215611311575f5ffd5b602081525f8251604060208401526152ef60608401826148b4565b90506020840151601f198483030160408501526137648282615091565b5f5f6040838503121561531d575f5ffd5b8235615328816148f4565b91506020830135614bb3816148f4565b634e487b7160e01b5f52603260045260245ffd5b600181811c9082168061536057607f821691505b602082108103611a9657634e487b7160e01b5f52602260045260245ffd5b8183526020830192505f815f5b848110156153bc57813561539e816148f4565b6001600160a01b03168652602095860195919091019060010161538b565b5093949350505050565b8183525f6001600160fb1b038311156153dd575f5ffd5b8260051b80836020870137939093016020019392505050565b606081525f61540960608301868861537e565b828103602084015261541c8185876153c6565b83810360409094019390935250505f8152602001949350505050565b604081525f61544b60408301868861537e565b828103602084015261545e8185876153c6565b979650505050505050565b5f82601f830112615478575f5ffd5b8151615486614cbd82614c75565b81815284602083860101111561549a575f5ffd5b8160208501602083015e5f918101602001919091529392505050565b5f602082840312156154c6575f5ffd5b81516001600160401b038111156154db575f5ffd5b8201606081850312156154ec575f5ffd5b6154f4614c1d565b81516001600160401b03811115615509575f5ffd5b61551586828501615469565b82525060208281015190820152604091820151918101919091529392505050565b5f60208284031215615546575f5ffd5b81516001600160401b0381111561555b575f5ffd5b8201601f8101841361556b575f5ffd5b80516001600160401b0381111561558457615584614c09565b8060051b61559460208201614c45565b918252602081840181019290810190878411156155af575f5ffd5b6020850192505b8383101561545e5782516001600160401b038111156155d3575f5ffd5b6155e289602083890101615469565b835250602092830192909101906155b6565b606081525f61560760608301878961537e565b828103602084015261561a8186886153c6565b9050828103604084015261562e81856148b4565b98975050505050505050565b601f82111561112257805f5260205f20601f840160051c8101602085101561565f5750805b601f840160051c820191505b818110156112b8575f815560010161566b565b6001600160401b0383111561569557615695614c09565b6156a9836156a3835461534c565b8361563a565b5f601f8411600181146156da575f85156156c35750838201355b5f19600387901b1c1916600186901b1783556112b8565b5f83815260208120601f198716915b8281101561570957868501358255602094850194600190920191016156e9565b5086821015615725575f1960f88860031b161c19848701351681555b505060018560011b0183555050505050565b818382375f9101908152919050565b60208152816020820152818360408301375f818301604090810191909152601f909201601f19160101919050565b5f610ff03683614cfd565b6001600160a01b039485168152928416602084015292166040820152606081019190915260800190565b5f602082840312156157b9575f5ffd5b815161131181614cef565b6001600160a01b039384168152919092166020820152604081019190915260600190565b634e487b7160e01b5f52601160045260245ffd5b80820180821115610ff057610ff06157e8565b828152604060208201525f61130e60408301846148b4565b5f60208284031215615837575f5ffd5b813561131181615155565b81810381811115610ff057610ff06157e8565b5f60208284031215615865575f5ffd5b5051919050565b5f6020828403121561587c575f5ffd5b81516001600160401b03811115615891575f5ffd5b61196d84828501615469565b81516001600160401b038111156158b6576158b6614c09565b6158ca816158c4845461534c565b8461563a565b6020601f8211600181146158fc575f83156158e55750848201515b5f19600385901b1c1916600184901b1784556112b8565b5f84815260208120601f198516915b8281101561592b578785015182556020948501946001909201910161590b565b508482101561594857868401515f19600387901b60f8161c191681555b50505050600190811b01905550565b5f81518060208401855e5f93019283525090919050565b5f6113118284615957565b5f5f85851115615987575f5ffd5b83861115615993575f5ffd5b5050820193919092039150565b80356bffffffffffffffffffffffff198116906014841015612b1b576bffffffffffffffffffffffff1960149490940360031b84901b1690921692915050565b5f81546159ec8161534c565b808552600182168015615a065760018114615a2257615a56565b60ff1983166020870152602082151560051b8701019350615a56565b845f5260205f205f5b83811015615a4d5781546020828a010152600182019150602081019050615a2b565b87016020019450505b50505092915050565b60208152604060208201525f615a7860608301846159e0565b601f1983820301604084015260608152615a9860608201600186016159e0565b600285015460208301526003909401546040909101525090919050565b5f60208284031215615ac5575f5ffd5b81516113118161515556fe3c11d16cbaffd01df69ce1c404f6340ee057498f5f00246190ea54220576a848d2d5d34c4a4dea00599692d3257c0aebc5e0359176118cd2364ab9b008c2d1009d8059a24cb596f1948a937c2c163cf14465c2a24abfd3cd009eec4ac4c398009bd8d607565c0370ae5f91651ca67fd26d4438022bf72037316600e29e6a3a00360894a13ba1a3210667c828492db98dca3e2076cc3735a920a3ca505d382bbcd62f75bf68b069bc8e2abd495a949fafec67a4e5a5b7cb36aedf0dd51eec7e729f2df0fed2c77648de5860a4cc508cd0818c85b8b8a1ab4ceeef8d981c8956a602dd7bc7dec4dceedda775e58dd541e08a116c6c53815c0bd028192f7b626800973ef39d76cc2c6090feab1c030bec6ab5db557f64df047a4c4f9b5953cf1df3921df7a58eb4ea112afa962b8186161404ecda2e8fe97f8246026d02ad1a74b74164647246726f6d3a696e73756666696369656e7441637469766542616c616e6365bd0905600c85d707dc53eba2e146c1c2527cd32ac3ff6b86846155151b3e2700a26469706673582212209ee81fb6496d47faea6fb760945530ecdba2145d608fcb82de19b2312eadee6a64736f6c634300081e0033",
  "linkReferences": {},
  "deployedLinkReferences": {}
}