{
  "_format": "hh-sol-artifact-1",
  "contractName": "CMTATStandaloneERC1363",
  "sourceName": "contracts/deployment/ERC1363/CMTATStandaloneERC1363.sol",
  "abi": [
    {
      "inputs": [
        {
          "internalType": "address",
          "name": "forwarderIrrevocable",
          "type": "address"
        },
        {
          "internalType": "address",
          "name": "admin",
          "type": "address"
        },
        {
          "components": [
            {
              "internalType": "string",
              "name": "name",
              "type": "string"
            },
            {
              "internalType": "string",
              "name": "symbol",
              "type": "string"
            },
            {
              "internalType": "uint8",
              "name": "decimalsIrrevocable",
              "type": "uint8"
            }
          ],
          "internalType": "struct ICMTATConstructor.ERC20Attributes",
          "name": "ERC20Attributes_",
          "type": "tuple"
        },
        {
          "components": [
            {
              "internalType": "string",
              "name": "tokenId",
              "type": "string"
            },
            {
              "components": [
                {
                  "internalType": "string",
                  "name": "name",
                  "type": "string"
                },
                {
                  "internalType": "string",
                  "name": "uri",
                  "type": "string"
                },
                {
                  "internalType": "bytes32",
                  "name": "documentHash",
                  "type": "bytes32"
                }
              ],
              "internalType": "struct IERC1643CMTAT.DocumentInfo",
              "name": "terms",
              "type": "tuple"
            },
            {
              "internalType": "string",
              "name": "information",
              "type": "string"
            }
          ],
          "internalType": "struct ICMTATConstructor.ExtraInformationAttributes",
          "name": "extraInformationAttributes_",
          "type": "tuple"
        },
        {
          "components": [
            {
              "internalType": "contract IRuleEngine",
              "name": "ruleEngine",
              "type": "address"
            },
            {
              "internalType": "contract ISnapshotEngine",
              "name": "snapshotEngine",
              "type": "address"
            },
            {
              "internalType": "contract IERC1643",
              "name": "documentEngine",
              "type": "address"
            }
          ],
          "internalType": "struct ICMTATConstructor.Engine",
          "name": "engines_",
          "type": "tuple"
        }
      ],
      "stateMutability": "nonpayable",
      "type": "constructor"
    },
    {
      "inputs": [],
      "name": "AccessControlBadConfirmation",
      "type": "error"
    },
    {
      "inputs": [
        {
          "internalType": "address",
          "name": "account",
          "type": "address"
        },
        {
          "internalType": "bytes32",
          "name": "neededRole",
          "type": "bytes32"
        }
      ],
      "name": "AccessControlUnauthorizedAccount",
      "type": "error"
    },
    {
      "inputs": [],
      "name": "CMTAT_AccessControlModule_AddressZeroNotAllowed",
      "type": "error"
    },
    {
      "inputs": [],
      "name": "CMTAT_BurnModule_AccountsValueslengthMismatch",
      "type": "error"
    },
    {
      "inputs": [],
      "name": "CMTAT_BurnModule_EmptyAccounts",
      "type": "error"
    },
    {
      "inputs": [],
      "name": "CMTAT_CCIPModule_SameValue",
      "type": "error"
    },
    {
      "inputs": [],
      "name": "CMTAT_DocumentEngineModule_SameValue",
      "type": "error"
    },
    {
      "inputs": [],
      "name": "CMTAT_ERC20EnforcementModule_ValueExceedsActiveBalance",
      "type": "error"
    },
    {
      "inputs": [],
      "name": "CMTAT_ERC20EnforcementModule_ValueExceedsAvailableBalance",
      "type": "error"
    },
    {
      "inputs": [],
      "name": "CMTAT_ERC20EnforcementModule_ValueExceedsFrozenBalance",
      "type": "error"
    },
    {
      "inputs": [],
      "name": "CMTAT_Enforcement_AccountsValueslengthMismatch",
      "type": "error"
    },
    {
      "inputs": [],
      "name": "CMTAT_Enforcement_EmptyAccounts",
      "type": "error"
    },
    {
      "inputs": [
        {
          "internalType": "address",
          "name": "from",
          "type": "address"
        },
        {
          "internalType": "address",
          "name": "to",
          "type": "address"
        },
        {
          "internalType": "uint256",
          "name": "amount",
          "type": "uint256"
        }
      ],
      "name": "CMTAT_InvalidTransfer",
      "type": "error"
    },
    {
      "inputs": [],
      "name": "CMTAT_MintModule_AccountsValueslengthMismatch",
      "type": "error"
    },
    {
      "inputs": [],
      "name": "CMTAT_MintModule_EmptyAccounts",
      "type": "error"
    },
    {
      "inputs": [],
      "name": "CMTAT_MintModule_EmptyTos",
      "type": "error"
    },
    {
      "inputs": [],
      "name": "CMTAT_MintModule_TosValueslengthMismatch",
      "type": "error"
    },
    {
      "inputs": [],
      "name": "CMTAT_PauseModule_ContractIsDeactivated",
      "type": "error"
    },
    {
      "inputs": [],
      "name": "CMTAT_SnapshotModule_SameValue",
      "type": "error"
    },
    {
      "inputs": [],
      "name": "CMTAT_ValidationModule_SameValue",
      "type": "error"
    },
    {
      "inputs": [
        {
          "internalType": "address",
          "name": "spender",
          "type": "address"
        },
        {
          "internalType": "uint256",
          "name": "value",
          "type": "uint256"
        }
      ],
      "name": "ERC1363ApproveFailed",
      "type": "error"
    },
    {
      "inputs": [
        {
          "internalType": "address",
          "name": "receiver",
          "type": "address"
        }
      ],
      "name": "ERC1363InvalidReceiver",
      "type": "error"
    },
    {
      "inputs": [
        {
          "internalType": "address",
          "name": "spender",
          "type": "address"
        }
      ],
      "name": "ERC1363InvalidSpender",
      "type": "error"
    },
    {
      "inputs": [
        {
          "internalType": "address",
          "name": "receiver",
          "type": "address"
        },
        {
          "internalType": "uint256",
          "name": "value",
          "type": "uint256"
        }
      ],
      "name": "ERC1363TransferFailed",
      "type": "error"
    },
    {
      "inputs": [
        {
          "internalType": "address",
          "name": "sender",
          "type": "address"
        },
        {
          "internalType": "address",
          "name": "receiver",
          "type": "address"
        },
        {
          "internalType": "uint256",
          "name": "value",
          "type": "uint256"
        }
      ],
      "name": "ERC1363TransferFromFailed",
      "type": "error"
    },
    {
      "inputs": [
        {
          "internalType": "address",
          "name": "spender",
          "type": "address"
        },
        {
          "internalType": "uint256",
          "name": "allowance",
          "type": "uint256"
        },
        {
          "internalType": "uint256",
          "name": "needed",
          "type": "uint256"
        }
      ],
      "name": "ERC20InsufficientAllowance",
      "type": "error"
    },
    {
      "inputs": [
        {
          "internalType": "address",
          "name": "sender",
          "type": "address"
        },
        {
          "internalType": "uint256",
          "name": "balance",
          "type": "uint256"
        },
        {
          "internalType": "uint256",
          "name": "needed",
          "type": "uint256"
        }
      ],
      "name": "ERC20InsufficientBalance",
      "type": "error"
    },
    {
      "inputs": [
        {
          "internalType": "address",
          "name": "approver",
          "type": "address"
        }
      ],
      "name": "ERC20InvalidApprover",
      "type": "error"
    },
    {
      "inputs": [
        {
          "internalType": "address",
          "name": "receiver",
          "type": "address"
        }
      ],
      "name": "ERC20InvalidReceiver",
      "type": "error"
    },
    {
      "inputs": [
        {
          "internalType": "address",
          "name": "sender",
          "type": "address"
        }
      ],
      "name": "ERC20InvalidSender",
      "type": "error"
    },
    {
      "inputs": [
        {
          "internalType": "address",
          "name": "spender",
          "type": "address"
        }
      ],
      "name": "ERC20InvalidSpender",
      "type": "error"
    },
    {
      "inputs": [],
      "name": "EnforcedPause",
      "type": "error"
    },
    {
      "inputs": [],
      "name": "ExpectedPause",
      "type": "error"
    },
    {
      "inputs": [],
      "name": "InvalidInitialization",
      "type": "error"
    },
    {
      "inputs": [],
      "name": "NotInitializing",
      "type": "error"
    },
    {
      "anonymous": false,
      "inputs": [
        {
          "indexed": true,
          "internalType": "address",
          "name": "account",
          "type": "address"
        },
        {
          "indexed": true,
          "internalType": "bool",
          "name": "isFrozen",
          "type": "bool"
        },
        {
          "indexed": true,
          "internalType": "address",
          "name": "enforcer",
          "type": "address"
        },
        {
          "indexed": false,
          "internalType": "bytes",
          "name": "data",
          "type": "bytes"
        }
      ],
      "name": "AddressFrozen",
      "type": "event"
    },
    {
      "anonymous": false,
      "inputs": [
        {
          "indexed": true,
          "internalType": "address",
          "name": "owner",
          "type": "address"
        },
        {
          "indexed": true,
          "internalType": "address",
          "name": "spender",
          "type": "address"
        },
        {
          "indexed": false,
          "internalType": "uint256",
          "name": "value",
          "type": "uint256"
        }
      ],
      "name": "Approval",
      "type": "event"
    },
    {
      "anonymous": false,
      "inputs": [
        {
          "indexed": true,
          "internalType": "address",
          "name": "burner",
          "type": "address"
        },
        {
          "indexed": false,
          "internalType": "address[]",
          "name": "accounts",
          "type": "address[]"
        },
        {
          "indexed": false,
          "internalType": "uint256[]",
          "name": "values",
          "type": "uint256[]"
        },
        {
          "indexed": false,
          "internalType": "bytes",
          "name": "data",
          "type": "bytes"
        }
      ],
      "name": "BatchBurn",
      "type": "event"
    },
    {
      "anonymous": false,
      "inputs": [
        {
          "indexed": true,
          "internalType": "address",
          "name": "minter",
          "type": "address"
        },
        {
          "indexed": false,
          "internalType": "address[]",
          "name": "accounts",
          "type": "address[]"
        },
        {
          "indexed": false,
          "internalType": "uint256[]",
          "name": "values",
          "type": "uint256[]"
        }
      ],
      "name": "BatchMint",
      "type": "event"
    },
    {
      "anonymous": false,
      "inputs": [
        {
          "indexed": true,
          "internalType": "address",
          "name": "burner",
          "type": "address"
        },
        {
          "indexed": true,
          "internalType": "address",
          "name": "account",
          "type": "address"
        },
        {
          "indexed": false,
          "internalType": "uint256",
          "name": "value",
          "type": "uint256"
        },
        {
          "indexed": false,
          "internalType": "bytes",
          "name": "data",
          "type": "bytes"
        }
      ],
      "name": "Burn",
      "type": "event"
    },
    {
      "anonymous": false,
      "inputs": [
        {
          "indexed": true,
          "internalType": "address",
          "name": "burner",
          "type": "address"
        },
        {
          "indexed": true,
          "internalType": "address",
          "name": "account",
          "type": "address"
        },
        {
          "indexed": true,
          "internalType": "address",
          "name": "spender",
          "type": "address"
        },
        {
          "indexed": false,
          "internalType": "uint256",
          "name": "value",
          "type": "uint256"
        }
      ],
      "name": "BurnFrom",
      "type": "event"
    },
    {
      "anonymous": false,
      "inputs": [
        {
          "indexed": true,
          "internalType": "address",
          "name": "previousAdmin",
          "type": "address"
        },
        {
          "indexed": true,
          "internalType": "address",
          "name": "newAdmin",
          "type": "address"
        }
      ],
      "name": "CCIPAdminTransferred",
      "type": "event"
    },
    {
      "anonymous": false,
      "inputs": [
        {
          "indexed": true,
          "internalType": "address",
          "name": "from",
          "type": "address"
        },
        {
          "indexed": false,
          "internalType": "uint256",
          "name": "value",
          "type": "uint256"
        },
        {
          "indexed": true,
          "internalType": "address",
          "name": "sender",
          "type": "address"
        }
      ],
      "name": "CrosschainBurn",
      "type": "event"
    },
    {
      "anonymous": false,
      "inputs": [
        {
          "indexed": true,
          "internalType": "address",
          "name": "to",
          "type": "address"
        },
        {
          "indexed": false,
          "internalType": "uint256",
          "name": "value",
          "type": "uint256"
        },
        {
          "indexed": true,
          "internalType": "address",
          "name": "sender",
          "type": "address"
        }
      ],
      "name": "CrosschainMint",
      "type": "event"
    },
    {
      "anonymous": false,
      "inputs": [
        {
          "indexed": false,
          "internalType": "address",
          "name": "account",
          "type": "address"
        }
      ],
      "name": "Deactivated",
      "type": "event"
    },
    {
      "anonymous": false,
      "inputs": [
        {
          "indexed": true,
          "internalType": "contract IERC1643",
          "name": "newDocumentEngine",
          "type": "address"
        }
      ],
      "name": "DocumentEngine",
      "type": "event"
    },
    {
      "anonymous": false,
      "inputs": [
        {
          "indexed": true,
          "internalType": "address",
          "name": "enforcer",
          "type": "address"
        },
        {
          "indexed": true,
          "internalType": "address",
          "name": "account",
          "type": "address"
        },
        {
          "indexed": false,
          "internalType": "uint256",
          "name": "amount",
          "type": "uint256"
        },
        {
          "indexed": false,
          "internalType": "bytes",
          "name": "data",
          "type": "bytes"
        }
      ],
      "name": "Enforcement",
      "type": "event"
    },
    {
      "anonymous": false,
      "inputs": [
        {
          "indexed": false,
          "internalType": "string",
          "name": "newInformation",
          "type": "string"
        }
      ],
      "name": "Information",
      "type": "event"
    },
    {
      "anonymous": false,
      "inputs": [
        {
          "indexed": false,
          "internalType": "uint64",
          "name": "version",
          "type": "uint64"
        }
      ],
      "name": "Initialized",
      "type": "event"
    },
    {
      "anonymous": false,
      "inputs": [
        {
          "indexed": true,
          "internalType": "address",
          "name": "minter",
          "type": "address"
        },
        {
          "indexed": true,
          "internalType": "address",
          "name": "account",
          "type": "address"
        },
        {
          "indexed": false,
          "internalType": "uint256",
          "name": "value",
          "type": "uint256"
        },
        {
          "indexed": false,
          "internalType": "bytes",
          "name": "data",
          "type": "bytes"
        }
      ],
      "name": "Mint",
      "type": "event"
    },
    {
      "anonymous": false,
      "inputs": [
        {
          "indexed": true,
          "internalType": "string",
          "name": "newNameIndexed",
          "type": "string"
        },
        {
          "indexed": false,
          "internalType": "string",
          "name": "newName",
          "type": "string"
        }
      ],
      "name": "Name",
      "type": "event"
    },
    {
      "anonymous": false,
      "inputs": [
        {
          "indexed": false,
          "internalType": "address",
          "name": "account",
          "type": "address"
        }
      ],
      "name": "Paused",
      "type": "event"
    },
    {
      "anonymous": false,
      "inputs": [
        {
          "indexed": true,
          "internalType": "bytes32",
          "name": "role",
          "type": "bytes32"
        },
        {
          "indexed": true,
          "internalType": "bytes32",
          "name": "previousAdminRole",
          "type": "bytes32"
        },
        {
          "indexed": true,
          "internalType": "bytes32",
          "name": "newAdminRole",
          "type": "bytes32"
        }
      ],
      "name": "RoleAdminChanged",
      "type": "event"
    },
    {
      "anonymous": false,
      "inputs": [
        {
          "indexed": true,
          "internalType": "bytes32",
          "name": "role",
          "type": "bytes32"
        },
        {
          "indexed": true,
          "internalType": "address",
          "name": "account",
          "type": "address"
        },
        {
          "indexed": true,
          "internalType": "address",
          "name": "sender",
          "type": "address"
        }
      ],
      "name": "RoleGranted",
      "type": "event"
    },
    {
      "anonymous": false,
      "inputs": [
        {
          "indexed": true,
          "internalType": "bytes32",
          "name": "role",
          "type": "bytes32"
        },
        {
          "indexed": true,
          "internalType": "address",
          "name": "account",
          "type": "address"
        },
        {
          "indexed": true,
          "internalType": "address",
          "name": "sender",
          "type": "address"
        }
      ],
      "name": "RoleRevoked",
      "type": "event"
    },
    {
      "anonymous": false,
      "inputs": [
        {
          "indexed": true,
          "internalType": "contract IRuleEngine",
          "name": "newRuleEngine",
          "type": "address"
        }
      ],
      "name": "RuleEngine",
      "type": "event"
    },
    {
      "anonymous": false,
      "inputs": [
        {
          "indexed": true,
          "internalType": "contract ISnapshotEngine",
          "name": "newSnapshotEngine",
          "type": "address"
        }
      ],
      "name": "SnapshotEngine",
      "type": "event"
    },
    {
      "anonymous": false,
      "inputs": [
        {
          "indexed": true,
          "internalType": "address",
          "name": "account",
          "type": "address"
        },
        {
          "indexed": true,
          "internalType": "address",
          "name": "spender",
          "type": "address"
        },
        {
          "indexed": false,
          "internalType": "uint256",
          "name": "value",
          "type": "uint256"
        }
      ],
      "name": "Spend",
      "type": "event"
    },
    {
      "anonymous": false,
      "inputs": [
        {
          "indexed": true,
          "internalType": "string",
          "name": "newSymbolIndexed",
          "type": "string"
        },
        {
          "indexed": false,
          "internalType": "string",
          "name": "newSymbol",
          "type": "string"
        }
      ],
      "name": "Symbol",
      "type": "event"
    },
    {
      "anonymous": false,
      "inputs": [
        {
          "components": [
            {
              "internalType": "string",
              "name": "name",
              "type": "string"
            },
            {
              "components": [
                {
                  "internalType": "string",
                  "name": "uri",
                  "type": "string"
                },
                {
                  "internalType": "bytes32",
                  "name": "documentHash",
                  "type": "bytes32"
                },
                {
                  "internalType": "uint256",
                  "name": "lastModified",
                  "type": "uint256"
                }
              ],
              "internalType": "struct IERC1643.Document",
              "name": "doc",
              "type": "tuple"
            }
          ],
          "indexed": false,
          "internalType": "struct ICMTATBase.CMTATTerms",
          "name": "newTerm",
          "type": "tuple"
        }
      ],
      "name": "Terms",
      "type": "event"
    },
    {
      "anonymous": false,
      "inputs": [
        {
          "indexed": true,
          "internalType": "string",
          "name": "newTokenIdIndexed",
          "type": "string"
        },
        {
          "indexed": false,
          "internalType": "string",
          "name": "newTokenId",
          "type": "string"
        }
      ],
      "name": "TokenId",
      "type": "event"
    },
    {
      "anonymous": false,
      "inputs": [
        {
          "indexed": true,
          "internalType": "address",
          "name": "account",
          "type": "address"
        },
        {
          "indexed": false,
          "internalType": "uint256",
          "name": "value",
          "type": "uint256"
        },
        {
          "indexed": false,
          "internalType": "bytes",
          "name": "data",
          "type": "bytes"
        }
      ],
      "name": "TokensFrozen",
      "type": "event"
    },
    {
      "anonymous": false,
      "inputs": [
        {
          "indexed": true,
          "internalType": "address",
          "name": "account",
          "type": "address"
        },
        {
          "indexed": false,
          "internalType": "uint256",
          "name": "value",
          "type": "uint256"
        },
        {
          "indexed": false,
          "internalType": "bytes",
          "name": "data",
          "type": "bytes"
        }
      ],
      "name": "TokensUnfrozen",
      "type": "event"
    },
    {
      "anonymous": false,
      "inputs": [
        {
          "indexed": true,
          "internalType": "address",
          "name": "from",
          "type": "address"
        },
        {
          "indexed": true,
          "internalType": "address",
          "name": "to",
          "type": "address"
        },
        {
          "indexed": false,
          "internalType": "uint256",
          "name": "value",
          "type": "uint256"
        }
      ],
      "name": "Transfer",
      "type": "event"
    },
    {
      "anonymous": false,
      "inputs": [
        {
          "indexed": false,
          "internalType": "address",
          "name": "account",
          "type": "address"
        }
      ],
      "name": "Unpaused",
      "type": "event"
    },
    {
      "inputs": [],
      "name": "BURNER_FROM_ROLE",
      "outputs": [
        {
          "internalType": "bytes32",
          "name": "",
          "type": "bytes32"
        }
      ],
      "stateMutability": "view",
      "type": "function"
    },
    {
      "inputs": [],
      "name": "BURNER_ROLE",
      "outputs": [
        {
          "internalType": "bytes32",
          "name": "",
          "type": "bytes32"
        }
      ],
      "stateMutability": "view",
      "type": "function"
    },
    {
      "inputs": [],
      "name": "BURNER_SELF_ROLE",
      "outputs": [
        {
          "internalType": "bytes32",
          "name": "",
          "type": "bytes32"
        }
      ],
      "stateMutability": "view",
      "type": "function"
    },
    {
      "inputs": [],
      "name": "CROSS_CHAIN_ROLE",
      "outputs": [
        {
          "internalType": "bytes32",
          "name": "",
          "type": "bytes32"
        }
      ],
      "stateMutability": "view",
      "type": "function"
    },
    {
      "inputs": [],
      "name": "DEFAULT_ADMIN_ROLE",
      "outputs": [
        {
          "internalType": "bytes32",
          "name": "",
          "type": "bytes32"
        }
      ],
      "stateMutability": "view",
      "type": "function"
    },
    {
      "inputs": [],
      "name": "DOCUMENT_ROLE",
      "outputs": [
        {
          "internalType": "bytes32",
          "name": "",
          "type": "bytes32"
        }
      ],
      "stateMutability": "view",
      "type": "function"
    },
    {
      "inputs": [],
      "name": "ENFORCER_ROLE",
      "outputs": [
        {
          "internalType": "bytes32",
          "name": "",
          "type": "bytes32"
        }
      ],
      "stateMutability": "view",
      "type": "function"
    },
    {
      "inputs": [],
      "name": "ERC20ENFORCER_ROLE",
      "outputs": [
        {
          "internalType": "bytes32",
          "name": "",
          "type": "bytes32"
        }
      ],
      "stateMutability": "view",
      "type": "function"
    },
    {
      "inputs": [],
      "name": "EXTRA_INFORMATION_ROLE",
      "outputs": [
        {
          "internalType": "bytes32",
          "name": "",
          "type": "bytes32"
        }
      ],
      "stateMutability": "view",
      "type": "function"
    },
    {
      "inputs": [],
      "name": "MINTER_ROLE",
      "outputs": [
        {
          "internalType": "bytes32",
          "name": "",
          "type": "bytes32"
        }
      ],
      "stateMutability": "view",
      "type": "function"
    },
    {
      "inputs": [],
      "name": "PAUSER_ROLE",
      "outputs": [
        {
          "internalType": "bytes32",
          "name": "",
          "type": "bytes32"
        }
      ],
      "stateMutability": "view",
      "type": "function"
    },
    {
      "inputs": [],
      "name": "SNAPSHOOTER_ROLE",
      "outputs": [
        {
          "internalType": "bytes32",
          "name": "",
          "type": "bytes32"
        }
      ],
      "stateMutability": "view",
      "type": "function"
    },
    {
      "inputs": [
        {
          "internalType": "address",
          "name": "owner",
          "type": "address"
        },
        {
          "internalType": "address",
          "name": "spender",
          "type": "address"
        }
      ],
      "name": "allowance",
      "outputs": [
        {
          "internalType": "uint256",
          "name": "",
          "type": "uint256"
        }
      ],
      "stateMutability": "view",
      "type": "function"
    },
    {
      "inputs": [
        {
          "internalType": "address",
          "name": "spender",
          "type": "address"
        },
        {
          "internalType": "uint256",
          "name": "value",
          "type": "uint256"
        }
      ],
      "name": "approve",
      "outputs": [
        {
          "internalType": "bool",
          "name": "",
          "type": "bool"
        }
      ],
      "stateMutability": "nonpayable",
      "type": "function"
    },
    {
      "inputs": [
        {
          "internalType": "address",
          "name": "spender",
          "type": "address"
        },
        {
          "internalType": "uint256",
          "name": "value",
          "type": "uint256"
        }
      ],
      "name": "approveAndCall",
      "outputs": [
        {
          "internalType": "bool",
          "name": "",
          "type": "bool"
        }
      ],
      "stateMutability": "nonpayable",
      "type": "function"
    },
    {
      "inputs": [
        {
          "internalType": "address",
          "name": "spender",
          "type": "address"
        },
        {
          "internalType": "uint256",
          "name": "value",
          "type": "uint256"
        },
        {
          "internalType": "bytes",
          "name": "data",
          "type": "bytes"
        }
      ],
      "name": "approveAndCall",
      "outputs": [
        {
          "internalType": "bool",
          "name": "",
          "type": "bool"
        }
      ],
      "stateMutability": "nonpayable",
      "type": "function"
    },
    {
      "inputs": [
        {
          "internalType": "address",
          "name": "account",
          "type": "address"
        }
      ],
      "name": "balanceOf",
      "outputs": [
        {
          "internalType": "uint256",
          "name": "",
          "type": "uint256"
        }
      ],
      "stateMutability": "view",
      "type": "function"
    },
    {
      "inputs": [
        {
          "internalType": "address[]",
          "name": "addresses",
          "type": "address[]"
        }
      ],
      "name": "batchBalanceOf",
      "outputs": [
        {
          "internalType": "uint256[]",
          "name": "balances",
          "type": "uint256[]"
        },
        {
          "internalType": "uint256",
          "name": "totalSupply_",
          "type": "uint256"
        }
      ],
      "stateMutability": "view",
      "type": "function"
    },
    {
      "inputs": [
        {
          "internalType": "address[]",
          "name": "accounts",
          "type": "address[]"
        },
        {
          "internalType": "uint256[]",
          "name": "values",
          "type": "uint256[]"
        }
      ],
      "name": "batchBurn",
      "outputs": [],
      "stateMutability": "nonpayable",
      "type": "function"
    },
    {
      "inputs": [
        {
          "internalType": "address[]",
          "name": "accounts",
          "type": "address[]"
        },
        {
          "internalType": "uint256[]",
          "name": "values",
          "type": "uint256[]"
        },
        {
          "internalType": "bytes",
          "name": "data",
          "type": "bytes"
        }
      ],
      "name": "batchBurn",
      "outputs": [],
      "stateMutability": "nonpayable",
      "type": "function"
    },
    {
      "inputs": [
        {
          "internalType": "address[]",
          "name": "accounts",
          "type": "address[]"
        },
        {
          "internalType": "uint256[]",
          "name": "values",
          "type": "uint256[]"
        }
      ],
      "name": "batchMint",
      "outputs": [],
      "stateMutability": "nonpayable",
      "type": "function"
    },
    {
      "inputs": [
        {
          "internalType": "address[]",
          "name": "accounts",
          "type": "address[]"
        },
        {
          "internalType": "bool[]",
          "name": "freezes",
          "type": "bool[]"
        }
      ],
      "name": "batchSetAddressFrozen",
      "outputs": [],
      "stateMutability": "nonpayable",
      "type": "function"
    },
    {
      "inputs": [
        {
          "internalType": "address[]",
          "name": "tos",
          "type": "address[]"
        },
        {
          "internalType": "uint256[]",
          "name": "values",
          "type": "uint256[]"
        }
      ],
      "name": "batchTransfer",
      "outputs": [
        {
          "internalType": "bool",
          "name": "success_",
          "type": "bool"
        }
      ],
      "stateMutability": "nonpayable",
      "type": "function"
    },
    {
      "inputs": [
        {
          "internalType": "uint256",
          "name": "value",
          "type": "uint256"
        }
      ],
      "name": "burn",
      "outputs": [],
      "stateMutability": "nonpayable",
      "type": "function"
    },
    {
      "inputs": [
        {
          "internalType": "address",
          "name": "account",
          "type": "address"
        },
        {
          "internalType": "uint256",
          "name": "value",
          "type": "uint256"
        },
        {
          "internalType": "bytes",
          "name": "data",
          "type": "bytes"
        }
      ],
      "name": "burn",
      "outputs": [],
      "stateMutability": "nonpayable",
      "type": "function"
    },
    {
      "inputs": [
        {
          "internalType": "address",
          "name": "account",
          "type": "address"
        },
        {
          "internalType": "uint256",
          "name": "value",
          "type": "uint256"
        }
      ],
      "name": "burn",
      "outputs": [],
      "stateMutability": "nonpayable",
      "type": "function"
    },
    {
      "inputs": [
        {
          "internalType": "address",
          "name": "from",
          "type": "address"
        },
        {
          "internalType": "address",
          "name": "to",
          "type": "address"
        },
        {
          "internalType": "uint256",
          "name": "amountToBurn",
          "type": "uint256"
        },
        {
          "internalType": "uint256",
          "name": "amountToMint",
          "type": "uint256"
        },
        {
          "internalType": "bytes",
          "name": "data",
          "type": "bytes"
        }
      ],
      "name": "burnAndMint",
      "outputs": [],
      "stateMutability": "nonpayable",
      "type": "function"
    },
    {
      "inputs": [
        {
          "internalType": "address",
          "name": "account",
          "type": "address"
        },
        {
          "internalType": "uint256",
          "name": "value",
          "type": "uint256"
        }
      ],
      "name": "burnFrom",
      "outputs": [],
      "stateMutability": "nonpayable",
      "type": "function"
    },
    {
      "inputs": [
        {
          "internalType": "address",
          "name": "from",
          "type": "address"
        },
        {
          "internalType": "address",
          "name": "to",
          "type": "address"
        },
        {
          "internalType": "uint256",
          "name": "value",
          "type": "uint256"
        }
      ],
      "name": "canTransfer",
      "outputs": [
        {
          "internalType": "bool",
          "name": "",
          "type": "bool"
        }
      ],
      "stateMutability": "view",
      "type": "function"
    },
    {
      "inputs": [
        {
          "internalType": "address",
          "name": "spender",
          "type": "address"
        },
        {
          "internalType": "address",
          "name": "from",
          "type": "address"
        },
        {
          "internalType": "address",
          "name": "to",
          "type": "address"
        },
        {
          "internalType": "uint256",
          "name": "value",
          "type": "uint256"
        }
      ],
      "name": "canTransferFrom",
      "outputs": [
        {
          "internalType": "bool",
          "name": "",
          "type": "bool"
        }
      ],
      "stateMutability": "view",
      "type": "function"
    },
    {
      "inputs": [
        {
          "internalType": "address",
          "name": "from",
          "type": "address"
        },
        {
          "internalType": "uint256",
          "name": "value",
          "type": "uint256"
        }
      ],
      "name": "crosschainBurn",
      "outputs": [],
      "stateMutability": "nonpayable",
      "type": "function"
    },
    {
      "inputs": [
        {
          "internalType": "address",
          "name": "to",
          "type": "address"
        },
        {
          "internalType": "uint256",
          "name": "value",
          "type": "uint256"
        }
      ],
      "name": "crosschainMint",
      "outputs": [],
      "stateMutability": "nonpayable",
      "type": "function"
    },
    {
      "inputs": [],
      "name": "deactivateContract",
      "outputs": [],
      "stateMutability": "nonpayable",
      "type": "function"
    },
    {
      "inputs": [],
      "name": "deactivated",
      "outputs": [
        {
          "internalType": "bool",
          "name": "",
          "type": "bool"
        }
      ],
      "stateMutability": "view",
      "type": "function"
    },
    {
      "inputs": [],
      "name": "decimals",
      "outputs": [
        {
          "internalType": "uint8",
          "name": "",
          "type": "uint8"
        }
      ],
      "stateMutability": "view",
      "type": "function"
    },
    {
      "inputs": [
        {
          "internalType": "address",
          "name": "from",
          "type": "address"
        },
        {
          "internalType": "address",
          "name": "to",
          "type": "address"
        },
        {
          "internalType": "uint256",
          "name": "value",
          "type": "uint256"
        }
      ],
      "name": "detectTransferRestriction",
      "outputs": [
        {
          "internalType": "uint8",
          "name": "code",
          "type": "uint8"
        }
      ],
      "stateMutability": "view",
      "type": "function"
    },
    {
      "inputs": [
        {
          "internalType": "address",
          "name": "spender",
          "type": "address"
        },
        {
          "internalType": "address",
          "name": "from",
          "type": "address"
        },
        {
          "internalType": "address",
          "name": "to",
          "type": "address"
        },
        {
          "internalType": "uint256",
          "name": "value",
          "type": "uint256"
        }
      ],
      "name": "detectTransferRestrictionFrom",
      "outputs": [
        {
          "internalType": "uint8",
          "name": "code",
          "type": "uint8"
        }
      ],
      "stateMutability": "view",
      "type": "function"
    },
    {
      "inputs": [],
      "name": "documentEngine",
      "outputs": [
        {
          "internalType": "contract IERC1643",
          "name": "documentEngine_",
          "type": "address"
        }
      ],
      "stateMutability": "view",
      "type": "function"
    },
    {
      "inputs": [
        {
          "internalType": "address",
          "name": "from",
          "type": "address"
        },
        {
          "internalType": "address",
          "name": "to",
          "type": "address"
        },
        {
          "internalType": "uint256",
          "name": "value",
          "type": "uint256"
        },
        {
          "internalType": "bytes",
          "name": "data",
          "type": "bytes"
        }
      ],
      "name": "forcedTransfer",
      "outputs": [
        {
          "internalType": "bool",
          "name": "",
          "type": "bool"
        }
      ],
      "stateMutability": "nonpayable",
      "type": "function"
    },
    {
      "inputs": [
        {
          "internalType": "address",
          "name": "from",
          "type": "address"
        },
        {
          "internalType": "address",
          "name": "to",
          "type": "address"
        },
        {
          "internalType": "uint256",
          "name": "value",
          "type": "uint256"
        }
      ],
      "name": "forcedTransfer",
      "outputs": [
        {
          "internalType": "bool",
          "name": "",
          "type": "bool"
        }
      ],
      "stateMutability": "nonpayable",
      "type": "function"
    },
    {
      "inputs": [
        {
          "internalType": "address",
          "name": "account",
          "type": "address"
        },
        {
          "internalType": "uint256",
          "name": "value",
          "type": "uint256"
        }
      ],
      "name": "freezePartialTokens",
      "outputs": [],
      "stateMutability": "nonpayable",
      "type": "function"
    },
    {
      "inputs": [
        {
          "internalType": "address",
          "name": "account",
          "type": "address"
        },
        {
          "internalType": "uint256",
          "name": "value",
          "type": "uint256"
        },
        {
          "internalType": "bytes",
          "name": "data",
          "type": "bytes"
        }
      ],
      "name": "freezePartialTokens",
      "outputs": [],
      "stateMutability": "nonpayable",
      "type": "function"
    },
    {
      "inputs": [
        {
          "internalType": "address",
          "name": "account",
          "type": "address"
        }
      ],
      "name": "getActiveBalanceOf",
      "outputs": [
        {
          "internalType": "uint256",
          "name": "activeBalance_",
          "type": "uint256"
        }
      ],
      "stateMutability": "view",
      "type": "function"
    },
    {
      "inputs": [],
      "name": "getAllDocuments",
      "outputs": [
        {
          "internalType": "string[]",
          "name": "documentNames_",
          "type": "string[]"
        }
      ],
      "stateMutability": "view",
      "type": "function"
    },
    {
      "inputs": [],
      "name": "getCCIPAdmin",
      "outputs": [
        {
          "internalType": "address",
          "name": "",
          "type": "address"
        }
      ],
      "stateMutability": "view",
      "type": "function"
    },
    {
      "inputs": [
        {
          "internalType": "string",
          "name": "name",
          "type": "string"
        }
      ],
      "name": "getDocument",
      "outputs": [
        {
          "components": [
            {
              "internalType": "string",
              "name": "uri",
              "type": "string"
            },
            {
              "internalType": "bytes32",
              "name": "documentHash",
              "type": "bytes32"
            },
            {
              "internalType": "uint256",
              "name": "lastModified",
              "type": "uint256"
            }
          ],
          "internalType": "struct IERC1643.Document",
          "name": "document",
          "type": "tuple"
        }
      ],
      "stateMutability": "view",
      "type": "function"
    },
    {
      "inputs": [
        {
          "internalType": "address",
          "name": "account",
          "type": "address"
        }
      ],
      "name": "getFrozenTokens",
      "outputs": [
        {
          "internalType": "uint256",
          "name": "frozenBalance_",
          "type": "uint256"
        }
      ],
      "stateMutability": "view",
      "type": "function"
    },
    {
      "inputs": [
        {
          "internalType": "bytes32",
          "name": "role",
          "type": "bytes32"
        }
      ],
      "name": "getRoleAdmin",
      "outputs": [
        {
          "internalType": "bytes32",
          "name": "",
          "type": "bytes32"
        }
      ],
      "stateMutability": "view",
      "type": "function"
    },
    {
      "inputs": [
        {
          "internalType": "bytes32",
          "name": "role",
          "type": "bytes32"
        },
        {
          "internalType": "address",
          "name": "account",
          "type": "address"
        }
      ],
      "name": "grantRole",
      "outputs": [],
      "stateMutability": "nonpayable",
      "type": "function"
    },
    {
      "inputs": [
        {
          "internalType": "bytes32",
          "name": "role",
          "type": "bytes32"
        },
        {
          "internalType": "address",
          "name": "account",
          "type": "address"
        }
      ],
      "name": "hasRole",
      "outputs": [
        {
          "internalType": "bool",
          "name": "",
          "type": "bool"
        }
      ],
      "stateMutability": "view",
      "type": "function"
    },
    {
      "inputs": [],
      "name": "information",
      "outputs": [
        {
          "internalType": "string",
          "name": "information_",
          "type": "string"
        }
      ],
      "stateMutability": "view",
      "type": "function"
    },
    {
      "inputs": [
        {
          "internalType": "address",
          "name": "admin",
          "type": "address"
        },
        {
          "components": [
            {
              "internalType": "string",
              "name": "name",
              "type": "string"
            },
            {
              "internalType": "string",
              "name": "symbol",
              "type": "string"
            },
            {
              "internalType": "uint8",
              "name": "decimalsIrrevocable",
              "type": "uint8"
            }
          ],
          "internalType": "struct ICMTATConstructor.ERC20Attributes",
          "name": "ERC20Attributes_",
          "type": "tuple"
        },
        {
          "components": [
            {
              "internalType": "string",
              "name": "tokenId",
              "type": "string"
            },
            {
              "components": [
                {
                  "internalType": "string",
                  "name": "name",
                  "type": "string"
                },
                {
                  "internalType": "string",
                  "name": "uri",
                  "type": "string"
                },
                {
                  "internalType": "bytes32",
                  "name": "documentHash",
                  "type": "bytes32"
                }
              ],
              "internalType": "struct IERC1643CMTAT.DocumentInfo",
              "name": "terms",
              "type": "tuple"
            },
            {
              "internalType": "string",
              "name": "information",
              "type": "string"
            }
          ],
          "internalType": "struct ICMTATConstructor.ExtraInformationAttributes",
          "name": "extraInformationAttributes_",
          "type": "tuple"
        },
        {
          "components": [
            {
              "internalType": "contract IRuleEngine",
              "name": "ruleEngine",
              "type": "address"
            },
            {
              "internalType": "contract ISnapshotEngine",
              "name": "snapshotEngine",
              "type": "address"
            },
            {
              "internalType": "contract IERC1643",
              "name": "documentEngine",
              "type": "address"
            }
          ],
          "internalType": "struct ICMTATConstructor.Engine",
          "name": "engines_",
          "type": "tuple"
        }
      ],
      "name": "initialize",
      "outputs": [],
      "stateMutability": "nonpayable",
      "type": "function"
    },
    {
      "inputs": [
        {
          "internalType": "address",
          "name": "account",
          "type": "address"
        }
      ],
      "name": "isFrozen",
      "outputs": [
        {
          "internalType": "bool",
          "name": "isFrozen_",
          "type": "bool"
        }
      ],
      "stateMutability": "view",
      "type": "function"
    },
    {
      "inputs": [
        {
          "internalType": "address",
          "name": "forwarder",
          "type": "address"
        }
      ],
      "name": "isTrustedForwarder",
      "outputs": [
        {
          "internalType": "bool",
          "name": "",
          "type": "bool"
        }
      ],
      "stateMutability": "view",
      "type": "function"
    },
    {
      "inputs": [
        {
          "internalType": "uint8",
          "name": "restrictionCode",
          "type": "uint8"
        }
      ],
      "name": "messageForTransferRestriction",
      "outputs": [
        {
          "internalType": "string",
          "name": "message",
          "type": "string"
        }
      ],
      "stateMutability": "view",
      "type": "function"
    },
    {
      "inputs": [
        {
          "internalType": "address",
          "name": "account",
          "type": "address"
        },
        {
          "internalType": "uint256",
          "name": "value",
          "type": "uint256"
        }
      ],
      "name": "mint",
      "outputs": [],
      "stateMutability": "nonpayable",
      "type": "function"
    },
    {
      "inputs": [
        {
          "internalType": "address",
          "name": "account",
          "type": "address"
        },
        {
          "internalType": "uint256",
          "name": "value",
          "type": "uint256"
        },
        {
          "internalType": "bytes",
          "name": "data",
          "type": "bytes"
        }
      ],
      "name": "mint",
      "outputs": [],
      "stateMutability": "nonpayable",
      "type": "function"
    },
    {
      "inputs": [],
      "name": "name",
      "outputs": [
        {
          "internalType": "string",
          "name": "",
          "type": "string"
        }
      ],
      "stateMutability": "view",
      "type": "function"
    },
    {
      "inputs": [],
      "name": "pause",
      "outputs": [],
      "stateMutability": "nonpayable",
      "type": "function"
    },
    {
      "inputs": [],
      "name": "paused",
      "outputs": [
        {
          "internalType": "bool",
          "name": "",
          "type": "bool"
        }
      ],
      "stateMutability": "view",
      "type": "function"
    },
    {
      "inputs": [
        {
          "internalType": "bytes32",
          "name": "role",
          "type": "bytes32"
        },
        {
          "internalType": "address",
          "name": "callerConfirmation",
          "type": "address"
        }
      ],
      "name": "renounceRole",
      "outputs": [],
      "stateMutability": "nonpayable",
      "type": "function"
    },
    {
      "inputs": [
        {
          "internalType": "bytes32",
          "name": "role",
          "type": "bytes32"
        },
        {
          "internalType": "address",
          "name": "account",
          "type": "address"
        }
      ],
      "name": "revokeRole",
      "outputs": [],
      "stateMutability": "nonpayable",
      "type": "function"
    },
    {
      "inputs": [],
      "name": "ruleEngine",
      "outputs": [
        {
          "internalType": "contract IRuleEngine",
          "name": "",
          "type": "address"
        }
      ],
      "stateMutability": "view",
      "type": "function"
    },
    {
      "inputs": [
        {
          "internalType": "address",
          "name": "account",
          "type": "address"
        },
        {
          "internalType": "bool",
          "name": "freeze",
          "type": "bool"
        },
        {
          "internalType": "bytes",
          "name": "data",
          "type": "bytes"
        }
      ],
      "name": "setAddressFrozen",
      "outputs": [],
      "stateMutability": "nonpayable",
      "type": "function"
    },
    {
      "inputs": [
        {
          "internalType": "address",
          "name": "account",
          "type": "address"
        },
        {
          "internalType": "bool",
          "name": "freeze",
          "type": "bool"
        }
      ],
      "name": "setAddressFrozen",
      "outputs": [],
      "stateMutability": "nonpayable",
      "type": "function"
    },
    {
      "inputs": [
        {
          "internalType": "address",
          "name": "newAdmin",
          "type": "address"
        }
      ],
      "name": "setCCIPAdmin",
      "outputs": [],
      "stateMutability": "nonpayable",
      "type": "function"
    },
    {
      "inputs": [
        {
          "internalType": "contract IERC1643",
          "name": "documentEngine_",
          "type": "address"
        }
      ],
      "name": "setDocumentEngine",
      "outputs": [],
      "stateMutability": "nonpayable",
      "type": "function"
    },
    {
      "inputs": [
        {
          "internalType": "string",
          "name": "information_",
          "type": "string"
        }
      ],
      "name": "setInformation",
      "outputs": [],
      "stateMutability": "nonpayable",
      "type": "function"
    },
    {
      "inputs": [
        {
          "internalType": "string",
          "name": "name_",
          "type": "string"
        }
      ],
      "name": "setName",
      "outputs": [],
      "stateMutability": "nonpayable",
      "type": "function"
    },
    {
      "inputs": [
        {
          "internalType": "contract IRuleEngine",
          "name": "ruleEngine_",
          "type": "address"
        }
      ],
      "name": "setRuleEngine",
      "outputs": [],
      "stateMutability": "nonpayable",
      "type": "function"
    },
    {
      "inputs": [
        {
          "internalType": "contract ISnapshotEngine",
          "name": "snapshotEngine_",
          "type": "address"
        }
      ],
      "name": "setSnapshotEngine",
      "outputs": [],
      "stateMutability": "nonpayable",
      "type": "function"
    },
    {
      "inputs": [
        {
          "internalType": "string",
          "name": "symbol_",
          "type": "string"
        }
      ],
      "name": "setSymbol",
      "outputs": [],
      "stateMutability": "nonpayable",
      "type": "function"
    },
    {
      "inputs": [
        {
          "components": [
            {
              "internalType": "string",
              "name": "name",
              "type": "string"
            },
            {
              "internalType": "string",
              "name": "uri",
              "type": "string"
            },
            {
              "internalType": "bytes32",
              "name": "documentHash",
              "type": "bytes32"
            }
          ],
          "internalType": "struct IERC1643CMTAT.DocumentInfo",
          "name": "terms_",
          "type": "tuple"
        }
      ],
      "name": "setTerms",
      "outputs": [],
      "stateMutability": "nonpayable",
      "type": "function"
    },
    {
      "inputs": [
        {
          "internalType": "string",
          "name": "tokenId_",
          "type": "string"
        }
      ],
      "name": "setTokenId",
      "outputs": [],
      "stateMutability": "nonpayable",
      "type": "function"
    },
    {
      "inputs": [],
      "name": "snapshotEngine",
      "outputs": [
        {
          "internalType": "contract ISnapshotEngine",
          "name": "",
          "type": "address"
        }
      ],
      "stateMutability": "view",
      "type": "function"
    },
    {
      "inputs": [
        {
          "internalType": "bytes4",
          "name": "interfaceId",
          "type": "bytes4"
        }
      ],
      "name": "supportsInterface",
      "outputs": [
        {
          "internalType": "bool",
          "name": "",
          "type": "bool"
        }
      ],
      "stateMutability": "view",
      "type": "function"
    },
    {
      "inputs": [],
      "name": "symbol",
      "outputs": [
        {
          "internalType": "string",
          "name": "",
          "type": "string"
        }
      ],
      "stateMutability": "view",
      "type": "function"
    },
    {
      "inputs": [],
      "name": "terms",
      "outputs": [
        {
          "components": [
            {
              "internalType": "string",
              "name": "name",
              "type": "string"
            },
            {
              "components": [
                {
                  "internalType": "string",
                  "name": "uri",
                  "type": "string"
                },
                {
                  "internalType": "bytes32",
                  "name": "documentHash",
                  "type": "bytes32"
                },
                {
                  "internalType": "uint256",
                  "name": "lastModified",
                  "type": "uint256"
                }
              ],
              "internalType": "struct IERC1643.Document",
              "name": "doc",
              "type": "tuple"
            }
          ],
          "internalType": "struct ICMTATBase.CMTATTerms",
          "name": "terms_",
          "type": "tuple"
        }
      ],
      "stateMutability": "view",
      "type": "function"
    },
    {
      "inputs": [],
      "name": "tokenId",
      "outputs": [
        {
          "internalType": "string",
          "name": "tokenId_",
          "type": "string"
        }
      ],
      "stateMutability": "view",
      "type": "function"
    },
    {
      "inputs": [],
      "name": "totalSupply",
      "outputs": [
        {
          "internalType": "uint256",
          "name": "",
          "type": "uint256"
        }
      ],
      "stateMutability": "view",
      "type": "function"
    },
    {
      "inputs": [
        {
          "internalType": "address",
          "name": "to",
          "type": "address"
        },
        {
          "internalType": "uint256",
          "name": "value",
          "type": "uint256"
        }
      ],
      "name": "transfer",
      "outputs": [
        {
          "internalType": "bool",
          "name": "",
          "type": "bool"
        }
      ],
      "stateMutability": "nonpayable",
      "type": "function"
    },
    {
      "inputs": [
        {
          "internalType": "address",
          "name": "to",
          "type": "address"
        },
        {
          "internalType": "uint256",
          "name": "value",
          "type": "uint256"
        }
      ],
      "name": "transferAndCall",
      "outputs": [
        {
          "internalType": "bool",
          "name": "",
          "type": "bool"
        }
      ],
      "stateMutability": "nonpayable",
      "type": "function"
    },
    {
      "inputs": [
        {
          "internalType": "address",
          "name": "to",
          "type": "address"
        },
        {
          "internalType": "uint256",
          "name": "value",
          "type": "uint256"
        },
        {
          "internalType": "bytes",
          "name": "data",
          "type": "bytes"
        }
      ],
      "name": "transferAndCall",
      "outputs": [
        {
          "internalType": "bool",
          "name": "",
          "type": "bool"
        }
      ],
      "stateMutability": "nonpayable",
      "type": "function"
    },
    {
      "inputs": [
        {
          "internalType": "address",
          "name": "sender",
          "type": "address"
        },
        {
          "internalType": "address",
          "name": "recipient",
          "type": "address"
        },
        {
          "internalType": "uint256",
          "name": "amount",
          "type": "uint256"
        }
      ],
      "name": "transferFrom",
      "outputs": [
        {
          "internalType": "bool",
          "name": "",
          "type": "bool"
        }
      ],
      "stateMutability": "nonpayable",
      "type": "function"
    },
    {
      "inputs": [
        {
          "internalType": "address",
          "name": "from",
          "type": "address"
        },
        {
          "internalType": "address",
          "name": "to",
          "type": "address"
        },
        {
          "internalType": "uint256",
          "name": "value",
          "type": "uint256"
        },
        {
          "internalType": "bytes",
          "name": "data",
          "type": "bytes"
        }
      ],
      "name": "transferFromAndCall",
      "outputs": [
        {
          "internalType": "bool",
          "name": "",
          "type": "bool"
        }
      ],
      "stateMutability": "nonpayable",
      "type": "function"
    },
    {
      "inputs": [
        {
          "internalType": "address",
          "name": "from",
          "type": "address"
        },
        {
          "internalType": "address",
          "name": "to",
          "type": "address"
        },
        {
          "internalType": "uint256",
          "name": "value",
          "type": "uint256"
        }
      ],
      "name": "transferFromAndCall",
      "outputs": [
        {
          "internalType": "bool",
          "name": "",
          "type": "bool"
        }
      ],
      "stateMutability": "nonpayable",
      "type": "function"
    },
    {
      "inputs": [],
      "name": "trustedForwarder",
      "outputs": [
        {
          "internalType": "address",
          "name": "",
          "type": "address"
        }
      ],
      "stateMutability": "view",
      "type": "function"
    },
    {
      "inputs": [
        {
          "internalType": "address",
          "name": "account",
          "type": "address"
        },
        {
          "internalType": "uint256",
          "name": "value",
          "type": "uint256"
        }
      ],
      "name": "unfreezePartialTokens",
      "outputs": [],
      "stateMutability": "nonpayable",
      "type": "function"
    },
    {
      "inputs": [
        {
          "internalType": "address",
          "name": "account",
          "type": "address"
        },
        {
          "internalType": "uint256",
          "name": "value",
          "type": "uint256"
        },
        {
          "internalType": "bytes",
          "name": "data",
          "type": "bytes"
        }
      ],
      "name": "unfreezePartialTokens",
      "outputs": [],
      "stateMutability": "nonpayable",
      "type": "function"
    },
    {
      "inputs": [],
      "name": "unpause",
      "outputs": [],
      "stateMutability": "nonpayable",
      "type": "function"
    },
    {
      "inputs": [],
      "name": "version",
      "outputs": [
        {
          "internalType": "string",
          "name": "version_",
          "type": "string"
        }
      ],
      "stateMutability": "view",
      "type": "function"
    }
  ],
  "bytecode": "0x60a060405234801561000f575f5ffd5b5060405161695b38038061695b83398101604081905261002e91610ac3565b6001600160a01b03851660805261004784848484610051565b5050505050610e8d565b5f61005a610157565b805490915060ff6801000000000000000082041615906001600160401b03165f811580156100855750825b90505f826001600160401b031660011480156100a05750303b155b9050811580156100ae575080155b156100cc5760405163f92ee8a960e01b815260040160405180910390fd5b84546001600160401b031916600117855583156100fa57845460ff60401b1916680100000000000000001785555b61010689898989610181565b831561014c57845460ff60401b19168555604051600181527fc7f505b2f371ae2175ee4913f4499e1f2633a7b5936321eed1cdaeb6115181d29060200160405180910390a15b505050505050505050565b5f807ff0c57e16840df040f15088dc2f81fe391c3923bec73e23a9662efc9c229c6a005b92915050565b61018961019b565b610195848484846101c2565b50505050565b6101a36101f8565b6101c057604051631afcd79f60e31b815260040160405180910390fd5b565b6101ca61019b565b6101d2610216565b6101da610216565b6101e38361021e565b6101ec8161023a565b6101958484848461024d565b5f610201610157565b5468010000000000000000900460ff16919050565b6101c061019b565b61022661019b565b61022f81610270565b610237610216565b50565b61024261019b565b805161023790610299565b61025561019b565b610195848484846020015185604001516102b960201b60201c565b61027861019b565b610280610216565b610288610216565b805160208201516102379190610311565b6102a161019b565b6001600160a01b038116156102375761023781610374565b6102c161019b565b6102ca856103dc565b6040840151845160208601516102e1929190610419565b8251602084015160408501516102f8929190610489565b610301826104d0565b61030a81610512565b5050505050565b61031961019b565b7f52c63247e1f47db19d5ce0460030c497f067ca4cebf71ba98eeadabe20bace007f52c63247e1f47db19d5ce0460030c497f067ca4cebf71ba98eeadabe20bace036103658482610c56565b50600481016101958382610c56565b7f77c8cc897d160e7bf5b10921804e357da17ae27460d4a6b5d9b27ffddf159d0080546001600160a01b0319166001600160a01b03831690811782556040517f37213fe93a5aae50df0ef53f98b81c048e51b3ab2969309a103a647e44b61918905f90a25050565b6103e461019b565b6001600160a01b03811661040b5760405163011d80f760e01b815260040160405180910390fd5b6104155f82610554565b5050565b61042161019b565b7f9bd8d607565c0370ae5f91651ca67fd26d4438022bf72037316600e29e6a3a00805460ff191660ff85161781557f9bd8d607565c0370ae5f91651ca67fd26d4438022bf72037316600e29e6a3a0261047a8382610c56565b506001810161030a8482610c56565b61049161019b565b7fd2d5d34c4a4dea00599692d3257c0aebc5e0359176118cd2364ab9b008c2d1006104bc81856105fd565b6104c6818461065a565b61019581836106d0565b6104d861019b565b6001600160a01b03811615610237577f1387b97dfab601d3023cb57858a6be29329babb05c85597ddbe4926c1193a900610415818361070e565b61051a61019b565b6001600160a01b03811615610237577fbd0905600c85d707dc53eba2e146c1c2527cd32ac3ff6b86846155151b3e27006104158183610755565b5f5f51602061693b5f395f51905f5261056d848461079c565b6105ed575f848152602082815260408083206001600160a01b03871684529091529020805460ff191660011790556105a361081a565b6001600160a01b0316836001600160a01b0316857f2f8788117e7eff1d82e926ec794901d17c78024a50270940304540a733656f0d60405160405180910390a4600191505061017b565b5f91505061017b565b5092915050565b816106088282610c56565b50806040516106179190610d10565b60405180910390207f6403c68076c59949275ad9be2137a73c51043d7d6af6a38473047a0bc45df4928260405161064e9190610d26565b60405180910390a25050565b8051600183019061066b9082610c56565b50604081015160038301556020810151600283019061068a9082610c56565b504260048301556040517fb562a4a5636ab72872315c22d33f07b5af6c4e728ee9b6ee6bb515a37956272f906106c4906001850190610dda565b60405180910390a15050565b600582016106de8282610c56565b507fff8fea957fb7cb582ef297c1c74436fe7a9914efbc52adf197600dc9d171efbc816040516106c49190610d26565b81546001600160a01b0319166001600160a01b03821690811783556040517f3dc265c6e8a49e40f12f64811a094f799e44b4d033c7478793093908cbbb5bca905f90a25050565b81546001600160a01b0319166001600160a01b03821690811783556040517f24456fffb8d75313fe808b19e17ae308e592a8159329a02fb396773d5aacbd10905f90a25050565b6001600160a01b0381165f9081527fb7db2dd08fcb62d0c9e08c51941cae53c267786a0b75803fb7960902fc8ef97d602052604081205460ff16156107e35750600161017b565b505f8281525f51602061693b5f395f51905f52602090815260408083206001600160a01b038516845290915290205460ff1661017b565b5f610823610828565b905090565b5f61082381366014808210801590610844575061084433610872565b1561086a5761085736828403815f610e30565b61086091610e57565b60601c9250505090565b339250505090565b5f61087c60805190565b6001600160a01b0316826001600160a01b0316149050919050565b6001600160a01b0381168114610237575f5ffd5b634e487b7160e01b5f52604160045260245ffd5b604051606081016001600160401b03811182821017156108e1576108e16108ab565b60405290565b5f82601f8301126108f6575f5ffd5b81516001600160401b0381111561090f5761090f6108ab565b604051601f8201601f19908116603f011681016001600160401b038111828210171561093d5761093d6108ab565b604052818152838201602001851015610954575f5ffd5b8160208501602083015e5f918101602001919091529392505050565b5f60608284031215610980575f5ffd5b6109886108bf565b82519091506001600160401b038111156109a0575f5ffd5b6109ac848285016108e7565b82525060208201516001600160401b038111156109c7575f5ffd5b8201606081850312156109d8575f5ffd5b6109e06108bf565b81516001600160401b038111156109f5575f5ffd5b610a01868285016108e7565b82525060208201516001600160401b03811115610a1c575f5ffd5b610a28868285016108e7565b60208381019190915260409384015184840152840191909152508201516001600160401b03811115610a58575f5ffd5b610a64848285016108e7565b60408301525092915050565b5f60608284031215610a80575f5ffd5b610a886108bf565b90508151610a9581610897565b81526020820151610aa581610897565b60208201526040820151610ab881610897565b604082015292915050565b5f5f5f5f5f60e08688031215610ad7575f5ffd5b8551610ae281610897565b6020870151909550610af381610897565b60408701519094506001600160401b03811115610b0e575f5ffd5b860160608189031215610b1f575f5ffd5b610b276108bf565b81516001600160401b03811115610b3c575f5ffd5b610b488a8285016108e7565b82525060208201516001600160401b03811115610b63575f5ffd5b610b6f8a8285016108e7565b6020830152506040820151915060ff82168214610b8a575f5ffd5b604081019190915260608701519093506001600160401b03811115610bad575f5ffd5b610bb988828901610970565b925050610bc98760808801610a70565b90509295509295909350565b600181811c90821680610be957607f821691505b602082108103610c0757634e487b7160e01b5f52602260045260245ffd5b50919050565b601f821115610c5157805f5260205f20601f840160051c81016020851015610c325750805b601f840160051c820191505b8181101561030a575f8155600101610c3e565b505050565b81516001600160401b03811115610c6f57610c6f6108ab565b610c8381610c7d8454610bd5565b84610c0d565b6020601f821160018114610cb5575f8315610c9e5750848201515b5f19600385901b1c1916600184901b17845561030a565b5f84815260208120601f198516915b82811015610ce45787850151825560209485019460019092019101610cc4565b5084821015610d0157868401515f19600387901b60f8161c191681555b50505050600190811b01905550565b5f82518060208501845e5f920191825250919050565b602081525f82518060208401528060208501604085015e5f604082850101526040601f19601f83011684010191505092915050565b5f8154610d6781610bd5565b808552600182168015610d815760018114610d9d57610dd1565b60ff1983166020870152602082151560051b8701019350610dd1565b845f5260205f205f5b83811015610dc85781546020828a010152600182019150602081019050610da6565b87016020019450505b50505092915050565b60208152604060208201525f610df36060830184610d5b565b601f1983820301604084015260608152610e136060820160018601610d5b565b600285015460208301526003909401546040909101525090919050565b5f5f85851115610e3e575f5ffd5b83861115610e4a575f5ffd5b5050820193919092039150565b80356001600160601b031981169060148410156105f6576001600160601b031960149490940360031b84901b1690921692915050565b608051615a88610eb35f395f818161087c015281816109490152613c2f0152615a885ff3fe608060405234801561000f575f5ffd5b50600436106104e8575f3560e01c80637ccb6a641161028f578063c1d34b8911610161578063d7ffbbaa116100d5578063e236aabf1161008f578063e236aabf14610c50578063e46638e614610c63578063e583983614610c76578063e63ab1e914610c89578063f47b774014610cb0578063fcf196b414610cb8575f5ffd5b8063d7ffbbaa14610bca578063d8fbe99414610bdd578063dcfd616f14610bf0578063dd347bef14610c03578063dd62ed3e14610c16578063e1833a2f14610c29575f5ffd5b8063cf790d8d11610126578063cf790d8d14610b4d578063d32c7bb514610b55578063d4ce141514610b68578063d502562514610b7b578063d539139314610b90578063d547741f14610bb7575f5ffd5b8063c1d34b8914610aee578063c47f002714610b01578063c69c09cf14610b14578063cae9ca5114610b27578063ce34e6eb14610b3a575f5ffd5b80639fa5f50b11610203578063a9059cbb116101bd578063a9059cbb14610a73578063a99ac24514610a86578063b1f5569f14610a99578063b84c824614610aac578063bbf91f6514610abf578063bca353be14610ae6575f5ffd5b80639fa5f50b146109f75780639fc1d0e714610a0c578063a217fddf14610a1f578063a4a0a30114610a26578063a76aa6fc14610a39578063a8fa343c14610a60575f5ffd5b80638fd6a6ac116102545780638fd6a6ac1461099b5780639082a6fb146109a357806391d14854146109b657806394d008ef146109c957806395d89b41146109dc5780639dc29fac146109e4575f5ffd5b80637ccb6a64146109275780637da0a877146109475780637f4ab1dd1461096d5780638456cb591461098057806388d695b214610988575f5ffd5b8063313ce567116103c8578063492c66101161033c5780635c975abb116102f65780635c975abb146108ac5780636439fd75146108b457806368573107146108db57806370a08231146108ee5780637157797f1461090157806379cc679014610914575f5ffd5b8063492c66101461080a5780634a6cc6771461081d5780634d5592ea1461083057806354fd4d5014610843578063556ed30e14610864578063572b6c051461086c575f5ffd5b80633c626e0c1161038d5780633c626e0c1461078f5780633f4ba83a146107b65780634000aea0146107be57806340c10f19146107d157806342966c68146107e457806344d17187146107f7575f5ffd5b8063313ce567146107295780633177029f14610743578063334c0a6d14610756578063336110791461076957806336568abe1461077c575f5ffd5b806318bf50771161045f578063248a9ca311610424578063248a9ca31461067b578063282c51f31461068e5780632a8437cc146106b55780632b8c49e3146106dc5780632c721b98146106ef5780632f2ff15d14610716575f5ffd5b806318bf5077146106085780631a7af3791461061b5780631fe56f7d1461062e57806323b872dd14610641578063246b72ec14610654575f5ffd5b80631296ee62116104b05780631296ee6214610572578063158b1a57146105855780631758a8e9146105a657806317d70f7c146105c657806318160ddd146105ce57806318796d44146105f5575f5ffd5b806301ffc9a7146104ec57806306fdde0314610514578063095ea7b3146105295780630c3cc61a1461053c578063125c4a331461055d575b5f5ffd5b6104ff6104fa36600461466f565b610cc0565b60405190151581526020015b60405180910390f35b61051c610cdf565b60405161050b91906146b8565b6104ff6105373660046146de565b610cee565b61054f61054a36600461474f565b610d0f565b60405161050b92919061478d565b61057061056b3660046146de565b610ddb565b005b6104ff6105803660046146de565b610e00565b6105986105933660046147d9565b610e21565b60405190815260200161050b565b6105ae610e2b565b6040516001600160a01b03909116815260200161050b565b61051c610e4c565b7f52c63247e1f47db19d5ce0460030c497f067ca4cebf71ba98eeadabe20bace0254610598565b610570610603366004614831565b610eed565b6105706106163660046146de565b610f0d565b6105706106293660046148a7565b610f78565b61057061063c3660046146de565b610fa1565b6104ff61064f366004614911565b610fc2565b6105987f809a0fc49fc0600540f1d39e23454e1f6f215bc7505fa22b17c154616570ddef81565b61059861068936600461494f565b610fd6565b6105987f3c11d16cbaffd01df69ce1c404f6340ee057498f5f00246190ea54220576a84881565b6105987f5bfe08abba057c54e6a28bce27ce8c53eb21d7a94376a70d475b5dee60b6c4e281565b6105706106ea3660046146de565b610ff6565b6105987fdd7c9aafbb91d54fb2041db1d5b172ea665309b32f5fffdbddf452802a1e3b2081565b610570610724366004614966565b611055565b610731611071565b60405160ff909116815260200161050b565b6104ff6107513660046146de565b61107a565b610570610764366004614994565b611094565b6105706107773660046147d9565b6110dc565b61057061078a366004614966565b611129565b6105987fd62f75bf68b069bc8e2abd495a949fafec67a4e5a5b7cb36aedf0dd51eec7e7281565b610570611171565b6104ff6107cc366004614ac5565b6111c8565b6105706107df3660046146de565b611222565b6105706107f236600461494f565b611243565b610570610805366004614994565b611261565b610570610818366004614c8c565b6112a9565b61057061082b3660046148a7565b6113a6565b6104ff61083e366004614d83565b61140e565b6040805180820190915260058152640332e312e360dc1b602082015261051c565b6104ff611464565b6104ff61087a3660046147d9565b7f00000000000000000000000000000000000000000000000000000000000000006001600160a01b0390811691161490565b6104ff611492565b6105987f973ef39d76cc2c6090feab1c030bec6ab5db557f64df047a4c4f9b5953cf1df381565b6105706108e93660046148a7565b61149b565b6105986108fc3660046147d9565b6114f5565b6104ff61090f366004614df0565b611525565b6105706109223660046146de565b61153b565b61093a610935366004614e3e565b611559565b60405161050b9190614ea3565b7f00000000000000000000000000000000000000000000000000000000000000006105ae565b61051c61097b366004614eb5565b611638565b61057061166e565b6104ff6109963660046148a7565b611680565b6105ae611695565b6105986109b13660046147d9565b6116bd565b6104ff6109c4366004614966565b6116c7565b6105706109d7366004614994565b6116f0565b61051c611738565b6105706109f23660046146de565b611742565b6109ff611763565b60405161050b9190614ed0565b6104ff610a1a366004614911565b6117f9565b6105985f81565b610570610a343660046147d9565b61181c565b6105987f620d362b92b6ef580d4e86c5675d679fe08d31dff47b72f281959a4eecdd036a81565b610570610a6e3660046147d9565b611866565b6104ff610a813660046146de565b61190c565b610570610a94366004614f40565b611917565b610570610aa7366004614f88565b61195f565b610570610aba36600461501e565b6119ca565b6105987f13d9f3ea33477b975af6cd01437366c28412d5bd9b872fa0fc25bd3a160683af81565b610570611a63565b6104ff610afc366004615050565b611ae6565b610570610b0f36600461501e565b611b34565b610570610b223660046150b7565b611bc0565b6104ff610b35366004614ac5565b611be1565b610570610b483660046150e3565b611c2e565b6105ae611c47565b610731610b63366004614df0565b611c6f565b610731610b76366004614911565b611d43565b610b83611dfc565b60405161050b9190615119565b6105987f9f2df0fed2c77648de5860a4cc508cd0818c85b8b8a1ab4ceeef8d981c8956a681565b610570610bc5366004614966565b611f8c565b610570610bd836600461501e565b611fa8565b6104ff610beb366004614911565b612000565b610570610bfe36600461501e565b61201b565b610570610c11366004614994565b612073565b610598610c24366004615151565b6120bb565b6105987f921df7a58eb4ea112afa962b8186161404ecda2e8fe97f8246026d02ad1a74b781565b610570610c5e3660046147d9565b612104565b6104ff610c71366004614911565b612164565b6104ff610c843660046147d9565b612170565b6105987f65d7a28e3265b37a6474929f336521b332c1681b933f6cb9f3376673440d862a81565b61051c6121af565b6105ae6121ed565b5f610cca82612215565b80610cd95750610cd982612239565b92915050565b6060610ce9612252565b905090565b5f5f610cf861225c565b9050610d05818585612265565b5060019392505050565b60605f826001600160401b03811115610d2a57610d2a6149df565b604051908082528060200260200182016040528015610d53578160200160208202803683370190505b5091505f5b83811015610daf57610d8a858583818110610d7557610d7561517d565b90506020020160208101906108fc91906147d9565b838281518110610d9c57610d9c61517d565b6020908102919091010152600101610d58565b507f52c63247e1f47db19d5ce0460030c497f067ca4cebf71ba98eeadabe20bace025490509250929050565b610de3612272565b610dfc828260405180602001604052805f81525061229c565b5050565b5f610e1a838360405180602001604052805f8152506111c8565b9392505050565b5f610cd982612359565b5f805f516020615a335f395f51905f525b546001600160a01b031692915050565b5f5160206159915f395f51905f528054606091908190610e6b90615191565b80601f0160208091040260200160405190810160405280929190818152602001828054610e9790615191565b8015610ee25780601f10610eb957610100808354040283529160200191610ee2565b820191905f5260205f20905b815481529060010190602001808311610ec557829003601f168201915b505050505091505090565b610ef986858484611261565b610f05858484846116f0565b505050505050565b610f163361236e565b610f2082826123a0565b610f2861225c565b6001600160a01b0316826001600160a01b03167fde22baff038e3a3e08407cbdf617deed74e869a7ba517df611e33131c6e6ea0483604051610f6c91815260200190565b60405180910390a35050565b610f806123b6565b610f9b8484848460405180602001604052805f8152506123e0565b50505050565b610fa9612272565b610dfc828260405180602001604052805f815250612480565b5f610fce848484612538565b949350505050565b5f9081525f5160206159f15f395f51905f52602052604090206001015490565b610fff3361236e565b6110098282612544565b61101161225c565b6001600160a01b0316826001600160a01b03167fb90795a66650155983e242cac3e1ac1a4dc26f8ed2987f3ce416a34e00111fd483604051610f6c91815260200190565b61105e82610fd6565b6110678161255a565b610f9b838361256b565b5f610ce9612614565b5f610e1a838360405180602001604052805f815250611be1565b61109c612272565b610f9b848484848080601f0160208091040260200160405190810160405280939291908181526020018383808284375f9201919091525061248092505050565b6110e461261d565b5f516020615a335f395f51905f5280546001600160a01b0383811691160361111f576040516399e8777160e01b815260040160405180910390fd5b610dfc8183612647565b61113161225c565b6001600160a01b0316816001600160a01b0316146111625760405163334bd91960e11b815260040160405180910390fd5b61116c828261268e565b505050565b611179612725565b7fab1527b6135145d8da1edcbd6b7b270624e17f2b41c74a8c746ff388ad454700805460ff16156111bd57604051631b19da4d60e11b815260040160405180910390fd5b6111c561274f565b50565b5f6111d3848461190c565b6112075760405163118d81d760e11b81526001600160a01b0385166004820152602481018490526044015b60405180910390fd5b610d0561121261225c565b61121a61225c565b8686866127a9565b61122a6128f4565b610dfc828260405180602001604052805f81525061291e565b61124b612981565b5f61125461225c565b9050610dfc8182846129b3565b611269612a19565b610f9b848484848080601f0160208091040260200160405190810160405280939291908181526020018383808284375f92019190915250612a4392505050565b5f6112b2612a99565b805490915060ff600160401b82041615906001600160401b03165f811580156112d85750825b90505f826001600160401b031660011480156112f35750303b155b905081158015611301575080155b1561131f5760405163f92ee8a960e01b815260040160405180910390fd5b845467ffffffffffffffff19166001178555831561134957845460ff60401b1916600160401b1785555b61135589898989612ac1565b831561139b57845460ff60401b19168555604051600181527fc7f505b2f371ae2175ee4913f4499e1f2633a7b5936321eed1cdaeb6115181d29060200160405180910390a15b505050505050505050565b6113ae612a19565b6113ba84848484612ad5565b6113c261225c565b6001600160a01b03167f72daf4490e83933de80c122aa40ad26e3d1312ac3efbf2edcee640aa8556ddc685858585604051611400949392919061523b565b60405180910390a250505050565b5f611417612b70565b61145886868686868080601f0160208091040260200160405190810160405280939291908181526020018383808284375f92019190915250612b7a92505050565b50600195945050505050565b5f807fab1527b6135145d8da1edcbd6b7b270624e17f2b41c74a8c746ff388ad4547005b5460ff1692915050565b5f610ce9612c51565b6114a36128f4565b6114af84848484612c79565b6114b761225c565b6001600160a01b03167fbc3f1481a323af3866d85a300235055c5b81e0ab3563d50b17226f63072161f085858585604051611400949392919061527d565b5f805f5160206159715f395f51905f525b6001600160a01b039093165f9081526020939093525050604090205490565b5f61153285858585612d11565b95945050505050565b611543612d3a565b5f61154c61225c565b905061116c818484612d64565b61157b6040518060600160405280606081526020015f81526020015f81525090565b5f516020615a335f395f51905f5280546001600160a01b031615611609578054604051631f32da9960e21b81526001600160a01b0390911690637ccb6a64906115c89086906004016146b8565b5f60405180830381865afa1580156115e2573d5f5f3e3d5ffd5b505050506040513d5f823e601f3d908101601f19168201604052610e1a91908101906152fb565b5050604080516080810182525f6060820181815282526020820181905291810191909152919050565b50919050565b606060051960ff83160161166557604051806060016040528060228152602001615a116022913992915050565b610cd982612dc7565b611676612725565b61167e612fcc565b565b5f6116896128f4565b61153285858585613029565b5f807f364fbfd89c0eee55bbc8dd10b1a9bf3e04fba9f3ee606f4c79a82f9941ad7a00610e3c565b5f610cd9826130db565b5f6116d28183613114565b156116df57506001610cd9565b6116e98383613114565b9050610cd9565b6116f86128f4565b610f9b848484848080601f0160208091040260200160405190810160405280939291908181526020018383808284375f9201919091525061291e92505050565b6060610ce961314a565b61174a612a19565b610dfc828260405180602001604052805f815250612a43565b5f516020615a335f395f51905f528054606091906001600160a01b0316156117f557805460408051639fa5f50b60e01b815290516001600160a01b0390921691639fa5f50b916004808201925f929091908290030181865afa1580156117cb573d5f5f3e3d5ffd5b505050506040513d5f823e601f3d908101601f191682016040526117f2919081019061537c565b91505b5090565b5f611802612b70565b610d0584848460405180602001604052805f815250612b7a565b611824612b70565b61182c6121ed565b6001600160a01b0316816001600160a01b03160361185d57604051630725a47560e31b815260040160405180910390fd5b6111c581613154565b61186e612b70565b7f364fbfd89c0eee55bbc8dd10b1a9bf3e04fba9f3ee606f4c79a82f9941ad7a0080546001600160a01b039081169083168190036118bf5760405163348e78c960e11b815260040160405180910390fd5b81546001600160a01b0319166001600160a01b038481169182178455604051908316907f9524c9e4b0b61eb018dd58a1cd856e3e74009528328ab4a613b434fa631d7242905f90a3505050565b5f610e1a83836131bc565b61191f6123b6565b610f9b848484848080601f0160208091040260200160405190810160405280939291908181526020018383808284375f920191909152506131c792505050565b611967612a19565b61197385858585612ad5565b61197b61225c565b6001600160a01b03167f72daf4490e83933de80c122aa40ad26e3d1312ac3efbf2edcee640aa8556ddc686868686866040516119bb95949392919061543a565b60405180910390a25050505050565b6119d2612b70565b5f5160206159d15f395f51905f527f9bd8d607565c0370ae5f91651ca67fd26d4438022bf72037316600e29e6a3a02611a0c8385836154c4565b508282604051611a1d92919061557d565b60405180910390207f4a48eefa86906ea82ddc91803a5f00818355982247dc29c521714f6dc207aacd8484604051611a5692919061558c565b60405180910390a2505050565b611a6b612b70565b611a736131f4565b7fab1527b6135145d8da1edcbd6b7b270624e17f2b41c74a8c746ff388ad454700805460ff191660011781557f749cb6b4c510bc468cf6b9c2086d6f0a54d6b18e25d37bf3200e68eab0880c00611ac861225c565b6040516001600160a01b03909116815260200160405180910390a150565b5f611af2858585610fc2565b611b1557848484604051635ab42af360e11b81526004016111fe939291906155ba565b611b29611b2061225c565b868686866127a9565b506001949350505050565b611b3c612b70565b5f5160206159d15f395f51905f527f9bd8d607565c0370ae5f91651ca67fd26d4438022bf72037316600e29e6a3a01611b768385836154c4565b508282604051611b8792919061557d565b60405180910390207fe4e4a54c5c394e44fde10a0ae1277d8bd8621848cc8dfd73eddd39bcf9f2d9b28484604051611a5692919061558c565b611bc86123b6565b610dfc828260405180602001604052805f8152506131c7565b5f611bec8484610cee565b611c1b57604051631439557160e21b81526001600160a01b0385166004820152602481018490526044016111fe565b610d05611c2661225c565b858585613219565b611c36613353565b6111c5611c42826155de565b61337d565b5f807f1387b97dfab601d3023cb57858a6be29329babb05c85597ddbe4926c1193a900610e3c565b5f5f611c796121ed565b9050611c8486612170565b15611c945760055b915050610fce565b5f611ca0868686613395565b905060ff811615611cb4579150610fce9050565b6001600160a01b03821615611d3d5760405163d32c7bb560e01b81526001600160a01b0383169063d32c7bb590611cf5908a908a908a908a906004016155e9565b602060405180830381865afa158015611d10573d5f5f3e3d5ffd5b505050506040513d601f19601f82011682018060405250810190611d349190615613565b92505050610fce565b5f611d34565b5f5f611d4d6121ed565b90505f611d5b868686613395565b905060ff811615611d6f579150610e1a9050565b6001600160a01b03821615611df65760405163d4ce141560e01b81526001600160a01b0383169063d4ce141590611dae908990899089906004016155ba565b602060405180830381865afa158015611dc9573d5f5f3e3d5ffd5b505050506040513d601f19601f82011682018060405250810190611ded9190615613565b92505050610e1a565b5f611ded565b611e04614621565b604080518082019091527fd2d5d34c4a4dea00599692d3257c0aebc5e0359176118cd2364ab9b008c2d10180545f5160206159915f395f51905f5292919082908290611e4f90615191565b80601f0160208091040260200160405190810160405280929190818152602001828054611e7b90615191565b8015611ec65780601f10611e9d57610100808354040283529160200191611ec6565b820191905f5260205f20905b815481529060010190602001808311611ea957829003601f168201915b50505050508152602001600182016040518060600160405290815f82018054611eee90615191565b80601f0160208091040260200160405190810160405280929190818152602001828054611f1a90615191565b8015611f655780601f10611f3c57610100808354040283529160200191611f65565b820191905f5260205f20905b815481529060010190602001808311611f4857829003601f168201915b50505050508152602001600182015481526020016002820154815250508152505091505090565b611f9582610fd6565b611f9e8161255a565b610f9b838361268e565b611fb0613353565b5f5f5160206159915f395f51905f52905061116c8184848080601f0160208091040260200160405190810160405280939291908181526020018383808284375f920191909152506133db92505050565b5f610fce84848460405180602001604052805f815250611ae6565b612023613353565b5f5f5160206159915f395f51905f52905061116c8184848080601f0160208091040260200160405190810160405280939291908181526020018383808284375f9201919091525061342592505050565b61207b612272565b610f9b848484848080601f0160208091040260200160405190810160405280939291908181526020018383808284375f9201919091525061229c92505050565b6001600160a01b039182165f9081527f52c63247e1f47db19d5ce0460030c497f067ca4cebf71ba98eeadabe20bace016020908152604080832093909416825291909152205490565b61210c613482565b7f1387b97dfab601d3023cb57858a6be29329babb05c85597ddbe4926c1193a90080546001600160a01b0383811691160361215a576040516311ecd5d560e21b815260040160405180910390fd5b610dfc81836134ac565b5f610fce8484846134f3565b6001600160a01b0381165f9081527f0c7bc8a17be064111d299d7669f49519cb26c58611b72d9f6ccc40a1e1184e00602052604081205460ff16610cd9565b7fd2d5d34c4a4dea00599692d3257c0aebc5e0359176118cd2364ab9b008c2d10580546060915f5160206159915f395f51905f5291610e6b90615191565b5f807f77c8cc897d160e7bf5b10921804e357da17ae27460d4a6b5d9b27ffddf159d00610e3c565b5f6001600160e01b0319821663b0202a1160e01b1480610cd95750610cd98261351b565b5f61224382613531565b80610cd95750610cd982613555565b6060610ce9613579565b5f610ce9613583565b61116c838383600161358c565b7fd62f75bf68b069bc8e2abd495a949fafec67a4e5a5b7cb36aedf0dd51eec7e726111c58161255a565b5f5160206159b15f395f51905f525f6122b4856114f5565b6001600160a01b0386165f90815260208490526040812054919250906122db908690615642565b9050808210156122fe576040516349d7d08d60e11b815260040160405180910390fd5b6001600160a01b0386165f8181526020859052604090819020839055517eee657b17bb8f27ffd14d58b7a6f3f8d780dc721da687b065b4ce100c332e25906123499088908890615655565b60405180910390a2505050505050565b5f805f5160206159b15f395f51905f52611506565b61237661366f565b6111c57f620d362b92b6ef580d4e86c5675d679fe08d31dff47b72f281959a4eecdd036a82613695565b6123ac5f5f84846136ce565b610dfc828261370c565b7f973ef39d76cc2c6090feab1c030bec6ab5db557f64df047a4c4f9b5953cf1df36111c58161255a565b6123ec85858585613722565b7f0c7bc8a17be064111d299d7669f49519cb26c58611b72d9f6ccc40a1e1184e005f5b858110156124775761246f8288888481811061242d5761242d61517d565b905060200201602081019061244291906147d9565b8787858181106124545761245461517d565b9050602002016020810190612469919061566d565b86613760565b60010161240f565b50505050505050565b6001600160a01b0383165f9081525f5160206159b15f395f51905f5260208190526040909120548311156124c7576040516309f1994960e41b815260040160405180910390fd5b6001600160a01b0384165f908152602082905260409020546124ea908490615688565b6001600160a01b0385165f81815260208490526040908190209290925590517f57e0f3d4013a11f83fec76f5798b11b0ac9894fe75a459c7c18b95b248fa0225906114009086908690615655565b5f610fce8484846137de565b6125505f835f846136ce565b610dfc82826137fd565b6111c58161256661225c565b613695565b5f5f5160206159f15f395f51905f5261258484846116c7565b612604575f848152602082815260408083206001600160a01b03871684529091529020805460ff191660011790556125ba61225c565b6001600160a01b0316836001600160a01b0316857f2f8788117e7eff1d82e926ec794901d17c78024a50270940304540a733656f0d60405160405180910390a46001915050610cd9565b5f915050610cd9565b5092915050565b5f610ce9613813565b7fdd7c9aafbb91d54fb2041db1d5b172ea665309b32f5fffdbddf452802a1e3b206111c58161255a565b81546001600160a01b0319166001600160a01b03821690811783556040517f24456fffb8d75313fe808b19e17ae308e592a8159329a02fb396773d5aacbd10905f90a25050565b5f5f5160206159f15f395f51905f526126a784846116c7565b15612604575f848152602082815260408083206001600160a01b03871684529091529020805460ff191690556126db61225c565b6001600160a01b0316836001600160a01b0316857ff6391f5c32d9c69d2a47ea670b442974b53935d1edc7fd64eb21e047a839171b60405160405180910390a46001915050610cd9565b7f65d7a28e3265b37a6474929f336521b332c1681b933f6cb9f3376673440d862a6111c58161255a565b6127576131f4565b7fcd5ed15c6e187e77e9aee88184c21f4f2182ab5827cb3b7e07fbedcd63f03300805460ff191681557f5db9ee0a495bf2e6ff9c91a7834c1ba4fdd244a5e8aa4e537bd38aeae4b073aa611ac861225c565b826001600160a01b03163b5f036127de576040516322a5b36760e21b81526001600160a01b03841660048201526024016111fe565b604051632229f29760e21b81526001600160a01b038416906388a7ca5c9061281090889088908790879060040161569b565b6020604051808303815f875af192505050801561284a575060408051601f3d908101601f19168201909252612847918101906156d7565b60015b6128b1573d808015612877576040519150601f19603f3d011682016040523d82523d5f602084013e61287c565b606091505b5080515f036128a9576040516322a5b36760e21b81526001600160a01b03851660048201526024016111fe565b805160208201fd5b6001600160e01b03198116632229f29760e21b14610f05576040516322a5b36760e21b81526001600160a01b03851660048201526024016111fe565b5050505050565b7f9f2df0fed2c77648de5860a4cc508cd0818c85b8b8a1ab4ceeef8d981c8956a66111c58161255a565b61292883836123a0565b826001600160a01b031661293a61225c565b6001600160a01b03167f30c99b8e9449992bd7616d2645b02ee0a2b6f229a45d6b56b686963ff0c534978484604051612974929190615655565b60405180910390a3505050565b7f13d9f3ea33477b975af6cd01437366c28412d5bd9b872fa0fc25bd3a160683af6129ab8161255a565b6111c561366f565b6129bd8282612544565b826001600160a01b0316826001600160a01b0316846001600160a01b03167f543d84a473f60119968e980557a2b597b79e98849b4f68fb540e9900408a104384604051612a0c91815260200190565b60405180910390a4505050565b7f3c11d16cbaffd01df69ce1c404f6340ee057498f5f00246190ea54220576a8486111c58161255a565b612a4d8383612544565b826001600160a01b0316612a5f61225c565b6001600160a01b03167f21e3428dd0c1de86ad5cb0d4df91049f26e9711489b51d1e9b5d5a53ebae1f638484604051612974929190615655565b5f807ff0c57e16840df040f15088dc2f81fe391c3923bec73e23a9662efc9c229c6a00610cd9565b612ac961381c565b610f9b84848484613841565b5f839003612af6576040516311eaa8e760e21b815260040160405180910390fd5b828114612b1657604051637a9d6e6d60e01b815260040160405180910390fd5b5f5b838110156128ed57612b68858583818110612b3557612b3561517d565b9050602002016020810190612b4a91906147d9565b848484818110612b5c57612b5c61517d565b90506020020135612544565b600101612b18565b5f6111c58161255a565b612b85848383613877565b6001600160a01b038316612ba257612b9d8483613971565b612bf7565b5f612bad85856120bb565b90505f81118015612bbe57505f1981105b15612bea5782811015612bdc57612bd785855f5f61358c565b612bea565b612bea85858584035f61358c565b612bf58585856139a5565b505b836001600160a01b0316612c0961225c565b6001600160a01b03167f9aaf0e2b2a23aa776f679b9fe17552a7fa59d6cb1057b37156024a8c587a947f8484604051612c43929190615655565b60405180910390a350505050565b5f807fcd5ed15c6e187e77e9aee88184c21f4f2182ab5827cb3b7e07fbedcd63f03300611488565b82612c9757604051630c7e659960e01b815260040160405180910390fd5b828114612cb7576040516307a4e50160e21b815260040160405180910390fd5b5f5b838110156128ed57612d09858583818110612cd657612cd661517d565b9050602002016020810190612ceb91906147d9565b848484818110612cfd57612cfd61517d565b905060200201356123a0565b600101612cb9565b5f612d1c8483613a02565b612d2757505f610fce565b612d3385858585613a3e565b9050610fce565b7f5bfe08abba057c54e6a28bce27ce8c53eb21d7a94376a70d475b5dee60b6c4e26129ab8161255a565b612d6f828483613a4b565b826001600160a01b0316826001600160a01b03167f7c2b9369bf4a6bd9745889c658ad00a4d57e280c4c80fa1c74db2a9e52c1363583604051612db491815260200190565b60405180910390a361116c8383836129b3565b60605f612dd26121ed565b905060ff8316612e0757505060408051808201909152600d81526c2737a932b9ba3934b1ba34b7b760991b6020820152919050565b60011960ff841601612e3e57505060408051808201909152600d81526c456e666f72636564506175736560981b6020820152919050565b5f1960ff841601612e7a57505060408051808201909152601381527210dbdb9d1c9858dd11195858dd1a5d985d1959606a1b6020820152919050565b60021960ff841601612eb457505060408051808201909152601081526f20b23239233937b6a4b9a33937bd32b760811b6020820152919050565b60031960ff841601612eec57505060408051808201909152600e81526d20b232392a37a4b9a33937bd32b760911b6020820152919050565b60041960ff841601612f2957505060408051808201909152601381527220b2323929b832b73232b924b9a33937bd32b760691b6020820152919050565b6001600160a01b03811615612fa357604051637f4ab1dd60e01b815260ff841660048201526001600160a01b03821690637f4ab1dd906024015f60405180830381865afa158015612f7c573d5f5f3e3d5ffd5b505050506040513d5f823e601f3d908101601f19168201604052610e1a91908101906156f2565b505060408051808201909152600b81526a556e6b6e6f776e436f646560a81b6020820152919050565b612fd461366f565b7fcd5ed15c6e187e77e9aee88184c21f4f2182ab5827cb3b7e07fbedcd63f03300805460ff191660011781557f62e78cea01bee320cd4e420270b5ea74000d11b0c9f74754ebdbfc544b05a258611ac861225c565b5f8361304857604051634723eac960e01b815260040160405180910390fd5b5f61305161225c565b905084831461307357604051637e81047760e11b815260040160405180910390fd5b5f5b858110156130ce576130c6828888848181106130935761309361517d565b90506020020160208101906130a891906147d9565b8787858181106130ba576130ba61517d565b90506020020135613aa9565b600101613075565b5060019695505050505050565b6001600160a01b0381165f9081525f5160206159b15f395f51905f526020819052604082205461310a846114f5565b610e1a9190615688565b5f9182525f5160206159f15f395f51905f52602090815260408084206001600160a01b0393909316845291905290205460ff1690565b6060610ce9613ac0565b7f77c8cc897d160e7bf5b10921804e357da17ae27460d4a6b5d9b27ffddf159d0080546001600160a01b0319166001600160a01b03831690811782556040517f37213fe93a5aae50df0ef53f98b81c048e51b3ab2969309a103a647e44b61918905f90a25050565b5f610e1a8383613aca565b7f0c7bc8a17be064111d299d7669f49519cb26c58611b72d9f6ccc40a1e1184e00610f9b81858585613760565b6131fc611492565b61167e57604051638dfc202b60e01b815260040160405180910390fd5b826001600160a01b03163b5f0361324e5760405163deb6d3ed60e01b81526001600160a01b03841660048201526024016111fe565b6040516307b04a2d60e41b81526001600160a01b03841690637b04a2d09061327e90879086908690600401615723565b6020604051808303815f875af19250505080156132b8575060408051601f3d908101601f191682019092526132b5918101906156d7565b60015b613317573d8080156132e5576040519150601f19603f3d011682016040523d82523d5f602084013e6132ea565b606091505b5080515f036128a95760405163deb6d3ed60e01b81526001600160a01b03851660048201526024016111fe565b6001600160e01b031981166307b04a2d60e41b146128ed5760405163deb6d3ed60e01b81526001600160a01b03851660048201526024016111fe565b7f921df7a58eb4ea112afa962b8186161404ecda2e8fe97f8246026d02ad1a74b76111c58161255a565b5f5160206159915f395f51905f52610dfc8183613aed565b5f5f6133a085610e21565b905080156133d0575f816133b3876114f5565b6133bd9190615688565b9050808411156133ce576006611ded565b505b611532858585613b57565b600582016133e98282615749565b507fff8fea957fb7cb582ef297c1c74436fe7a9914efbc52adf197600dc9d171efbc8160405161341991906146b8565b60405180910390a15050565b816134308282615749565b508060405161343f9190615803565b60405180910390207f6403c68076c59949275ad9be2137a73c51043d7d6af6a38473047a0bc45df4928260405161347691906146b8565b60405180910390a25050565b7f809a0fc49fc0600540f1d39e23454e1f6f215bc7505fa22b17c154616570ddef6111c58161255a565b81546001600160a01b0319166001600160a01b03821690811783556040517f3dc265c6e8a49e40f12f64811a094f799e44b4d033c7478793093908cbbb5bca905f90a25050565b5f6134fe8483613a02565b61350957505f610e1a565b613514848484613bb0565b9050610e1a565b6001600160e01b0319166301ffc9a760e01b1490565b5f6001600160e01b03198216630cccc66560e21b1480610cd95750610cd98261351b565b5f631a002f2d60e31b6001600160e01b031983161480610cd95750610cd982613bbc565b6060610ce9613be0565b5f610ce9613c1e565b5f5160206159715f395f51905f526001600160a01b0385166135c35760405163e602df0560e01b81525f60048201526024016111fe565b6001600160a01b0384166135ec57604051634a1406b160e11b81525f60048201526024016111fe565b6001600160a01b038086165f908152600183016020908152604080832093881683529290522083905581156128ed57836001600160a01b0316856001600160a01b03167f8c5be1e5ebec7d5bd14f71427d1e84f3dd0314c0f7b2291e5b200ac8c7c3b9258560405161366091815260200190565b60405180910390a35050505050565b613677611492565b1561167e5760405163d93c066560e01b815260040160405180910390fd5b61369f82826116c7565b610dfc5760405163e2517d3f60e01b81526001600160a01b0382166004820152602481018390526044016111fe565b6136da84848484613c88565b6136e684848484613c92565b8383839091926124775760405163013a574760e41b81526004016111fe939291906155ba565b6137185f5f84846136ce565b610dfc8282613da0565b8261374057604051630e35356160e11b815260040160405180910390fd5b828114610f9b5760405163142e444b60e01b815260040160405180910390fd5b6001600160a01b0383165f908152602085905260409020805460ff191683151517905561378b61225c565b6001600160a01b0316821515846001600160a01b03167f5c115173b119951ab162218e6a2495eb7b93888dda22421e2be9c4ee5d710882846040516137d091906146b8565b60405180910390a450505050565b5f6137f26137ea61225c565b8585856136ce565b610fce848484613daa565b6138095f835f846136ce565b610dfc8282613e1b565b5f610ce9613e25565b613824613e3a565b61167e57604051631afcd79f60e31b815260040160405180910390fd5b61384961381c565b613851613e53565b613859613e53565b61386283613e5b565b61386b81613e74565b610f9b84848484613e87565b5f613881846114f5565b9050808311156138a4576040516349d7d08d60e11b815260040160405180910390fd5b6001600160a01b0384165f9081525f5160206159b15f395f51905f52602081905260408220549091906138d79084615688565b905080851115610f05575f6138ec8287615688565b6001600160a01b0388165f90815260208590526040902054909150613912908290615688565b6001600160a01b0388165f81815260208690526040908190209290925590517f57e0f3d4013a11f83fec76f5798b11b0ac9894fe75a459c7c18b95b248fa0225906139609084908990615655565b60405180910390a250505050505050565b6001600160a01b03821661399a57604051634b637e8f60e11b81525f60048201526024016111fe565b610dfc825f83613ea4565b6001600160a01b0383166139ce57604051634b637e8f60e11b81525f60048201526024016111fe565b6001600160a01b0382166139f75760405163ec442f0560e01b81525f60048201526024016111fe565b61116c838383613ea4565b5f5f613a0d84612359565b90508015610d05575f81613a20866114f5565b613a2a9190615688565b905080841115611b29575f92505050610cd9565b5f61153285858585613eaf565b5f613a5684846120bb565b90505f19811015610f9b5781811015613a9b57604051637dc7a0d960e11b81526001600160a01b038416600482015260248101829052604481018390526064016111fe565b610f9b84848484035f61358c565b613ab55f8484846136ce565b61116c838383613ed3565b6060610ce9613eea565b5f5f613ad461225c565b9050613ae25f8286866136ce565b610d058185856139a5565b80516001830190613afe9082615749565b506040810151600383015560208101516002830190613b1d9082615749565b504260048301556040517fb562a4a5636ab72872315c22d33f07b5af6c4e728ee9b6ee6bb515a37956272f90613419906001850190615898565b5f613b60611464565b15613b6c576001613514565b613b74611492565b15613b80576002613514565b613b8984612170565b15613b95576003613514565b613b9e83612170565b15613baa576004613514565b5f613514565b5f610fce848484613f28565b5f6001600160e01b03198216637965db0b60e01b1480610cd95750610cd982613531565b7f9bd8d607565c0370ae5f91651ca67fd26d4438022bf72037316600e29e6a3a0180546060915f5160206159d15f395f51905f5291610e6b90615191565b5f366014808210801590613c5a57507f00000000000000000000000000000000000000000000000000000000000000006001600160a01b031633145b15613c8057613c6d36828403815f6158ee565b613c7691615915565b60601c9250505090565b339250505090565b610f9b8382613f4a565b5f613c9e858585613f71565b613ca957505f610fce565b5f613cb26121ed565b90506001600160a01b03811615613d94576001600160a01b03861615613d3657604051631f2d7a6560e11b81526001600160a01b03821690633e5af4ca90613d049089908990899089906004016155e9565b5f604051808303815f87803b158015613d1b575f5ffd5b505af1158015613d2d573d5f5f3e3d5ffd5b50505050613d94565b6040516322ebca6d60e21b81526001600160a01b03821690638baf29b490613d66908890889088906004016155ba565b5f604051808303815f87803b158015613d7d575f5ffd5b505af1158015613d8f573d5f5f3e3d5ffd5b505050505b50506001949350505050565b610dfc8282613fab565b5f5f613db7858585613fdf565b90508015610fce57613dc761225c565b6001600160a01b0316856001600160a01b03167f7c2b9369bf4a6bd9745889c658ad00a4d57e280c4c80fa1c74db2a9e52c1363585604051613e0b91815260200190565b60405180910390a3949350505050565b610dfc8282613971565b5f805f5160206159d15f395f51905f52611488565b5f613e43612a99565b54600160401b900460ff16919050565b61167e61381c565b613e6361381c565b613e6c81614001565b6111c5613e53565b613e7c61381c565b80516111c59061402a565b613e8f61381c565b610f9b8484848460200151856040015161404a565b61116c838383614099565b5f613ebc858585856140a4565b613ec757505f610fce565b612d33858585856140b1565b613edf5f8484846136ce565b61116c838383614147565b7f9bd8d607565c0370ae5f91651ca67fd26d4438022bf72037316600e29e6a3a0280546060915f5160206159d15f395f51905f5291610e6b90615191565b5f613f34848484614152565b613f3f57505f610e1a565b61351484848461415f565b613f548282613a02565b610dfc576040516301c9bcfb60e31b815260040160405180910390fd5b5f6001600160a01b038316613f8957613514826141fb565b6001600160a01b038216613fa057613514836141fb565b613514848484614227565b6001600160a01b038216613fd45760405163ec442f0560e01b81525f60048201526024016111fe565b610dfc5f8383613ea4565b5f5f613fe961225c565b9050613ff6858285613a4b565b611b298585856139a5565b61400961381c565b614011613e53565b614019613e53565b6111c5815f01518260200151614271565b61403261381c565b6001600160a01b038116156111c5576111c581613154565b61405261381c565b61405b856142c1565b6140718460400151855f015186602001516142fa565b614087835f015184602001518560400151614357565b6140908261438b565b6128ed816143cd565b61116c8383836143fc565b5f611532858585856144ea565b5f5f6140bb6121ed565b90506001600160a01b0381161561413d57604051637157797f60e01b81526001600160a01b03821690637157797f906140fe9089908990899089906004016155e9565b602060405180830381865afa158015614119573d5f5f3e3d5ffd5b505050506040513d601f19601f82011682018060405250810190611c8c9190615955565b6001915050610fce565b61116c8383836139a5565b5f610fce5f8585856144ea565b5f5f6141696121ed565b90506001600160a01b038116156141f1576040516372331c7360e11b81526001600160a01b0382169063e46638e6906141aa908890889088906004016155ba565b602060405180830381865afa1580156141c5573d5f5f3e3d5ffd5b505050506040513d601f19601f820116820180604052508101906141e99190615955565b915050610e1a565b6001915050610e1a565b5f614204611464565b80614213575061421382612170565b1561421f57505f919050565b506001919050565b5f61423184612170565b80614240575061424083612170565b8061424f575061424f82612170565b8061425d575061425d611492565b1561426957505f610e1a565b506001610e1a565b61427961381c565b5f5160206159715f395f51905f527f52c63247e1f47db19d5ce0460030c497f067ca4cebf71ba98eeadabe20bace036142b28482615749565b5060048101610f9b8382615749565b6142c961381c565b6001600160a01b0381166142f05760405163011d80f760e01b815260040160405180910390fd5b610dfc5f8261256b565b61430261381c565b5f5160206159d15f395f51905f52805460ff191660ff85161781557f9bd8d607565c0370ae5f91651ca67fd26d4438022bf72037316600e29e6a3a026143488382615749565b50600181016128ed8482615749565b61435f61381c565b5f5160206159915f395f51905f526143778185613425565b6143818184613aed565b610f9b81836133db565b61439361381c565b6001600160a01b038116156111c5577f1387b97dfab601d3023cb57858a6be29329babb05c85597ddbe4926c1193a900610dfc81836134ac565b6143d561381c565b6001600160a01b038116156111c5575f516020615a335f395f51905f52610dfc8183612647565b5f614405611c47565b90506001600160a01b038116156144df575f614420856114f5565b90505f61442c856114f5565b90505f6144577f52c63247e1f47db19d5ce0460030c497f067ca4cebf71ba98eeadabe20bace025490565b90506144648787876144f6565b604051631be4e35160e31b81526001600160a01b038881166004830152878116602483015260448201859052606482018490526084820183905285169063df271a889060a4015f604051808303815f87803b1580156144c1575f5ffd5b505af11580156144d3573d5f5f3e3d5ffd5b50505050505050610f9b565b610f9b8484846144f6565b5f611532858585613f71565b5f5160206159715f395f51905f526001600160a01b0384166145305781816002015f8282546145259190615642565b909155506145a09050565b6001600160a01b0384165f90815260208290526040902054828110156145825760405163391434e360e21b81526001600160a01b038616600482015260248101829052604481018490526064016111fe565b6001600160a01b0385165f9081526020839052604090209083900390555b6001600160a01b0383166145be5760028101805483900390556145dc565b6001600160a01b0383165f9081526020829052604090208054830190555b826001600160a01b0316846001600160a01b03167fddf252ad1be2c89b69c2b068fc378daa952ba7f163c4a11628f55a4df523b3ef84604051612c4391815260200190565b6040518060400160405280606081526020016146556040518060600160405280606081526020015f81526020015f81525090565b905290565b6001600160e01b0319811681146111c5575f5ffd5b5f6020828403121561467f575f5ffd5b8135610e1a8161465a565b5f81518084528060208401602086015e5f602082860101526020601f19601f83011685010191505092915050565b602081525f610e1a602083018461468a565b6001600160a01b03811681146111c5575f5ffd5b5f5f604083850312156146ef575f5ffd5b82356146fa816146ca565b946020939093013593505050565b5f5f83601f840112614718575f5ffd5b5081356001600160401b0381111561472e575f5ffd5b6020830191508360208260051b8501011115614748575f5ffd5b9250929050565b5f5f60208385031215614760575f5ffd5b82356001600160401b03811115614775575f5ffd5b61478185828601614708565b90969095509350505050565b604080825283519082018190525f9060208501906060840190835b818110156147c65783518352602093840193909201916001016147a8565b5050602093909301939093525092915050565b5f602082840312156147e9575f5ffd5b8135610e1a816146ca565b5f5f83601f840112614804575f5ffd5b5081356001600160401b0381111561481a575f5ffd5b602083019150836020828501011115614748575f5ffd5b5f5f5f5f5f5f60a08789031215614846575f5ffd5b8635614851816146ca565b95506020870135614861816146ca565b9450604087013593506060870135925060808701356001600160401b03811115614889575f5ffd5b61489589828a016147f4565b979a9699509497509295939492505050565b5f5f5f5f604085870312156148ba575f5ffd5b84356001600160401b038111156148cf575f5ffd5b6148db87828801614708565b90955093505060208501356001600160401b038111156148f9575f5ffd5b61490587828801614708565b95989497509550505050565b5f5f5f60608486031215614923575f5ffd5b833561492e816146ca565b9250602084013561493e816146ca565b929592945050506040919091013590565b5f6020828403121561495f575f5ffd5b5035919050565b5f5f60408385031215614977575f5ffd5b823591506020830135614989816146ca565b809150509250929050565b5f5f5f5f606085870312156149a7575f5ffd5b84356149b2816146ca565b93506020850135925060408501356001600160401b038111156149d3575f5ffd5b614905878288016147f4565b634e487b7160e01b5f52604160045260245ffd5b604051606081016001600160401b0381118282101715614a1557614a156149df565b60405290565b604051601f8201601f191681016001600160401b0381118282101715614a4357614a436149df565b604052919050565b5f6001600160401b03821115614a6357614a636149df565b50601f01601f191660200190565b5f82601f830112614a80575f5ffd5b8135602083015f614a98614a9384614a4b565b614a1b565b9050828152858383011115614aab575f5ffd5b828260208301375f92810160200192909252509392505050565b5f5f5f60608486031215614ad7575f5ffd5b8335614ae2816146ca565b92506020840135915060408401356001600160401b03811115614b03575f5ffd5b614b0f86828701614a71565b9150509250925092565b60ff811681146111c5575f5ffd5b5f60608284031215614b37575f5ffd5b614b3f6149f3565b905081356001600160401b03811115614b56575f5ffd5b614b6284828501614a71565b82525060208201356001600160401b03811115614b7d575f5ffd5b614b8984828501614a71565b60208301525060409182013591810191909152919050565b5f60608284031215614bb1575f5ffd5b614bb96149f3565b905081356001600160401b03811115614bd0575f5ffd5b614bdc84828501614a71565b82525060208201356001600160401b03811115614bf7575f5ffd5b614c0384828501614b27565b60208301525060408201356001600160401b03811115614c21575f5ffd5b614c2d84828501614a71565b60408301525092915050565b5f60608284031215614c49575f5ffd5b614c516149f3565b90508135614c5e816146ca565b81526020820135614c6e816146ca565b60208201526040820135614c81816146ca565b604082015292915050565b5f5f5f5f60c08587031215614c9f575f5ffd5b8435614caa816146ca565b935060208501356001600160401b03811115614cc4575f5ffd5b850160608188031215614cd5575f5ffd5b614cdd6149f3565b81356001600160401b03811115614cf2575f5ffd5b614cfe89828501614a71565b82525060208201356001600160401b03811115614d19575f5ffd5b614d2589828501614a71565b60208301525060408201359150614d3b82614b19565b60408181019290925293508501356001600160401b03811115614d5c575f5ffd5b614d6887828801614ba1565b925050614d788660608701614c39565b905092959194509250565b5f5f5f5f5f60808688031215614d97575f5ffd5b8535614da2816146ca565b94506020860135614db2816146ca565b93506040860135925060608601356001600160401b03811115614dd3575f5ffd5b614ddf888289016147f4565b969995985093965092949392505050565b5f5f5f5f60808587031215614e03575f5ffd5b8435614e0e816146ca565b93506020850135614e1e816146ca565b92506040850135614e2e816146ca565b9396929550929360600135925050565b5f60208284031215614e4e575f5ffd5b81356001600160401b03811115614e63575f5ffd5b610fce84828501614a71565b5f815160608452614e83606085018261468a565b905060208301516020850152604083015160408501528091505092915050565b602081525f610e1a6020830184614e6f565b5f60208284031215614ec5575f5ffd5b8135610e1a81614b19565b5f602082016020835280845180835260408501915060408160051b8601019250602086015f5b82811015614f2757603f19878603018452614f1285835161468a565b94506020938401939190910190600101614ef6565b50929695505050505050565b80151581146111c5575f5ffd5b5f5f5f5f60608587031215614f53575f5ffd5b8435614f5e816146ca565b93506020850135614f6e81614f33565b925060408501356001600160401b038111156149d3575f5ffd5b5f5f5f5f5f60608688031215614f9c575f5ffd5b85356001600160401b03811115614fb1575f5ffd5b614fbd88828901614708565b90965094505060208601356001600160401b03811115614fdb575f5ffd5b614fe788828901614708565b90945092505060408601356001600160401b03811115615005575f5ffd5b61501188828901614a71565b9150509295509295909350565b5f5f6020838503121561502f575f5ffd5b82356001600160401b03811115615044575f5ffd5b614781858286016147f4565b5f5f5f5f60808587031215615063575f5ffd5b843561506e816146ca565b9350602085013561507e816146ca565b92506040850135915060608501356001600160401b0381111561509f575f5ffd5b6150ab87828801614a71565b91505092959194509250565b5f5f604083850312156150c8575f5ffd5b82356150d3816146ca565b9150602083013561498981614f33565b5f602082840312156150f3575f5ffd5b81356001600160401b03811115615108575f5ffd5b820160608185031215610e1a575f5ffd5b602081525f825160406020840152615134606084018261468a565b90506020840151601f198483030160408501526115328282614e6f565b5f5f60408385031215615162575f5ffd5b823561516d816146ca565b91506020830135614989816146ca565b634e487b7160e01b5f52603260045260245ffd5b600181811c908216806151a557607f821691505b60208210810361163257634e487b7160e01b5f52602260045260245ffd5b8183526020830192505f815f5b848110156152015781356151e3816146ca565b6001600160a01b0316865260209586019591909101906001016151d0565b5093949350505050565b8183525f6001600160fb1b03831115615222575f5ffd5b8260051b80836020870137939093016020019392505050565b606081525f61524e6060830186886151c3565b828103602084015261526181858761520b565b83810360409094019390935250505f8152602001949350505050565b604081525f6152906040830186886151c3565b82810360208401526152a381858761520b565b979650505050505050565b5f82601f8301126152bd575f5ffd5b81516152cb614a9382614a4b565b8181528460208386010111156152df575f5ffd5b8160208501602083015e5f918101602001919091529392505050565b5f6020828403121561530b575f5ffd5b81516001600160401b03811115615320575f5ffd5b820160608185031215615331575f5ffd5b6153396149f3565b81516001600160401b0381111561534e575f5ffd5b61535a868285016152ae565b8252506020820151602082015260408201516040820152809250505092915050565b5f6020828403121561538c575f5ffd5b81516001600160401b038111156153a1575f5ffd5b8201601f810184136153b1575f5ffd5b80516001600160401b038111156153ca576153ca6149df565b8060051b6153da60208201614a1b565b918252602081840181019290810190878411156153f5575f5ffd5b6020850192505b838310156152a35782516001600160401b03811115615419575f5ffd5b615428896020838901016152ae565b835250602092830192909101906153fc565b606081525f61544d6060830187896151c3565b828103602084015261546081868861520b565b90508281036040840152615474818561468a565b98975050505050505050565b601f82111561116c57805f5260205f20601f840160051c810160208510156154a55750805b601f840160051c820191505b818110156128ed575f81556001016154b1565b6001600160401b038311156154db576154db6149df565b6154ef836154e98354615191565b83615480565b5f601f841160018114615520575f85156155095750838201355b5f19600387901b1c1916600186901b1783556128ed565b5f83815260208120601f198716915b8281101561554f578685013582556020948501946001909201910161552f565b508682101561556b575f1960f88860031b161c19848701351681555b505060018560011b0183555050505050565b818382375f9101908152919050565b60208152816020820152818360408301375f818301604090810191909152601f909201601f19160101919050565b6001600160a01b039384168152919092166020820152604081019190915260600190565b5f610cd93683614b27565b6001600160a01b039485168152928416602084015292166040820152606081019190915260800190565b5f60208284031215615623575f5ffd5b8151610e1a81614b19565b634e487b7160e01b5f52601160045260245ffd5b80820180821115610cd957610cd961562e565b828152604060208201525f610fce604083018461468a565b5f6020828403121561567d575f5ffd5b8135610e1a81614f33565b81810381811115610cd957610cd961562e565b6001600160a01b03858116825284166020820152604081018390526080606082018190525f906156cd9083018461468a565b9695505050505050565b5f602082840312156156e7575f5ffd5b8151610e1a8161465a565b5f60208284031215615702575f5ffd5b81516001600160401b03811115615717575f5ffd5b610fce848285016152ae565b60018060a01b0384168152826020820152606060408201525f611532606083018461468a565b81516001600160401b03811115615762576157626149df565b615776816157708454615191565b84615480565b6020601f8211600181146157a8575f83156157915750848201515b5f19600385901b1c1916600184901b1784556128ed565b5f84815260208120601f198516915b828110156157d757878501518255602094850194600190920191016157b7565b50848210156157f457868401515f19600387901b60f8161c191681555b50505050600190811b01905550565b5f82518060208501845e5f920191825250919050565b5f815461582581615191565b80855260018216801561583f576001811461585b5761588f565b60ff1983166020870152602082151560051b870101935061588f565b845f5260205f205f5b838110156158865781546020828a010152600182019150602081019050615864565b87016020019450505b50505092915050565b60208152604060208201525f6158b16060830184615819565b601f19838203016040840152606081526158d16060820160018601615819565b600285015460208301526003909401546040909101525090919050565b5f5f858511156158fc575f5ffd5b83861115615908575f5ffd5b5050820193919092039150565b80356bffffffffffffffffffffffff19811690601484101561260d576bffffffffffffffffffffffff1960149490940360031b84901b1690921692915050565b5f60208284031215615965575f5ffd5b8151610e1a81614f3356fe52c63247e1f47db19d5ce0460030c497f067ca4cebf71ba98eeadabe20bace00d2d5d34c4a4dea00599692d3257c0aebc5e0359176118cd2364ab9b008c2d1009d8059a24cb596f1948a937c2c163cf14465c2a24abfd3cd009eec4ac4c398009bd8d607565c0370ae5f91651ca67fd26d4438022bf72037316600e29e6a3a0002dd7bc7dec4dceedda775e58dd541e08a116c6c53815c0bd028192f7b6268004164647246726f6d3a696e73756666696369656e7441637469766542616c616e6365bd0905600c85d707dc53eba2e146c1c2527cd32ac3ff6b86846155151b3e2700a2646970667358221220b120c4e044263ce07e080fba7bd2ddd467b6e98c91abe79ae3f3b9bfdaccb0c364736f6c634300081e003302dd7bc7dec4dceedda775e58dd541e08a116c6c53815c0bd028192f7b626800",
  "linkReferences": {},
  "deployedLinkReferences": {}
}