{
  "_format": "hh-sol-artifact-1",
  "contractName": "CMTATStandaloneDebt",
  "sourceName": "contracts/deployment/debt/CMTATStandaloneDebt.sol",
  "abi": [
    {
      "inputs": [
        {
          "internalType": "address",
          "name": "admin",
          "type": "address"
        },
        {
          "components": [
            {
              "internalType": "string",
              "name": "name",
              "type": "string"
            },
            {
              "internalType": "string",
              "name": "symbol",
              "type": "string"
            },
            {
              "internalType": "uint8",
              "name": "decimalsIrrevocable",
              "type": "uint8"
            }
          ],
          "internalType": "struct ICMTATConstructor.ERC20Attributes",
          "name": "ERC20Attributes_",
          "type": "tuple"
        },
        {
          "components": [
            {
              "internalType": "string",
              "name": "tokenId",
              "type": "string"
            },
            {
              "components": [
                {
                  "internalType": "string",
                  "name": "name",
                  "type": "string"
                },
                {
                  "internalType": "string",
                  "name": "uri",
                  "type": "string"
                },
                {
                  "internalType": "bytes32",
                  "name": "documentHash",
                  "type": "bytes32"
                }
              ],
              "internalType": "struct IERC1643CMTAT.DocumentInfo",
              "name": "terms",
              "type": "tuple"
            },
            {
              "internalType": "string",
              "name": "information",
              "type": "string"
            }
          ],
          "internalType": "struct ICMTATConstructor.ExtraInformationAttributes",
          "name": "extraInformationAttributes_",
          "type": "tuple"
        },
        {
          "components": [
            {
              "internalType": "contract IRuleEngine",
              "name": "ruleEngine",
              "type": "address"
            },
            {
              "internalType": "contract ISnapshotEngine",
              "name": "snapshotEngine",
              "type": "address"
            },
            {
              "internalType": "contract IERC1643",
              "name": "documentEngine",
              "type": "address"
            }
          ],
          "internalType": "struct ICMTATConstructor.Engine",
          "name": "engines_",
          "type": "tuple"
        }
      ],
      "stateMutability": "nonpayable",
      "type": "constructor"
    },
    {
      "inputs": [],
      "name": "AccessControlBadConfirmation",
      "type": "error"
    },
    {
      "inputs": [
        {
          "internalType": "address",
          "name": "account",
          "type": "address"
        },
        {
          "internalType": "bytes32",
          "name": "neededRole",
          "type": "bytes32"
        }
      ],
      "name": "AccessControlUnauthorizedAccount",
      "type": "error"
    },
    {
      "inputs": [],
      "name": "CMTAT_AccessControlModule_AddressZeroNotAllowed",
      "type": "error"
    },
    {
      "inputs": [],
      "name": "CMTAT_BurnModule_AccountsValueslengthMismatch",
      "type": "error"
    },
    {
      "inputs": [],
      "name": "CMTAT_BurnModule_EmptyAccounts",
      "type": "error"
    },
    {
      "inputs": [],
      "name": "CMTAT_DebtEngineModule_SameValue",
      "type": "error"
    },
    {
      "inputs": [],
      "name": "CMTAT_DocumentEngineModule_SameValue",
      "type": "error"
    },
    {
      "inputs": [],
      "name": "CMTAT_ERC20EnforcementModule_ValueExceedsActiveBalance",
      "type": "error"
    },
    {
      "inputs": [],
      "name": "CMTAT_ERC20EnforcementModule_ValueExceedsAvailableBalance",
      "type": "error"
    },
    {
      "inputs": [],
      "name": "CMTAT_ERC20EnforcementModule_ValueExceedsFrozenBalance",
      "type": "error"
    },
    {
      "inputs": [],
      "name": "CMTAT_Enforcement_AccountsValueslengthMismatch",
      "type": "error"
    },
    {
      "inputs": [],
      "name": "CMTAT_Enforcement_EmptyAccounts",
      "type": "error"
    },
    {
      "inputs": [
        {
          "internalType": "address",
          "name": "from",
          "type": "address"
        },
        {
          "internalType": "address",
          "name": "to",
          "type": "address"
        },
        {
          "internalType": "uint256",
          "name": "amount",
          "type": "uint256"
        }
      ],
      "name": "CMTAT_InvalidTransfer",
      "type": "error"
    },
    {
      "inputs": [],
      "name": "CMTAT_MintModule_AccountsValueslengthMismatch",
      "type": "error"
    },
    {
      "inputs": [],
      "name": "CMTAT_MintModule_EmptyAccounts",
      "type": "error"
    },
    {
      "inputs": [],
      "name": "CMTAT_MintModule_EmptyTos",
      "type": "error"
    },
    {
      "inputs": [],
      "name": "CMTAT_MintModule_TosValueslengthMismatch",
      "type": "error"
    },
    {
      "inputs": [],
      "name": "CMTAT_PauseModule_ContractIsDeactivated",
      "type": "error"
    },
    {
      "inputs": [],
      "name": "CMTAT_SnapshotModule_SameValue",
      "type": "error"
    },
    {
      "inputs": [],
      "name": "CMTAT_ValidationModule_SameValue",
      "type": "error"
    },
    {
      "inputs": [
        {
          "internalType": "address",
          "name": "spender",
          "type": "address"
        },
        {
          "internalType": "uint256",
          "name": "allowance",
          "type": "uint256"
        },
        {
          "internalType": "uint256",
          "name": "needed",
          "type": "uint256"
        }
      ],
      "name": "ERC20InsufficientAllowance",
      "type": "error"
    },
    {
      "inputs": [
        {
          "internalType": "address",
          "name": "sender",
          "type": "address"
        },
        {
          "internalType": "uint256",
          "name": "balance",
          "type": "uint256"
        },
        {
          "internalType": "uint256",
          "name": "needed",
          "type": "uint256"
        }
      ],
      "name": "ERC20InsufficientBalance",
      "type": "error"
    },
    {
      "inputs": [
        {
          "internalType": "address",
          "name": "approver",
          "type": "address"
        }
      ],
      "name": "ERC20InvalidApprover",
      "type": "error"
    },
    {
      "inputs": [
        {
          "internalType": "address",
          "name": "receiver",
          "type": "address"
        }
      ],
      "name": "ERC20InvalidReceiver",
      "type": "error"
    },
    {
      "inputs": [
        {
          "internalType": "address",
          "name": "sender",
          "type": "address"
        }
      ],
      "name": "ERC20InvalidSender",
      "type": "error"
    },
    {
      "inputs": [
        {
          "internalType": "address",
          "name": "spender",
          "type": "address"
        }
      ],
      "name": "ERC20InvalidSpender",
      "type": "error"
    },
    {
      "inputs": [],
      "name": "EnforcedPause",
      "type": "error"
    },
    {
      "inputs": [],
      "name": "ExpectedPause",
      "type": "error"
    },
    {
      "inputs": [],
      "name": "InvalidInitialization",
      "type": "error"
    },
    {
      "inputs": [],
      "name": "NotInitializing",
      "type": "error"
    },
    {
      "anonymous": false,
      "inputs": [
        {
          "indexed": true,
          "internalType": "address",
          "name": "account",
          "type": "address"
        },
        {
          "indexed": true,
          "internalType": "bool",
          "name": "isFrozen",
          "type": "bool"
        },
        {
          "indexed": true,
          "internalType": "address",
          "name": "enforcer",
          "type": "address"
        },
        {
          "indexed": false,
          "internalType": "bytes",
          "name": "data",
          "type": "bytes"
        }
      ],
      "name": "AddressFrozen",
      "type": "event"
    },
    {
      "anonymous": false,
      "inputs": [
        {
          "indexed": true,
          "internalType": "address",
          "name": "owner",
          "type": "address"
        },
        {
          "indexed": true,
          "internalType": "address",
          "name": "spender",
          "type": "address"
        },
        {
          "indexed": false,
          "internalType": "uint256",
          "name": "value",
          "type": "uint256"
        }
      ],
      "name": "Approval",
      "type": "event"
    },
    {
      "anonymous": false,
      "inputs": [
        {
          "indexed": true,
          "internalType": "address",
          "name": "burner",
          "type": "address"
        },
        {
          "indexed": false,
          "internalType": "address[]",
          "name": "accounts",
          "type": "address[]"
        },
        {
          "indexed": false,
          "internalType": "uint256[]",
          "name": "values",
          "type": "uint256[]"
        },
        {
          "indexed": false,
          "internalType": "bytes",
          "name": "data",
          "type": "bytes"
        }
      ],
      "name": "BatchBurn",
      "type": "event"
    },
    {
      "anonymous": false,
      "inputs": [
        {
          "indexed": true,
          "internalType": "address",
          "name": "minter",
          "type": "address"
        },
        {
          "indexed": false,
          "internalType": "address[]",
          "name": "accounts",
          "type": "address[]"
        },
        {
          "indexed": false,
          "internalType": "uint256[]",
          "name": "values",
          "type": "uint256[]"
        }
      ],
      "name": "BatchMint",
      "type": "event"
    },
    {
      "anonymous": false,
      "inputs": [
        {
          "indexed": true,
          "internalType": "address",
          "name": "burner",
          "type": "address"
        },
        {
          "indexed": true,
          "internalType": "address",
          "name": "account",
          "type": "address"
        },
        {
          "indexed": false,
          "internalType": "uint256",
          "name": "value",
          "type": "uint256"
        },
        {
          "indexed": false,
          "internalType": "bytes",
          "name": "data",
          "type": "bytes"
        }
      ],
      "name": "Burn",
      "type": "event"
    },
    {
      "anonymous": false,
      "inputs": [],
      "name": "CreditEventsLogEvent",
      "type": "event"
    },
    {
      "anonymous": false,
      "inputs": [
        {
          "indexed": false,
          "internalType": "address",
          "name": "account",
          "type": "address"
        }
      ],
      "name": "Deactivated",
      "type": "event"
    },
    {
      "anonymous": false,
      "inputs": [
        {
          "indexed": true,
          "internalType": "contract IDebtEngine",
          "name": "newDebtEngine",
          "type": "address"
        }
      ],
      "name": "DebtEngine",
      "type": "event"
    },
    {
      "anonymous": false,
      "inputs": [],
      "name": "DebtInstrumentLogEvent",
      "type": "event"
    },
    {
      "anonymous": false,
      "inputs": [],
      "name": "DebtLogEvent",
      "type": "event"
    },
    {
      "anonymous": false,
      "inputs": [
        {
          "indexed": true,
          "internalType": "contract IERC1643",
          "name": "newDocumentEngine",
          "type": "address"
        }
      ],
      "name": "DocumentEngine",
      "type": "event"
    },
    {
      "anonymous": false,
      "inputs": [
        {
          "indexed": true,
          "internalType": "address",
          "name": "enforcer",
          "type": "address"
        },
        {
          "indexed": true,
          "internalType": "address",
          "name": "account",
          "type": "address"
        },
        {
          "indexed": false,
          "internalType": "uint256",
          "name": "amount",
          "type": "uint256"
        },
        {
          "indexed": false,
          "internalType": "bytes",
          "name": "data",
          "type": "bytes"
        }
      ],
      "name": "Enforcement",
      "type": "event"
    },
    {
      "anonymous": false,
      "inputs": [
        {
          "indexed": false,
          "internalType": "string",
          "name": "newInformation",
          "type": "string"
        }
      ],
      "name": "Information",
      "type": "event"
    },
    {
      "anonymous": false,
      "inputs": [
        {
          "indexed": false,
          "internalType": "uint64",
          "name": "version",
          "type": "uint64"
        }
      ],
      "name": "Initialized",
      "type": "event"
    },
    {
      "anonymous": false,
      "inputs": [
        {
          "indexed": true,
          "internalType": "address",
          "name": "minter",
          "type": "address"
        },
        {
          "indexed": true,
          "internalType": "address",
          "name": "account",
          "type": "address"
        },
        {
          "indexed": false,
          "internalType": "uint256",
          "name": "value",
          "type": "uint256"
        },
        {
          "indexed": false,
          "internalType": "bytes",
          "name": "data",
          "type": "bytes"
        }
      ],
      "name": "Mint",
      "type": "event"
    },
    {
      "anonymous": false,
      "inputs": [
        {
          "indexed": true,
          "internalType": "string",
          "name": "newNameIndexed",
          "type": "string"
        },
        {
          "indexed": false,
          "internalType": "string",
          "name": "newName",
          "type": "string"
        }
      ],
      "name": "Name",
      "type": "event"
    },
    {
      "anonymous": false,
      "inputs": [
        {
          "indexed": false,
          "internalType": "address",
          "name": "account",
          "type": "address"
        }
      ],
      "name": "Paused",
      "type": "event"
    },
    {
      "anonymous": false,
      "inputs": [
        {
          "indexed": true,
          "internalType": "bytes32",
          "name": "role",
          "type": "bytes32"
        },
        {
          "indexed": true,
          "internalType": "bytes32",
          "name": "previousAdminRole",
          "type": "bytes32"
        },
        {
          "indexed": true,
          "internalType": "bytes32",
          "name": "newAdminRole",
          "type": "bytes32"
        }
      ],
      "name": "RoleAdminChanged",
      "type": "event"
    },
    {
      "anonymous": false,
      "inputs": [
        {
          "indexed": true,
          "internalType": "bytes32",
          "name": "role",
          "type": "bytes32"
        },
        {
          "indexed": true,
          "internalType": "address",
          "name": "account",
          "type": "address"
        },
        {
          "indexed": true,
          "internalType": "address",
          "name": "sender",
          "type": "address"
        }
      ],
      "name": "RoleGranted",
      "type": "event"
    },
    {
      "anonymous": false,
      "inputs": [
        {
          "indexed": true,
          "internalType": "bytes32",
          "name": "role",
          "type": "bytes32"
        },
        {
          "indexed": true,
          "internalType": "address",
          "name": "account",
          "type": "address"
        },
        {
          "indexed": true,
          "internalType": "address",
          "name": "sender",
          "type": "address"
        }
      ],
      "name": "RoleRevoked",
      "type": "event"
    },
    {
      "anonymous": false,
      "inputs": [
        {
          "indexed": true,
          "internalType": "contract IRuleEngine",
          "name": "newRuleEngine",
          "type": "address"
        }
      ],
      "name": "RuleEngine",
      "type": "event"
    },
    {
      "anonymous": false,
      "inputs": [
        {
          "indexed": true,
          "internalType": "contract ISnapshotEngine",
          "name": "newSnapshotEngine",
          "type": "address"
        }
      ],
      "name": "SnapshotEngine",
      "type": "event"
    },
    {
      "anonymous": false,
      "inputs": [
        {
          "indexed": true,
          "internalType": "address",
          "name": "account",
          "type": "address"
        },
        {
          "indexed": true,
          "internalType": "address",
          "name": "spender",
          "type": "address"
        },
        {
          "indexed": false,
          "internalType": "uint256",
          "name": "value",
          "type": "uint256"
        }
      ],
      "name": "Spend",
      "type": "event"
    },
    {
      "anonymous": false,
      "inputs": [
        {
          "indexed": true,
          "internalType": "string",
          "name": "newSymbolIndexed",
          "type": "string"
        },
        {
          "indexed": false,
          "internalType": "string",
          "name": "newSymbol",
          "type": "string"
        }
      ],
      "name": "Symbol",
      "type": "event"
    },
    {
      "anonymous": false,
      "inputs": [
        {
          "components": [
            {
              "internalType": "string",
              "name": "name",
              "type": "string"
            },
            {
              "components": [
                {
                  "internalType": "string",
                  "name": "uri",
                  "type": "string"
                },
                {
                  "internalType": "bytes32",
                  "name": "documentHash",
                  "type": "bytes32"
                },
                {
                  "internalType": "uint256",
                  "name": "lastModified",
                  "type": "uint256"
                }
              ],
              "internalType": "struct IERC1643.Document",
              "name": "doc",
              "type": "tuple"
            }
          ],
          "indexed": false,
          "internalType": "struct ICMTATBase.Terms",
          "name": "newTerm",
          "type": "tuple"
        }
      ],
      "name": "Term",
      "type": "event"
    },
    {
      "anonymous": false,
      "inputs": [
        {
          "indexed": true,
          "internalType": "string",
          "name": "newTokenIdIndexed",
          "type": "string"
        },
        {
          "indexed": false,
          "internalType": "string",
          "name": "newTokenId",
          "type": "string"
        }
      ],
      "name": "TokenId",
      "type": "event"
    },
    {
      "anonymous": false,
      "inputs": [
        {
          "indexed": true,
          "internalType": "address",
          "name": "account",
          "type": "address"
        },
        {
          "indexed": false,
          "internalType": "uint256",
          "name": "value",
          "type": "uint256"
        },
        {
          "indexed": false,
          "internalType": "bytes",
          "name": "data",
          "type": "bytes"
        }
      ],
      "name": "TokensFrozen",
      "type": "event"
    },
    {
      "anonymous": false,
      "inputs": [
        {
          "indexed": true,
          "internalType": "address",
          "name": "account",
          "type": "address"
        },
        {
          "indexed": false,
          "internalType": "uint256",
          "name": "value",
          "type": "uint256"
        },
        {
          "indexed": false,
          "internalType": "bytes",
          "name": "data",
          "type": "bytes"
        }
      ],
      "name": "TokensUnfrozen",
      "type": "event"
    },
    {
      "anonymous": false,
      "inputs": [
        {
          "indexed": true,
          "internalType": "address",
          "name": "from",
          "type": "address"
        },
        {
          "indexed": true,
          "internalType": "address",
          "name": "to",
          "type": "address"
        },
        {
          "indexed": false,
          "internalType": "uint256",
          "name": "value",
          "type": "uint256"
        }
      ],
      "name": "Transfer",
      "type": "event"
    },
    {
      "anonymous": false,
      "inputs": [
        {
          "indexed": false,
          "internalType": "address",
          "name": "account",
          "type": "address"
        }
      ],
      "name": "Unpaused",
      "type": "event"
    },
    {
      "inputs": [],
      "name": "BURNER_ROLE",
      "outputs": [
        {
          "internalType": "bytes32",
          "name": "",
          "type": "bytes32"
        }
      ],
      "stateMutability": "view",
      "type": "function"
    },
    {
      "inputs": [],
      "name": "DEBT_ROLE",
      "outputs": [
        {
          "internalType": "bytes32",
          "name": "",
          "type": "bytes32"
        }
      ],
      "stateMutability": "view",
      "type": "function"
    },
    {
      "inputs": [],
      "name": "DEFAULT_ADMIN_ROLE",
      "outputs": [
        {
          "internalType": "bytes32",
          "name": "",
          "type": "bytes32"
        }
      ],
      "stateMutability": "view",
      "type": "function"
    },
    {
      "inputs": [],
      "name": "DOCUMENT_ROLE",
      "outputs": [
        {
          "internalType": "bytes32",
          "name": "",
          "type": "bytes32"
        }
      ],
      "stateMutability": "view",
      "type": "function"
    },
    {
      "inputs": [],
      "name": "ENFORCER_ROLE",
      "outputs": [
        {
          "internalType": "bytes32",
          "name": "",
          "type": "bytes32"
        }
      ],
      "stateMutability": "view",
      "type": "function"
    },
    {
      "inputs": [],
      "name": "ERC20ENFORCER_ROLE",
      "outputs": [
        {
          "internalType": "bytes32",
          "name": "",
          "type": "bytes32"
        }
      ],
      "stateMutability": "view",
      "type": "function"
    },
    {
      "inputs": [],
      "name": "EXTRA_INFORMATION_ROLE",
      "outputs": [
        {
          "internalType": "bytes32",
          "name": "",
          "type": "bytes32"
        }
      ],
      "stateMutability": "view",
      "type": "function"
    },
    {
      "inputs": [],
      "name": "MINTER_ROLE",
      "outputs": [
        {
          "internalType": "bytes32",
          "name": "",
          "type": "bytes32"
        }
      ],
      "stateMutability": "view",
      "type": "function"
    },
    {
      "inputs": [],
      "name": "PAUSER_ROLE",
      "outputs": [
        {
          "internalType": "bytes32",
          "name": "",
          "type": "bytes32"
        }
      ],
      "stateMutability": "view",
      "type": "function"
    },
    {
      "inputs": [],
      "name": "SNAPSHOOTER_ROLE",
      "outputs": [
        {
          "internalType": "bytes32",
          "name": "",
          "type": "bytes32"
        }
      ],
      "stateMutability": "view",
      "type": "function"
    },
    {
      "inputs": [
        {
          "internalType": "address",
          "name": "owner",
          "type": "address"
        },
        {
          "internalType": "address",
          "name": "spender",
          "type": "address"
        }
      ],
      "name": "allowance",
      "outputs": [
        {
          "internalType": "uint256",
          "name": "",
          "type": "uint256"
        }
      ],
      "stateMutability": "view",
      "type": "function"
    },
    {
      "inputs": [
        {
          "internalType": "address",
          "name": "spender",
          "type": "address"
        },
        {
          "internalType": "uint256",
          "name": "value",
          "type": "uint256"
        }
      ],
      "name": "approve",
      "outputs": [
        {
          "internalType": "bool",
          "name": "",
          "type": "bool"
        }
      ],
      "stateMutability": "nonpayable",
      "type": "function"
    },
    {
      "inputs": [
        {
          "internalType": "address",
          "name": "account",
          "type": "address"
        }
      ],
      "name": "balanceOf",
      "outputs": [
        {
          "internalType": "uint256",
          "name": "",
          "type": "uint256"
        }
      ],
      "stateMutability": "view",
      "type": "function"
    },
    {
      "inputs": [
        {
          "internalType": "address[]",
          "name": "addresses",
          "type": "address[]"
        }
      ],
      "name": "batchBalanceOf",
      "outputs": [
        {
          "internalType": "uint256[]",
          "name": "balances",
          "type": "uint256[]"
        },
        {
          "internalType": "uint256",
          "name": "totalSupply_",
          "type": "uint256"
        }
      ],
      "stateMutability": "view",
      "type": "function"
    },
    {
      "inputs": [
        {
          "internalType": "address[]",
          "name": "accounts",
          "type": "address[]"
        },
        {
          "internalType": "uint256[]",
          "name": "values",
          "type": "uint256[]"
        }
      ],
      "name": "batchBurn",
      "outputs": [],
      "stateMutability": "nonpayable",
      "type": "function"
    },
    {
      "inputs": [
        {
          "internalType": "address[]",
          "name": "accounts",
          "type": "address[]"
        },
        {
          "internalType": "uint256[]",
          "name": "values",
          "type": "uint256[]"
        },
        {
          "internalType": "bytes",
          "name": "data",
          "type": "bytes"
        }
      ],
      "name": "batchBurn",
      "outputs": [],
      "stateMutability": "nonpayable",
      "type": "function"
    },
    {
      "inputs": [
        {
          "internalType": "address[]",
          "name": "accounts",
          "type": "address[]"
        },
        {
          "internalType": "uint256[]",
          "name": "values",
          "type": "uint256[]"
        }
      ],
      "name": "batchMint",
      "outputs": [],
      "stateMutability": "nonpayable",
      "type": "function"
    },
    {
      "inputs": [
        {
          "internalType": "address[]",
          "name": "accounts",
          "type": "address[]"
        },
        {
          "internalType": "bool[]",
          "name": "freezes",
          "type": "bool[]"
        }
      ],
      "name": "batchSetAddressFrozen",
      "outputs": [],
      "stateMutability": "nonpayable",
      "type": "function"
    },
    {
      "inputs": [
        {
          "internalType": "address[]",
          "name": "tos",
          "type": "address[]"
        },
        {
          "internalType": "uint256[]",
          "name": "values",
          "type": "uint256[]"
        }
      ],
      "name": "batchTransfer",
      "outputs": [
        {
          "internalType": "bool",
          "name": "success_",
          "type": "bool"
        }
      ],
      "stateMutability": "nonpayable",
      "type": "function"
    },
    {
      "inputs": [
        {
          "internalType": "address",
          "name": "account",
          "type": "address"
        },
        {
          "internalType": "uint256",
          "name": "value",
          "type": "uint256"
        },
        {
          "internalType": "bytes",
          "name": "data",
          "type": "bytes"
        }
      ],
      "name": "burn",
      "outputs": [],
      "stateMutability": "nonpayable",
      "type": "function"
    },
    {
      "inputs": [
        {
          "internalType": "address",
          "name": "account",
          "type": "address"
        },
        {
          "internalType": "uint256",
          "name": "value",
          "type": "uint256"
        }
      ],
      "name": "burn",
      "outputs": [],
      "stateMutability": "nonpayable",
      "type": "function"
    },
    {
      "inputs": [
        {
          "internalType": "address",
          "name": "from",
          "type": "address"
        },
        {
          "internalType": "address",
          "name": "to",
          "type": "address"
        },
        {
          "internalType": "uint256",
          "name": "amountToBurn",
          "type": "uint256"
        },
        {
          "internalType": "uint256",
          "name": "amountToMint",
          "type": "uint256"
        },
        {
          "internalType": "bytes",
          "name": "data",
          "type": "bytes"
        }
      ],
      "name": "burnAndMint",
      "outputs": [],
      "stateMutability": "nonpayable",
      "type": "function"
    },
    {
      "inputs": [
        {
          "internalType": "address",
          "name": "from",
          "type": "address"
        },
        {
          "internalType": "address",
          "name": "to",
          "type": "address"
        },
        {
          "internalType": "uint256",
          "name": "value",
          "type": "uint256"
        }
      ],
      "name": "canTransfer",
      "outputs": [
        {
          "internalType": "bool",
          "name": "",
          "type": "bool"
        }
      ],
      "stateMutability": "view",
      "type": "function"
    },
    {
      "inputs": [
        {
          "internalType": "address",
          "name": "spender",
          "type": "address"
        },
        {
          "internalType": "address",
          "name": "from",
          "type": "address"
        },
        {
          "internalType": "address",
          "name": "to",
          "type": "address"
        },
        {
          "internalType": "uint256",
          "name": "value",
          "type": "uint256"
        }
      ],
      "name": "canTransferFrom",
      "outputs": [
        {
          "internalType": "bool",
          "name": "",
          "type": "bool"
        }
      ],
      "stateMutability": "view",
      "type": "function"
    },
    {
      "inputs": [],
      "name": "creditEvents",
      "outputs": [
        {
          "components": [
            {
              "internalType": "bool",
              "name": "flagDefault",
              "type": "bool"
            },
            {
              "internalType": "bool",
              "name": "flagRedeemed",
              "type": "bool"
            },
            {
              "internalType": "string",
              "name": "rating",
              "type": "string"
            }
          ],
          "internalType": "struct ICMTATCreditEvents.CreditEvents",
          "name": "creditEvents_",
          "type": "tuple"
        }
      ],
      "stateMutability": "view",
      "type": "function"
    },
    {
      "inputs": [],
      "name": "deactivateContract",
      "outputs": [],
      "stateMutability": "nonpayable",
      "type": "function"
    },
    {
      "inputs": [],
      "name": "deactivated",
      "outputs": [
        {
          "internalType": "bool",
          "name": "",
          "type": "bool"
        }
      ],
      "stateMutability": "view",
      "type": "function"
    },
    {
      "inputs": [],
      "name": "debt",
      "outputs": [
        {
          "components": [
            {
              "components": [
                {
                  "internalType": "string",
                  "name": "issuerName",
                  "type": "string"
                },
                {
                  "internalType": "string",
                  "name": "issuerDescription",
                  "type": "string"
                },
                {
                  "internalType": "string",
                  "name": "guarantor",
                  "type": "string"
                },
                {
                  "internalType": "string",
                  "name": "debtHolder",
                  "type": "string"
                }
              ],
              "internalType": "struct ICMTATDebt.DebtIdentifier",
              "name": "debtIdentifier",
              "type": "tuple"
            },
            {
              "components": [
                {
                  "internalType": "uint256",
                  "name": "interestRate",
                  "type": "uint256"
                },
                {
                  "internalType": "uint256",
                  "name": "parValue",
                  "type": "uint256"
                },
                {
                  "internalType": "uint256",
                  "name": "minimumDenomination",
                  "type": "uint256"
                },
                {
                  "internalType": "string",
                  "name": "issuanceDate",
                  "type": "string"
                },
                {
                  "internalType": "string",
                  "name": "maturityDate",
                  "type": "string"
                },
                {
                  "internalType": "string",
                  "name": "couponPaymentFrequency",
                  "type": "string"
                },
                {
                  "internalType": "string",
                  "name": "interestScheduleFormat",
                  "type": "string"
                },
                {
                  "internalType": "string",
                  "name": "interestPaymentDate",
                  "type": "string"
                },
                {
                  "internalType": "string",
                  "name": "dayCountConvention",
                  "type": "string"
                },
                {
                  "internalType": "string",
                  "name": "businessDayConvention",
                  "type": "string"
                },
                {
                  "internalType": "string",
                  "name": "currency",
                  "type": "string"
                },
                {
                  "internalType": "address",
                  "name": "currencyContract",
                  "type": "address"
                }
              ],
              "internalType": "struct ICMTATDebt.DebtInstrument",
              "name": "debtInstrument",
              "type": "tuple"
            }
          ],
          "internalType": "struct ICMTATDebt.DebtInformation",
          "name": "debtInformation_",
          "type": "tuple"
        }
      ],
      "stateMutability": "view",
      "type": "function"
    },
    {
      "inputs": [],
      "name": "debtEngine",
      "outputs": [
        {
          "internalType": "contract IDebtEngine",
          "name": "debtEngine_",
          "type": "address"
        }
      ],
      "stateMutability": "view",
      "type": "function"
    },
    {
      "inputs": [],
      "name": "decimals",
      "outputs": [
        {
          "internalType": "uint8",
          "name": "",
          "type": "uint8"
        }
      ],
      "stateMutability": "view",
      "type": "function"
    },
    {
      "inputs": [],
      "name": "documentEngine",
      "outputs": [
        {
          "internalType": "contract IERC1643",
          "name": "documentEngine_",
          "type": "address"
        }
      ],
      "stateMutability": "view",
      "type": "function"
    },
    {
      "inputs": [
        {
          "internalType": "address",
          "name": "from",
          "type": "address"
        },
        {
          "internalType": "address",
          "name": "to",
          "type": "address"
        },
        {
          "internalType": "uint256",
          "name": "value",
          "type": "uint256"
        },
        {
          "internalType": "bytes",
          "name": "data",
          "type": "bytes"
        }
      ],
      "name": "forcedTransfer",
      "outputs": [
        {
          "internalType": "bool",
          "name": "",
          "type": "bool"
        }
      ],
      "stateMutability": "nonpayable",
      "type": "function"
    },
    {
      "inputs": [
        {
          "internalType": "address",
          "name": "from",
          "type": "address"
        },
        {
          "internalType": "address",
          "name": "to",
          "type": "address"
        },
        {
          "internalType": "uint256",
          "name": "value",
          "type": "uint256"
        }
      ],
      "name": "forcedTransfer",
      "outputs": [
        {
          "internalType": "bool",
          "name": "",
          "type": "bool"
        }
      ],
      "stateMutability": "nonpayable",
      "type": "function"
    },
    {
      "inputs": [
        {
          "internalType": "address",
          "name": "account",
          "type": "address"
        },
        {
          "internalType": "uint256",
          "name": "value",
          "type": "uint256"
        }
      ],
      "name": "freezePartialTokens",
      "outputs": [],
      "stateMutability": "nonpayable",
      "type": "function"
    },
    {
      "inputs": [
        {
          "internalType": "address",
          "name": "account",
          "type": "address"
        },
        {
          "internalType": "uint256",
          "name": "value",
          "type": "uint256"
        },
        {
          "internalType": "bytes",
          "name": "data",
          "type": "bytes"
        }
      ],
      "name": "freezePartialTokens",
      "outputs": [],
      "stateMutability": "nonpayable",
      "type": "function"
    },
    {
      "inputs": [
        {
          "internalType": "address",
          "name": "account",
          "type": "address"
        }
      ],
      "name": "getActiveBalanceOf",
      "outputs": [
        {
          "internalType": "uint256",
          "name": "",
          "type": "uint256"
        }
      ],
      "stateMutability": "view",
      "type": "function"
    },
    {
      "inputs": [],
      "name": "getAllDocuments",
      "outputs": [
        {
          "internalType": "string[]",
          "name": "documentNames_",
          "type": "string[]"
        }
      ],
      "stateMutability": "view",
      "type": "function"
    },
    {
      "inputs": [
        {
          "internalType": "string",
          "name": "name",
          "type": "string"
        }
      ],
      "name": "getDocument",
      "outputs": [
        {
          "components": [
            {
              "internalType": "string",
              "name": "uri",
              "type": "string"
            },
            {
              "internalType": "bytes32",
              "name": "documentHash",
              "type": "bytes32"
            },
            {
              "internalType": "uint256",
              "name": "lastModified",
              "type": "uint256"
            }
          ],
          "internalType": "struct IERC1643.Document",
          "name": "document",
          "type": "tuple"
        }
      ],
      "stateMutability": "view",
      "type": "function"
    },
    {
      "inputs": [
        {
          "internalType": "address",
          "name": "account",
          "type": "address"
        }
      ],
      "name": "getFrozenTokens",
      "outputs": [
        {
          "internalType": "uint256",
          "name": "",
          "type": "uint256"
        }
      ],
      "stateMutability": "view",
      "type": "function"
    },
    {
      "inputs": [
        {
          "internalType": "bytes32",
          "name": "role",
          "type": "bytes32"
        }
      ],
      "name": "getRoleAdmin",
      "outputs": [
        {
          "internalType": "bytes32",
          "name": "",
          "type": "bytes32"
        }
      ],
      "stateMutability": "view",
      "type": "function"
    },
    {
      "inputs": [
        {
          "internalType": "bytes32",
          "name": "role",
          "type": "bytes32"
        },
        {
          "internalType": "address",
          "name": "account",
          "type": "address"
        }
      ],
      "name": "grantRole",
      "outputs": [],
      "stateMutability": "nonpayable",
      "type": "function"
    },
    {
      "inputs": [
        {
          "internalType": "bytes32",
          "name": "role",
          "type": "bytes32"
        },
        {
          "internalType": "address",
          "name": "account",
          "type": "address"
        }
      ],
      "name": "hasRole",
      "outputs": [
        {
          "internalType": "bool",
          "name": "",
          "type": "bool"
        }
      ],
      "stateMutability": "view",
      "type": "function"
    },
    {
      "inputs": [],
      "name": "information",
      "outputs": [
        {
          "internalType": "string",
          "name": "information_",
          "type": "string"
        }
      ],
      "stateMutability": "view",
      "type": "function"
    },
    {
      "inputs": [
        {
          "internalType": "address",
          "name": "admin",
          "type": "address"
        },
        {
          "components": [
            {
              "internalType": "string",
              "name": "name",
              "type": "string"
            },
            {
              "internalType": "string",
              "name": "symbol",
              "type": "string"
            },
            {
              "internalType": "uint8",
              "name": "decimalsIrrevocable",
              "type": "uint8"
            }
          ],
          "internalType": "struct ICMTATConstructor.ERC20Attributes",
          "name": "ERC20Attributes_",
          "type": "tuple"
        },
        {
          "components": [
            {
              "internalType": "string",
              "name": "tokenId",
              "type": "string"
            },
            {
              "components": [
                {
                  "internalType": "string",
                  "name": "name",
                  "type": "string"
                },
                {
                  "internalType": "string",
                  "name": "uri",
                  "type": "string"
                },
                {
                  "internalType": "bytes32",
                  "name": "documentHash",
                  "type": "bytes32"
                }
              ],
              "internalType": "struct IERC1643CMTAT.DocumentInfo",
              "name": "terms",
              "type": "tuple"
            },
            {
              "internalType": "string",
              "name": "information",
              "type": "string"
            }
          ],
          "internalType": "struct ICMTATConstructor.ExtraInformationAttributes",
          "name": "extraInformationAttributes_",
          "type": "tuple"
        },
        {
          "components": [
            {
              "internalType": "contract IRuleEngine",
              "name": "ruleEngine",
              "type": "address"
            },
            {
              "internalType": "contract ISnapshotEngine",
              "name": "snapshotEngine",
              "type": "address"
            },
            {
              "internalType": "contract IERC1643",
              "name": "documentEngine",
              "type": "address"
            }
          ],
          "internalType": "struct ICMTATConstructor.Engine",
          "name": "engines_",
          "type": "tuple"
        }
      ],
      "name": "initialize",
      "outputs": [],
      "stateMutability": "nonpayable",
      "type": "function"
    },
    {
      "inputs": [
        {
          "internalType": "address",
          "name": "account",
          "type": "address"
        }
      ],
      "name": "isFrozen",
      "outputs": [
        {
          "internalType": "bool",
          "name": "isFrozen_",
          "type": "bool"
        }
      ],
      "stateMutability": "view",
      "type": "function"
    },
    {
      "inputs": [
        {
          "internalType": "address",
          "name": "account",
          "type": "address"
        },
        {
          "internalType": "uint256",
          "name": "value",
          "type": "uint256"
        }
      ],
      "name": "mint",
      "outputs": [],
      "stateMutability": "nonpayable",
      "type": "function"
    },
    {
      "inputs": [
        {
          "internalType": "address",
          "name": "account",
          "type": "address"
        },
        {
          "internalType": "uint256",
          "name": "value",
          "type": "uint256"
        },
        {
          "internalType": "bytes",
          "name": "data",
          "type": "bytes"
        }
      ],
      "name": "mint",
      "outputs": [],
      "stateMutability": "nonpayable",
      "type": "function"
    },
    {
      "inputs": [],
      "name": "name",
      "outputs": [
        {
          "internalType": "string",
          "name": "",
          "type": "string"
        }
      ],
      "stateMutability": "view",
      "type": "function"
    },
    {
      "inputs": [],
      "name": "pause",
      "outputs": [],
      "stateMutability": "nonpayable",
      "type": "function"
    },
    {
      "inputs": [],
      "name": "paused",
      "outputs": [
        {
          "internalType": "bool",
          "name": "",
          "type": "bool"
        }
      ],
      "stateMutability": "view",
      "type": "function"
    },
    {
      "inputs": [
        {
          "internalType": "bytes32",
          "name": "role",
          "type": "bytes32"
        },
        {
          "internalType": "address",
          "name": "callerConfirmation",
          "type": "address"
        }
      ],
      "name": "renounceRole",
      "outputs": [],
      "stateMutability": "nonpayable",
      "type": "function"
    },
    {
      "inputs": [
        {
          "internalType": "bytes32",
          "name": "role",
          "type": "bytes32"
        },
        {
          "internalType": "address",
          "name": "account",
          "type": "address"
        }
      ],
      "name": "revokeRole",
      "outputs": [],
      "stateMutability": "nonpayable",
      "type": "function"
    },
    {
      "inputs": [],
      "name": "ruleEngine",
      "outputs": [
        {
          "internalType": "contract IRuleEngine",
          "name": "",
          "type": "address"
        }
      ],
      "stateMutability": "view",
      "type": "function"
    },
    {
      "inputs": [
        {
          "internalType": "address",
          "name": "account",
          "type": "address"
        },
        {
          "internalType": "bool",
          "name": "freeze",
          "type": "bool"
        },
        {
          "internalType": "bytes",
          "name": "data",
          "type": "bytes"
        }
      ],
      "name": "setAddressFrozen",
      "outputs": [],
      "stateMutability": "nonpayable",
      "type": "function"
    },
    {
      "inputs": [
        {
          "internalType": "address",
          "name": "account",
          "type": "address"
        },
        {
          "internalType": "bool",
          "name": "freeze",
          "type": "bool"
        }
      ],
      "name": "setAddressFrozen",
      "outputs": [],
      "stateMutability": "nonpayable",
      "type": "function"
    },
    {
      "inputs": [
        {
          "components": [
            {
              "internalType": "bool",
              "name": "flagDefault",
              "type": "bool"
            },
            {
              "internalType": "bool",
              "name": "flagRedeemed",
              "type": "bool"
            },
            {
              "internalType": "string",
              "name": "rating",
              "type": "string"
            }
          ],
          "internalType": "struct ICMTATCreditEvents.CreditEvents",
          "name": "creditEvents_",
          "type": "tuple"
        }
      ],
      "name": "setCreditEvents",
      "outputs": [],
      "stateMutability": "nonpayable",
      "type": "function"
    },
    {
      "inputs": [
        {
          "components": [
            {
              "components": [
                {
                  "internalType": "string",
                  "name": "issuerName",
                  "type": "string"
                },
                {
                  "internalType": "string",
                  "name": "issuerDescription",
                  "type": "string"
                },
                {
                  "internalType": "string",
                  "name": "guarantor",
                  "type": "string"
                },
                {
                  "internalType": "string",
                  "name": "debtHolder",
                  "type": "string"
                }
              ],
              "internalType": "struct ICMTATDebt.DebtIdentifier",
              "name": "debtIdentifier",
              "type": "tuple"
            },
            {
              "components": [
                {
                  "internalType": "uint256",
                  "name": "interestRate",
                  "type": "uint256"
                },
                {
                  "internalType": "uint256",
                  "name": "parValue",
                  "type": "uint256"
                },
                {
                  "internalType": "uint256",
                  "name": "minimumDenomination",
                  "type": "uint256"
                },
                {
                  "internalType": "string",
                  "name": "issuanceDate",
                  "type": "string"
                },
                {
                  "internalType": "string",
                  "name": "maturityDate",
                  "type": "string"
                },
                {
                  "internalType": "string",
                  "name": "couponPaymentFrequency",
                  "type": "string"
                },
                {
                  "internalType": "string",
                  "name": "interestScheduleFormat",
                  "type": "string"
                },
                {
                  "internalType": "string",
                  "name": "interestPaymentDate",
                  "type": "string"
                },
                {
                  "internalType": "string",
                  "name": "dayCountConvention",
                  "type": "string"
                },
                {
                  "internalType": "string",
                  "name": "businessDayConvention",
                  "type": "string"
                },
                {
                  "internalType": "string",
                  "name": "currency",
                  "type": "string"
                },
                {
                  "internalType": "address",
                  "name": "currencyContract",
                  "type": "address"
                }
              ],
              "internalType": "struct ICMTATDebt.DebtInstrument",
              "name": "debtInstrument",
              "type": "tuple"
            }
          ],
          "internalType": "struct ICMTATDebt.DebtInformation",
          "name": "debt_",
          "type": "tuple"
        }
      ],
      "name": "setDebt",
      "outputs": [],
      "stateMutability": "nonpayable",
      "type": "function"
    },
    {
      "inputs": [
        {
          "internalType": "contract IDebtEngine",
          "name": "debtEngine_",
          "type": "address"
        }
      ],
      "name": "setDebtEngine",
      "outputs": [],
      "stateMutability": "nonpayable",
      "type": "function"
    },
    {
      "inputs": [
        {
          "components": [
            {
              "internalType": "uint256",
              "name": "interestRate",
              "type": "uint256"
            },
            {
              "internalType": "uint256",
              "name": "parValue",
              "type": "uint256"
            },
            {
              "internalType": "uint256",
              "name": "minimumDenomination",
              "type": "uint256"
            },
            {
              "internalType": "string",
              "name": "issuanceDate",
              "type": "string"
            },
            {
              "internalType": "string",
              "name": "maturityDate",
              "type": "string"
            },
            {
              "internalType": "string",
              "name": "couponPaymentFrequency",
              "type": "string"
            },
            {
              "internalType": "string",
              "name": "interestScheduleFormat",
              "type": "string"
            },
            {
              "internalType": "string",
              "name": "interestPaymentDate",
              "type": "string"
            },
            {
              "internalType": "string",
              "name": "dayCountConvention",
              "type": "string"
            },
            {
              "internalType": "string",
              "name": "businessDayConvention",
              "type": "string"
            },
            {
              "internalType": "string",
              "name": "currency",
              "type": "string"
            },
            {
              "internalType": "address",
              "name": "currencyContract",
              "type": "address"
            }
          ],
          "internalType": "struct ICMTATDebt.DebtInstrument",
          "name": "debtInstrument_",
          "type": "tuple"
        }
      ],
      "name": "setDebtInstrument",
      "outputs": [],
      "stateMutability": "nonpayable",
      "type": "function"
    },
    {
      "inputs": [
        {
          "internalType": "contract IERC1643",
          "name": "documentEngine_",
          "type": "address"
        }
      ],
      "name": "setDocumentEngine",
      "outputs": [],
      "stateMutability": "nonpayable",
      "type": "function"
    },
    {
      "inputs": [
        {
          "internalType": "string",
          "name": "information_",
          "type": "string"
        }
      ],
      "name": "setInformation",
      "outputs": [],
      "stateMutability": "nonpayable",
      "type": "function"
    },
    {
      "inputs": [
        {
          "internalType": "string",
          "name": "name_",
          "type": "string"
        }
      ],
      "name": "setName",
      "outputs": [],
      "stateMutability": "nonpayable",
      "type": "function"
    },
    {
      "inputs": [
        {
          "internalType": "contract IRuleEngine",
          "name": "ruleEngine_",
          "type": "address"
        }
      ],
      "name": "setRuleEngine",
      "outputs": [],
      "stateMutability": "nonpayable",
      "type": "function"
    },
    {
      "inputs": [
        {
          "internalType": "contract ISnapshotEngine",
          "name": "snapshotEngine_",
          "type": "address"
        }
      ],
      "name": "setSnapshotEngine",
      "outputs": [],
      "stateMutability": "nonpayable",
      "type": "function"
    },
    {
      "inputs": [
        {
          "internalType": "string",
          "name": "symbol_",
          "type": "string"
        }
      ],
      "name": "setSymbol",
      "outputs": [],
      "stateMutability": "nonpayable",
      "type": "function"
    },
    {
      "inputs": [
        {
          "components": [
            {
              "internalType": "string",
              "name": "name",
              "type": "string"
            },
            {
              "internalType": "string",
              "name": "uri",
              "type": "string"
            },
            {
              "internalType": "bytes32",
              "name": "documentHash",
              "type": "bytes32"
            }
          ],
          "internalType": "struct IERC1643CMTAT.DocumentInfo",
          "name": "terms_",
          "type": "tuple"
        }
      ],
      "name": "setTerms",
      "outputs": [],
      "stateMutability": "nonpayable",
      "type": "function"
    },
    {
      "inputs": [
        {
          "internalType": "string",
          "name": "tokenId_",
          "type": "string"
        }
      ],
      "name": "setTokenId",
      "outputs": [],
      "stateMutability": "nonpayable",
      "type": "function"
    },
    {
      "inputs": [],
      "name": "snapshotEngine",
      "outputs": [
        {
          "internalType": "contract ISnapshotEngine",
          "name": "",
          "type": "address"
        }
      ],
      "stateMutability": "view",
      "type": "function"
    },
    {
      "inputs": [
        {
          "internalType": "bytes4",
          "name": "interfaceId",
          "type": "bytes4"
        }
      ],
      "name": "supportsInterface",
      "outputs": [
        {
          "internalType": "bool",
          "name": "",
          "type": "bool"
        }
      ],
      "stateMutability": "view",
      "type": "function"
    },
    {
      "inputs": [],
      "name": "symbol",
      "outputs": [
        {
          "internalType": "string",
          "name": "",
          "type": "string"
        }
      ],
      "stateMutability": "view",
      "type": "function"
    },
    {
      "inputs": [],
      "name": "terms",
      "outputs": [
        {
          "components": [
            {
              "internalType": "string",
              "name": "name",
              "type": "string"
            },
            {
              "components": [
                {
                  "internalType": "string",
                  "name": "uri",
                  "type": "string"
                },
                {
                  "internalType": "bytes32",
                  "name": "documentHash",
                  "type": "bytes32"
                },
                {
                  "internalType": "uint256",
                  "name": "lastModified",
                  "type": "uint256"
                }
              ],
              "internalType": "struct IERC1643.Document",
              "name": "doc",
              "type": "tuple"
            }
          ],
          "internalType": "struct ICMTATBase.Terms",
          "name": "terms_",
          "type": "tuple"
        }
      ],
      "stateMutability": "view",
      "type": "function"
    },
    {
      "inputs": [],
      "name": "tokenId",
      "outputs": [
        {
          "internalType": "string",
          "name": "tokenId_",
          "type": "string"
        }
      ],
      "stateMutability": "view",
      "type": "function"
    },
    {
      "inputs": [],
      "name": "totalSupply",
      "outputs": [
        {
          "internalType": "uint256",
          "name": "",
          "type": "uint256"
        }
      ],
      "stateMutability": "view",
      "type": "function"
    },
    {
      "inputs": [
        {
          "internalType": "address",
          "name": "to",
          "type": "address"
        },
        {
          "internalType": "uint256",
          "name": "value",
          "type": "uint256"
        }
      ],
      "name": "transfer",
      "outputs": [
        {
          "internalType": "bool",
          "name": "",
          "type": "bool"
        }
      ],
      "stateMutability": "nonpayable",
      "type": "function"
    },
    {
      "inputs": [
        {
          "internalType": "address",
          "name": "from",
          "type": "address"
        },
        {
          "internalType": "address",
          "name": "to",
          "type": "address"
        },
        {
          "internalType": "uint256",
          "name": "value",
          "type": "uint256"
        }
      ],
      "name": "transferFrom",
      "outputs": [
        {
          "internalType": "bool",
          "name": "",
          "type": "bool"
        }
      ],
      "stateMutability": "nonpayable",
      "type": "function"
    },
    {
      "inputs": [
        {
          "internalType": "address",
          "name": "account",
          "type": "address"
        },
        {
          "internalType": "uint256",
          "name": "value",
          "type": "uint256"
        }
      ],
      "name": "unfreezePartialTokens",
      "outputs": [],
      "stateMutability": "nonpayable",
      "type": "function"
    },
    {
      "inputs": [
        {
          "internalType": "address",
          "name": "account",
          "type": "address"
        },
        {
          "internalType": "uint256",
          "name": "value",
          "type": "uint256"
        },
        {
          "internalType": "bytes",
          "name": "data",
          "type": "bytes"
        }
      ],
      "name": "unfreezePartialTokens",
      "outputs": [],
      "stateMutability": "nonpayable",
      "type": "function"
    },
    {
      "inputs": [],
      "name": "unpause",
      "outputs": [],
      "stateMutability": "nonpayable",
      "type": "function"
    },
    {
      "inputs": [],
      "name": "version",
      "outputs": [
        {
          "internalType": "string",
          "name": "version_",
          "type": "string"
        }
      ],
      "stateMutability": "view",
      "type": "function"
    }
  ],
  "bytecode": "0x608060405234801561000f575f5ffd5b50604051616d2f380380616d2f83398101604081905261002e916109b2565b61003a84848484610043565b50505050610d0c565b5f61004c610149565b805490915060ff6801000000000000000082041615906001600160401b03165f811580156100775750825b90505f826001600160401b031660011480156100925750303b155b9050811580156100a0575080155b156100be5760405163f92ee8a960e01b815260040160405180910390fd5b84546001600160401b031916600117855583156100ec57845460ff60401b1916680100000000000000001785555b6100f889898989610173565b831561013e57845460ff60401b19168555604051600181527fc7f505b2f371ae2175ee4913f4499e1f2633a7b5936321eed1cdaeb6115181d29060200160405180910390a15b505050505050505050565b5f807ff0c57e16840df040f15088dc2f81fe391c3923bec73e23a9662efc9c229c6a005b92915050565b61017b6101ae565b6101836101d5565b61018b6101d5565b6101936101dd565b61019c816101f5565b6101a88484848461020b565b50505050565b6101b661022e565b6101d357604051631afcd79f60e31b815260040160405180910390fd5b565b6101d36101ae565b6101e56101ae565b6101ed6101d5565b6101d36101d5565b6101fd6101ae565b80516102089061024c565b50565b6102136101ae565b6101a88484848460200151856040015161026c60201b60201c565b5f610237610149565b5468010000000000000000900460ff16919050565b6102546101ae565b6001600160a01b0381161561020857610208816102c4565b6102746101ae565b61027d8561032c565b604084015184516020860151610294929190610369565b8251602084015160408501516102ab9291906103d9565b6102b482610420565b6102bd81610462565b5050505050565b7f77c8cc897d160e7bf5b10921804e357da17ae27460d4a6b5d9b27ffddf159d0080546001600160a01b0319166001600160a01b03831690811782556040517f37213fe93a5aae50df0ef53f98b81c048e51b3ab2969309a103a647e44b61918905f90a25050565b6103346101ae565b6001600160a01b03811661035b5760405163011d80f760e01b815260040160405180910390fd5b6103655f826104a4565b5050565b6103716101ae565b7f9bd8d607565c0370ae5f91651ca67fd26d4438022bf72037316600e29e6a3a00805460ff191660ff85161781557f9bd8d607565c0370ae5f91651ca67fd26d4438022bf72037316600e29e6a3a026103ca8382610b32565b50600181016102bd8482610b32565b6103e16101ae565b7fd2d5d34c4a4dea00599692d3257c0aebc5e0359176118cd2364ab9b008c2d10061040c8185610545565b61041681846105a2565b6101a88183610618565b6104286101ae565b6001600160a01b03811615610208577f1387b97dfab601d3023cb57858a6be29329babb05c85597ddbe4926c1193a9006103658183610656565b61046a6101ae565b6001600160a01b03811615610208577fbd0905600c85d707dc53eba2e146c1c2527cd32ac3ff6b86846155151b3e2700610365818361069d565b5f5f516020616d0f5f395f51905f526104bd84846106e4565b61053c575f848152602082815260408083206001600160a01b03871684529091529020805460ff191660011790556104f23390565b6001600160a01b0316836001600160a01b0316857f2f8788117e7eff1d82e926ec794901d17c78024a50270940304540a733656f0d60405160405180910390a4600191505061016d565b505f9392505050565b816105508282610b32565b508060405161055f9190610bec565b60405180910390207f6403c68076c59949275ad9be2137a73c51043d7d6af6a38473047a0bc45df492826040516105969190610c02565b60405180910390a25050565b805160018301906105b39082610b32565b5060408101516003830155602081015160028301906105d29082610b32565b504260048301556040517f581e063ae59068f13a21b5707b10eee615c714e8939e873cf5b90b8254d9979c9061060c906001850190610cb6565b60405180910390a15050565b600582016106268282610b32565b507fff8fea957fb7cb582ef297c1c74436fe7a9914efbc52adf197600dc9d171efbc8160405161060c9190610c02565b81546001600160a01b0319166001600160a01b03821690811783556040517f3dc265c6e8a49e40f12f64811a094f799e44b4d033c7478793093908cbbb5bca905f90a25050565b81546001600160a01b0319166001600160a01b03821690811783556040517f24456fffb8d75313fe808b19e17ae308e592a8159329a02fb396773d5aacbd10905f90a25050565b5f6106ef83836106f6565b9392505050565b6001600160a01b0381165f9081527fb7db2dd08fcb62d0c9e08c51941cae53c267786a0b75803fb7960902fc8ef97d60205260408120546106ef90849084908490849084908490849060ff161561074f5750600161016d565b505f8281525f516020616d0f5f395f51905f52602090815260408083206001600160a01b038516845290915290205460ff1661016d565b6001600160a01b0381168114610208575f5ffd5b634e487b7160e01b5f52604160045260245ffd5b604051606081016001600160401b03811182821017156107d0576107d061079a565b60405290565b5f82601f8301126107e5575f5ffd5b81516001600160401b038111156107fe576107fe61079a565b604051601f8201601f19908116603f011681016001600160401b038111828210171561082c5761082c61079a565b604052818152838201602001851015610843575f5ffd5b8160208501602083015e5f918101602001919091529392505050565b5f6060828403121561086f575f5ffd5b6108776107ae565b82519091506001600160401b0381111561088f575f5ffd5b61089b848285016107d6565b82525060208201516001600160401b038111156108b6575f5ffd5b8201606081850312156108c7575f5ffd5b6108cf6107ae565b81516001600160401b038111156108e4575f5ffd5b6108f0868285016107d6565b82525060208201516001600160401b0381111561090b575f5ffd5b610917868285016107d6565b60208381019190915260409384015184840152840191909152508201516001600160401b03811115610947575f5ffd5b610953848285016107d6565b60408301525092915050565b5f6060828403121561096f575f5ffd5b6109776107ae565b9050815161098481610786565b8152602082015161099481610786565b602082015260408201516109a781610786565b604082015292915050565b5f5f5f5f60c085870312156109c5575f5ffd5b84516109d081610786565b60208601519094506001600160401b038111156109eb575f5ffd5b8501606081880312156109fc575f5ffd5b610a046107ae565b81516001600160401b03811115610a19575f5ffd5b610a25898285016107d6565b82525060208201516001600160401b03811115610a40575f5ffd5b610a4c898285016107d6565b6020830152506040820151915060ff82168214610a67575f5ffd5b604081810192909252908601519093506001600160401b03811115610a8a575f5ffd5b610a968782880161085f565b925050610aa6866060870161095f565b905092959194509250565b600181811c90821680610ac557607f821691505b602082108103610ae357634e487b7160e01b5f52602260045260245ffd5b50919050565b601f821115610b2d57805f5260205f20601f840160051c81016020851015610b0e5750805b601f840160051c820191505b818110156102bd575f8155600101610b1a565b505050565b81516001600160401b03811115610b4b57610b4b61079a565b610b5f81610b598454610ab1565b84610ae9565b6020601f821160018114610b91575f8315610b7a5750848201515b5f19600385901b1c1916600184901b1784556102bd565b5f84815260208120601f198516915b82811015610bc05787850151825560209485019460019092019101610ba0565b5084821015610bdd57868401515f19600387901b60f8161c191681555b50505050600190811b01905550565b5f82518060208501845e5f920191825250919050565b602081525f82518060208401528060208501604085015e5f604082850101526040601f19601f83011684010191505092915050565b5f8154610c4381610ab1565b808552600182168015610c5d5760018114610c7957610cad565b60ff1983166020870152602082151560051b8701019350610cad565b845f5260205f205f5b83811015610ca45781546020828a010152600182019150602081019050610c82565b87016020019450505b50505092915050565b60208152604060208201525f610ccf6060830184610c37565b601f1983820301604084015260608152610cef6060820160018601610c37565b600285015460208301526003909401546040909101525090919050565b615ff680610d195f395ff3fe608060405234801561000f575f5ffd5b5060043610610464575f3560e01c80637157797f1161024d578063c47f002711610140578063dcfd616f116100bf578063e46638e611610084578063e46638e614610a3a578063e583983614610a4d578063e63ab1e914610a60578063f47b774014610a87578063fcf196b414610a8f575f5ffd5b8063dcfd616f146109da578063dd347bef146109ed578063dd62ed3e14610a00578063e1833a2f14610a13578063e236aabf14610a27575f5ffd5b8063d4b54f7511610105578063d4b54f7514610978578063d50256251461098b578063d5391393146109a0578063d547741f146109b4578063d7ffbbaa146109c7575f5ffd5b8063c47f002714610923578063c69c09cf14610936578063cc7c36fe14610949578063ce34e6eb1461095d578063cf790d8d14610970575f5ffd5b80639fa5f50b116101cc578063a99ac24511610191578063a99ac245146108cf578063b170b6fe146108e2578063b1f5569f146108f5578063b84c824614610908578063bca353be1461091b575f5ffd5b80639fa5f50b1461087a5780639fc1d0e71461088f578063a217fddf146108a2578063a4a0a301146108a9578063a9059cbb146108bc575f5ffd5b80639082a6fb116102125780639082a6fb1461082657806391d148541461083957806394d008ef1461084c57806395d89b411461085f5780639dc29fac14610867575f5ffd5b80637157797f146107bb5780637ccb6a64146107ce5780637cdef83c146107ee5780638456cb591461080b57806388d695b214610813575f5ffd5b8063313ce567116103655780634d5592ea116102e45780635c975abb116102a95780635c975abb146107665780636439fd751461076e57806364f12c4814610782578063685731071461079557806370a08231146107a8575f5ffd5b80634d5592ea146107025780634ea9eab81461071557806350101d841461072857806354fd4d501461073d578063556ed30e1461075e575f5ffd5b80633f4ba83a1161032a5780633f4ba83a146106ae57806340c10f19146106b657806344d17187146106c9578063492c6610146106dc5780634a6cc677146106ef575f5ffd5b8063313ce56714610647578063334c0a6d14610661578063336110791461067457806336568abe146106875780633c626e0c1461069a575f5ffd5b806318160ddd116103f1578063246b72ec116103b6578063246b72ec146105bf578063248a9ca3146105e6578063282c51f3146105f95780632c721b981461060d5780632f2ff15d14610634575f5ffd5b806318160ddd1461054c57806318796d44146105735780631a7af379146105865780631fe56f7d1461059957806323b872dd146105ac575f5ffd5b80630dca59c1116104375780630dca59c1146104d9578063125c4a33146104ee578063158b1a57146105035780631758a8e91461052457806317d70f7c14610544575f5ffd5b806301ffc9a71461046857806306fdde0314610490578063095ea7b3146104a55780630c3cc61a146104b8575b5f5ffd5b61047b61047636600461431e565b610a97565b60405190151581526020015b60405180910390f35b610498610acd565b6040516104879190614373565b61047b6104b3366004614399565b610adc565b6104cb6104c636600461440a565b610af3565b604051610487929190614448565b6104e1610bbf565b6040516104879190614494565b6105016104fc366004614399565b610c7d565b005b61051661051136600461463f565b610cb2565b604051908152602001610487565b61052c610cbc565b6040516001600160a01b039091168152602001610487565b610498610cdd565b7f52c63247e1f47db19d5ce0460030c497f067ca4cebf71ba98eeadabe20bace0254610516565b610501610581366004614697565b610d7e565b61050161059436600461470d565b610d9e565b6105016105a7366004614399565b610dd7565b61047b6105ba366004614777565b610e07565b6105167f809a0fc49fc0600540f1d39e23454e1f6f215bc7505fa22b17c154616570ddef81565b6105166105f43660046147b5565b610e29565b6105165f516020615e215f395f51905f5281565b6105167fdd7c9aafbb91d54fb2041db1d5b172ea665309b32f5fffdbddf452802a1e3b2081565b6105016106423660046147cc565b610e49565b61064f610e6b565b60405160ff9091168152602001610487565b61050161066f3660046147fa565b610e74565b61050161068236600461463f565b610ecb565b6105016106953660046147cc565b610f3a565b6105165f516020615ee15f395f51905f5281565b610501610f6d565b6105016106c4366004614399565b610fe7565b6105016106d73660046147fa565b611017565b6105016106ea366004614afc565b61106e565b6105016106fd36600461470d565b61116b565b61047b610710366004614bf8565b6111dc565b610501610723366004614c65565b611235565b6107306112b5565b6040516104879190614c9c565b6040805180820190915260058152640332e302e360dc1b6020820152610498565b61047b61137c565b61047b6113aa565b6105165f516020615f615f395f51905f5281565b610501610790366004614cce565b6113b3565b6105016107a336600461470d565b611413565b6105166107b636600461463f565b611475565b61047b6107c9366004614d04565b6114b8565b6107e16107dc366004614d52565b6114e5565b6040516104879190614db7565b5f516020615e615f395f51905f52546001600160a01b031661052c565b6105016115c4565b61047b61082136600461470d565b6115f9565b61051661083436600461463f565b611627565b61047b6108473660046147cc565b611631565b61050161085a3660046147fa565b61163c565b610498611693565b610501610875366004614399565b61169d565b6108826116cd565b6040516104879190614dc9565b61047b61089d366004614777565b61175c565b6105165f81565b6105016108b736600461463f565b61178c565b61047b6108ca366004614399565b6117d8565b6105016108dd366004614e39565b6117f1565b6105016108f0366004614e91565b611848565b610501610903366004614ec2565b6118c8565b610501610916366004614f6b565b61193c565b6105016119d8565b610501610931366004614f6b565b611a4e565b610501610944366004614f9d565b611adc565b6105165f516020615f215f395f51905f5281565b61050161096b366004614e91565b611b0c565b61052c611b34565b61050161098636600461463f565b611b5c565b610993611bc6565b6040516104879190614fc9565b6105165f516020615f015f395f51905f5281565b6105016109c23660046147cc565b611d56565b6105016109d5366004614f6b565b611d72565b6105016109e8366004614f6b565b611dd9565b6105016109fb3660046147fa565b611e40565b610516610a0e366004615001565b611e97565b6105165f516020615f815f395f51905f5281565b610501610a3536600461463f565b611ee0565b61047b610a48366004614777565b611f62565b61047b610a5b36600461463f565b611f8a565b6105167f65d7a28e3265b37a6474929f336521b332c1681b933f6cb9f3376673440d862a81565b610498611fc9565b61052c612007565b5f6001600160e01b03198216637965db0b60e01b1480610ac757506301ffc9a760e01b6001600160e01b03198316145b92915050565b6060610ad761202f565b905090565b5f33610ae981858561206d565b5060019392505050565b60605f826001600160401b03811115610b0e57610b0e614845565b604051908082528060200260200182016040528015610b37578160200160208202803683370190505b5091505f5b83811015610b9357610b6e858583818110610b5957610b5961502d565b90506020020160208101906107b6919061463f565b838281518110610b8057610b8061502d565b6020908102919091010152600101610b3c565b507f52c63247e1f47db19d5ce0460030c497f067ca4cebf71ba98eeadabe20bace025490509250929050565b610bc7614241565b5f516020615e615f395f51905f52545f516020615ec15f395f51905f52906001600160a01b031615610c7157806012015f9054906101000a90046001600160a01b03166001600160a01b0316630dca59c16040518163ffffffff1660e01b81526004015f60405180830381865afa158015610c44573d5f5f3e3d5ffd5b505050506040513d5f823e601f3d908101601f19168201604052610c6b9190810190615241565b91505090565b610c6b61207a565b5090565b5f516020615ee15f395f51905f52610c94816127b4565b610cad838360405180602001604052805f8152506127be565b505050565b5f610ac78261286b565b5f805f516020615fa15f395f51905f525b546001600160a01b031692915050565b5f516020615e415f395f51905f528054606091908190610cfc90615384565b80601f0160208091040260200160405190810160405280929190818152602001828054610d2890615384565b8015610d735780601f10610d4a57610100808354040283529160200191610d73565b820191905f5260205f20905b815481529060010190602001808311610d5657829003601f168201915b505050505091505090565b610d8a86858484611017565b610d968584848461163c565b505050505050565b5f516020615f615f395f51905f52610db5816127b4565b610dd08585858560405180602001604052805f815250612880565b5050505050565b5f516020615ee15f395f51905f52610dee816127b4565b610cad838360405180602001604052805f815250612920565b5f610e14338585856129d8565b610e1f848484612a32565b90505b9392505050565b5f9081525f516020615f415f395f51905f52602052604090206001015490565b610e5282610e29565b610e5b816127b4565b610e658383612a8f565b50505050565b5f610ad7612b30565b5f516020615ee15f395f51905f52610e8b816127b4565b610dd0858585858080601f0160208091040260200160405190810160405280939291908181526020018383808284375f9201919091525061292092505050565b7fdd7c9aafbb91d54fb2041db1d5b172ea665309b32f5fffdbddf452802a1e3b20610ef5816127b4565b5f516020615fa15f395f51905f5280546001600160a01b03848116911603610f30576040516399e8777160e01b815260040160405180910390fd5b610cad8184612b45565b6001600160a01b0381163314610f635760405163334bd91960e11b815260040160405180910390fd5b610cad8282612b8c565b7f65d7a28e3265b37a6474929f336521b332c1681b933f6cb9f3376673440d862a610f97816127b4565b7fab1527b6135145d8da1edcbd6b7b270624e17f2b41c74a8c746ff388ad454700805460ff1615610fdb57604051631b19da4d60e11b815260040160405180910390fd5b610fe3612c05565b5050565b5f516020615f015f395f51905f52610ffe816127b4565b610cad838360405180602001604052805f815250612c77565b5f516020615e215f395f51905f5261102e816127b4565b610dd0858585858080601f0160208091040260200160405190810160405280939291908181526020018383808284375f92019190915250612cd392505050565b5f611077612d22565b805490915060ff600160401b82041615906001600160401b03165f8115801561109d5750825b90505f826001600160401b031660011480156110b85750303b155b9050811580156110c6575080155b156110e45760405163f92ee8a960e01b815260040160405180910390fd5b845467ffffffffffffffff19166001178555831561110e57845460ff60401b1916600160401b1785555b61111a89898989612d4a565b831561116057845460ff60401b19168555604051600181527fc7f505b2f371ae2175ee4913f4499e1f2633a7b5936321eed1cdaeb6115181d29060200160405180910390a15b505050505050505050565b5f516020615e215f395f51905f52611182816127b4565b61118e85858585612d7f565b336001600160a01b03167f72daf4490e83933de80c122aa40ad26e3d1312ac3efbf2edcee640aa8556ddc6868686866040516111cd949392919061542e565b60405180910390a25050505050565b5f806111e7816127b4565b61122887878787878080601f0160208091040260200160405190810160405280939291908181526020018383808284375f92019190915250612e1a92505050565b5060019695505050505050565b5f516020615f215f395f51905f5261124c816127b4565b5f516020615ec15f395f51905f52827ff8a315cc5f2213f6481729acd86e55db7ccc930120ccf9fb78b53dcce75f7c0461128682826155ca565b50506040517f4ae74ca88d4a413b4025a2f897a062fde9f067a91ab400c74528c3c1e2b76b36905f90a1505050565b60408051606080820183525f8083526020830152918101919091525f516020615e615f395f51905f52545f516020615ec15f395f51905f52906001600160a01b03161561137457806012015f9054906101000a90046001600160a01b03166001600160a01b03166350101d846040518163ffffffff1660e01b81526004015f60405180830381865afa15801561134d573d5f5f3e3d5ffd5b505050506040513d5f823e601f3d908101601f19168201604052610c6b9190810190615701565b610c6b612eea565b5f807fab1527b6135145d8da1edcbd6b7b270624e17f2b41c74a8c746ff388ad4547005b5460ff1692915050565b5f610ad7613013565b5f516020615f215f395f51905f526113ca816127b4565b5f516020615ec15f395f51905f5282816113e482826157b0565b50506040517fde3c2975dd1b3f6c2f6783edb92d301c725b7565933986e255b711d22153a50a905f90a1505050565b5f516020615f015f395f51905f5261142a816127b4565b6114368585858561303b565b336001600160a01b03167fbc3f1481a323af3866d85a300235055c5b81e0ab3563d50b17226f63072161f0868686866040516111cd94939291906158f3565b5f807f52c63247e1f47db19d5ce0460030c497f067ca4cebf71ba98eeadabe20bace005b6001600160a01b039093165f9081526020939093525050604090205490565b5f6114c384836130d3565b6114ce57505f6114dd565b6114da8585858561310f565b90505b949350505050565b6115076040518060600160405280606081526020015f81526020015f81525090565b5f516020615fa15f395f51905f5280546001600160a01b031615611595578054604051631f32da9960e21b81526001600160a01b0390911690637ccb6a6490611554908690600401614373565b5f60405180830381865afa15801561156e573d5f5f3e3d5ffd5b505050506040513d5f823e601f3d908101601f19168201604052610e229190810190615924565b5050604080516080810182525f6060820181815282526020820181905291810191909152919050565b50919050565b7f65d7a28e3265b37a6474929f336521b332c1681b933f6cb9f3376673440d862a6115ee816127b4565b6115f661311c565b50565b5f5f516020615f015f395f51905f52611611816127b4565b61161d86868686613177565b9695505050505050565b5f610ac782613212565b5f610e22838361324b565b5f516020615f015f395f51905f52611653816127b4565b610dd0858585858080601f0160208091040260200160405190810160405280939291908181526020018383808284375f92019190915250612c7792505050565b6060610ad7613256565b5f516020615e215f395f51905f526116b4816127b4565b610cad838360405180602001604052805f815250612cd3565b5f516020615fa15f395f51905f528054606091906001600160a01b031615610c7957805460408051639fa5f50b60e01b815290516001600160a01b0390921691639fa5f50b916004808201925f929091908290030181865afa158015611735573d5f5f3e3d5ffd5b505050506040513d5f823e601f3d908101601f19168201604052610c6b91908101906159a4565b5f80611767816127b4565b61178185858560405180602001604052805f815250612e1a565b506001949350505050565b5f611796816127b4565b61179e612007565b6001600160a01b0316826001600160a01b0316036117cf57604051630725a47560e31b815260040160405180910390fd5b610fe382613294565b5f336117e6828286866129d8565b610ae98185856132fc565b5f516020615f615f395f51905f52611808816127b4565b610dd0858585858080601f0160208091040260200160405190810160405280939291908181526020018383808284375f9201919091525061335992505050565b5f516020615f215f395f51905f5261185f816127b4565b5f516020615ec15f395f51905f52827ff8a315cc5f2213f6481729acd86e55db7ccc930120ccf9fb78b53dcce75f7c106118998282615a62565b50506040517fbc1d6136e75f11a94e318623b223b256ba815571cf12af4c7d4a47d7bfeabbaf905f90a1505050565b5f516020615e215f395f51905f526118df816127b4565b6118eb86868686612d7f565b336001600160a01b03167f72daf4490e83933de80c122aa40ad26e3d1312ac3efbf2edcee640aa8556ddc6878787878760405161192c959493929190615b6a565b60405180910390a2505050505050565b5f611946816127b4565b5f516020615ea15f395f51905f527f9bd8d607565c0370ae5f91651ca67fd26d4438022bf72037316600e29e6a3a0261198084868361550a565b508383604051611991929190615bb0565b60405180910390207f4a48eefa86906ea82ddc91803a5f00818355982247dc29c521714f6dc207aacd85856040516119ca929190615bbf565b60405180910390a250505050565b5f6119e2816127b4565b6119ea613386565b7fab1527b6135145d8da1edcbd6b7b270624e17f2b41c74a8c746ff388ad454700805460ff191660011781556040513381527f749cb6b4c510bc468cf6b9c2086d6f0a54d6b18e25d37bf3200e68eab0880c00906020015b60405180910390a15050565b5f611a58816127b4565b5f516020615ea15f395f51905f527f9bd8d607565c0370ae5f91651ca67fd26d4438022bf72037316600e29e6a3a01611a9284868361550a565b508383604051611aa3929190615bb0565b60405180910390207fe4e4a54c5c394e44fde10a0ae1277d8bd8621848cc8dfd73eddd39bcf9f2d9b285856040516119ca929190615bbf565b5f516020615f615f395f51905f52611af3816127b4565b610cad838360405180602001604052805f815250613359565b5f516020615f815f395f51905f52611b23816127b4565b610fe3611b2f83615bed565b6133ad565b5f807f1387b97dfab601d3023cb57858a6be29329babb05c85597ddbe4926c1193a900610ccd565b5f516020615f215f395f51905f52611b73816127b4565b5f516020615e615f395f51905f52545f516020615ec15f395f51905f52906001600160a01b03848116911603611bbc57604051633ce5d28f60e11b815260040160405180910390fd5b610cad81846133c5565b611bce6142ea565b604080518082019091527fd2d5d34c4a4dea00599692d3257c0aebc5e0359176118cd2364ab9b008c2d10180545f516020615e415f395f51905f5292919082908290611c1990615384565b80601f0160208091040260200160405190810160405280929190818152602001828054611c4590615384565b8015611c905780601f10611c6757610100808354040283529160200191611c90565b820191905f5260205f20905b815481529060010190602001808311611c7357829003601f168201915b50505050508152602001600182016040518060600160405290815f82018054611cb890615384565b80601f0160208091040260200160405190810160405280929190818152602001828054611ce490615384565b8015611d2f5780601f10611d0657610100808354040283529160200191611d2f565b820191905f5260205f20905b815481529060010190602001808311611d1257829003601f168201915b50505050508152602001600182015481526020016002820154815250508152505091505090565b611d5f82610e29565b611d68816127b4565b610e658383612b8c565b5f516020615f815f395f51905f52611d89816127b4565b5f5f516020615e415f395f51905f529050610e658185858080601f0160208091040260200160405190810160405280939291908181526020018383808284375f9201919091525061341192505050565b5f516020615f815f395f51905f52611df0816127b4565b5f5f516020615e415f395f51905f529050610e658185858080601f0160208091040260200160405190810160405280939291908181526020018383808284375f9201919091525061344f92505050565b5f516020615ee15f395f51905f52611e57816127b4565b610dd0858585858080601f0160208091040260200160405190810160405280939291908181526020018383808284375f920191909152506127be92505050565b6001600160a01b039182165f9081527f52c63247e1f47db19d5ce0460030c497f067ca4cebf71ba98eeadabe20bace016020908152604080832093909416825291909152205490565b7f809a0fc49fc0600540f1d39e23454e1f6f215bc7505fa22b17c154616570ddef611f0a816127b4565b7f1387b97dfab601d3023cb57858a6be29329babb05c85597ddbe4926c1193a90080546001600160a01b03848116911603611f58576040516311ecd5d560e21b815260040160405180910390fd5b610cad81846134ac565b5f611f6d84836130d3565b611f7857505f610e22565b611f838484846134f3565b9050610e22565b6001600160a01b0381165f9081527f0c7bc8a17be064111d299d7669f49519cb26c58611b72d9f6ccc40a1e1184e00602052604081205460ff16610ac7565b7fd2d5d34c4a4dea00599692d3257c0aebc5e0359176118cd2364ab9b008c2d10580546060915f516020615e415f395f51905f5291610cfc90615384565b5f807f77c8cc897d160e7bf5b10921804e357da17ae27460d4a6b5d9b27ffddf159d00610ccd565b7f9bd8d607565c0370ae5f91651ca67fd26d4438022bf72037316600e29e6a3a0180546060915f516020615ea15f395f51905f5291610cfc90615384565b610cad83838360016134ff565b612082614241565b6040805160c0810182525f516020615ec15f395f51905f5280549092839183918201908390829082906120b490615384565b80601f01602080910402602001604051908101604052809291908181526020018280546120e090615384565b801561212b5780601f106121025761010080835404028352916020019161212b565b820191905f5260205f20905b81548152906001019060200180831161210e57829003601f168201915b5050505050815260200160018201805461214490615384565b80601f016020809104026020016040519081016040528092919081815260200182805461217090615384565b80156121bb5780601f10612192576101008083540402835291602001916121bb565b820191905f5260205f20905b81548152906001019060200180831161219e57829003601f168201915b505050505081526020016002820180546121d490615384565b80601f016020809104026020016040519081016040528092919081815260200182805461220090615384565b801561224b5780601f106122225761010080835404028352916020019161224b565b820191905f5260205f20905b81548152906001019060200180831161222e57829003601f168201915b5050505050815260200160038201805461226490615384565b80601f016020809104026020016040519081016040528092919081815260200182805461229090615384565b80156122db5780601f106122b2576101008083540402835291602001916122db565b820191905f5260205f20905b8154815290600101906020018083116122be57829003601f168201915b505050505081525050815260200160048201604051806101800160405290815f8201548152602001600182015481526020016002820154815260200160038201805461232690615384565b80601f016020809104026020016040519081016040528092919081815260200182805461235290615384565b801561239d5780601f106123745761010080835404028352916020019161239d565b820191905f5260205f20905b81548152906001019060200180831161238057829003601f168201915b505050505081526020016004820180546123b690615384565b80601f01602080910402602001604051908101604052809291908181526020018280546123e290615384565b801561242d5780601f106124045761010080835404028352916020019161242d565b820191905f5260205f20905b81548152906001019060200180831161241057829003601f168201915b5050505050815260200160058201805461244690615384565b80601f016020809104026020016040519081016040528092919081815260200182805461247290615384565b80156124bd5780601f10612494576101008083540402835291602001916124bd565b820191905f5260205f20905b8154815290600101906020018083116124a057829003601f168201915b505050505081526020016006820180546124d690615384565b80601f016020809104026020016040519081016040528092919081815260200182805461250290615384565b801561254d5780601f106125245761010080835404028352916020019161254d565b820191905f5260205f20905b81548152906001019060200180831161253057829003601f168201915b5050505050815260200160078201805461256690615384565b80601f016020809104026020016040519081016040528092919081815260200182805461259290615384565b80156125dd5780601f106125b4576101008083540402835291602001916125dd565b820191905f5260205f20905b8154815290600101906020018083116125c057829003601f168201915b505050505081526020016008820180546125f690615384565b80601f016020809104026020016040519081016040528092919081815260200182805461262290615384565b801561266d5780601f106126445761010080835404028352916020019161266d565b820191905f5260205f20905b81548152906001019060200180831161265057829003601f168201915b5050505050815260200160098201805461268690615384565b80601f01602080910402602001604051908101604052809291908181526020018280546126b290615384565b80156126fd5780601f106126d4576101008083540402835291602001916126fd565b820191905f5260205f20905b8154815290600101906020018083116126e057829003601f168201915b50505050508152602001600a8201805461271690615384565b80601f016020809104026020016040519081016040528092919081815260200182805461274290615384565b801561278d5780601f106127645761010080835404028352916020019161278d565b820191905f5260205f20905b81548152906001019060200180831161277057829003601f168201915b5050509183525050600b91909101546001600160a01b031660209091015290525092915050565b6115f681336135f5565b5f516020615e815f395f51905f525f6127d685611475565b6001600160a01b0386165f90815260208490526040812054919250906127fd908690615c0c565b905080821015612820576040516349d7d08d60e11b815260040160405180910390fd5b6001600160a01b0386165f8181526020859052604090819020839055517eee657b17bb8f27ffd14d58b7a6f3f8d780dc721da687b065b4ce100c332e259061192c9088908890615c1f565b5f805f516020615e815f395f51905f52611499565b61288c8585858561362e565b7f0c7bc8a17be064111d299d7669f49519cb26c58611b72d9f6ccc40a1e1184e005f5b858110156129175761290f828888848181106128cd576128cd61502d565b90506020020160208101906128e2919061463f565b8787858181106128f4576128f461502d565b90506020020160208101906129099190615c37565b8661366c565b6001016128af565b50505050505050565b6001600160a01b0383165f9081525f516020615e815f395f51905f526020819052604090912054831115612967576040516309f1994960e41b815260040160405180910390fd5b6001600160a01b0384165f9081526020829052604090205461298a908490615c52565b6001600160a01b0385165f81815260208490526040908190209290925590517f57e0f3d4013a11f83fec76f5798b11b0ac9894fe75a459c7c18b95b248fa0225906119ca9086908690615c1f565b6129e4848484846136e3565b6129f0848484846136ed565b8383839091926129175760405163013a574760e41b81526001600160a01b03938416600482015292909116602483015260448201526064015b60405180910390fd5b5f5f612a3f858585613811565b90508015610e1f5760405183815233906001600160a01b038716907f7c2b9369bf4a6bd9745889c658ad00a4d57e280c4c80fa1c74db2a9e52c136359060200160405180910390a3949350505050565b5f5f516020615f415f395f51905f52612aa88484611631565b612b27575f848152602082815260408083206001600160a01b03871684529091529020805460ff19166001179055612add3390565b6001600160a01b0316836001600160a01b0316857f2f8788117e7eff1d82e926ec794901d17c78024a50270940304540a733656f0d60405160405180910390a46001915050610ac7565b5f915050610ac7565b5f805f516020615ea15f395f51905f526113a0565b81546001600160a01b0319166001600160a01b03821690811783556040517f24456fffb8d75313fe808b19e17ae308e592a8159329a02fb396773d5aacbd10905f90a25050565b5f5f516020615f415f395f51905f52612ba58484611631565b15612b27575f848152602082815260408083206001600160a01b0387168085529252808320805460ff1916905551339287917ff6391f5c32d9c69d2a47ea670b442974b53935d1edc7fd64eb21e047a839171b9190a46001915050610ac7565b612c0d613386565b7fcd5ed15c6e187e77e9aee88184c21f4f2182ab5827cb3b7e07fbedcd63f03300805460ff191681557f5db9ee0a495bf2e6ff9c91a7834c1ba4fdd244a5e8aa4e537bd38aeae4b073aa335b6040516001600160a01b03909116815260200160405180910390a150565b612c818383613829565b6001600160a01b038316336001600160a01b03167f30c99b8e9449992bd7616d2645b02ee0a2b6f229a45d6b56b686963ff0c534978484604051612cc6929190615c1f565b60405180910390a3505050565b612cdd838361383f565b6001600160a01b038316336001600160a01b03167f21e3428dd0c1de86ad5cb0d4df91049f26e9711489b51d1e9b5d5a53ebae1f638484604051612cc6929190615c1f565b5f807ff0c57e16840df040f15088dc2f81fe391c3923bec73e23a9662efc9c229c6a00610ac7565b612d52613855565b612d5a61387a565b612d6261387a565b612d6a613882565b612d738161389a565b610e65848484846138ad565b5f839003612da0576040516311eaa8e760e21b815260040160405180910390fd5b828114612dc057604051637a9d6e6d60e01b815260040160405180910390fd5b5f5b83811015610dd057612e12858583818110612ddf57612ddf61502d565b9050602002016020810190612df4919061463f565b848484818110612e0657612e0661502d565b9050602002013561383f565b600101612dc2565b612e258483836138ca565b6001600160a01b038316612e4257612e3d84836139e9565b612e97565b5f612e4d8585611e97565b90505f81118015612e5e57505f1981105b15612e8a5782811015612e7c57612e7785855f5f6134ff565b612e8a565b612e8a85858584035f6134ff565b612e958585856132fc565b505b6001600160a01b038416336001600160a01b03167f9aaf0e2b2a23aa776f679b9fe17552a7fa59d6cb1057b37156024a8c587a947f8484604051612edc929190615c1f565b60405180910390a350505050565b60408051606080820183525f808352602080840191909152828401829052835191820184527ff8a315cc5f2213f6481729acd86e55db7ccc930120ccf9fb78b53dcce75f7c10805460ff80821615158552610100909104161515918301919091527ff8a315cc5f2213f6481729acd86e55db7ccc930120ccf9fb78b53dcce75f7c11805493945f516020615ec15f395f51905f52949084019190612f8d90615384565b80601f0160208091040260200160405190810160405280929190818152602001828054612fb990615384565b80156130045780601f10612fdb57610100808354040283529160200191613004565b820191905f5260205f20905b815481529060010190602001808311612fe757829003601f168201915b50505050508152505091505090565b5f807fcd5ed15c6e187e77e9aee88184c21f4f2182ab5827cb3b7e07fbedcd63f033006113a0565b8261305957604051630c7e659960e01b815260040160405180910390fd5b828114613079576040516307a4e50160e21b815260040160405180910390fd5b5f5b83811015610dd0576130cb8585838181106130985761309861502d565b90506020020160208101906130ad919061463f565b8484848181106130bf576130bf61502d565b90506020020135613829565b60010161307b565b5f5f6130de8461286b565b90508015610ae9575f816130f186611475565b6130fb9190615c52565b905080841115611781575f92505050610ac7565b5f6114da85858585613a1d565b613124613a41565b7fcd5ed15c6e187e77e9aee88184c21f4f2182ab5827cb3b7e07fbedcd63f03300805460ff191660011781557f62e78cea01bee320cd4e420270b5ea74000d11b0c9f74754ebdbfc544b05a25833612c59565b5f8361319657604051634723eac960e01b815260040160405180910390fd5b338285146131b757604051637e81047760e11b815260040160405180910390fd5b5f5b858110156112285761320a828888848181106131d7576131d761502d565b90506020020160208101906131ec919061463f565b8787858181106131fe576131fe61502d565b90506020020135613a67565b6001016131b9565b6001600160a01b0381165f9081525f516020615e815f395f51905f526020819052604082205461324184611475565b610e229190615c52565b5f610e228383613a7e565b7f9bd8d607565c0370ae5f91651ca67fd26d4438022bf72037316600e29e6a3a0280546060915f516020615ea15f395f51905f5291610cfc90615384565b7f77c8cc897d160e7bf5b10921804e357da17ae27460d4a6b5d9b27ffddf159d0080546001600160a01b0319166001600160a01b03831690811782556040517f37213fe93a5aae50df0ef53f98b81c048e51b3ab2969309a103a647e44b61918905f90a25050565b6001600160a01b03831661332557604051634b637e8f60e11b81525f6004820152602401612a29565b6001600160a01b03821661334e5760405163ec442f0560e01b81525f6004820152602401612a29565b610cad838383613a89565b7f0c7bc8a17be064111d299d7669f49519cb26c58611b72d9f6ccc40a1e1184e00610e658185858561366c565b61338e6113aa565b6133ab57604051638dfc202b60e01b815260040160405180910390fd5b565b5f516020615e415f395f51905f52610fe38183613b63565b6012820180546001600160a01b0319166001600160a01b0383169081179091556040517f0ed5cb246396094c8da64b97eeb3287e1bb4cd0f3cee89dfd917d43d3f008003905f90a25050565b6005820161341f8282615c65565b507fff8fea957fb7cb582ef297c1c74436fe7a9914efbc52adf197600dc9d171efbc81604051611a429190614373565b8161345a8282615c65565b50806040516134699190615d1a565b60405180910390207f6403c68076c59949275ad9be2137a73c51043d7d6af6a38473047a0bc45df492826040516134a09190614373565b60405180910390a25050565b81546001600160a01b0319166001600160a01b03821690811783556040517f3dc265c6e8a49e40f12f64811a094f799e44b4d033c7478793093908cbbb5bca905f90a25050565b5f610e1f848484613bcd565b7f52c63247e1f47db19d5ce0460030c497f067ca4cebf71ba98eeadabe20bace006001600160a01b0385166135495760405163e602df0560e01b81525f6004820152602401612a29565b6001600160a01b03841661357257604051634a1406b160e11b81525f6004820152602401612a29565b6001600160a01b038086165f90815260018301602090815260408083209388168352929052208390558115610dd057836001600160a01b0316856001600160a01b03167f8c5be1e5ebec7d5bd14f71427d1e84f3dd0314c0f7b2291e5b200ac8c7c3b925856040516135e691815260200190565b60405180910390a35050505050565b6135ff8282611631565b610fe35760405163e2517d3f60e01b81526001600160a01b038216600482015260248101839052604401612a29565b8261364c57604051630e35356160e11b815260040160405180910390fd5b828114610e655760405163142e444b60e01b815260040160405180910390fd5b6001600160a01b0383165f908152602085905260409020805460ff1916831515179055336001600160a01b0316821515846001600160a01b03167f5c115173b119951ab162218e6a2495eb7b93888dda22421e2be9c4ee5d710882846040516136d59190614373565b60405180910390a450505050565b610e658382613bef565b5f6136f9858585613c16565b61370457505f6114dd565b5f61370d612007565b90506001600160a01b03811615613805576001600160a01b0386161561379f57604051631f2d7a6560e11b81526001600160a01b0387811660048301528681166024830152858116604483015260648201859052821690633e5af4ca906084015f604051808303815f87803b158015613784575f5ffd5b505af1158015613796573d5f5f3e3d5ffd5b50505050613805565b6040516322ebca6d60e21b81526001600160a01b038681166004830152858116602483015260448201859052821690638baf29b4906064015f604051808303815f87803b1580156137ee575f5ffd5b505af1158015613800573d5f5f3e3d5ffd5b505050505b50506001949350505050565b5f3361381e858285613c8e565b6117818585856132fc565b6138355f5f84846129d8565b610fe38282613cec565b61384b5f835f846129d8565b610fe38282613cf6565b61385d613d00565b6133ab57604051631afcd79f60e31b815260040160405180910390fd5b6133ab613855565b61388a613855565b61389261387a565b6133ab61387a565b6138a2613855565b80516115f690613d19565b6138b5613855565b610e6584848484602001518560400151613d39565b5f6138d484611475565b90508083111561391c5733816138ea8186615c52565b60405163391434e360e21b81526001600160a01b03909316600484015260248301919091526044820152606401612a29565b6001600160a01b0384165f9081525f516020615e815f395f51905f526020819052604082205490919061394f9084615c52565b905080851115610d96575f6139648287615c52565b6001600160a01b0388165f9081526020859052604090205490915061398a908290615c52565b6001600160a01b0388165f81815260208690526040908190209290925590517f57e0f3d4013a11f83fec76f5798b11b0ac9894fe75a459c7c18b95b248fa0225906139d89084908990615c1f565b60405180910390a250505050505050565b6001600160a01b038216613a1257604051634b637e8f60e11b81525f6004820152602401612a29565b610fe3825f83613a89565b5f613a2a85858585613d88565b613a3557505f6114dd565b6114da85858585613d95565b613a496113aa565b156133ab5760405163d93c066560e01b815260040160405180910390fd5b613a735f8484846129d8565b610cad838383613e41565b5f610e228383613e4c565b5f613a92611b34565b90506001600160a01b03811615613b5857806001600160a01b031663df271a888585613abd88611475565b613ac688611475565b7f52c63247e1f47db19d5ce0460030c497f067ca4cebf71ba98eeadabe20bace02546040516001600160e01b031960e088901b1681526001600160a01b03958616600482015294909316602485015260448401919091526064830152608482015260a4015f604051808303815f87803b158015613b41575f5ffd5b505af1158015613b53573d5f5f3e3d5ffd5b505050505b610e65848484613e75565b80516001830190613b749082615c65565b506040810151600383015560208101516002830190613b939082615c65565b504260048301556040517f581e063ae59068f13a21b5707b10eee615c714e8939e873cf5b90b8254d9979c90611a42906001850190615daf565b5f613bd9848484613fb3565b613be457505f610e22565b611f83848484613fc0565b613bf982826130d3565b610fe3576040516301c9bcfb60e31b815260040160405180910390fd5b5f6001600160a01b038316613c2e57611f8382614064565b6001600160a01b038216613c4557611f8383614064565b613c4e84611f8a565b80613c5d5750613c5d83611f8a565b80613c6c5750613c6c82611f8a565b80613c7a5750613c7a6113aa565b15613c8657505f610e22565b506001610e22565b5f613c998484611e97565b90505f19811015610e655781811015613cde57604051637dc7a0d960e11b81526001600160a01b03841660048201526024810182905260448101839052606401612a29565b610e6584848484035f6134ff565b610fe38282614090565b610fe382826139e9565b5f613d09612d22565b54600160401b900460ff16919050565b613d21613855565b6001600160a01b038116156115f6576115f681613294565b613d41613855565b613d4a856140c4565b613d608460400151855f015186602001516140fd565b613d76835f01518460200151856040015161415a565b613d7f8261418e565b610dd0816141d0565b5f6114da858585856141ff565b5f5f613d9f612007565b90506001600160a01b03811615613e3757604051637157797f60e01b81526001600160a01b0387811660048301528681166024830152858116604483015260648201859052821690637157797f90608401602060405180830381865afa158015613e0b573d5f5f3e3d5ffd5b505050506040513d601f19601f82011682018060405250810190613e2f9190615e05565b9150506114dd565b60019150506114dd565b610cad8383836132fc565b5f613e57818361420b565b15613e6457506001610ac7565b613e6e838361420b565b9050610ac7565b7f52c63247e1f47db19d5ce0460030c497f067ca4cebf71ba98eeadabe20bace006001600160a01b038416613ec25781816002015f828254613eb79190615c0c565b90915550613f329050565b6001600160a01b0384165f9081526020829052604090205482811015613f145760405163391434e360e21b81526001600160a01b03861660048201526024810182905260448101849052606401612a29565b6001600160a01b0385165f9081526020839052604090209083900390555b6001600160a01b038316613f50576002810180548390039055613f6e565b6001600160a01b0383165f9081526020829052604090208054830190555b826001600160a01b0316846001600160a01b03167fddf252ad1be2c89b69c2b068fc378daa952ba7f163c4a11628f55a4df523b3ef84604051612edc91815260200190565b5f610e1f5f8585856141ff565b5f5f613fca612007565b90506001600160a01b0381161561405a576040516372331c7360e11b81526001600160a01b03868116600483015285811660248301526044820185905282169063e46638e690606401602060405180830381865afa15801561402e573d5f5f3e3d5ffd5b505050506040513d601f19601f820116820180604052508101906140529190615e05565b915050610e22565b6001915050610e22565b5f61406d61137c565b8061407c575061407c82611f8a565b1561408857505f919050565b506001919050565b6001600160a01b0382166140b95760405163ec442f0560e01b81525f6004820152602401612a29565b610fe35f8383613a89565b6140cc613855565b6001600160a01b0381166140f35760405163011d80f760e01b815260040160405180910390fd5b610fe35f82612a8f565b614105613855565b5f516020615ea15f395f51905f52805460ff191660ff85161781557f9bd8d607565c0370ae5f91651ca67fd26d4438022bf72037316600e29e6a3a0261414b8382615c65565b5060018101610dd08482615c65565b614162613855565b5f516020615e415f395f51905f5261417a818561344f565b6141848184613b63565b610e658183613411565b614196613855565b6001600160a01b038116156115f6577f1387b97dfab601d3023cb57858a6be29329babb05c85597ddbe4926c1193a900610fe381836134ac565b6141d8613855565b6001600160a01b038116156115f6575f516020615fa15f395f51905f52610fe38183612b45565b5f6114da858585613c16565b5f9182525f516020615f415f395f51905f52602090815260408084206001600160a01b0393909316845291905290205460ff1690565b60405180604001604052806142776040518060800160405280606081526020016060815260200160608152602001606081525090565b81526020016142e56040518061018001604052805f81526020015f81526020015f815260200160608152602001606081526020016060815260200160608152602001606081526020016060815260200160608152602001606081526020015f6001600160a01b031681525090565b905290565b6040518060400160405280606081526020016142e56040518060600160405280606081526020015f81526020015f81525090565b5f6020828403121561432e575f5ffd5b81356001600160e01b031981168114610e22575f5ffd5b5f81518084528060208401602086015e5f602082860101526020601f19601f83011685010191505092915050565b602081525f610e226020830184614345565b6001600160a01b03811681146115f6575f5ffd5b5f5f604083850312156143aa575f5ffd5b82356143b581614385565b946020939093013593505050565b5f5f83601f8401126143d3575f5ffd5b5081356001600160401b038111156143e9575f5ffd5b6020830191508360208260051b8501011115614403575f5ffd5b9250929050565b5f5f6020838503121561441b575f5ffd5b82356001600160401b03811115614430575f5ffd5b61443c858286016143c3565b90969095509350505050565b604080825283519082018190525f9060208501906060840190835b81811015614481578351835260209384019390920191600101614463565b5050602093909301939093525092915050565b602081525f8251604060208401528051608060608501526144b860e0850182614345565b90506020820151605f198583030160808601526144d58282614345565b9150506040820151605f198583030160a08601526144f38282614345565b91505060608201519150605f198482030160c08501526145138183614345565b9150506020840151601f198483030160408501528051825260208101516020830152604081015160408301526060810151610180606084015261455a610180840182614345565b9050608082015183820360808501526145738282614345565b91505060a082015183820360a085015261458d8282614345565b91505060c082015183820360c08501526145a78282614345565b91505060e082015183820360e08501526145c18282614345565b9150506101008201518382036101008501526145dd8282614345565b9150506101208201518382036101208501526145f98282614345565b9150506101408201518382036101408501526146158282614345565b91505061016082015191506146366101608401836001600160a01b03169052565b95945050505050565b5f6020828403121561464f575f5ffd5b8135610e2281614385565b5f5f83601f84011261466a575f5ffd5b5081356001600160401b03811115614680575f5ffd5b602083019150836020828501011115614403575f5ffd5b5f5f5f5f5f5f60a087890312156146ac575f5ffd5b86356146b781614385565b955060208701356146c781614385565b9450604087013593506060870135925060808701356001600160401b038111156146ef575f5ffd5b6146fb89828a0161465a565b979a9699509497509295939492505050565b5f5f5f5f60408587031215614720575f5ffd5b84356001600160401b03811115614735575f5ffd5b614741878288016143c3565b90955093505060208501356001600160401b0381111561475f575f5ffd5b61476b878288016143c3565b95989497509550505050565b5f5f5f60608486031215614789575f5ffd5b833561479481614385565b925060208401356147a481614385565b929592945050506040919091013590565b5f602082840312156147c5575f5ffd5b5035919050565b5f5f604083850312156147dd575f5ffd5b8235915060208301356147ef81614385565b809150509250929050565b5f5f5f5f6060858703121561480d575f5ffd5b843561481881614385565b93506020850135925060408501356001600160401b03811115614839575f5ffd5b61476b8782880161465a565b634e487b7160e01b5f52604160045260245ffd5b604051606081016001600160401b038111828210171561487b5761487b614845565b60405290565b60405161018081016001600160401b038111828210171561487b5761487b614845565b604080519081016001600160401b038111828210171561487b5761487b614845565b604051608081016001600160401b038111828210171561487b5761487b614845565b604051601f8201601f191681016001600160401b038111828210171561491057614910614845565b604052919050565b5f6001600160401b0382111561493057614930614845565b50601f01601f191660200190565b5f61495061494b84614918565b6148e8565b9050828152838383011115614963575f5ffd5b828260208301375f602084830101529392505050565b5f82601f830112614988575f5ffd5b610e228383356020850161493e565b5f606082840312156149a7575f5ffd5b6149af614859565b905081356001600160401b038111156149c6575f5ffd5b6149d284828501614979565b82525060208201356001600160401b038111156149ed575f5ffd5b6149f984828501614979565b60208301525060409182013591810191909152919050565b5f60608284031215614a21575f5ffd5b614a29614859565b905081356001600160401b03811115614a40575f5ffd5b614a4c84828501614979565b82525060208201356001600160401b03811115614a67575f5ffd5b614a7384828501614997565b60208301525060408201356001600160401b03811115614a91575f5ffd5b614a9d84828501614979565b60408301525092915050565b5f60608284031215614ab9575f5ffd5b614ac1614859565b90508135614ace81614385565b81526020820135614ade81614385565b60208201526040820135614af181614385565b604082015292915050565b5f5f5f5f60c08587031215614b0f575f5ffd5b8435614b1a81614385565b935060208501356001600160401b03811115614b34575f5ffd5b850160608188031215614b45575f5ffd5b614b4d614859565b81356001600160401b03811115614b62575f5ffd5b614b6e89828501614979565b82525060208201356001600160401b03811115614b89575f5ffd5b614b9589828501614979565b6020830152506040820135915060ff82168214614bb0575f5ffd5b60408181019290925293508501356001600160401b03811115614bd1575f5ffd5b614bdd87828801614a11565b925050614bed8660608701614aa9565b905092959194509250565b5f5f5f5f5f60808688031215614c0c575f5ffd5b8535614c1781614385565b94506020860135614c2781614385565b93506040860135925060608601356001600160401b03811115614c48575f5ffd5b614c548882890161465a565b969995985093965092949392505050565b5f60208284031215614c75575f5ffd5b81356001600160401b03811115614c8a575f5ffd5b82016101808185031215610e22575f5ffd5b602081528151151560208201526020820151151560408201525f60408301516060808401526114dd6080840182614345565b5f60208284031215614cde575f5ffd5b81356001600160401b03811115614cf3575f5ffd5b820160408185031215610e22575f5ffd5b5f5f5f5f60808587031215614d17575f5ffd5b8435614d2281614385565b93506020850135614d3281614385565b92506040850135614d4281614385565b9396929550929360600135925050565b5f60208284031215614d62575f5ffd5b81356001600160401b03811115614d77575f5ffd5b6114dd84828501614979565b5f815160608452614d976060850182614345565b905060208301516020850152604083015160408501528091505092915050565b602081525f610e226020830184614d83565b5f602082016020835280845180835260408501915060408160051b8601019250602086015f5b82811015614e2057603f19878603018452614e0b858351614345565b94506020938401939190910190600101614def565b50929695505050505050565b80151581146115f6575f5ffd5b5f5f5f5f60608587031215614e4c575f5ffd5b8435614e5781614385565b93506020850135614e6781614e2c565b925060408501356001600160401b03811115614839575f5ffd5b5f606082840312156115be575f5ffd5b5f60208284031215614ea1575f5ffd5b81356001600160401b03811115614eb6575f5ffd5b6114dd84828501614e81565b5f5f5f5f5f60608688031215614ed6575f5ffd5b85356001600160401b03811115614eeb575f5ffd5b614ef7888289016143c3565b90965094505060208601356001600160401b03811115614f15575f5ffd5b614f21888289016143c3565b90945092505060408601356001600160401b03811115614f3f575f5ffd5b8601601f81018813614f4f575f5ffd5b614f5e8882356020840161493e565b9150509295509295909350565b5f5f60208385031215614f7c575f5ffd5b82356001600160401b03811115614f91575f5ffd5b61443c8582860161465a565b5f5f60408385031215614fae575f5ffd5b8235614fb981614385565b915060208301356147ef81614e2c565b602081525f825160406020840152614fe46060840182614345565b90506020840151601f198483030160408501526146368282614d83565b5f5f60408385031215615012575f5ffd5b823561501d81614385565b915060208301356147ef81614385565b634e487b7160e01b5f52603260045260245ffd5b5f82601f830112615050575f5ffd5b815161505e61494b82614918565b818152846020838601011115615072575f5ffd5b8160208501602083015e5f918101602001919091529392505050565b805161509981614385565b919050565b5f61018082840312156150af575f5ffd5b6150b7614881565b82518152602080840151908201526040808401519082015260608301519091506001600160401b038111156150ea575f5ffd5b6150f684828501615041565b60608301525060808201516001600160401b03811115615114575f5ffd5b61512084828501615041565b60808301525060a08201516001600160401b0381111561513e575f5ffd5b61514a84828501615041565b60a08301525060c08201516001600160401b03811115615168575f5ffd5b61517484828501615041565b60c08301525060e08201516001600160401b03811115615192575f5ffd5b61519e84828501615041565b60e0830152506101008201516001600160401b038111156151bd575f5ffd5b6151c984828501615041565b610100830152506101208201516001600160401b038111156151e9575f5ffd5b6151f584828501615041565b610120830152506101408201516001600160401b03811115615215575f5ffd5b61522184828501615041565b61014083015250615235610160830161508e565b61016082015292915050565b5f60208284031215615251575f5ffd5b81516001600160401b03811115615266575f5ffd5b820160408185031215615277575f5ffd5b61527f6148a4565b81516001600160401b03811115615294575f5ffd5b8201608081870312156152a5575f5ffd5b6152ad6148c6565b81516001600160401b038111156152c2575f5ffd5b6152ce88828501615041565b82525060208201516001600160401b038111156152e9575f5ffd5b6152f588828501615041565b60208301525060408201516001600160401b03811115615313575f5ffd5b61531f88828501615041565b60408301525060608201516001600160401b0381111561533d575f5ffd5b61534988828501615041565b60608301525082525060208201516001600160401b0381111561536a575f5ffd5b6153768682850161509e565b602083015250949350505050565b600181811c9082168061539857607f821691505b6020821081036115be57634e487b7160e01b5f52602260045260245ffd5b8183526020830192505f815f5b848110156153f45781356153d681614385565b6001600160a01b0316865260209586019591909101906001016153c3565b5093949350505050565b8183525f6001600160fb1b03831115615415575f5ffd5b8260051b80836020870137939093016020019392505050565b606081525f6154416060830186886153b6565b82810360208401526154548185876153fe565b83810360409094019390935250505f8152602001949350505050565b5f5f8335601e19843603018112615485575f5ffd5b8301803591506001600160401b0382111561549e575f5ffd5b602001915036819003821315614403575f5ffd5b601f821115610cad57805f5260205f20601f840160051c810160208510156154d75750805b601f840160051c820191505b81811015610dd0575f81556001016154e3565b5f19600383901b1c191660019190911b1790565b6001600160401b0383111561552157615521614845565b6155358361552f8354615384565b836154b2565b5f601f841160018114615561575f851561554f5750838201355b61555986826154f6565b845550610dd0565b5f83815260208120601f198716915b828110156155905786850135825560209485019460019092019101615570565b50868210156155ac575f1960f88860031b161c19848701351681555b505060018560011b0183555050505050565b5f8135610ac781614385565b8135815560208201356001820155604082013560028201556155ef6060830183615470565b6155fd81836003860161550a565b505061560c6080830183615470565b61561a81836004860161550a565b505061562960a0830183615470565b61563781836005860161550a565b505061564660c0830183615470565b61565481836006860161550a565b505061566360e0830183615470565b61567181836007860161550a565b5050615681610100830183615470565b61568f81836008860161550a565b505061569f610120830183615470565b6156ad81836009860161550a565b50506156bd610140830183615470565b6156cb8183600a860161550a565b5050610fe36156dd61016084016155be565b600b830180546001600160a01b0319166001600160a01b0392909216919091179055565b5f60208284031215615711575f5ffd5b81516001600160401b03811115615726575f5ffd5b820160608185031215615737575f5ffd5b61573f614859565b815161574a81614e2c565b8152602082015161575a81614e2c565b602082015260408201516001600160401b03811115615777575f5ffd5b61578386828501615041565b604083015250949350505050565b5f823561017e198336030181126157a6575f5ffd5b9190910192915050565b8135607e198336030181126157c3575f5ffd5b82016157cf8180615470565b6001600160401b038111156157e6576157e6614845565b6157fa816157f48654615384565b866154b2565b5f601f821160018114615826575f83156158145750838201355b61581e84826154f6565b87555061587d565b5f86815260208120601f198516915b828110156158555786850135825560209485019460019092019101615835565b5084821015615871575f1960f88660031b161c19848701351681555b505060018360011b0186555b5050505061588e6020820182615470565b61589c81836001870161550a565b50506158ab6040820182615470565b6158b981836002870161550a565b50506158c86060820182615470565b91506158d882826003860161550a565b5050610fe36158ea6020840184615791565b600483016155ca565b604081525f6159066040830186886153b6565b82810360208401526159198185876153fe565b979650505050505050565b5f60208284031215615934575f5ffd5b81516001600160401b03811115615949575f5ffd5b82016060818503121561595a575f5ffd5b615962614859565b81516001600160401b03811115615977575f5ffd5b61598386828501615041565b82525060208281015190820152604091820151918101919091529392505050565b5f602082840312156159b4575f5ffd5b81516001600160401b038111156159c9575f5ffd5b8201601f810184136159d9575f5ffd5b80516001600160401b038111156159f2576159f2614845565b8060051b615a02602082016148e8565b91825260208184018101929081019087841115615a1d575f5ffd5b6020850192505b838310156159195782516001600160401b03811115615a41575f5ffd5b615a5089602083890101615041565b83525060209283019290910190615a24565b8135615a6d81614e2c565b815460ff19811691151560ff1691821783556020840135615a8d81614e2c565b61ffff199190911690911790151560081b61ff001617815560018101615ab66040840184615470565b6001600160401b03811115615acd57615acd614845565b615ae181615adb8554615384565b856154b2565b5f601f821160018114615b0d575f8315615afb5750838201355b615b0584826154f6565b865550612917565b5f85815260208120601f198516915b82811015615b3c5786850135825560209485019460019092019101615b1c565b5084821015615b58575f1960f88660031b161c19848701351681555b50505050600190811b01909155505050565b606081525f615b7d6060830187896153b6565b8281036020840152615b908186886153fe565b90508281036040840152615ba48185614345565b98975050505050505050565b818382375f9101908152919050565b60208152816020820152818360408301375f818301604090810191909152601f909201601f19160101919050565b5f610ac73683614997565b634e487b7160e01b5f52601160045260245ffd5b80820180821115610ac757610ac7615bf8565b828152604060208201525f610e1f6040830184614345565b5f60208284031215615c47575f5ffd5b8135610e2281614e2c565b81810381811115610ac757610ac7615bf8565b81516001600160401b03811115615c7e57615c7e614845565b615c9281615c8c8454615384565b846154b2565b6020601f821160018114615cbf575f8315615cad5750848201515b615cb784826154f6565b855550610dd0565b5f84815260208120601f198516915b82811015615cee5787850151825560209485019460019092019101615cce565b5084821015615d0b57868401515f19600387901b60f8161c191681555b50505050600190811b01905550565b5f82518060208501845e5f920191825250919050565b5f8154615d3c81615384565b808552600182168015615d565760018114615d7257615da6565b60ff1983166020870152602082151560051b8701019350615da6565b845f5260205f205f5b83811015615d9d5781546020828a010152600182019150602081019050615d7b565b87016020019450505b50505092915050565b60208152604060208201525f615dc86060830184615d30565b601f1983820301604084015260608152615de86060820160018601615d30565b600285015460208301526003909401546040909101525090919050565b5f60208284031215615e15575f5ffd5b8151610e2281614e2c56fe3c11d16cbaffd01df69ce1c404f6340ee057498f5f00246190ea54220576a848d2d5d34c4a4dea00599692d3257c0aebc5e0359176118cd2364ab9b008c2d100f8a315cc5f2213f6481729acd86e55db7ccc930120ccf9fb78b53dcce75f7c129d8059a24cb596f1948a937c2c163cf14465c2a24abfd3cd009eec4ac4c398009bd8d607565c0370ae5f91651ca67fd26d4438022bf72037316600e29e6a3a00f8a315cc5f2213f6481729acd86e55db7ccc930120ccf9fb78b53dcce75f7c00d62f75bf68b069bc8e2abd495a949fafec67a4e5a5b7cb36aedf0dd51eec7e729f2df0fed2c77648de5860a4cc508cd0818c85b8b8a1ab4ceeef8d981c8956a6c6f3350ab30f55ce45863160fc345c1663d4633fe7cacfd3b9bbb6420a9147f802dd7bc7dec4dceedda775e58dd541e08a116c6c53815c0bd028192f7b626800973ef39d76cc2c6090feab1c030bec6ab5db557f64df047a4c4f9b5953cf1df3921df7a58eb4ea112afa962b8186161404ecda2e8fe97f8246026d02ad1a74b7bd0905600c85d707dc53eba2e146c1c2527cd32ac3ff6b86846155151b3e2700a2646970667358221220dc7ab67848730461475f3584631a79217a38ec9a482960f01ecc61e5d75a11b964736f6c634300081e003302dd7bc7dec4dceedda775e58dd541e08a116c6c53815c0bd028192f7b626800",
  "linkReferences": {},
  "deployedLinkReferences": {}
}