{
  "_format": "hh-sol-artifact-1",
  "contractName": "CMTATUpgradeableLight",
  "sourceName": "contracts/deployment/light/CMTATUpgradeableLight.sol",
  "abi": [
    {
      "inputs": [],
      "stateMutability": "nonpayable",
      "type": "constructor"
    },
    {
      "inputs": [],
      "name": "AccessControlBadConfirmation",
      "type": "error"
    },
    {
      "inputs": [
        {
          "internalType": "address",
          "name": "account",
          "type": "address"
        },
        {
          "internalType": "bytes32",
          "name": "neededRole",
          "type": "bytes32"
        }
      ],
      "name": "AccessControlUnauthorizedAccount",
      "type": "error"
    },
    {
      "inputs": [],
      "name": "CMTAT_AccessControlModule_AddressZeroNotAllowed",
      "type": "error"
    },
    {
      "inputs": [],
      "name": "CMTAT_BurnEnforcement_AddressIsNotFrozen",
      "type": "error"
    },
    {
      "inputs": [],
      "name": "CMTAT_BurnModule_AccountsValueslengthMismatch",
      "type": "error"
    },
    {
      "inputs": [],
      "name": "CMTAT_BurnModule_EmptyAccounts",
      "type": "error"
    },
    {
      "inputs": [],
      "name": "CMTAT_Enforcement_AccountsValueslengthMismatch",
      "type": "error"
    },
    {
      "inputs": [],
      "name": "CMTAT_Enforcement_EmptyAccounts",
      "type": "error"
    },
    {
      "inputs": [
        {
          "internalType": "address",
          "name": "from",
          "type": "address"
        },
        {
          "internalType": "address",
          "name": "to",
          "type": "address"
        },
        {
          "internalType": "uint256",
          "name": "amount",
          "type": "uint256"
        }
      ],
      "name": "CMTAT_InvalidTransfer",
      "type": "error"
    },
    {
      "inputs": [],
      "name": "CMTAT_MintModule_AccountsValueslengthMismatch",
      "type": "error"
    },
    {
      "inputs": [],
      "name": "CMTAT_MintModule_EmptyAccounts",
      "type": "error"
    },
    {
      "inputs": [],
      "name": "CMTAT_MintModule_EmptyTos",
      "type": "error"
    },
    {
      "inputs": [],
      "name": "CMTAT_MintModule_TosValueslengthMismatch",
      "type": "error"
    },
    {
      "inputs": [],
      "name": "CMTAT_PauseModule_ContractIsDeactivated",
      "type": "error"
    },
    {
      "inputs": [
        {
          "internalType": "address",
          "name": "spender",
          "type": "address"
        },
        {
          "internalType": "uint256",
          "name": "allowance",
          "type": "uint256"
        },
        {
          "internalType": "uint256",
          "name": "needed",
          "type": "uint256"
        }
      ],
      "name": "ERC20InsufficientAllowance",
      "type": "error"
    },
    {
      "inputs": [
        {
          "internalType": "address",
          "name": "sender",
          "type": "address"
        },
        {
          "internalType": "uint256",
          "name": "balance",
          "type": "uint256"
        },
        {
          "internalType": "uint256",
          "name": "needed",
          "type": "uint256"
        }
      ],
      "name": "ERC20InsufficientBalance",
      "type": "error"
    },
    {
      "inputs": [
        {
          "internalType": "address",
          "name": "approver",
          "type": "address"
        }
      ],
      "name": "ERC20InvalidApprover",
      "type": "error"
    },
    {
      "inputs": [
        {
          "internalType": "address",
          "name": "receiver",
          "type": "address"
        }
      ],
      "name": "ERC20InvalidReceiver",
      "type": "error"
    },
    {
      "inputs": [
        {
          "internalType": "address",
          "name": "sender",
          "type": "address"
        }
      ],
      "name": "ERC20InvalidSender",
      "type": "error"
    },
    {
      "inputs": [
        {
          "internalType": "address",
          "name": "spender",
          "type": "address"
        }
      ],
      "name": "ERC20InvalidSpender",
      "type": "error"
    },
    {
      "inputs": [],
      "name": "EnforcedPause",
      "type": "error"
    },
    {
      "inputs": [],
      "name": "ExpectedPause",
      "type": "error"
    },
    {
      "inputs": [],
      "name": "InvalidInitialization",
      "type": "error"
    },
    {
      "inputs": [],
      "name": "NotInitializing",
      "type": "error"
    },
    {
      "anonymous": false,
      "inputs": [
        {
          "indexed": true,
          "internalType": "address",
          "name": "account",
          "type": "address"
        },
        {
          "indexed": true,
          "internalType": "bool",
          "name": "isFrozen",
          "type": "bool"
        },
        {
          "indexed": true,
          "internalType": "address",
          "name": "enforcer",
          "type": "address"
        },
        {
          "indexed": false,
          "internalType": "bytes",
          "name": "data",
          "type": "bytes"
        }
      ],
      "name": "AddressFrozen",
      "type": "event"
    },
    {
      "anonymous": false,
      "inputs": [
        {
          "indexed": true,
          "internalType": "address",
          "name": "owner",
          "type": "address"
        },
        {
          "indexed": true,
          "internalType": "address",
          "name": "spender",
          "type": "address"
        },
        {
          "indexed": false,
          "internalType": "uint256",
          "name": "value",
          "type": "uint256"
        }
      ],
      "name": "Approval",
      "type": "event"
    },
    {
      "anonymous": false,
      "inputs": [
        {
          "indexed": true,
          "internalType": "address",
          "name": "burner",
          "type": "address"
        },
        {
          "indexed": false,
          "internalType": "address[]",
          "name": "accounts",
          "type": "address[]"
        },
        {
          "indexed": false,
          "internalType": "uint256[]",
          "name": "values",
          "type": "uint256[]"
        },
        {
          "indexed": false,
          "internalType": "bytes",
          "name": "data",
          "type": "bytes"
        }
      ],
      "name": "BatchBurn",
      "type": "event"
    },
    {
      "anonymous": false,
      "inputs": [
        {
          "indexed": true,
          "internalType": "address",
          "name": "minter",
          "type": "address"
        },
        {
          "indexed": false,
          "internalType": "address[]",
          "name": "accounts",
          "type": "address[]"
        },
        {
          "indexed": false,
          "internalType": "uint256[]",
          "name": "values",
          "type": "uint256[]"
        }
      ],
      "name": "BatchMint",
      "type": "event"
    },
    {
      "anonymous": false,
      "inputs": [
        {
          "indexed": true,
          "internalType": "address",
          "name": "burner",
          "type": "address"
        },
        {
          "indexed": true,
          "internalType": "address",
          "name": "account",
          "type": "address"
        },
        {
          "indexed": false,
          "internalType": "uint256",
          "name": "value",
          "type": "uint256"
        },
        {
          "indexed": false,
          "internalType": "bytes",
          "name": "data",
          "type": "bytes"
        }
      ],
      "name": "Burn",
      "type": "event"
    },
    {
      "anonymous": false,
      "inputs": [
        {
          "indexed": false,
          "internalType": "address",
          "name": "account",
          "type": "address"
        }
      ],
      "name": "Deactivated",
      "type": "event"
    },
    {
      "anonymous": false,
      "inputs": [
        {
          "indexed": true,
          "internalType": "address",
          "name": "enforcer",
          "type": "address"
        },
        {
          "indexed": true,
          "internalType": "address",
          "name": "account",
          "type": "address"
        },
        {
          "indexed": false,
          "internalType": "uint256",
          "name": "amount",
          "type": "uint256"
        },
        {
          "indexed": false,
          "internalType": "bytes",
          "name": "data",
          "type": "bytes"
        }
      ],
      "name": "Enforcement",
      "type": "event"
    },
    {
      "anonymous": false,
      "inputs": [
        {
          "indexed": false,
          "internalType": "uint64",
          "name": "version",
          "type": "uint64"
        }
      ],
      "name": "Initialized",
      "type": "event"
    },
    {
      "anonymous": false,
      "inputs": [
        {
          "indexed": true,
          "internalType": "address",
          "name": "minter",
          "type": "address"
        },
        {
          "indexed": true,
          "internalType": "address",
          "name": "account",
          "type": "address"
        },
        {
          "indexed": false,
          "internalType": "uint256",
          "name": "value",
          "type": "uint256"
        },
        {
          "indexed": false,
          "internalType": "bytes",
          "name": "data",
          "type": "bytes"
        }
      ],
      "name": "Mint",
      "type": "event"
    },
    {
      "anonymous": false,
      "inputs": [
        {
          "indexed": true,
          "internalType": "string",
          "name": "newNameIndexed",
          "type": "string"
        },
        {
          "indexed": false,
          "internalType": "string",
          "name": "newName",
          "type": "string"
        }
      ],
      "name": "Name",
      "type": "event"
    },
    {
      "anonymous": false,
      "inputs": [
        {
          "indexed": false,
          "internalType": "address",
          "name": "account",
          "type": "address"
        }
      ],
      "name": "Paused",
      "type": "event"
    },
    {
      "anonymous": false,
      "inputs": [
        {
          "indexed": true,
          "internalType": "bytes32",
          "name": "role",
          "type": "bytes32"
        },
        {
          "indexed": true,
          "internalType": "bytes32",
          "name": "previousAdminRole",
          "type": "bytes32"
        },
        {
          "indexed": true,
          "internalType": "bytes32",
          "name": "newAdminRole",
          "type": "bytes32"
        }
      ],
      "name": "RoleAdminChanged",
      "type": "event"
    },
    {
      "anonymous": false,
      "inputs": [
        {
          "indexed": true,
          "internalType": "bytes32",
          "name": "role",
          "type": "bytes32"
        },
        {
          "indexed": true,
          "internalType": "address",
          "name": "account",
          "type": "address"
        },
        {
          "indexed": true,
          "internalType": "address",
          "name": "sender",
          "type": "address"
        }
      ],
      "name": "RoleGranted",
      "type": "event"
    },
    {
      "anonymous": false,
      "inputs": [
        {
          "indexed": true,
          "internalType": "bytes32",
          "name": "role",
          "type": "bytes32"
        },
        {
          "indexed": true,
          "internalType": "address",
          "name": "account",
          "type": "address"
        },
        {
          "indexed": true,
          "internalType": "address",
          "name": "sender",
          "type": "address"
        }
      ],
      "name": "RoleRevoked",
      "type": "event"
    },
    {
      "anonymous": false,
      "inputs": [
        {
          "indexed": true,
          "internalType": "address",
          "name": "account",
          "type": "address"
        },
        {
          "indexed": true,
          "internalType": "address",
          "name": "spender",
          "type": "address"
        },
        {
          "indexed": false,
          "internalType": "uint256",
          "name": "value",
          "type": "uint256"
        }
      ],
      "name": "Spend",
      "type": "event"
    },
    {
      "anonymous": false,
      "inputs": [
        {
          "indexed": true,
          "internalType": "string",
          "name": "newSymbolIndexed",
          "type": "string"
        },
        {
          "indexed": false,
          "internalType": "string",
          "name": "newSymbol",
          "type": "string"
        }
      ],
      "name": "Symbol",
      "type": "event"
    },
    {
      "anonymous": false,
      "inputs": [
        {
          "indexed": true,
          "internalType": "address",
          "name": "from",
          "type": "address"
        },
        {
          "indexed": true,
          "internalType": "address",
          "name": "to",
          "type": "address"
        },
        {
          "indexed": false,
          "internalType": "uint256",
          "name": "value",
          "type": "uint256"
        }
      ],
      "name": "Transfer",
      "type": "event"
    },
    {
      "anonymous": false,
      "inputs": [
        {
          "indexed": false,
          "internalType": "address",
          "name": "account",
          "type": "address"
        }
      ],
      "name": "Unpaused",
      "type": "event"
    },
    {
      "inputs": [],
      "name": "BURNER_ROLE",
      "outputs": [
        {
          "internalType": "bytes32",
          "name": "",
          "type": "bytes32"
        }
      ],
      "stateMutability": "view",
      "type": "function"
    },
    {
      "inputs": [],
      "name": "DEFAULT_ADMIN_ROLE",
      "outputs": [
        {
          "internalType": "bytes32",
          "name": "",
          "type": "bytes32"
        }
      ],
      "stateMutability": "view",
      "type": "function"
    },
    {
      "inputs": [],
      "name": "ENFORCER_ROLE",
      "outputs": [
        {
          "internalType": "bytes32",
          "name": "",
          "type": "bytes32"
        }
      ],
      "stateMutability": "view",
      "type": "function"
    },
    {
      "inputs": [],
      "name": "MINTER_ROLE",
      "outputs": [
        {
          "internalType": "bytes32",
          "name": "",
          "type": "bytes32"
        }
      ],
      "stateMutability": "view",
      "type": "function"
    },
    {
      "inputs": [],
      "name": "PAUSER_ROLE",
      "outputs": [
        {
          "internalType": "bytes32",
          "name": "",
          "type": "bytes32"
        }
      ],
      "stateMutability": "view",
      "type": "function"
    },
    {
      "inputs": [
        {
          "internalType": "address",
          "name": "owner",
          "type": "address"
        },
        {
          "internalType": "address",
          "name": "spender",
          "type": "address"
        }
      ],
      "name": "allowance",
      "outputs": [
        {
          "internalType": "uint256",
          "name": "",
          "type": "uint256"
        }
      ],
      "stateMutability": "view",
      "type": "function"
    },
    {
      "inputs": [
        {
          "internalType": "address",
          "name": "spender",
          "type": "address"
        },
        {
          "internalType": "uint256",
          "name": "value",
          "type": "uint256"
        }
      ],
      "name": "approve",
      "outputs": [
        {
          "internalType": "bool",
          "name": "",
          "type": "bool"
        }
      ],
      "stateMutability": "nonpayable",
      "type": "function"
    },
    {
      "inputs": [
        {
          "internalType": "address",
          "name": "account",
          "type": "address"
        }
      ],
      "name": "balanceOf",
      "outputs": [
        {
          "internalType": "uint256",
          "name": "",
          "type": "uint256"
        }
      ],
      "stateMutability": "view",
      "type": "function"
    },
    {
      "inputs": [
        {
          "internalType": "address[]",
          "name": "addresses",
          "type": "address[]"
        }
      ],
      "name": "batchBalanceOf",
      "outputs": [
        {
          "internalType": "uint256[]",
          "name": "balances",
          "type": "uint256[]"
        },
        {
          "internalType": "uint256",
          "name": "totalSupply_",
          "type": "uint256"
        }
      ],
      "stateMutability": "view",
      "type": "function"
    },
    {
      "inputs": [
        {
          "internalType": "address[]",
          "name": "accounts",
          "type": "address[]"
        },
        {
          "internalType": "uint256[]",
          "name": "values",
          "type": "uint256[]"
        }
      ],
      "name": "batchBurn",
      "outputs": [],
      "stateMutability": "nonpayable",
      "type": "function"
    },
    {
      "inputs": [
        {
          "internalType": "address[]",
          "name": "accounts",
          "type": "address[]"
        },
        {
          "internalType": "uint256[]",
          "name": "values",
          "type": "uint256[]"
        },
        {
          "internalType": "bytes",
          "name": "data",
          "type": "bytes"
        }
      ],
      "name": "batchBurn",
      "outputs": [],
      "stateMutability": "nonpayable",
      "type": "function"
    },
    {
      "inputs": [
        {
          "internalType": "address[]",
          "name": "accounts",
          "type": "address[]"
        },
        {
          "internalType": "uint256[]",
          "name": "values",
          "type": "uint256[]"
        }
      ],
      "name": "batchMint",
      "outputs": [],
      "stateMutability": "nonpayable",
      "type": "function"
    },
    {
      "inputs": [
        {
          "internalType": "address[]",
          "name": "accounts",
          "type": "address[]"
        },
        {
          "internalType": "bool[]",
          "name": "freezes",
          "type": "bool[]"
        }
      ],
      "name": "batchSetAddressFrozen",
      "outputs": [],
      "stateMutability": "nonpayable",
      "type": "function"
    },
    {
      "inputs": [
        {
          "internalType": "address[]",
          "name": "tos",
          "type": "address[]"
        },
        {
          "internalType": "uint256[]",
          "name": "values",
          "type": "uint256[]"
        }
      ],
      "name": "batchTransfer",
      "outputs": [
        {
          "internalType": "bool",
          "name": "success_",
          "type": "bool"
        }
      ],
      "stateMutability": "nonpayable",
      "type": "function"
    },
    {
      "inputs": [
        {
          "internalType": "address",
          "name": "account",
          "type": "address"
        },
        {
          "internalType": "uint256",
          "name": "value",
          "type": "uint256"
        },
        {
          "internalType": "bytes",
          "name": "data",
          "type": "bytes"
        }
      ],
      "name": "burn",
      "outputs": [],
      "stateMutability": "nonpayable",
      "type": "function"
    },
    {
      "inputs": [
        {
          "internalType": "address",
          "name": "account",
          "type": "address"
        },
        {
          "internalType": "uint256",
          "name": "value",
          "type": "uint256"
        }
      ],
      "name": "burn",
      "outputs": [],
      "stateMutability": "nonpayable",
      "type": "function"
    },
    {
      "inputs": [
        {
          "internalType": "address",
          "name": "from",
          "type": "address"
        },
        {
          "internalType": "address",
          "name": "to",
          "type": "address"
        },
        {
          "internalType": "uint256",
          "name": "amountToBurn",
          "type": "uint256"
        },
        {
          "internalType": "uint256",
          "name": "amountToMint",
          "type": "uint256"
        },
        {
          "internalType": "bytes",
          "name": "data",
          "type": "bytes"
        }
      ],
      "name": "burnAndMint",
      "outputs": [],
      "stateMutability": "nonpayable",
      "type": "function"
    },
    {
      "inputs": [
        {
          "internalType": "address",
          "name": "from",
          "type": "address"
        },
        {
          "internalType": "address",
          "name": "to",
          "type": "address"
        },
        {
          "internalType": "uint256",
          "name": "value",
          "type": "uint256"
        }
      ],
      "name": "canTransfer",
      "outputs": [
        {
          "internalType": "bool",
          "name": "",
          "type": "bool"
        }
      ],
      "stateMutability": "view",
      "type": "function"
    },
    {
      "inputs": [
        {
          "internalType": "address",
          "name": "spender",
          "type": "address"
        },
        {
          "internalType": "address",
          "name": "from",
          "type": "address"
        },
        {
          "internalType": "address",
          "name": "to",
          "type": "address"
        },
        {
          "internalType": "uint256",
          "name": "value",
          "type": "uint256"
        }
      ],
      "name": "canTransferFrom",
      "outputs": [
        {
          "internalType": "bool",
          "name": "",
          "type": "bool"
        }
      ],
      "stateMutability": "view",
      "type": "function"
    },
    {
      "inputs": [],
      "name": "deactivateContract",
      "outputs": [],
      "stateMutability": "nonpayable",
      "type": "function"
    },
    {
      "inputs": [],
      "name": "deactivated",
      "outputs": [
        {
          "internalType": "bool",
          "name": "",
          "type": "bool"
        }
      ],
      "stateMutability": "view",
      "type": "function"
    },
    {
      "inputs": [],
      "name": "decimals",
      "outputs": [
        {
          "internalType": "uint8",
          "name": "",
          "type": "uint8"
        }
      ],
      "stateMutability": "view",
      "type": "function"
    },
    {
      "inputs": [
        {
          "internalType": "address",
          "name": "account",
          "type": "address"
        },
        {
          "internalType": "uint256",
          "name": "value",
          "type": "uint256"
        },
        {
          "internalType": "bytes",
          "name": "data",
          "type": "bytes"
        }
      ],
      "name": "forcedBurn",
      "outputs": [],
      "stateMutability": "nonpayable",
      "type": "function"
    },
    {
      "inputs": [
        {
          "internalType": "bytes32",
          "name": "role",
          "type": "bytes32"
        }
      ],
      "name": "getRoleAdmin",
      "outputs": [
        {
          "internalType": "bytes32",
          "name": "",
          "type": "bytes32"
        }
      ],
      "stateMutability": "view",
      "type": "function"
    },
    {
      "inputs": [
        {
          "internalType": "bytes32",
          "name": "role",
          "type": "bytes32"
        },
        {
          "internalType": "address",
          "name": "account",
          "type": "address"
        }
      ],
      "name": "grantRole",
      "outputs": [],
      "stateMutability": "nonpayable",
      "type": "function"
    },
    {
      "inputs": [
        {
          "internalType": "bytes32",
          "name": "role",
          "type": "bytes32"
        },
        {
          "internalType": "address",
          "name": "account",
          "type": "address"
        }
      ],
      "name": "hasRole",
      "outputs": [
        {
          "internalType": "bool",
          "name": "",
          "type": "bool"
        }
      ],
      "stateMutability": "view",
      "type": "function"
    },
    {
      "inputs": [
        {
          "internalType": "address",
          "name": "admin",
          "type": "address"
        },
        {
          "components": [
            {
              "internalType": "string",
              "name": "name",
              "type": "string"
            },
            {
              "internalType": "string",
              "name": "symbol",
              "type": "string"
            },
            {
              "internalType": "uint8",
              "name": "decimalsIrrevocable",
              "type": "uint8"
            }
          ],
          "internalType": "struct ICMTATConstructor.ERC20Attributes",
          "name": "ERC20Attributes_",
          "type": "tuple"
        }
      ],
      "name": "initialize",
      "outputs": [],
      "stateMutability": "nonpayable",
      "type": "function"
    },
    {
      "inputs": [
        {
          "internalType": "address",
          "name": "account",
          "type": "address"
        }
      ],
      "name": "isFrozen",
      "outputs": [
        {
          "internalType": "bool",
          "name": "isFrozen_",
          "type": "bool"
        }
      ],
      "stateMutability": "view",
      "type": "function"
    },
    {
      "inputs": [
        {
          "internalType": "address",
          "name": "account",
          "type": "address"
        },
        {
          "internalType": "uint256",
          "name": "value",
          "type": "uint256"
        }
      ],
      "name": "mint",
      "outputs": [],
      "stateMutability": "nonpayable",
      "type": "function"
    },
    {
      "inputs": [
        {
          "internalType": "address",
          "name": "account",
          "type": "address"
        },
        {
          "internalType": "uint256",
          "name": "value",
          "type": "uint256"
        },
        {
          "internalType": "bytes",
          "name": "data",
          "type": "bytes"
        }
      ],
      "name": "mint",
      "outputs": [],
      "stateMutability": "nonpayable",
      "type": "function"
    },
    {
      "inputs": [],
      "name": "name",
      "outputs": [
        {
          "internalType": "string",
          "name": "",
          "type": "string"
        }
      ],
      "stateMutability": "view",
      "type": "function"
    },
    {
      "inputs": [],
      "name": "pause",
      "outputs": [],
      "stateMutability": "nonpayable",
      "type": "function"
    },
    {
      "inputs": [],
      "name": "paused",
      "outputs": [
        {
          "internalType": "bool",
          "name": "",
          "type": "bool"
        }
      ],
      "stateMutability": "view",
      "type": "function"
    },
    {
      "inputs": [
        {
          "internalType": "bytes32",
          "name": "role",
          "type": "bytes32"
        },
        {
          "internalType": "address",
          "name": "callerConfirmation",
          "type": "address"
        }
      ],
      "name": "renounceRole",
      "outputs": [],
      "stateMutability": "nonpayable",
      "type": "function"
    },
    {
      "inputs": [
        {
          "internalType": "bytes32",
          "name": "role",
          "type": "bytes32"
        },
        {
          "internalType": "address",
          "name": "account",
          "type": "address"
        }
      ],
      "name": "revokeRole",
      "outputs": [],
      "stateMutability": "nonpayable",
      "type": "function"
    },
    {
      "inputs": [
        {
          "internalType": "address",
          "name": "account",
          "type": "address"
        },
        {
          "internalType": "bool",
          "name": "freeze",
          "type": "bool"
        },
        {
          "internalType": "bytes",
          "name": "data",
          "type": "bytes"
        }
      ],
      "name": "setAddressFrozen",
      "outputs": [],
      "stateMutability": "nonpayable",
      "type": "function"
    },
    {
      "inputs": [
        {
          "internalType": "address",
          "name": "account",
          "type": "address"
        },
        {
          "internalType": "bool",
          "name": "freeze",
          "type": "bool"
        }
      ],
      "name": "setAddressFrozen",
      "outputs": [],
      "stateMutability": "nonpayable",
      "type": "function"
    },
    {
      "inputs": [
        {
          "internalType": "string",
          "name": "name_",
          "type": "string"
        }
      ],
      "name": "setName",
      "outputs": [],
      "stateMutability": "nonpayable",
      "type": "function"
    },
    {
      "inputs": [
        {
          "internalType": "string",
          "name": "symbol_",
          "type": "string"
        }
      ],
      "name": "setSymbol",
      "outputs": [],
      "stateMutability": "nonpayable",
      "type": "function"
    },
    {
      "inputs": [
        {
          "internalType": "bytes4",
          "name": "interfaceId",
          "type": "bytes4"
        }
      ],
      "name": "supportsInterface",
      "outputs": [
        {
          "internalType": "bool",
          "name": "",
          "type": "bool"
        }
      ],
      "stateMutability": "view",
      "type": "function"
    },
    {
      "inputs": [],
      "name": "symbol",
      "outputs": [
        {
          "internalType": "string",
          "name": "",
          "type": "string"
        }
      ],
      "stateMutability": "view",
      "type": "function"
    },
    {
      "inputs": [],
      "name": "totalSupply",
      "outputs": [
        {
          "internalType": "uint256",
          "name": "",
          "type": "uint256"
        }
      ],
      "stateMutability": "view",
      "type": "function"
    },
    {
      "inputs": [
        {
          "internalType": "address",
          "name": "to",
          "type": "address"
        },
        {
          "internalType": "uint256",
          "name": "value",
          "type": "uint256"
        }
      ],
      "name": "transfer",
      "outputs": [
        {
          "internalType": "bool",
          "name": "",
          "type": "bool"
        }
      ],
      "stateMutability": "nonpayable",
      "type": "function"
    },
    {
      "inputs": [
        {
          "internalType": "address",
          "name": "from",
          "type": "address"
        },
        {
          "internalType": "address",
          "name": "to",
          "type": "address"
        },
        {
          "internalType": "uint256",
          "name": "value",
          "type": "uint256"
        }
      ],
      "name": "transferFrom",
      "outputs": [
        {
          "internalType": "bool",
          "name": "",
          "type": "bool"
        }
      ],
      "stateMutability": "nonpayable",
      "type": "function"
    },
    {
      "inputs": [],
      "name": "unpause",
      "outputs": [],
      "stateMutability": "nonpayable",
      "type": "function"
    },
    {
      "inputs": [],
      "name": "version",
      "outputs": [
        {
          "internalType": "string",
          "name": "version_",
          "type": "string"
        }
      ],
      "stateMutability": "view",
      "type": "function"
    }
  ],
  "bytecode": "0x6080604052348015600e575f5ffd5b5060156019565b60c9565b7ff0c57e16840df040f15088dc2f81fe391c3923bec73e23a9662efc9c229c6a00805468010000000000000000900460ff161560685760405163f92ee8a960e01b815260040160405180910390fd5b80546001600160401b039081161460c65780546001600160401b0319166001600160401b0390811782556040519081527fc7f505b2f371ae2175ee4913f4499e1f2633a7b5936321eed1cdaeb6115181d29060200160405180910390a15b50565b612b7c806100d65f395ff3fe608060405234801561000f575f5ffd5b5060043610610281575f3560e01c80637157797f11610156578063b84c8246116100ca578063d547741f11610084578063d547741f146105c0578063dd62ed3e146105d3578063e46638e6146105e6578063e5839836146105f9578063e63ab1e91461060c578063f64692f214610633575f5ffd5b8063b84c824614610558578063bca353be1461056b578063c47f002714610573578063c69c09cf14610586578063cf270aa914610599578063d5391393146105ac575f5ffd5b806395d89b411161011b57806395d89b41146104fd5780639dc29fac14610505578063a217fddf14610518578063a9059cbb1461051f578063a99ac24514610532578063b1f5569f14610545575f5ffd5b80637157797f146104a95780638456cb59146104bc57806388d695b2146104c457806391d14854146104d757806394d008ef146104ea575f5ffd5b8063313ce567116101f857806354fd4d50116101b257806354fd4d501461040a578063556ed30e1461042b5780635c975abb146104335780636439fd751461043b578063685731071461044f57806370a0823114610462575f5ffd5b8063313ce5671461039c57806336568abe146103b65780633f4ba83a146103c957806340c10f19146103d157806344d17187146103e45780634a6cc677146103f7575f5ffd5b806318796d441161024957806318796d44146103275780631a7af3791461033c57806323b872dd1461034f578063248a9ca314610362578063282c51f3146103755780632f2ff15d14610389575f5ffd5b806301ffc9a71461028557806306fdde03146102ad578063095ea7b3146102c25780630c3cc61a146102d557806318160ddd146102f6575b5f5ffd5b610298610293366004611fc9565b610646565b60405190151581526020015b60405180910390f35b6102b561067c565b6040516102a4919061201e565b6102986102d036600461204b565b61068b565b6102e86102e33660046120ba565b6106a2565b6040516102a49291906120f8565b7f52c63247e1f47db19d5ce0460030c497f067ca4cebf71ba98eeadabe20bace02545b6040519081526020016102a4565b61033a610335366004612181565b61076f565b005b61033a61034a3660046121f3565b61078f565b61029861035d36600461225d565b6107c8565b610319610370366004612297565b61081c565b6103195f516020612aa75f395f51905f5281565b61033a6103973660046122ae565b61083c565b6103a461085e565b60405160ff90911681526020016102a4565b61033a6103c43660046122ae565b610867565b61033a61089f565b61033a6103df36600461204b565b610919565b61033a6103f23660046122cf565b610949565b61033a6104053660046121f3565b6109a0565b6040805180820190915260058152640332e302e360dc1b60208201526102b5565b610298610a11565b610298610a3f565b6103195f516020612b275f395f51905f5281565b61033a61045d3660046121f3565b610a48565b610319610470366004612318565b6001600160a01b03165f9081527f52c63247e1f47db19d5ce0460030c497f067ca4cebf71ba98eeadabe20bace00602052604090205490565b6102986104b7366004612331565b610aaa565b61033a610ac0565b6102986104d23660046121f3565b610af5565b6102986104e53660046122ae565b610b23565b61033a6104f83660046122cf565b610b2e565b6102b5610b85565b61033a61051336600461204b565b610b8f565b6103195f81565b61029861052d36600461204b565b610bbf565b61033a610540366004612388565b610c00565b61033a610553366004612497565b610c57565b61033a61056636600461252d565b610ccb565b61033a610d67565b61033a61058136600461252d565b610de6565b61033a61059436600461255f565b610e74565b61033a6105a7366004612587565b610ea4565b6103195f516020612ae75f395f51905f5281565b61033a6105ce3660046122ae565b610f9d565b6103196105e1366004612649565b610fb9565b6102986105f436600461225d565b611002565b610298610607366004612318565b61100f565b6103197f65d7a28e3265b37a6474929f336521b332c1681b933f6cb9f3376673440d862a81565b61033a610641366004612671565b61104e565b5f6001600160e01b03198216637965db0b60e01b148061067657506301ffc9a760e01b6001600160e01b03198316145b92915050565b60606106866110db565b905090565b5f3361069881858561119b565b5060019392505050565b60605f826001600160401b038111156106bd576106bd6123cc565b6040519080825280602002602001820160405280156106e6578160200160208202803683370190505b5091505f5b838110156107425761071d858583818110610708576107086126c3565b90506020020160208101906104709190612318565b83828151811061072f5761072f6126c3565b60209081029190910101526001016106eb565b507f52c63247e1f47db19d5ce0460030c497f067ca4cebf71ba98eeadabe20bace02545b90509250929050565b61077b86858484610949565b61078785848484610b2e565b505050505050565b5f516020612b275f395f51905f526107a6816111a8565b6107c18585858560405180602001604052805f8152506111b2565b5050505050565b5f6107d533858585610aaa565b8484849091926108045760405163013a574760e41b81526004016107fb939291906126d7565b60405180910390fd5b505050610812848484611249565b90505b9392505050565b5f9081525f516020612b075f395f51905f52602052604090206001015490565b6108458261081c565b61084e816111a8565b61085883836112a6565b50505050565b5f610686611347565b6001600160a01b03811633146108905760405163334bd91960e11b815260040160405180910390fd5b61089a828261135c565b505050565b7f65d7a28e3265b37a6474929f336521b332c1681b933f6cb9f3376673440d862a6108c9816111a8565b7fab1527b6135145d8da1edcbd6b7b270624e17f2b41c74a8c746ff388ad454700805460ff161561090d57604051631b19da4d60e11b815260040160405180910390fd5b6109156113d5565b5050565b5f516020612ae75f395f51905f52610930816111a8565b61089a838360405180602001604052805f815250611447565b5f516020612aa75f395f51905f52610960816111a8565b6107c1858585858080601f0160208091040260200160405190810160405280939291908181526020018383808284375f920191909152506114a392505050565b5f516020612aa75f395f51905f526109b7816111a8565b6109c3858585856114f2565b336001600160a01b03167f72daf4490e83933de80c122aa40ad26e3d1312ac3efbf2edcee640aa8556ddc686868686604051610a029493929190612771565b60405180910390a25050505050565b5f807fab1527b6135145d8da1edcbd6b7b270624e17f2b41c74a8c746ff388ad4547005b5460ff1692915050565b5f61068661158d565b5f516020612ae75f395f51905f52610a5f816111a8565b610a6b858585856115b5565b336001600160a01b03167fbc3f1481a323af3866d85a300235055c5b81e0ab3563d50b17226f63072161f086868686604051610a0294939291906127b3565b5f610ab78585858561164d565b95945050505050565b7f65d7a28e3265b37a6474929f336521b332c1681b933f6cb9f3376673440d862a610aea816111a8565b610af2611659565b50565b5f5f516020612ae75f395f51905f52610b0d816111a8565b610b19868686866116b4565b9695505050505050565b5f610815838361175c565b5f516020612ae75f395f51905f52610b45816111a8565b6107c1858585858080601f0160208091040260200160405190810160405280939291908181526020018383808284375f9201919091525061144792505050565b6060610686611785565b5f516020612aa75f395f51905f52610ba6816111a8565b61089a838360405180602001604052805f8152506114a3565b5f33610bcc818585611002565b818585909192610bf25760405163013a574760e41b81526004016107fb939291906126d7565b5050506106988185856117c3565b5f516020612b275f395f51905f52610c17816111a8565b6107c1858585858080601f0160208091040260200160405190810160405280939291908181526020018383808284375f9201919091525061182092505050565b5f516020612aa75f395f51905f52610c6e816111a8565b610c7a868686866114f2565b336001600160a01b03167f72daf4490e83933de80c122aa40ad26e3d1312ac3efbf2edcee640aa8556ddc68787878787604051610cbb9594939291906127e4565b60405180910390a2505050505050565b5f610cd5816111a8565b5f516020612ac75f395f51905f527f9bd8d607565c0370ae5f91651ca67fd26d4438022bf72037316600e29e6a3a02610d0f8486836128a6565b508383604051610d2092919061295f565b60405180910390207f4a48eefa86906ea82ddc91803a5f00818355982247dc29c521714f6dc207aacd8585604051610d5992919061296e565b60405180910390a250505050565b5f610d71816111a8565b610d7961184d565b7fab1527b6135145d8da1edcbd6b7b270624e17f2b41c74a8c746ff388ad454700805460ff191660011781557f749cb6b4c510bc468cf6b9c2086d6f0a54d6b18e25d37bf3200e68eab0880c00336040516001600160a01b03909116815260200160405180910390a15050565b5f610df0816111a8565b5f516020612ac75f395f51905f527f9bd8d607565c0370ae5f91651ca67fd26d4438022bf72037316600e29e6a3a01610e2a8486836128a6565b508383604051610e3b92919061295f565b60405180910390207fe4e4a54c5c394e44fde10a0ae1277d8bd8621848cc8dfd73eddd39bcf9f2d9b28585604051610d5992919061296e565b5f516020612b275f395f51905f52610e8b816111a8565b61089a838360405180602001604052805f815250611820565b5f610ead611874565b805490915060ff600160401b82041615906001600160401b03165f81158015610ed35750825b90505f826001600160401b03166001148015610eee5750303b155b905081158015610efc575080155b15610f1a5760405163f92ee8a960e01b815260040160405180910390fd5b845467ffffffffffffffff191660011785558315610f4457845460ff60401b1916600160401b1785555b610f4e878761189c565b8315610f9457845460ff60401b19168555604051600181527fc7f505b2f371ae2175ee4913f4499e1f2633a7b5936321eed1cdaeb6115181d29060200160405180910390a15b50505050505050565b610fa68261081c565b610faf816111a8565b610858838361135c565b6001600160a01b039182165f9081527f52c63247e1f47db19d5ce0460030c497f067ca4cebf71ba98eeadabe20bace016020908152604080832093909416825291909152205490565b5f6108125f85858561164d565b6001600160a01b0381165f9081527f0c7bc8a17be064111d299d7669f49519cb26c58611b72d9f6ccc40a1e1184e00602052604081205460ff16610676565b5f611058816111a8565b6110618461100f565b61107e57604051636f66c7b560e11b815260040160405180910390fd5b61108884846118c6565b6001600160a01b038416336001600160a01b03167f9aaf0e2b2a23aa776f679b9fe17552a7fa59d6cb1057b37156024a8c587a947f85856040516110cd92919061299c565b60405180910390a350505050565b7f9bd8d607565c0370ae5f91651ca67fd26d4438022bf72037316600e29e6a3a0180546060915f516020612ac75f395f51905f52916111199061282a565b80601f01602080910402602001604051908101604052809291908181526020018280546111459061282a565b80156111905780601f1061116757610100808354040283529160200191611190565b820191905f5260205f20905b81548152906001019060200180831161117357829003601f168201915b505050505091505090565b61089a83838360016118fa565b610af281336119f0565b6111be85858585611a29565b7f0c7bc8a17be064111d299d7669f49519cb26c58611b72d9f6ccc40a1e1184e005f5b85811015610f9457611241828888848181106111ff576111ff6126c3565b90506020020160208101906112149190612318565b878785818110611226576112266126c3565b905060200201602081019061123b91906129b4565b86611a67565b6001016111e1565b5f5f611256858585611ade565b905080156108125760405183815233906001600160a01b038716907f7c2b9369bf4a6bd9745889c658ad00a4d57e280c4c80fa1c74db2a9e52c136359060200160405180910390a3949350505050565b5f5f516020612b075f395f51905f526112bf8484610b23565b61133e575f848152602082815260408083206001600160a01b03871684529091529020805460ff191660011790556112f43390565b6001600160a01b0316836001600160a01b0316857f2f8788117e7eff1d82e926ec794901d17c78024a50270940304540a733656f0d60405160405180910390a46001915050610676565b5f915050610676565b5f805f516020612ac75f395f51905f52610a35565b5f5f516020612b075f395f51905f526113758484610b23565b1561133e575f848152602082815260408083206001600160a01b0387168085529252808320805460ff1916905551339287917ff6391f5c32d9c69d2a47ea670b442974b53935d1edc7fd64eb21e047a839171b9190a46001915050610676565b6113dd61184d565b7fcd5ed15c6e187e77e9aee88184c21f4f2182ab5827cb3b7e07fbedcd63f03300805460ff191681557f5db9ee0a495bf2e6ff9c91a7834c1ba4fdd244a5e8aa4e537bd38aeae4b073aa335b6040516001600160a01b03909116815260200160405180910390a150565b6114518383611b01565b6001600160a01b038316336001600160a01b03167f30c99b8e9449992bd7616d2645b02ee0a2b6f229a45d6b56b686963ff0c53497848460405161149692919061299c565b60405180910390a3505050565b6114ad8383611b3d565b6001600160a01b038316336001600160a01b03167f21e3428dd0c1de86ad5cb0d4df91049f26e9711489b51d1e9b5d5a53ebae1f63848460405161149692919061299c565b5f839003611513576040516311eaa8e760e21b815260040160405180910390fd5b82811461153357604051637a9d6e6d60e01b815260040160405180910390fd5b5f5b838110156107c157611585858583818110611552576115526126c3565b90506020020160208101906115679190612318565b848484818110611579576115796126c3565b90506020020135611b3d565b600101611535565b5f807fcd5ed15c6e187e77e9aee88184c21f4f2182ab5827cb3b7e07fbedcd63f03300610a35565b826115d357604051630c7e659960e01b815260040160405180910390fd5b8281146115f3576040516307a4e50160e21b815260040160405180910390fd5b5f5b838110156107c157611645858583818110611612576116126126c3565b90506020020160208101906116279190612318565b848484818110611639576116396126c3565b90506020020135611b01565b6001016115f5565b5f610ab7858585611b79565b611661611bf8565b7fcd5ed15c6e187e77e9aee88184c21f4f2182ab5827cb3b7e07fbedcd63f03300805460ff191660011781557f62e78cea01bee320cd4e420270b5ea74000d11b0c9f74754ebdbfc544b05a25833611429565b5f836116d357604051634723eac960e01b815260040160405180910390fd5b338285146116f457604051637e81047760e11b815260040160405180910390fd5b5f5b8581101561174f5761174782888884818110611714576117146126c3565b90506020020160208101906117299190612318565b87878581811061173b5761173b6126c3565b90506020020135611c1e565b6001016116f6565b5060019695505050505050565b5f6117678183611c5d565b1561177457506001610676565b61177e8383611c5d565b9050610676565b7f9bd8d607565c0370ae5f91651ca67fd26d4438022bf72037316600e29e6a3a0280546060915f516020612ac75f395f51905f52916111199061282a565b6001600160a01b0383166117ec57604051634b637e8f60e11b81525f60048201526024016107fb565b6001600160a01b0382166118155760405163ec442f0560e01b81525f60048201526024016107fb565b61089a838383611c93565b7f0c7bc8a17be064111d299d7669f49519cb26c58611b72d9f6ccc40a1e1184e0061085881858585611a67565b611855610a3f565b61187257604051638dfc202b60e01b815260040160405180910390fd5b565b5f807ff0c57e16840df040f15088dc2f81fe391c3923bec73e23a9662efc9c229c6a00610676565b6118a4611dd1565b6118ac611df6565b6118b4611df6565b6118bc611dfe565b6109158282611e16565b6001600160a01b0382166118ef57604051634b637e8f60e11b81525f60048201526024016107fb565b610915825f83611c93565b7f52c63247e1f47db19d5ce0460030c497f067ca4cebf71ba98eeadabe20bace006001600160a01b0385166119445760405163e602df0560e01b81525f60048201526024016107fb565b6001600160a01b03841661196d57604051634a1406b160e11b81525f60048201526024016107fb565b6001600160a01b038086165f908152600183016020908152604080832093881683529290522083905581156107c157836001600160a01b0316856001600160a01b03167f8c5be1e5ebec7d5bd14f71427d1e84f3dd0314c0f7b2291e5b200ac8c7c3b925856040516119e191815260200190565b60405180910390a35050505050565b6119fa8282610b23565b6109155760405163e2517d3f60e01b81526001600160a01b0382166004820152602481018390526044016107fb565b82611a4757604051630e35356160e11b815260040160405180910390fd5b8281146108585760405163142e444b60e01b815260040160405180910390fd5b6001600160a01b0383165f908152602085905260409020805460ff1916831515179055336001600160a01b0316821515846001600160a01b03167f5c115173b119951ab162218e6a2495eb7b93888dda22421e2be9c4ee5d71088284604051611ad0919061201e565b60405180910390a450505050565b5f33611aeb858285611e3d565b611af68585856117c3565b506001949350505050565b611b0a82611e9b565b5f8383909192611b305760405163013a574760e41b81526004016107fb939291906126d7565b5050506109158282611ec7565b611b4682611e9b565b825f83909192611b6c5760405163013a574760e41b81526004016107fb939291906126d7565b5050506109158282611ed1565b5f6001600160a01b038316611b9857611b9182611e9b565b9050610815565b6001600160a01b038216611baf57611b9183611e9b565b611bb88461100f565b80611bc75750611bc78361100f565b80611bd65750611bd68261100f565b80611be45750611be4610a3f565b15611bf057505f610815565b506001610815565b611c00610a3f565b156118725760405163d93c066560e01b815260040160405180910390fd5b611c29838383611002565b838383909192611c4f5760405163013a574760e41b81526004016107fb939291906126d7565b50505061089a838383611edb565b5f9182525f516020612b075f395f51905f52602090815260408084206001600160a01b0393909316845291905290205460ff1690565b7f52c63247e1f47db19d5ce0460030c497f067ca4cebf71ba98eeadabe20bace006001600160a01b038416611ce05781816002015f828254611cd591906129cd565b90915550611d509050565b6001600160a01b0384165f9081526020829052604090205482811015611d325760405163391434e360e21b81526001600160a01b038616600482015260248101829052604481018490526064016107fb565b6001600160a01b0385165f9081526020839052604090209083900390555b6001600160a01b038316611d6e576002810180548390039055611d8c565b6001600160a01b0383165f9081526020829052604090208054830190555b826001600160a01b0316846001600160a01b03167fddf252ad1be2c89b69c2b068fc378daa952ba7f163c4a11628f55a4df523b3ef846040516110cd91815260200190565b611dd9611ee6565b61187257604051631afcd79f60e31b815260040160405180910390fd5b611872611dd1565b611e06611dd1565b611e0e611df6565b611872611df6565b611e1e611dd1565b611e2782611eff565b6109158160400151825f01518360200151611f38565b5f611e488484610fb9565b90505f198110156108585781811015611e8d57604051637dc7a0d960e11b81526001600160a01b038416600482015260248101829052604481018390526064016107fb565b61085884848484035f6118fa565b5f611ea4610a11565b80611eb35750611eb38261100f565b15611ebf57505f919050565b506001919050565b6109158282611f95565b61091582826118c6565b61089a8383836117c3565b5f611eef611874565b54600160401b900460ff16919050565b611f07611dd1565b6001600160a01b038116611f2e5760405163011d80f760e01b815260040160405180910390fd5b6109155f826112a6565b611f40611dd1565b5f516020612ac75f395f51905f52805460ff191660ff85161781557f9bd8d607565c0370ae5f91651ca67fd26d4438022bf72037316600e29e6a3a02611f8683826129ec565b50600181016107c184826129ec565b6001600160a01b038216611fbe5760405163ec442f0560e01b81525f60048201526024016107fb565b6109155f8383611c93565b5f60208284031215611fd9575f5ffd5b81356001600160e01b031981168114610815575f5ffd5b5f81518084528060208401602086015e5f602082860101526020601f19601f83011685010191505092915050565b602081525f6108156020830184611ff0565b80356001600160a01b0381168114612046575f5ffd5b919050565b5f5f6040838503121561205c575f5ffd5b61206583612030565b946020939093013593505050565b5f5f83601f840112612083575f5ffd5b5081356001600160401b03811115612099575f5ffd5b6020830191508360208260051b85010111156120b3575f5ffd5b9250929050565b5f5f602083850312156120cb575f5ffd5b82356001600160401b038111156120e0575f5ffd5b6120ec85828601612073565b90969095509350505050565b604080825283519082018190525f9060208501906060840190835b81811015612131578351835260209384019390920191600101612113565b5050602093909301939093525092915050565b5f5f83601f840112612154575f5ffd5b5081356001600160401b0381111561216a575f5ffd5b6020830191508360208285010111156120b3575f5ffd5b5f5f5f5f5f5f60a08789031215612196575f5ffd5b61219f87612030565b95506121ad60208801612030565b9450604087013593506060870135925060808701356001600160401b038111156121d5575f5ffd5b6121e189828a01612144565b979a9699509497509295939492505050565b5f5f5f5f60408587031215612206575f5ffd5b84356001600160401b0381111561221b575f5ffd5b61222787828801612073565b90955093505060208501356001600160401b03811115612245575f5ffd5b61225187828801612073565b95989497509550505050565b5f5f5f6060848603121561226f575f5ffd5b61227884612030565b925061228660208501612030565b929592945050506040919091013590565b5f602082840312156122a7575f5ffd5b5035919050565b5f5f604083850312156122bf575f5ffd5b8235915061076660208401612030565b5f5f5f5f606085870312156122e2575f5ffd5b6122eb85612030565b93506020850135925060408501356001600160401b0381111561230c575f5ffd5b61225187828801612144565b5f60208284031215612328575f5ffd5b61081582612030565b5f5f5f5f60808587031215612344575f5ffd5b61234d85612030565b935061235b60208601612030565b925061236960408601612030565b9396929550929360600135925050565b80358015158114612046575f5ffd5b5f5f5f5f6060858703121561239b575f5ffd5b6123a485612030565b93506123b260208601612379565b925060408501356001600160401b0381111561230c575f5ffd5b634e487b7160e01b5f52604160045260245ffd5b604051606081016001600160401b0381118282101715612402576124026123cc565b60405290565b5f82601f830112612417575f5ffd5b8135602083015f5f6001600160401b03841115612436576124366123cc565b50604051601f19601f85018116603f011681018181106001600160401b0382111715612464576124646123cc565b60405283815290508082840187101561247b575f5ffd5b838360208301375f602085830101528094505050505092915050565b5f5f5f5f5f606086880312156124ab575f5ffd5b85356001600160401b038111156124c0575f5ffd5b6124cc88828901612073565b90965094505060208601356001600160401b038111156124ea575f5ffd5b6124f688828901612073565b90945092505060408601356001600160401b03811115612514575f5ffd5b61252088828901612408565b9150509295509295909350565b5f5f6020838503121561253e575f5ffd5b82356001600160401b03811115612553575f5ffd5b6120ec85828601612144565b5f5f60408385031215612570575f5ffd5b61257983612030565b915061076660208401612379565b5f5f60408385031215612598575f5ffd5b6125a183612030565b915060208301356001600160401b038111156125bb575f5ffd5b8301606081860312156125cc575f5ffd5b6125d46123e0565b81356001600160401b038111156125e9575f5ffd5b6125f587828501612408565b82525060208201356001600160401b03811115612610575f5ffd5b61261c87828501612408565b6020830152506040820135915060ff82168214612637575f5ffd5b81604082015280925050509250929050565b5f5f6040838503121561265a575f5ffd5b61266383612030565b915061076660208401612030565b5f5f5f60608486031215612683575f5ffd5b61268c84612030565b92506020840135915060408401356001600160401b038111156126ad575f5ffd5b6126b986828701612408565b9150509250925092565b634e487b7160e01b5f52603260045260245ffd5b6001600160a01b039384168152919092166020820152604081019190915260600190565b8183526020830192505f815f5b84811015612737576001600160a01b0361272183612030565b1686526020958601959190910190600101612708565b5093949350505050565b8183525f6001600160fb1b03831115612758575f5ffd5b8260051b80836020870137939093016020019392505050565b606081525f6127846060830186886126fb565b8281036020840152612797818587612741565b83810360409094019390935250505f8152602001949350505050565b604081525f6127c66040830186886126fb565b82810360208401526127d9818587612741565b979650505050505050565b606081525f6127f76060830187896126fb565b828103602084015261280a818688612741565b9050828103604084015261281e8185611ff0565b98975050505050505050565b600181811c9082168061283e57607f821691505b60208210810361285c57634e487b7160e01b5f52602260045260245ffd5b50919050565b601f82111561089a57805f5260205f20601f840160051c810160208510156128875750805b601f840160051c820191505b818110156107c1575f8155600101612893565b6001600160401b038311156128bd576128bd6123cc565b6128d1836128cb835461282a565b83612862565b5f601f841160018114612902575f85156128eb5750838201355b5f19600387901b1c1916600186901b1783556107c1565b5f83815260208120601f198716915b828110156129315786850135825560209485019460019092019101612911565b508682101561294d575f1960f88860031b161c19848701351681555b505060018560011b0183555050505050565b818382375f9101908152919050565b60208152816020820152818360408301375f818301604090810191909152601f909201601f19160101919050565b828152604060208201525f6108126040830184611ff0565b5f602082840312156129c4575f5ffd5b61081582612379565b8082018082111561067657634e487b7160e01b5f52601160045260245ffd5b81516001600160401b03811115612a0557612a056123cc565b612a1981612a13845461282a565b84612862565b6020601f821160018114612a4b575f8315612a345750848201515b5f19600385901b1c1916600184901b1784556107c1565b5f84815260208120601f198516915b82811015612a7a5787850151825560209485019460019092019101612a5a565b5084821015612a9757868401515f19600387901b60f8161c191681555b50505050600190811b0190555056fe3c11d16cbaffd01df69ce1c404f6340ee057498f5f00246190ea54220576a8489bd8d607565c0370ae5f91651ca67fd26d4438022bf72037316600e29e6a3a009f2df0fed2c77648de5860a4cc508cd0818c85b8b8a1ab4ceeef8d981c8956a602dd7bc7dec4dceedda775e58dd541e08a116c6c53815c0bd028192f7b626800973ef39d76cc2c6090feab1c030bec6ab5db557f64df047a4c4f9b5953cf1df3a2646970667358221220122a311ee20e47e582ed806e23fc0bfd0fa1a3b2fa72635e02036823c78dd50164736f6c634300081e0033",
  "linkReferences": {},
  "deployedLinkReferences": {}
}