{
  "_format": "hh-sol-artifact-1",
  "contractName": "CMTATUpgradeableUUPS",
  "sourceName": "contracts/deployment/CMTATUpgradeableUUPS.sol",
  "abi": [
    {
      "inputs": [
        {
          "internalType": "address",
          "name": "forwarderIrrevocable",
          "type": "address"
        }
      ],
      "stateMutability": "nonpayable",
      "type": "constructor"
    },
    {
      "inputs": [],
      "name": "AccessControlBadConfirmation",
      "type": "error"
    },
    {
      "inputs": [
        {
          "internalType": "address",
          "name": "account",
          "type": "address"
        },
        {
          "internalType": "bytes32",
          "name": "neededRole",
          "type": "bytes32"
        }
      ],
      "name": "AccessControlUnauthorizedAccount",
      "type": "error"
    },
    {
      "inputs": [
        {
          "internalType": "address",
          "name": "target",
          "type": "address"
        }
      ],
      "name": "AddressEmptyCode",
      "type": "error"
    },
    {
      "inputs": [],
      "name": "CMTAT_AccessControlModule_AddressZeroNotAllowed",
      "type": "error"
    },
    {
      "inputs": [],
      "name": "CMTAT_BurnModule_AccountsValueslengthMismatch",
      "type": "error"
    },
    {
      "inputs": [],
      "name": "CMTAT_BurnModule_EmptyAccounts",
      "type": "error"
    },
    {
      "inputs": [],
      "name": "CMTAT_CCIPModule_SameValue",
      "type": "error"
    },
    {
      "inputs": [],
      "name": "CMTAT_DocumentEngineModule_SameValue",
      "type": "error"
    },
    {
      "inputs": [],
      "name": "CMTAT_ERC20EnforcementModule_ValueExceedsActiveBalance",
      "type": "error"
    },
    {
      "inputs": [],
      "name": "CMTAT_ERC20EnforcementModule_ValueExceedsAvailableBalance",
      "type": "error"
    },
    {
      "inputs": [],
      "name": "CMTAT_ERC20EnforcementModule_ValueExceedsFrozenBalance",
      "type": "error"
    },
    {
      "inputs": [],
      "name": "CMTAT_Enforcement_AccountsValueslengthMismatch",
      "type": "error"
    },
    {
      "inputs": [],
      "name": "CMTAT_Enforcement_EmptyAccounts",
      "type": "error"
    },
    {
      "inputs": [
        {
          "internalType": "address",
          "name": "from",
          "type": "address"
        },
        {
          "internalType": "address",
          "name": "to",
          "type": "address"
        },
        {
          "internalType": "uint256",
          "name": "amount",
          "type": "uint256"
        }
      ],
      "name": "CMTAT_InvalidTransfer",
      "type": "error"
    },
    {
      "inputs": [],
      "name": "CMTAT_MintModule_AccountsValueslengthMismatch",
      "type": "error"
    },
    {
      "inputs": [],
      "name": "CMTAT_MintModule_EmptyAccounts",
      "type": "error"
    },
    {
      "inputs": [],
      "name": "CMTAT_MintModule_EmptyTos",
      "type": "error"
    },
    {
      "inputs": [],
      "name": "CMTAT_MintModule_TosValueslengthMismatch",
      "type": "error"
    },
    {
      "inputs": [],
      "name": "CMTAT_PauseModule_ContractIsDeactivated",
      "type": "error"
    },
    {
      "inputs": [],
      "name": "CMTAT_SnapshotModule_SameValue",
      "type": "error"
    },
    {
      "inputs": [],
      "name": "CMTAT_ValidationModule_SameValue",
      "type": "error"
    },
    {
      "inputs": [
        {
          "internalType": "address",
          "name": "implementation",
          "type": "address"
        }
      ],
      "name": "ERC1967InvalidImplementation",
      "type": "error"
    },
    {
      "inputs": [],
      "name": "ERC1967NonPayable",
      "type": "error"
    },
    {
      "inputs": [
        {
          "internalType": "address",
          "name": "spender",
          "type": "address"
        },
        {
          "internalType": "uint256",
          "name": "allowance",
          "type": "uint256"
        },
        {
          "internalType": "uint256",
          "name": "needed",
          "type": "uint256"
        }
      ],
      "name": "ERC20InsufficientAllowance",
      "type": "error"
    },
    {
      "inputs": [
        {
          "internalType": "address",
          "name": "sender",
          "type": "address"
        },
        {
          "internalType": "uint256",
          "name": "balance",
          "type": "uint256"
        },
        {
          "internalType": "uint256",
          "name": "needed",
          "type": "uint256"
        }
      ],
      "name": "ERC20InsufficientBalance",
      "type": "error"
    },
    {
      "inputs": [
        {
          "internalType": "address",
          "name": "approver",
          "type": "address"
        }
      ],
      "name": "ERC20InvalidApprover",
      "type": "error"
    },
    {
      "inputs": [
        {
          "internalType": "address",
          "name": "receiver",
          "type": "address"
        }
      ],
      "name": "ERC20InvalidReceiver",
      "type": "error"
    },
    {
      "inputs": [
        {
          "internalType": "address",
          "name": "sender",
          "type": "address"
        }
      ],
      "name": "ERC20InvalidSender",
      "type": "error"
    },
    {
      "inputs": [
        {
          "internalType": "address",
          "name": "spender",
          "type": "address"
        }
      ],
      "name": "ERC20InvalidSpender",
      "type": "error"
    },
    {
      "inputs": [],
      "name": "EnforcedPause",
      "type": "error"
    },
    {
      "inputs": [],
      "name": "ExpectedPause",
      "type": "error"
    },
    {
      "inputs": [],
      "name": "FailedCall",
      "type": "error"
    },
    {
      "inputs": [],
      "name": "InvalidInitialization",
      "type": "error"
    },
    {
      "inputs": [],
      "name": "NotInitializing",
      "type": "error"
    },
    {
      "inputs": [],
      "name": "UUPSUnauthorizedCallContext",
      "type": "error"
    },
    {
      "inputs": [
        {
          "internalType": "bytes32",
          "name": "slot",
          "type": "bytes32"
        }
      ],
      "name": "UUPSUnsupportedProxiableUUID",
      "type": "error"
    },
    {
      "anonymous": false,
      "inputs": [
        {
          "indexed": true,
          "internalType": "address",
          "name": "account",
          "type": "address"
        },
        {
          "indexed": true,
          "internalType": "bool",
          "name": "isFrozen",
          "type": "bool"
        },
        {
          "indexed": true,
          "internalType": "address",
          "name": "enforcer",
          "type": "address"
        },
        {
          "indexed": false,
          "internalType": "bytes",
          "name": "data",
          "type": "bytes"
        }
      ],
      "name": "AddressFrozen",
      "type": "event"
    },
    {
      "anonymous": false,
      "inputs": [
        {
          "indexed": true,
          "internalType": "address",
          "name": "owner",
          "type": "address"
        },
        {
          "indexed": true,
          "internalType": "address",
          "name": "spender",
          "type": "address"
        },
        {
          "indexed": false,
          "internalType": "uint256",
          "name": "value",
          "type": "uint256"
        }
      ],
      "name": "Approval",
      "type": "event"
    },
    {
      "anonymous": false,
      "inputs": [
        {
          "indexed": true,
          "internalType": "address",
          "name": "burner",
          "type": "address"
        },
        {
          "indexed": false,
          "internalType": "address[]",
          "name": "accounts",
          "type": "address[]"
        },
        {
          "indexed": false,
          "internalType": "uint256[]",
          "name": "values",
          "type": "uint256[]"
        },
        {
          "indexed": false,
          "internalType": "bytes",
          "name": "data",
          "type": "bytes"
        }
      ],
      "name": "BatchBurn",
      "type": "event"
    },
    {
      "anonymous": false,
      "inputs": [
        {
          "indexed": true,
          "internalType": "address",
          "name": "minter",
          "type": "address"
        },
        {
          "indexed": false,
          "internalType": "address[]",
          "name": "accounts",
          "type": "address[]"
        },
        {
          "indexed": false,
          "internalType": "uint256[]",
          "name": "values",
          "type": "uint256[]"
        }
      ],
      "name": "BatchMint",
      "type": "event"
    },
    {
      "anonymous": false,
      "inputs": [
        {
          "indexed": true,
          "internalType": "address",
          "name": "burner",
          "type": "address"
        },
        {
          "indexed": true,
          "internalType": "address",
          "name": "account",
          "type": "address"
        },
        {
          "indexed": false,
          "internalType": "uint256",
          "name": "value",
          "type": "uint256"
        },
        {
          "indexed": false,
          "internalType": "bytes",
          "name": "data",
          "type": "bytes"
        }
      ],
      "name": "Burn",
      "type": "event"
    },
    {
      "anonymous": false,
      "inputs": [
        {
          "indexed": true,
          "internalType": "address",
          "name": "burner",
          "type": "address"
        },
        {
          "indexed": true,
          "internalType": "address",
          "name": "account",
          "type": "address"
        },
        {
          "indexed": true,
          "internalType": "address",
          "name": "spender",
          "type": "address"
        },
        {
          "indexed": false,
          "internalType": "uint256",
          "name": "value",
          "type": "uint256"
        }
      ],
      "name": "BurnFrom",
      "type": "event"
    },
    {
      "anonymous": false,
      "inputs": [
        {
          "indexed": true,
          "internalType": "address",
          "name": "previousAdmin",
          "type": "address"
        },
        {
          "indexed": true,
          "internalType": "address",
          "name": "newAdmin",
          "type": "address"
        }
      ],
      "name": "CCIPAdminTransferred",
      "type": "event"
    },
    {
      "anonymous": false,
      "inputs": [
        {
          "indexed": true,
          "internalType": "address",
          "name": "from",
          "type": "address"
        },
        {
          "indexed": false,
          "internalType": "uint256",
          "name": "value",
          "type": "uint256"
        },
        {
          "indexed": true,
          "internalType": "address",
          "name": "sender",
          "type": "address"
        }
      ],
      "name": "CrosschainBurn",
      "type": "event"
    },
    {
      "anonymous": false,
      "inputs": [
        {
          "indexed": true,
          "internalType": "address",
          "name": "to",
          "type": "address"
        },
        {
          "indexed": false,
          "internalType": "uint256",
          "name": "value",
          "type": "uint256"
        },
        {
          "indexed": true,
          "internalType": "address",
          "name": "sender",
          "type": "address"
        }
      ],
      "name": "CrosschainMint",
      "type": "event"
    },
    {
      "anonymous": false,
      "inputs": [
        {
          "indexed": false,
          "internalType": "address",
          "name": "account",
          "type": "address"
        }
      ],
      "name": "Deactivated",
      "type": "event"
    },
    {
      "anonymous": false,
      "inputs": [
        {
          "indexed": true,
          "internalType": "contract IERC1643",
          "name": "newDocumentEngine",
          "type": "address"
        }
      ],
      "name": "DocumentEngine",
      "type": "event"
    },
    {
      "anonymous": false,
      "inputs": [
        {
          "indexed": true,
          "internalType": "address",
          "name": "enforcer",
          "type": "address"
        },
        {
          "indexed": true,
          "internalType": "address",
          "name": "account",
          "type": "address"
        },
        {
          "indexed": false,
          "internalType": "uint256",
          "name": "amount",
          "type": "uint256"
        },
        {
          "indexed": false,
          "internalType": "bytes",
          "name": "data",
          "type": "bytes"
        }
      ],
      "name": "Enforcement",
      "type": "event"
    },
    {
      "anonymous": false,
      "inputs": [
        {
          "indexed": false,
          "internalType": "string",
          "name": "newInformation",
          "type": "string"
        }
      ],
      "name": "Information",
      "type": "event"
    },
    {
      "anonymous": false,
      "inputs": [
        {
          "indexed": false,
          "internalType": "uint64",
          "name": "version",
          "type": "uint64"
        }
      ],
      "name": "Initialized",
      "type": "event"
    },
    {
      "anonymous": false,
      "inputs": [
        {
          "indexed": true,
          "internalType": "address",
          "name": "minter",
          "type": "address"
        },
        {
          "indexed": true,
          "internalType": "address",
          "name": "account",
          "type": "address"
        },
        {
          "indexed": false,
          "internalType": "uint256",
          "name": "value",
          "type": "uint256"
        },
        {
          "indexed": false,
          "internalType": "bytes",
          "name": "data",
          "type": "bytes"
        }
      ],
      "name": "Mint",
      "type": "event"
    },
    {
      "anonymous": false,
      "inputs": [
        {
          "indexed": true,
          "internalType": "string",
          "name": "newNameIndexed",
          "type": "string"
        },
        {
          "indexed": false,
          "internalType": "string",
          "name": "newName",
          "type": "string"
        }
      ],
      "name": "Name",
      "type": "event"
    },
    {
      "anonymous": false,
      "inputs": [
        {
          "indexed": false,
          "internalType": "address",
          "name": "account",
          "type": "address"
        }
      ],
      "name": "Paused",
      "type": "event"
    },
    {
      "anonymous": false,
      "inputs": [
        {
          "indexed": true,
          "internalType": "bytes32",
          "name": "role",
          "type": "bytes32"
        },
        {
          "indexed": true,
          "internalType": "bytes32",
          "name": "previousAdminRole",
          "type": "bytes32"
        },
        {
          "indexed": true,
          "internalType": "bytes32",
          "name": "newAdminRole",
          "type": "bytes32"
        }
      ],
      "name": "RoleAdminChanged",
      "type": "event"
    },
    {
      "anonymous": false,
      "inputs": [
        {
          "indexed": true,
          "internalType": "bytes32",
          "name": "role",
          "type": "bytes32"
        },
        {
          "indexed": true,
          "internalType": "address",
          "name": "account",
          "type": "address"
        },
        {
          "indexed": true,
          "internalType": "address",
          "name": "sender",
          "type": "address"
        }
      ],
      "name": "RoleGranted",
      "type": "event"
    },
    {
      "anonymous": false,
      "inputs": [
        {
          "indexed": true,
          "internalType": "bytes32",
          "name": "role",
          "type": "bytes32"
        },
        {
          "indexed": true,
          "internalType": "address",
          "name": "account",
          "type": "address"
        },
        {
          "indexed": true,
          "internalType": "address",
          "name": "sender",
          "type": "address"
        }
      ],
      "name": "RoleRevoked",
      "type": "event"
    },
    {
      "anonymous": false,
      "inputs": [
        {
          "indexed": true,
          "internalType": "contract IRuleEngine",
          "name": "newRuleEngine",
          "type": "address"
        }
      ],
      "name": "RuleEngine",
      "type": "event"
    },
    {
      "anonymous": false,
      "inputs": [
        {
          "indexed": true,
          "internalType": "contract ISnapshotEngine",
          "name": "newSnapshotEngine",
          "type": "address"
        }
      ],
      "name": "SnapshotEngine",
      "type": "event"
    },
    {
      "anonymous": false,
      "inputs": [
        {
          "indexed": true,
          "internalType": "address",
          "name": "account",
          "type": "address"
        },
        {
          "indexed": true,
          "internalType": "address",
          "name": "spender",
          "type": "address"
        },
        {
          "indexed": false,
          "internalType": "uint256",
          "name": "value",
          "type": "uint256"
        }
      ],
      "name": "Spend",
      "type": "event"
    },
    {
      "anonymous": false,
      "inputs": [
        {
          "indexed": true,
          "internalType": "string",
          "name": "newSymbolIndexed",
          "type": "string"
        },
        {
          "indexed": false,
          "internalType": "string",
          "name": "newSymbol",
          "type": "string"
        }
      ],
      "name": "Symbol",
      "type": "event"
    },
    {
      "anonymous": false,
      "inputs": [
        {
          "components": [
            {
              "internalType": "string",
              "name": "name",
              "type": "string"
            },
            {
              "components": [
                {
                  "internalType": "string",
                  "name": "uri",
                  "type": "string"
                },
                {
                  "internalType": "bytes32",
                  "name": "documentHash",
                  "type": "bytes32"
                },
                {
                  "internalType": "uint256",
                  "name": "lastModified",
                  "type": "uint256"
                }
              ],
              "internalType": "struct IERC1643.Document",
              "name": "doc",
              "type": "tuple"
            }
          ],
          "indexed": false,
          "internalType": "struct ICMTATBase.CMTATTerms",
          "name": "newTerm",
          "type": "tuple"
        }
      ],
      "name": "Terms",
      "type": "event"
    },
    {
      "anonymous": false,
      "inputs": [
        {
          "indexed": true,
          "internalType": "string",
          "name": "newTokenIdIndexed",
          "type": "string"
        },
        {
          "indexed": false,
          "internalType": "string",
          "name": "newTokenId",
          "type": "string"
        }
      ],
      "name": "TokenId",
      "type": "event"
    },
    {
      "anonymous": false,
      "inputs": [
        {
          "indexed": true,
          "internalType": "address",
          "name": "account",
          "type": "address"
        },
        {
          "indexed": false,
          "internalType": "uint256",
          "name": "value",
          "type": "uint256"
        },
        {
          "indexed": false,
          "internalType": "bytes",
          "name": "data",
          "type": "bytes"
        }
      ],
      "name": "TokensFrozen",
      "type": "event"
    },
    {
      "anonymous": false,
      "inputs": [
        {
          "indexed": true,
          "internalType": "address",
          "name": "account",
          "type": "address"
        },
        {
          "indexed": false,
          "internalType": "uint256",
          "name": "value",
          "type": "uint256"
        },
        {
          "indexed": false,
          "internalType": "bytes",
          "name": "data",
          "type": "bytes"
        }
      ],
      "name": "TokensUnfrozen",
      "type": "event"
    },
    {
      "anonymous": false,
      "inputs": [
        {
          "indexed": true,
          "internalType": "address",
          "name": "from",
          "type": "address"
        },
        {
          "indexed": true,
          "internalType": "address",
          "name": "to",
          "type": "address"
        },
        {
          "indexed": false,
          "internalType": "uint256",
          "name": "value",
          "type": "uint256"
        }
      ],
      "name": "Transfer",
      "type": "event"
    },
    {
      "anonymous": false,
      "inputs": [
        {
          "indexed": false,
          "internalType": "address",
          "name": "account",
          "type": "address"
        }
      ],
      "name": "Unpaused",
      "type": "event"
    },
    {
      "anonymous": false,
      "inputs": [
        {
          "indexed": true,
          "internalType": "address",
          "name": "implementation",
          "type": "address"
        }
      ],
      "name": "Upgraded",
      "type": "event"
    },
    {
      "inputs": [],
      "name": "BURNER_FROM_ROLE",
      "outputs": [
        {
          "internalType": "bytes32",
          "name": "",
          "type": "bytes32"
        }
      ],
      "stateMutability": "view",
      "type": "function"
    },
    {
      "inputs": [],
      "name": "BURNER_ROLE",
      "outputs": [
        {
          "internalType": "bytes32",
          "name": "",
          "type": "bytes32"
        }
      ],
      "stateMutability": "view",
      "type": "function"
    },
    {
      "inputs": [],
      "name": "BURNER_SELF_ROLE",
      "outputs": [
        {
          "internalType": "bytes32",
          "name": "",
          "type": "bytes32"
        }
      ],
      "stateMutability": "view",
      "type": "function"
    },
    {
      "inputs": [],
      "name": "CROSS_CHAIN_ROLE",
      "outputs": [
        {
          "internalType": "bytes32",
          "name": "",
          "type": "bytes32"
        }
      ],
      "stateMutability": "view",
      "type": "function"
    },
    {
      "inputs": [],
      "name": "DEFAULT_ADMIN_ROLE",
      "outputs": [
        {
          "internalType": "bytes32",
          "name": "",
          "type": "bytes32"
        }
      ],
      "stateMutability": "view",
      "type": "function"
    },
    {
      "inputs": [],
      "name": "DOCUMENT_ROLE",
      "outputs": [
        {
          "internalType": "bytes32",
          "name": "",
          "type": "bytes32"
        }
      ],
      "stateMutability": "view",
      "type": "function"
    },
    {
      "inputs": [],
      "name": "ENFORCER_ROLE",
      "outputs": [
        {
          "internalType": "bytes32",
          "name": "",
          "type": "bytes32"
        }
      ],
      "stateMutability": "view",
      "type": "function"
    },
    {
      "inputs": [],
      "name": "ERC20ENFORCER_ROLE",
      "outputs": [
        {
          "internalType": "bytes32",
          "name": "",
          "type": "bytes32"
        }
      ],
      "stateMutability": "view",
      "type": "function"
    },
    {
      "inputs": [],
      "name": "EXTRA_INFORMATION_ROLE",
      "outputs": [
        {
          "internalType": "bytes32",
          "name": "",
          "type": "bytes32"
        }
      ],
      "stateMutability": "view",
      "type": "function"
    },
    {
      "inputs": [],
      "name": "MINTER_ROLE",
      "outputs": [
        {
          "internalType": "bytes32",
          "name": "",
          "type": "bytes32"
        }
      ],
      "stateMutability": "view",
      "type": "function"
    },
    {
      "inputs": [],
      "name": "PAUSER_ROLE",
      "outputs": [
        {
          "internalType": "bytes32",
          "name": "",
          "type": "bytes32"
        }
      ],
      "stateMutability": "view",
      "type": "function"
    },
    {
      "inputs": [],
      "name": "PROXY_UPGRADE_ROLE",
      "outputs": [
        {
          "internalType": "bytes32",
          "name": "",
          "type": "bytes32"
        }
      ],
      "stateMutability": "view",
      "type": "function"
    },
    {
      "inputs": [],
      "name": "SNAPSHOOTER_ROLE",
      "outputs": [
        {
          "internalType": "bytes32",
          "name": "",
          "type": "bytes32"
        }
      ],
      "stateMutability": "view",
      "type": "function"
    },
    {
      "inputs": [],
      "name": "UPGRADE_INTERFACE_VERSION",
      "outputs": [
        {
          "internalType": "string",
          "name": "",
          "type": "string"
        }
      ],
      "stateMutability": "view",
      "type": "function"
    },
    {
      "inputs": [
        {
          "internalType": "address",
          "name": "owner",
          "type": "address"
        },
        {
          "internalType": "address",
          "name": "spender",
          "type": "address"
        }
      ],
      "name": "allowance",
      "outputs": [
        {
          "internalType": "uint256",
          "name": "",
          "type": "uint256"
        }
      ],
      "stateMutability": "view",
      "type": "function"
    },
    {
      "inputs": [
        {
          "internalType": "address",
          "name": "spender",
          "type": "address"
        },
        {
          "internalType": "uint256",
          "name": "value",
          "type": "uint256"
        }
      ],
      "name": "approve",
      "outputs": [
        {
          "internalType": "bool",
          "name": "",
          "type": "bool"
        }
      ],
      "stateMutability": "nonpayable",
      "type": "function"
    },
    {
      "inputs": [
        {
          "internalType": "address",
          "name": "account",
          "type": "address"
        }
      ],
      "name": "balanceOf",
      "outputs": [
        {
          "internalType": "uint256",
          "name": "",
          "type": "uint256"
        }
      ],
      "stateMutability": "view",
      "type": "function"
    },
    {
      "inputs": [
        {
          "internalType": "address[]",
          "name": "addresses",
          "type": "address[]"
        }
      ],
      "name": "batchBalanceOf",
      "outputs": [
        {
          "internalType": "uint256[]",
          "name": "balances",
          "type": "uint256[]"
        },
        {
          "internalType": "uint256",
          "name": "totalSupply_",
          "type": "uint256"
        }
      ],
      "stateMutability": "view",
      "type": "function"
    },
    {
      "inputs": [
        {
          "internalType": "address[]",
          "name": "accounts",
          "type": "address[]"
        },
        {
          "internalType": "uint256[]",
          "name": "values",
          "type": "uint256[]"
        }
      ],
      "name": "batchBurn",
      "outputs": [],
      "stateMutability": "nonpayable",
      "type": "function"
    },
    {
      "inputs": [
        {
          "internalType": "address[]",
          "name": "accounts",
          "type": "address[]"
        },
        {
          "internalType": "uint256[]",
          "name": "values",
          "type": "uint256[]"
        },
        {
          "internalType": "bytes",
          "name": "data",
          "type": "bytes"
        }
      ],
      "name": "batchBurn",
      "outputs": [],
      "stateMutability": "nonpayable",
      "type": "function"
    },
    {
      "inputs": [
        {
          "internalType": "address[]",
          "name": "accounts",
          "type": "address[]"
        },
        {
          "internalType": "uint256[]",
          "name": "values",
          "type": "uint256[]"
        }
      ],
      "name": "batchMint",
      "outputs": [],
      "stateMutability": "nonpayable",
      "type": "function"
    },
    {
      "inputs": [
        {
          "internalType": "address[]",
          "name": "accounts",
          "type": "address[]"
        },
        {
          "internalType": "bool[]",
          "name": "freezes",
          "type": "bool[]"
        }
      ],
      "name": "batchSetAddressFrozen",
      "outputs": [],
      "stateMutability": "nonpayable",
      "type": "function"
    },
    {
      "inputs": [
        {
          "internalType": "address[]",
          "name": "tos",
          "type": "address[]"
        },
        {
          "internalType": "uint256[]",
          "name": "values",
          "type": "uint256[]"
        }
      ],
      "name": "batchTransfer",
      "outputs": [
        {
          "internalType": "bool",
          "name": "success_",
          "type": "bool"
        }
      ],
      "stateMutability": "nonpayable",
      "type": "function"
    },
    {
      "inputs": [
        {
          "internalType": "uint256",
          "name": "value",
          "type": "uint256"
        }
      ],
      "name": "burn",
      "outputs": [],
      "stateMutability": "nonpayable",
      "type": "function"
    },
    {
      "inputs": [
        {
          "internalType": "address",
          "name": "account",
          "type": "address"
        },
        {
          "internalType": "uint256",
          "name": "value",
          "type": "uint256"
        },
        {
          "internalType": "bytes",
          "name": "data",
          "type": "bytes"
        }
      ],
      "name": "burn",
      "outputs": [],
      "stateMutability": "nonpayable",
      "type": "function"
    },
    {
      "inputs": [
        {
          "internalType": "address",
          "name": "account",
          "type": "address"
        },
        {
          "internalType": "uint256",
          "name": "value",
          "type": "uint256"
        }
      ],
      "name": "burn",
      "outputs": [],
      "stateMutability": "nonpayable",
      "type": "function"
    },
    {
      "inputs": [
        {
          "internalType": "address",
          "name": "from",
          "type": "address"
        },
        {
          "internalType": "address",
          "name": "to",
          "type": "address"
        },
        {
          "internalType": "uint256",
          "name": "amountToBurn",
          "type": "uint256"
        },
        {
          "internalType": "uint256",
          "name": "amountToMint",
          "type": "uint256"
        },
        {
          "internalType": "bytes",
          "name": "data",
          "type": "bytes"
        }
      ],
      "name": "burnAndMint",
      "outputs": [],
      "stateMutability": "nonpayable",
      "type": "function"
    },
    {
      "inputs": [
        {
          "internalType": "address",
          "name": "account",
          "type": "address"
        },
        {
          "internalType": "uint256",
          "name": "value",
          "type": "uint256"
        }
      ],
      "name": "burnFrom",
      "outputs": [],
      "stateMutability": "nonpayable",
      "type": "function"
    },
    {
      "inputs": [
        {
          "internalType": "address",
          "name": "from",
          "type": "address"
        },
        {
          "internalType": "address",
          "name": "to",
          "type": "address"
        },
        {
          "internalType": "uint256",
          "name": "value",
          "type": "uint256"
        }
      ],
      "name": "canTransfer",
      "outputs": [
        {
          "internalType": "bool",
          "name": "",
          "type": "bool"
        }
      ],
      "stateMutability": "view",
      "type": "function"
    },
    {
      "inputs": [
        {
          "internalType": "address",
          "name": "spender",
          "type": "address"
        },
        {
          "internalType": "address",
          "name": "from",
          "type": "address"
        },
        {
          "internalType": "address",
          "name": "to",
          "type": "address"
        },
        {
          "internalType": "uint256",
          "name": "value",
          "type": "uint256"
        }
      ],
      "name": "canTransferFrom",
      "outputs": [
        {
          "internalType": "bool",
          "name": "",
          "type": "bool"
        }
      ],
      "stateMutability": "view",
      "type": "function"
    },
    {
      "inputs": [
        {
          "internalType": "address",
          "name": "from",
          "type": "address"
        },
        {
          "internalType": "uint256",
          "name": "value",
          "type": "uint256"
        }
      ],
      "name": "crosschainBurn",
      "outputs": [],
      "stateMutability": "nonpayable",
      "type": "function"
    },
    {
      "inputs": [
        {
          "internalType": "address",
          "name": "to",
          "type": "address"
        },
        {
          "internalType": "uint256",
          "name": "value",
          "type": "uint256"
        }
      ],
      "name": "crosschainMint",
      "outputs": [],
      "stateMutability": "nonpayable",
      "type": "function"
    },
    {
      "inputs": [],
      "name": "deactivateContract",
      "outputs": [],
      "stateMutability": "nonpayable",
      "type": "function"
    },
    {
      "inputs": [],
      "name": "deactivated",
      "outputs": [
        {
          "internalType": "bool",
          "name": "",
          "type": "bool"
        }
      ],
      "stateMutability": "view",
      "type": "function"
    },
    {
      "inputs": [],
      "name": "decimals",
      "outputs": [
        {
          "internalType": "uint8",
          "name": "",
          "type": "uint8"
        }
      ],
      "stateMutability": "view",
      "type": "function"
    },
    {
      "inputs": [
        {
          "internalType": "address",
          "name": "from",
          "type": "address"
        },
        {
          "internalType": "address",
          "name": "to",
          "type": "address"
        },
        {
          "internalType": "uint256",
          "name": "value",
          "type": "uint256"
        }
      ],
      "name": "detectTransferRestriction",
      "outputs": [
        {
          "internalType": "uint8",
          "name": "code",
          "type": "uint8"
        }
      ],
      "stateMutability": "view",
      "type": "function"
    },
    {
      "inputs": [
        {
          "internalType": "address",
          "name": "spender",
          "type": "address"
        },
        {
          "internalType": "address",
          "name": "from",
          "type": "address"
        },
        {
          "internalType": "address",
          "name": "to",
          "type": "address"
        },
        {
          "internalType": "uint256",
          "name": "value",
          "type": "uint256"
        }
      ],
      "name": "detectTransferRestrictionFrom",
      "outputs": [
        {
          "internalType": "uint8",
          "name": "code",
          "type": "uint8"
        }
      ],
      "stateMutability": "view",
      "type": "function"
    },
    {
      "inputs": [],
      "name": "documentEngine",
      "outputs": [
        {
          "internalType": "contract IERC1643",
          "name": "documentEngine_",
          "type": "address"
        }
      ],
      "stateMutability": "view",
      "type": "function"
    },
    {
      "inputs": [
        {
          "internalType": "address",
          "name": "from",
          "type": "address"
        },
        {
          "internalType": "address",
          "name": "to",
          "type": "address"
        },
        {
          "internalType": "uint256",
          "name": "value",
          "type": "uint256"
        },
        {
          "internalType": "bytes",
          "name": "data",
          "type": "bytes"
        }
      ],
      "name": "forcedTransfer",
      "outputs": [
        {
          "internalType": "bool",
          "name": "",
          "type": "bool"
        }
      ],
      "stateMutability": "nonpayable",
      "type": "function"
    },
    {
      "inputs": [
        {
          "internalType": "address",
          "name": "from",
          "type": "address"
        },
        {
          "internalType": "address",
          "name": "to",
          "type": "address"
        },
        {
          "internalType": "uint256",
          "name": "value",
          "type": "uint256"
        }
      ],
      "name": "forcedTransfer",
      "outputs": [
        {
          "internalType": "bool",
          "name": "",
          "type": "bool"
        }
      ],
      "stateMutability": "nonpayable",
      "type": "function"
    },
    {
      "inputs": [
        {
          "internalType": "address",
          "name": "account",
          "type": "address"
        },
        {
          "internalType": "uint256",
          "name": "value",
          "type": "uint256"
        }
      ],
      "name": "freezePartialTokens",
      "outputs": [],
      "stateMutability": "nonpayable",
      "type": "function"
    },
    {
      "inputs": [
        {
          "internalType": "address",
          "name": "account",
          "type": "address"
        },
        {
          "internalType": "uint256",
          "name": "value",
          "type": "uint256"
        },
        {
          "internalType": "bytes",
          "name": "data",
          "type": "bytes"
        }
      ],
      "name": "freezePartialTokens",
      "outputs": [],
      "stateMutability": "nonpayable",
      "type": "function"
    },
    {
      "inputs": [
        {
          "internalType": "address",
          "name": "account",
          "type": "address"
        }
      ],
      "name": "getActiveBalanceOf",
      "outputs": [
        {
          "internalType": "uint256",
          "name": "activeBalance_",
          "type": "uint256"
        }
      ],
      "stateMutability": "view",
      "type": "function"
    },
    {
      "inputs": [],
      "name": "getAllDocuments",
      "outputs": [
        {
          "internalType": "string[]",
          "name": "documentNames_",
          "type": "string[]"
        }
      ],
      "stateMutability": "view",
      "type": "function"
    },
    {
      "inputs": [],
      "name": "getCCIPAdmin",
      "outputs": [
        {
          "internalType": "address",
          "name": "",
          "type": "address"
        }
      ],
      "stateMutability": "view",
      "type": "function"
    },
    {
      "inputs": [
        {
          "internalType": "string",
          "name": "name",
          "type": "string"
        }
      ],
      "name": "getDocument",
      "outputs": [
        {
          "components": [
            {
              "internalType": "string",
              "name": "uri",
              "type": "string"
            },
            {
              "internalType": "bytes32",
              "name": "documentHash",
              "type": "bytes32"
            },
            {
              "internalType": "uint256",
              "name": "lastModified",
              "type": "uint256"
            }
          ],
          "internalType": "struct IERC1643.Document",
          "name": "document",
          "type": "tuple"
        }
      ],
      "stateMutability": "view",
      "type": "function"
    },
    {
      "inputs": [
        {
          "internalType": "address",
          "name": "account",
          "type": "address"
        }
      ],
      "name": "getFrozenTokens",
      "outputs": [
        {
          "internalType": "uint256",
          "name": "frozenBalance_",
          "type": "uint256"
        }
      ],
      "stateMutability": "view",
      "type": "function"
    },
    {
      "inputs": [
        {
          "internalType": "bytes32",
          "name": "role",
          "type": "bytes32"
        }
      ],
      "name": "getRoleAdmin",
      "outputs": [
        {
          "internalType": "bytes32",
          "name": "",
          "type": "bytes32"
        }
      ],
      "stateMutability": "view",
      "type": "function"
    },
    {
      "inputs": [
        {
          "internalType": "bytes32",
          "name": "role",
          "type": "bytes32"
        },
        {
          "internalType": "address",
          "name": "account",
          "type": "address"
        }
      ],
      "name": "grantRole",
      "outputs": [],
      "stateMutability": "nonpayable",
      "type": "function"
    },
    {
      "inputs": [
        {
          "internalType": "bytes32",
          "name": "role",
          "type": "bytes32"
        },
        {
          "internalType": "address",
          "name": "account",
          "type": "address"
        }
      ],
      "name": "hasRole",
      "outputs": [
        {
          "internalType": "bool",
          "name": "",
          "type": "bool"
        }
      ],
      "stateMutability": "view",
      "type": "function"
    },
    {
      "inputs": [],
      "name": "information",
      "outputs": [
        {
          "internalType": "string",
          "name": "information_",
          "type": "string"
        }
      ],
      "stateMutability": "view",
      "type": "function"
    },
    {
      "inputs": [
        {
          "internalType": "address",
          "name": "admin",
          "type": "address"
        },
        {
          "components": [
            {
              "internalType": "string",
              "name": "name",
              "type": "string"
            },
            {
              "internalType": "string",
              "name": "symbol",
              "type": "string"
            },
            {
              "internalType": "uint8",
              "name": "decimalsIrrevocable",
              "type": "uint8"
            }
          ],
          "internalType": "struct ICMTATConstructor.ERC20Attributes",
          "name": "ERC20Attributes_",
          "type": "tuple"
        },
        {
          "components": [
            {
              "internalType": "string",
              "name": "tokenId",
              "type": "string"
            },
            {
              "components": [
                {
                  "internalType": "string",
                  "name": "name",
                  "type": "string"
                },
                {
                  "internalType": "string",
                  "name": "uri",
                  "type": "string"
                },
                {
                  "internalType": "bytes32",
                  "name": "documentHash",
                  "type": "bytes32"
                }
              ],
              "internalType": "struct IERC1643CMTAT.DocumentInfo",
              "name": "terms",
              "type": "tuple"
            },
            {
              "internalType": "string",
              "name": "information",
              "type": "string"
            }
          ],
          "internalType": "struct ICMTATConstructor.ExtraInformationAttributes",
          "name": "extraInformationAttributes_",
          "type": "tuple"
        },
        {
          "components": [
            {
              "internalType": "contract IRuleEngine",
              "name": "ruleEngine",
              "type": "address"
            },
            {
              "internalType": "contract ISnapshotEngine",
              "name": "snapshotEngine",
              "type": "address"
            },
            {
              "internalType": "contract IERC1643",
              "name": "documentEngine",
              "type": "address"
            }
          ],
          "internalType": "struct ICMTATConstructor.Engine",
          "name": "engines_",
          "type": "tuple"
        }
      ],
      "name": "initialize",
      "outputs": [],
      "stateMutability": "nonpayable",
      "type": "function"
    },
    {
      "inputs": [
        {
          "internalType": "address",
          "name": "account",
          "type": "address"
        }
      ],
      "name": "isFrozen",
      "outputs": [
        {
          "internalType": "bool",
          "name": "isFrozen_",
          "type": "bool"
        }
      ],
      "stateMutability": "view",
      "type": "function"
    },
    {
      "inputs": [
        {
          "internalType": "address",
          "name": "forwarder",
          "type": "address"
        }
      ],
      "name": "isTrustedForwarder",
      "outputs": [
        {
          "internalType": "bool",
          "name": "",
          "type": "bool"
        }
      ],
      "stateMutability": "view",
      "type": "function"
    },
    {
      "inputs": [
        {
          "internalType": "uint8",
          "name": "restrictionCode",
          "type": "uint8"
        }
      ],
      "name": "messageForTransferRestriction",
      "outputs": [
        {
          "internalType": "string",
          "name": "message",
          "type": "string"
        }
      ],
      "stateMutability": "view",
      "type": "function"
    },
    {
      "inputs": [
        {
          "internalType": "address",
          "name": "account",
          "type": "address"
        },
        {
          "internalType": "uint256",
          "name": "value",
          "type": "uint256"
        }
      ],
      "name": "mint",
      "outputs": [],
      "stateMutability": "nonpayable",
      "type": "function"
    },
    {
      "inputs": [
        {
          "internalType": "address",
          "name": "account",
          "type": "address"
        },
        {
          "internalType": "uint256",
          "name": "value",
          "type": "uint256"
        },
        {
          "internalType": "bytes",
          "name": "data",
          "type": "bytes"
        }
      ],
      "name": "mint",
      "outputs": [],
      "stateMutability": "nonpayable",
      "type": "function"
    },
    {
      "inputs": [],
      "name": "name",
      "outputs": [
        {
          "internalType": "string",
          "name": "",
          "type": "string"
        }
      ],
      "stateMutability": "view",
      "type": "function"
    },
    {
      "inputs": [],
      "name": "pause",
      "outputs": [],
      "stateMutability": "nonpayable",
      "type": "function"
    },
    {
      "inputs": [],
      "name": "paused",
      "outputs": [
        {
          "internalType": "bool",
          "name": "",
          "type": "bool"
        }
      ],
      "stateMutability": "view",
      "type": "function"
    },
    {
      "inputs": [],
      "name": "proxiableUUID",
      "outputs": [
        {
          "internalType": "bytes32",
          "name": "",
          "type": "bytes32"
        }
      ],
      "stateMutability": "view",
      "type": "function"
    },
    {
      "inputs": [
        {
          "internalType": "bytes32",
          "name": "role",
          "type": "bytes32"
        },
        {
          "internalType": "address",
          "name": "callerConfirmation",
          "type": "address"
        }
      ],
      "name": "renounceRole",
      "outputs": [],
      "stateMutability": "nonpayable",
      "type": "function"
    },
    {
      "inputs": [
        {
          "internalType": "bytes32",
          "name": "role",
          "type": "bytes32"
        },
        {
          "internalType": "address",
          "name": "account",
          "type": "address"
        }
      ],
      "name": "revokeRole",
      "outputs": [],
      "stateMutability": "nonpayable",
      "type": "function"
    },
    {
      "inputs": [],
      "name": "ruleEngine",
      "outputs": [
        {
          "internalType": "contract IRuleEngine",
          "name": "",
          "type": "address"
        }
      ],
      "stateMutability": "view",
      "type": "function"
    },
    {
      "inputs": [
        {
          "internalType": "address",
          "name": "account",
          "type": "address"
        },
        {
          "internalType": "bool",
          "name": "freeze",
          "type": "bool"
        },
        {
          "internalType": "bytes",
          "name": "data",
          "type": "bytes"
        }
      ],
      "name": "setAddressFrozen",
      "outputs": [],
      "stateMutability": "nonpayable",
      "type": "function"
    },
    {
      "inputs": [
        {
          "internalType": "address",
          "name": "account",
          "type": "address"
        },
        {
          "internalType": "bool",
          "name": "freeze",
          "type": "bool"
        }
      ],
      "name": "setAddressFrozen",
      "outputs": [],
      "stateMutability": "nonpayable",
      "type": "function"
    },
    {
      "inputs": [
        {
          "internalType": "address",
          "name": "newAdmin",
          "type": "address"
        }
      ],
      "name": "setCCIPAdmin",
      "outputs": [],
      "stateMutability": "nonpayable",
      "type": "function"
    },
    {
      "inputs": [
        {
          "internalType": "contract IERC1643",
          "name": "documentEngine_",
          "type": "address"
        }
      ],
      "name": "setDocumentEngine",
      "outputs": [],
      "stateMutability": "nonpayable",
      "type": "function"
    },
    {
      "inputs": [
        {
          "internalType": "string",
          "name": "information_",
          "type": "string"
        }
      ],
      "name": "setInformation",
      "outputs": [],
      "stateMutability": "nonpayable",
      "type": "function"
    },
    {
      "inputs": [
        {
          "internalType": "string",
          "name": "name_",
          "type": "string"
        }
      ],
      "name": "setName",
      "outputs": [],
      "stateMutability": "nonpayable",
      "type": "function"
    },
    {
      "inputs": [
        {
          "internalType": "contract IRuleEngine",
          "name": "ruleEngine_",
          "type": "address"
        }
      ],
      "name": "setRuleEngine",
      "outputs": [],
      "stateMutability": "nonpayable",
      "type": "function"
    },
    {
      "inputs": [
        {
          "internalType": "contract ISnapshotEngine",
          "name": "snapshotEngine_",
          "type": "address"
        }
      ],
      "name": "setSnapshotEngine",
      "outputs": [],
      "stateMutability": "nonpayable",
      "type": "function"
    },
    {
      "inputs": [
        {
          "internalType": "string",
          "name": "symbol_",
          "type": "string"
        }
      ],
      "name": "setSymbol",
      "outputs": [],
      "stateMutability": "nonpayable",
      "type": "function"
    },
    {
      "inputs": [
        {
          "components": [
            {
              "internalType": "string",
              "name": "name",
              "type": "string"
            },
            {
              "internalType": "string",
              "name": "uri",
              "type": "string"
            },
            {
              "internalType": "bytes32",
              "name": "documentHash",
              "type": "bytes32"
            }
          ],
          "internalType": "struct IERC1643CMTAT.DocumentInfo",
          "name": "terms_",
          "type": "tuple"
        }
      ],
      "name": "setTerms",
      "outputs": [],
      "stateMutability": "nonpayable",
      "type": "function"
    },
    {
      "inputs": [
        {
          "internalType": "string",
          "name": "tokenId_",
          "type": "string"
        }
      ],
      "name": "setTokenId",
      "outputs": [],
      "stateMutability": "nonpayable",
      "type": "function"
    },
    {
      "inputs": [],
      "name": "snapshotEngine",
      "outputs": [
        {
          "internalType": "contract ISnapshotEngine",
          "name": "",
          "type": "address"
        }
      ],
      "stateMutability": "view",
      "type": "function"
    },
    {
      "inputs": [
        {
          "internalType": "bytes4",
          "name": "_interfaceId",
          "type": "bytes4"
        }
      ],
      "name": "supportsInterface",
      "outputs": [
        {
          "internalType": "bool",
          "name": "",
          "type": "bool"
        }
      ],
      "stateMutability": "view",
      "type": "function"
    },
    {
      "inputs": [],
      "name": "symbol",
      "outputs": [
        {
          "internalType": "string",
          "name": "",
          "type": "string"
        }
      ],
      "stateMutability": "view",
      "type": "function"
    },
    {
      "inputs": [],
      "name": "terms",
      "outputs": [
        {
          "components": [
            {
              "internalType": "string",
              "name": "name",
              "type": "string"
            },
            {
              "components": [
                {
                  "internalType": "string",
                  "name": "uri",
                  "type": "string"
                },
                {
                  "internalType": "bytes32",
                  "name": "documentHash",
                  "type": "bytes32"
                },
                {
                  "internalType": "uint256",
                  "name": "lastModified",
                  "type": "uint256"
                }
              ],
              "internalType": "struct IERC1643.Document",
              "name": "doc",
              "type": "tuple"
            }
          ],
          "internalType": "struct ICMTATBase.CMTATTerms",
          "name": "terms_",
          "type": "tuple"
        }
      ],
      "stateMutability": "view",
      "type": "function"
    },
    {
      "inputs": [],
      "name": "tokenId",
      "outputs": [
        {
          "internalType": "string",
          "name": "tokenId_",
          "type": "string"
        }
      ],
      "stateMutability": "view",
      "type": "function"
    },
    {
      "inputs": [],
      "name": "totalSupply",
      "outputs": [
        {
          "internalType": "uint256",
          "name": "",
          "type": "uint256"
        }
      ],
      "stateMutability": "view",
      "type": "function"
    },
    {
      "inputs": [
        {
          "internalType": "address",
          "name": "to",
          "type": "address"
        },
        {
          "internalType": "uint256",
          "name": "value",
          "type": "uint256"
        }
      ],
      "name": "transfer",
      "outputs": [
        {
          "internalType": "bool",
          "name": "",
          "type": "bool"
        }
      ],
      "stateMutability": "nonpayable",
      "type": "function"
    },
    {
      "inputs": [
        {
          "internalType": "address",
          "name": "from",
          "type": "address"
        },
        {
          "internalType": "address",
          "name": "to",
          "type": "address"
        },
        {
          "internalType": "uint256",
          "name": "value",
          "type": "uint256"
        }
      ],
      "name": "transferFrom",
      "outputs": [
        {
          "internalType": "bool",
          "name": "",
          "type": "bool"
        }
      ],
      "stateMutability": "nonpayable",
      "type": "function"
    },
    {
      "inputs": [],
      "name": "trustedForwarder",
      "outputs": [
        {
          "internalType": "address",
          "name": "",
          "type": "address"
        }
      ],
      "stateMutability": "view",
      "type": "function"
    },
    {
      "inputs": [
        {
          "internalType": "address",
          "name": "account",
          "type": "address"
        },
        {
          "internalType": "uint256",
          "name": "value",
          "type": "uint256"
        }
      ],
      "name": "unfreezePartialTokens",
      "outputs": [],
      "stateMutability": "nonpayable",
      "type": "function"
    },
    {
      "inputs": [
        {
          "internalType": "address",
          "name": "account",
          "type": "address"
        },
        {
          "internalType": "uint256",
          "name": "value",
          "type": "uint256"
        },
        {
          "internalType": "bytes",
          "name": "data",
          "type": "bytes"
        }
      ],
      "name": "unfreezePartialTokens",
      "outputs": [],
      "stateMutability": "nonpayable",
      "type": "function"
    },
    {
      "inputs": [],
      "name": "unpause",
      "outputs": [],
      "stateMutability": "nonpayable",
      "type": "function"
    },
    {
      "inputs": [
        {
          "internalType": "address",
          "name": "newImplementation",
          "type": "address"
        },
        {
          "internalType": "bytes",
          "name": "data",
          "type": "bytes"
        }
      ],
      "name": "upgradeToAndCall",
      "outputs": [],
      "stateMutability": "payable",
      "type": "function"
    },
    {
      "inputs": [],
      "name": "version",
      "outputs": [
        {
          "internalType": "string",
          "name": "version_",
          "type": "string"
        }
      ],
      "stateMutability": "view",
      "type": "function"
    }
  ],
  "bytecode": "0x60c06040523060a052348015610013575f5ffd5b50604051615e84380380615e84833981016040819052610032916100ff565b6001600160a01b03811660805261004761004d565b5061012c565b7ff0c57e16840df040f15088dc2f81fe391c3923bec73e23a9662efc9c229c6a00805468010000000000000000900460ff161561009d5760405163f92ee8a960e01b815260040160405180910390fd5b80546001600160401b03908116146100fc5780546001600160401b0319166001600160401b0390811782556040519081527fc7f505b2f371ae2175ee4913f4499e1f2633a7b5936321eed1cdaeb6115181d29060200160405180910390a15b50565b5f6020828403121561010f575f5ffd5b81516001600160a01b0381168114610125575f5ffd5b9392505050565b60805160a051615d1b6101695f395f8181612e2701528181612e500152612fb601525f81816109f801528181610b2501526138180152615d1b5ff3fe6080604052600436106104c6575f3560e01c80637ccb6a6411610278578063b84c824611610155578063d547741f116100c9578063e236aabf11610083578063e236aabf14610ffa578063e46638e614611019578063e583983614611038578063e63ab1e914611057578063f47b77401461108a578063fcf196b41461109e575f5ffd5b8063d547741f14610f2c578063d7ffbbaa14610f4b578063dcfd616f14610f6a578063dd347bef14610f89578063dd62ed3e14610fa8578063e1833a2f14610fc7575f5ffd5b8063ce34e6eb1161011a578063ce34e6eb14610e67578063cf790d8d14610e86578063d32c7bb514610e9a578063d4ce141514610eb9578063d502562514610ed8578063d539139314610ef9575f5ffd5b8063b84c824614610dc3578063bbf91f6514610de2578063bca353be14610e15578063c47f002714610e29578063c69c09cf14610e48575f5ffd5b80639dc29fac116101ec578063a76aa6fc116101b1578063a76aa6fc14610ce4578063a8fa343c14610d17578063a9059cbb14610d36578063a99ac24514610d55578063ad3cb1cc14610d74578063b1f5569f14610da4575f5ffd5b80639dc29fac14610c535780639fa5f50b14610c725780639fc1d0e714610c93578063a217fddf14610cb2578063a4a0a30114610cc5575f5ffd5b806388d695b21161023d57806388d695b214610baf5780638fd6a6ac14610bce5780639082a6fb14610be257806391d1485414610c0157806394d008ef14610c2057806395d89b4114610c3f575f5ffd5b80637ccb6a6414610aeb5780637da0a87714610b175780637f4ab1dd14610b495780638456cb5914610b685780638820d98e14610b7c575f5ffd5b8063334c0a6d116103a65780634f1ef2861161031a5780635c975abb116102df5780635c975abb14610a285780636439fd7514610a3c5780636857310714610a6f57806370a0823114610a8e5780637157797f14610aad57806379cc679014610acc575f5ffd5b80634f1ef2861461097457806352d1902d1461098757806354fd4d501461099b578063556ed30e146109c8578063572b6c05146109dc575f5ffd5b806340c10f191161036b57806340c10f19146108ba57806342966c68146108d957806344d17187146108f8578063492c6610146109175780634a6cc677146109365780634d5592ea14610955575f5ffd5b8063334c0a6d14610816578063336110791461083557806336568abe146108545780633c626e0c146108735780633f4ba83a146108a6575f5ffd5b80631a7af3791161043d578063282c51f311610402578063282c51f3146107195780632a8437cc1461074c5780632b8c49e31461077f5780632c721b981461079e5780632f2ff15d146107d1578063313ce567146107f0575f5ffd5b80631a7af3791461066a5780631fe56f7d1461068957806323b872dd146106a8578063246b72ec146106c7578063248a9ca3146106fa575f5ffd5b8063158b1a571161048e578063158b1a571461058c5780631758a8e9146105b957806317d70f7c146105e557806318160ddd146105f957806318796d441461062c57806318bf50771461064b575f5ffd5b806301ffc9a7146104ca57806306fdde03146104fe578063095ea7b31461051f5780630c3cc61a1461053e578063125c4a331461056b575b5f5ffd5b3480156104d5575f5ffd5b506104e96104e43660046149ac565b6110b2565b60405190151581526020015b60405180910390f35b348015610509575f5ffd5b506105126110d1565b6040516104f59190614a01565b34801561052a575f5ffd5b506104e9610539366004614a27565b6110e0565b348015610549575f5ffd5b5061055d610558366004614a98565b611101565b6040516104f5929190614ad6565b348015610576575f5ffd5b5061058a610585366004614a27565b6111cd565b005b348015610597575f5ffd5b506105ab6105a6366004614b22565b6111f2565b6040519081526020016104f5565b3480156105c4575f5ffd5b506105cd6111fc565b6040516001600160a01b0390911681526020016104f5565b3480156105f0575f5ffd5b5061051261121d565b348015610604575f5ffd5b507f52c63247e1f47db19d5ce0460030c497f067ca4cebf71ba98eeadabe20bace02546105ab565b348015610637575f5ffd5b5061058a610646366004614b7a565b6112be565b348015610656575f5ffd5b5061058a610665366004614a27565b6112de565b348015610675575f5ffd5b5061058a610684366004614bf0565b611349565b348015610694575f5ffd5b5061058a6106a3366004614a27565b611372565b3480156106b3575f5ffd5b506104e96106c2366004614c5a565b611393565b3480156106d2575f5ffd5b506105ab7f809a0fc49fc0600540f1d39e23454e1f6f215bc7505fa22b17c154616570ddef81565b348015610705575f5ffd5b506105ab610714366004614c98565b6113a9565b348015610724575f5ffd5b506105ab7f3c11d16cbaffd01df69ce1c404f6340ee057498f5f00246190ea54220576a84881565b348015610757575f5ffd5b506105ab7f5bfe08abba057c54e6a28bce27ce8c53eb21d7a94376a70d475b5dee60b6c4e281565b34801561078a575f5ffd5b5061058a610799366004614a27565b6113c9565b3480156107a9575f5ffd5b506105ab7fdd7c9aafbb91d54fb2041db1d5b172ea665309b32f5fffdbddf452802a1e3b2081565b3480156107dc575f5ffd5b5061058a6107eb366004614caf565b611428565b3480156107fb575f5ffd5b50610804611444565b60405160ff90911681526020016104f5565b348015610821575f5ffd5b5061058a610830366004614cdd565b61144d565b348015610840575f5ffd5b5061058a61084f366004614b22565b611495565b34801561085f575f5ffd5b5061058a61086e366004614caf565b6114e2565b34801561087e575f5ffd5b506105ab7fd62f75bf68b069bc8e2abd495a949fafec67a4e5a5b7cb36aedf0dd51eec7e7281565b3480156108b1575f5ffd5b5061058a61152a565b3480156108c5575f5ffd5b5061058a6108d4366004614a27565b611581565b3480156108e4575f5ffd5b5061058a6108f3366004614c98565b6115a2565b348015610903575f5ffd5b5061058a610912366004614cdd565b6115c0565b348015610922575f5ffd5b5061058a610931366004614f81565b611608565b348015610941575f5ffd5b5061058a610950366004614bf0565b611705565b348015610960575f5ffd5b506104e961096f366004615078565b61176d565b61058a6109823660046150e5565b6117c3565b348015610992575f5ffd5b506105ab6117de565b3480156109a6575f5ffd5b506040805180820190915260058152640332e312e360dc1b6020820152610512565b3480156109d3575f5ffd5b506104e96117f9565b3480156109e7575f5ffd5b506104e96109f6366004614b22565b7f00000000000000000000000000000000000000000000000000000000000000006001600160a01b0390811691161490565b348015610a33575f5ffd5b506104e9611827565b348015610a47575f5ffd5b506105ab7f973ef39d76cc2c6090feab1c030bec6ab5db557f64df047a4c4f9b5953cf1df381565b348015610a7a575f5ffd5b5061058a610a89366004614bf0565b611830565b348015610a99575f5ffd5b506105ab610aa8366004614b22565b61188a565b348015610ab8575f5ffd5b506104e9610ac7366004615131565b6118ba565b348015610ad7575f5ffd5b5061058a610ae6366004614a27565b6118d2565b348015610af6575f5ffd5b50610b0a610b0536600461517f565b6118f0565b6040516104f591906151e4565b348015610b22575f5ffd5b507f00000000000000000000000000000000000000000000000000000000000000006105cd565b348015610b54575f5ffd5b50610512610b633660046151f6565b6119cf565b348015610b73575f5ffd5b5061058a611a05565b348015610b87575f5ffd5b506105ab7f233d5d22cfc2df30a1764cac21e2207537a3711647f2c29fe3702201f65c144481565b348015610bba575f5ffd5b506104e9610bc9366004614bf0565b611a17565b348015610bd9575f5ffd5b506105cd611a2c565b348015610bed575f5ffd5b506105ab610bfc366004614b22565b611a54565b348015610c0c575f5ffd5b506104e9610c1b366004614caf565b611a5e565b348015610c2b575f5ffd5b5061058a610c3a366004614cdd565b611a87565b348015610c4a575f5ffd5b50610512611acf565b348015610c5e575f5ffd5b5061058a610c6d366004614a27565b611ad9565b348015610c7d575f5ffd5b50610c86611afa565b6040516104f59190615211565b348015610c9e575f5ffd5b506104e9610cad366004614c5a565b611b90565b348015610cbd575f5ffd5b506105ab5f81565b348015610cd0575f5ffd5b5061058a610cdf366004614b22565b611bb3565b348015610cef575f5ffd5b506105ab7f620d362b92b6ef580d4e86c5675d679fe08d31dff47b72f281959a4eecdd036a81565b348015610d22575f5ffd5b5061058a610d31366004614b22565b611bfd565b348015610d41575f5ffd5b506104e9610d50366004614a27565b611ca3565b348015610d60575f5ffd5b5061058a610d6f366004615281565b611cae565b348015610d7f575f5ffd5b50610512604051806040016040528060058152602001640352e302e360dc1b81525081565b348015610daf575f5ffd5b5061058a610dbe3660046152c9565b611cf6565b348015610dce575f5ffd5b5061058a610ddd36600461535f565b611d61565b348015610ded575f5ffd5b506105ab7f13d9f3ea33477b975af6cd01437366c28412d5bd9b872fa0fc25bd3a160683af81565b348015610e20575f5ffd5b5061058a611dfa565b348015610e34575f5ffd5b5061058a610e4336600461535f565b611e7d565b348015610e53575f5ffd5b5061058a610e62366004615391565b611f09565b348015610e72575f5ffd5b5061058a610e813660046153bd565b611f2a565b348015610e91575f5ffd5b506105cd611f43565b348015610ea5575f5ffd5b50610804610eb4366004615131565b611f6b565b348015610ec4575f5ffd5b50610804610ed3366004614c5a565b61203f565b348015610ee3575f5ffd5b50610eec6120f8565b6040516104f591906153f3565b348015610f04575f5ffd5b506105ab7f9f2df0fed2c77648de5860a4cc508cd0818c85b8b8a1ab4ceeef8d981c8956a681565b348015610f37575f5ffd5b5061058a610f46366004614caf565b612288565b348015610f56575f5ffd5b5061058a610f6536600461535f565b6122a4565b348015610f75575f5ffd5b5061058a610f8436600461535f565b6122fc565b348015610f94575f5ffd5b5061058a610fa3366004614cdd565b612354565b348015610fb3575f5ffd5b506105ab610fc236600461542b565b61239c565b348015610fd2575f5ffd5b506105ab7f921df7a58eb4ea112afa962b8186161404ecda2e8fe97f8246026d02ad1a74b781565b348015611005575f5ffd5b5061058a611014366004614b22565b6123e5565b348015611024575f5ffd5b506104e9611033366004614c5a565b612445565b348015611043575f5ffd5b506104e9611052366004614b22565b612451565b348015611062575f5ffd5b506105ab7f65d7a28e3265b37a6474929f336521b332c1681b933f6cb9f3376673440d862a81565b348015611095575f5ffd5b50610512612490565b3480156110a9575f5ffd5b506105cd6124ce565b5f6110bc826124f6565b806110cb57506110cb8261252a565b92915050565b60606110db61254e565b905090565b5f5f6110ea612558565b90506110f7818585612561565b5060019392505050565b60605f826001600160401b0381111561111c5761111c614d28565b604051908082528060200260200182016040528015611145578160200160208202803683370190505b5091505f5b838110156111a15761117c85858381811061116757611167615457565b9050602002016020810190610aa89190614b22565b83828151811061118e5761118e615457565b602090810291909101015260010161114a565b507f52c63247e1f47db19d5ce0460030c497f067ca4cebf71ba98eeadabe20bace025490509250929050565b6111d561256e565b6111ee828260405180602001604052805f815250612598565b5050565b5f6110cb82612655565b5f805f516020615cc65f395f51905f525b546001600160a01b031692915050565b5f516020615c045f395f51905f52805460609190819061123c9061546b565b80601f01602080910402602001604051908101604052809291908181526020018280546112689061546b565b80156112b35780601f1061128a576101008083540402835291602001916112b3565b820191905f5260205f20905b81548152906001019060200180831161129657829003601f168201915b505050505091505090565b6112ca868584846115c0565b6112d685848484611a87565b505050505050565b6112e73361266a565b6112f1828261269c565b6112f9612558565b6001600160a01b0316826001600160a01b03167fde22baff038e3a3e08407cbdf617deed74e869a7ba517df611e33131c6e6ea048360405161133d91815260200190565b60405180910390a35050565b6113516126b2565b61136c8484848460405180602001604052805f8152506126dc565b50505050565b61137a61256e565b6111ee828260405180602001604052805f81525061277c565b5f61139f848484612834565b90505b9392505050565b5f9081525f516020615c845f395f51905f52602052604090206001015490565b6113d23361266a565b6113dc8282612853565b6113e4612558565b6001600160a01b0316826001600160a01b03167fb90795a66650155983e242cac3e1ac1a4dc26f8ed2987f3ce416a34e00111fd48360405161133d91815260200190565b611431826113a9565b61143a81612869565b61136c838361287a565b5f6110db612923565b61145561256e565b61136c848484848080601f0160208091040260200160405190810160405280939291908181526020018383808284375f9201919091525061277c92505050565b61149d61292c565b5f516020615cc65f395f51905f5280546001600160a01b038381169116036114d8576040516399e8777160e01b815260040160405180910390fd5b6111ee8183612956565b6114ea612558565b6001600160a01b0316816001600160a01b03161461151b5760405163334bd91960e11b815260040160405180910390fd5b611525828261299d565b505050565b611532612a34565b7fab1527b6135145d8da1edcbd6b7b270624e17f2b41c74a8c746ff388ad454700805460ff161561157657604051631b19da4d60e11b815260040160405180910390fd5b61157e612a5e565b50565b611589612ab8565b6111ee828260405180602001604052805f815250612ae2565b6115aa612b45565b5f6115b3612558565b90506111ee818284612b77565b6115c8612bdd565b61136c848484848080601f0160208091040260200160405190810160405280939291908181526020018383808284375f92019190915250612c0792505050565b5f611611612c5d565b805490915060ff600160401b82041615906001600160401b03165f811580156116375750825b90505f826001600160401b031660011480156116525750303b155b905081158015611660575080155b1561167e5760405163f92ee8a960e01b815260040160405180910390fd5b845467ffffffffffffffff1916600117855583156116a857845460ff60401b1916600160401b1785555b6116b489898989612c85565b83156116fa57845460ff60401b19168555604051600181527fc7f505b2f371ae2175ee4913f4499e1f2633a7b5936321eed1cdaeb6115181d29060200160405180910390a15b505050505050505050565b61170d612bdd565b61171984848484612c99565b611721612558565b6001600160a01b03167f72daf4490e83933de80c122aa40ad26e3d1312ac3efbf2edcee640aa8556ddc68585858560405161175f9493929190615515565b60405180910390a250505050565b5f611776612d3b565b6117b786868686868080601f0160208091040260200160405190810160405280939291908181526020018383808284375f92019190915250612d4592505050565b50600195945050505050565b6117cb612e1c565b6117d482612ec0565b6111ee8282612eea565b5f6117e7612fab565b505f516020615c645f395f51905f5290565b5f807fab1527b6135145d8da1edcbd6b7b270624e17f2b41c74a8c746ff388ad4547005b5460ff1692915050565b5f6110db612ff4565b611838612ab8565b6118448484848461301c565b61184c612558565b6001600160a01b03167fbc3f1481a323af3866d85a300235055c5b81e0ab3563d50b17226f63072161f08585858560405161175f9493929190615557565b5f805f516020615be45f395f51905f525b6001600160a01b039093165f9081526020939093525050604090205490565b5f6118c7858585856130b4565b90505b949350505050565b6118da6130dd565b5f6118e3612558565b9050611525818484613107565b6119126040518060600160405280606081526020015f81526020015f81525090565b5f516020615cc65f395f51905f5280546001600160a01b0316156119a0578054604051631f32da9960e21b81526001600160a01b0390911690637ccb6a649061195f908690600401614a01565b5f60405180830381865afa158015611979573d5f5f3e3d5ffd5b505050506040513d5f823e601f3d908101601f191682016040526113a291908101906155d5565b5050604080516080810182525f6060820181815282526020820181905291810191909152919050565b50919050565b606060051960ff8316016119fc57604051806060016040528060228152602001615ca46022913992915050565b6110cb8261316a565b611a0d612a34565b611a1561336f565b565b5f611a20612ab8565b6118c7858585856133cc565b5f807f364fbfd89c0eee55bbc8dd10b1a9bf3e04fba9f3ee606f4c79a82f9941ad7a0061120d565b5f6110cb8261347e565b5f611a6981836134b7565b15611a76575060016110cb565b611a8083836134b7565b90506110cb565b611a8f612ab8565b61136c848484848080601f0160208091040260200160405190810160405280939291908181526020018383808284375f92019190915250612ae292505050565b60606110db6134ed565b611ae1612bdd565b6111ee828260405180602001604052805f815250612c07565b5f516020615cc65f395f51905f528054606091906001600160a01b031615611b8c57805460408051639fa5f50b60e01b815290516001600160a01b0390921691639fa5f50b916004808201925f929091908290030181865afa158015611b62573d5f5f3e3d5ffd5b505050506040513d5f823e601f3d908101601f19168201604052611b899190810190615655565b91505b5090565b5f611b99612d3b565b6110f784848460405180602001604052805f815250612d45565b611bbb612d3b565b611bc36124ce565b6001600160a01b0316816001600160a01b031603611bf457604051630725a47560e31b815260040160405180910390fd5b61157e816134f7565b611c05612d3b565b7f364fbfd89c0eee55bbc8dd10b1a9bf3e04fba9f3ee606f4c79a82f9941ad7a0080546001600160a01b03908116908316819003611c565760405163348e78c960e11b815260040160405180910390fd5b81546001600160a01b0319166001600160a01b038481169182178455604051908316907f9524c9e4b0b61eb018dd58a1cd856e3e74009528328ab4a613b434fa631d7242905f90a3505050565b5f6113a2838361355f565b611cb66126b2565b61136c848484848080601f0160208091040260200160405190810160405280939291908181526020018383808284375f9201919091525061358292505050565b611cfe612bdd565b611d0a85858585612c99565b611d12612558565b6001600160a01b03167f72daf4490e83933de80c122aa40ad26e3d1312ac3efbf2edcee640aa8556ddc68686868686604051611d52959493929190615713565b60405180910390a25050505050565b611d69612d3b565b5f516020615c445f395f51905f527f9bd8d607565c0370ae5f91651ca67fd26d4438022bf72037316600e29e6a3a02611da383858361579d565b508282604051611db4929190615856565b60405180910390207f4a48eefa86906ea82ddc91803a5f00818355982247dc29c521714f6dc207aacd8484604051611ded929190615865565b60405180910390a2505050565b611e02612d3b565b611e0a6135af565b7fab1527b6135145d8da1edcbd6b7b270624e17f2b41c74a8c746ff388ad454700805460ff191660011781557f749cb6b4c510bc468cf6b9c2086d6f0a54d6b18e25d37bf3200e68eab0880c00611e5f612558565b6040516001600160a01b03909116815260200160405180910390a150565b611e85612d3b565b5f516020615c445f395f51905f527f9bd8d607565c0370ae5f91651ca67fd26d4438022bf72037316600e29e6a3a01611ebf83858361579d565b508282604051611ed0929190615856565b60405180910390207fe4e4a54c5c394e44fde10a0ae1277d8bd8621848cc8dfd73eddd39bcf9f2d9b28484604051611ded929190615865565b611f116126b2565b6111ee828260405180602001604052805f815250613582565b611f326135d4565b61157e611f3e82615893565b6135fe565b5f807f1387b97dfab601d3023cb57858a6be29329babb05c85597ddbe4926c1193a90061120d565b5f5f611f756124ce565b9050611f8086612451565b15611f905760055b9150506118ca565b5f611f9c868686613616565b905060ff811615611fb05791506118ca9050565b6001600160a01b038216156120395760405163d32c7bb560e01b81526001600160a01b0383169063d32c7bb590611ff1908a908a908a908a9060040161589e565b602060405180830381865afa15801561200c573d5f5f3e3d5ffd5b505050506040513d601f19601f8201168201806040525081019061203091906158c8565b925050506118ca565b5f612030565b5f5f6120496124ce565b90505f612057868686613616565b905060ff81161561206b5791506113a29050565b6001600160a01b038216156120f25760405163d4ce141560e01b81526001600160a01b0383169063d4ce1415906120aa908990899089906004016158e3565b602060405180830381865afa1580156120c5573d5f5f3e3d5ffd5b505050506040513d601f19601f820116820180604052508101906120e991906158c8565b925050506113a2565b5f6120e9565b612100614973565b604080518082019091527fd2d5d34c4a4dea00599692d3257c0aebc5e0359176118cd2364ab9b008c2d10180545f516020615c045f395f51905f529291908290829061214b9061546b565b80601f01602080910402602001604051908101604052809291908181526020018280546121779061546b565b80156121c25780601f10612199576101008083540402835291602001916121c2565b820191905f5260205f20905b8154815290600101906020018083116121a557829003601f168201915b50505050508152602001600182016040518060600160405290815f820180546121ea9061546b565b80601f01602080910402602001604051908101604052809291908181526020018280546122169061546b565b80156122615780601f1061223857610100808354040283529160200191612261565b820191905f5260205f20905b81548152906001019060200180831161224457829003601f168201915b50505050508152602001600182015481526020016002820154815250508152505091505090565b612291826113a9565b61229a81612869565b61136c838361299d565b6122ac6135d4565b5f5f516020615c045f395f51905f5290506115258184848080601f0160208091040260200160405190810160405280939291908181526020018383808284375f9201919091525061366592505050565b6123046135d4565b5f5f516020615c045f395f51905f5290506115258184848080601f0160208091040260200160405190810160405280939291908181526020018383808284375f920191909152506136af92505050565b61235c61256e565b61136c848484848080601f0160208091040260200160405190810160405280939291908181526020018383808284375f9201919091525061259892505050565b6001600160a01b039182165f9081527f52c63247e1f47db19d5ce0460030c497f067ca4cebf71ba98eeadabe20bace016020908152604080832093909416825291909152205490565b6123ed61370c565b7f1387b97dfab601d3023cb57858a6be29329babb05c85597ddbe4926c1193a90080546001600160a01b0383811691160361243b576040516311ecd5d560e21b815260040160405180910390fd5b6111ee8183613736565b5f61139f84848461377d565b6001600160a01b0381165f9081527f0c7bc8a17be064111d299d7669f49519cb26c58611b72d9f6ccc40a1e1184e00602052604081205460ff166110cb565b7fd2d5d34c4a4dea00599692d3257c0aebc5e0359176118cd2364ab9b008c2d10580546060915f516020615c045f395f51905f529161123c9061546b565b5f807f77c8cc897d160e7bf5b10921804e357da17ae27460d4a6b5d9b27ffddf159d0061120d565b5f6001600160e01b03198216630cccc66560e21b14806110cb57506301ffc9a760e01b6001600160e01b03198316146110cb565b5f631a002f2d60e31b6001600160e01b0319831614806110cb57506110cb826137a5565b60606110db6137c9565b5f6110db613807565b6115258383836001613871565b7fd62f75bf68b069bc8e2abd495a949fafec67a4e5a5b7cb36aedf0dd51eec7e7261157e81612869565b5f516020615c245f395f51905f525f6125b08561188a565b6001600160a01b0386165f90815260208490526040812054919250906125d790869061591b565b9050808210156125fa576040516349d7d08d60e11b815260040160405180910390fd5b6001600160a01b0386165f8181526020859052604090819020839055517eee657b17bb8f27ffd14d58b7a6f3f8d780dc721da687b065b4ce100c332e2590612645908890889061592e565b60405180910390a2505050505050565b5f805f516020615c245f395f51905f5261189b565b612672613954565b61157e7f620d362b92b6ef580d4e86c5675d679fe08d31dff47b72f281959a4eecdd036a8261397a565b6126a85f5f84846139b3565b6111ee82826139f1565b7f973ef39d76cc2c6090feab1c030bec6ab5db557f64df047a4c4f9b5953cf1df361157e81612869565b6126e885858585613a07565b7f0c7bc8a17be064111d299d7669f49519cb26c58611b72d9f6ccc40a1e1184e005f5b858110156127735761276b8288888481811061272957612729615457565b905060200201602081019061273e9190614b22565b87878581811061275057612750615457565b90506020020160208101906127659190615946565b86613a45565b60010161270b565b50505050505050565b6001600160a01b0383165f9081525f516020615c245f395f51905f5260208190526040909120548311156127c3576040516309f1994960e41b815260040160405180910390fd5b6001600160a01b0384165f908152602082905260409020546127e6908490615961565b6001600160a01b0385165f81815260208490526040908190209290925590517f57e0f3d4013a11f83fec76f5798b11b0ac9894fe75a459c7c18b95b248fa02259061175f908690869061592e565b5f612848612840612558565b8585856139b3565b61139f848484613ac3565b61285f5f835f846139b3565b6111ee8282613b34565b61157e81612875612558565b61397a565b5f5f516020615c845f395f51905f526128938484611a5e565b612913575f848152602082815260408083206001600160a01b03871684529091529020805460ff191660011790556128c9612558565b6001600160a01b0316836001600160a01b0316857f2f8788117e7eff1d82e926ec794901d17c78024a50270940304540a733656f0d60405160405180910390a460019150506110cb565b5f9150506110cb565b5092915050565b5f6110db613b4a565b7fdd7c9aafbb91d54fb2041db1d5b172ea665309b32f5fffdbddf452802a1e3b2061157e81612869565b81546001600160a01b0319166001600160a01b03821690811783556040517f24456fffb8d75313fe808b19e17ae308e592a8159329a02fb396773d5aacbd10905f90a25050565b5f5f516020615c845f395f51905f526129b68484611a5e565b15612913575f848152602082815260408083206001600160a01b03871684529091529020805460ff191690556129ea612558565b6001600160a01b0316836001600160a01b0316857ff6391f5c32d9c69d2a47ea670b442974b53935d1edc7fd64eb21e047a839171b60405160405180910390a460019150506110cb565b7f65d7a28e3265b37a6474929f336521b332c1681b933f6cb9f3376673440d862a61157e81612869565b612a666135af565b7fcd5ed15c6e187e77e9aee88184c21f4f2182ab5827cb3b7e07fbedcd63f03300805460ff191681557f5db9ee0a495bf2e6ff9c91a7834c1ba4fdd244a5e8aa4e537bd38aeae4b073aa611e5f612558565b7f9f2df0fed2c77648de5860a4cc508cd0818c85b8b8a1ab4ceeef8d981c8956a661157e81612869565b612aec838361269c565b826001600160a01b0316612afe612558565b6001600160a01b03167f30c99b8e9449992bd7616d2645b02ee0a2b6f229a45d6b56b686963ff0c534978484604051612b3892919061592e565b60405180910390a3505050565b7f13d9f3ea33477b975af6cd01437366c28412d5bd9b872fa0fc25bd3a160683af612b6f81612869565b61157e613954565b612b818282612853565b826001600160a01b0316826001600160a01b0316846001600160a01b03167f543d84a473f60119968e980557a2b597b79e98849b4f68fb540e9900408a104384604051612bd091815260200190565b60405180910390a4505050565b7f3c11d16cbaffd01df69ce1c404f6340ee057498f5f00246190ea54220576a84861157e81612869565b612c118383612853565b826001600160a01b0316612c23612558565b6001600160a01b03167f21e3428dd0c1de86ad5cb0d4df91049f26e9711489b51d1e9b5d5a53ebae1f638484604051612b3892919061592e565b5f807ff0c57e16840df040f15088dc2f81fe391c3923bec73e23a9662efc9c229c6a006110cb565b612c8d613b5f565b61136c84848484613b84565b5f839003612cba576040516311eaa8e760e21b815260040160405180910390fd5b828114612cda57604051637a9d6e6d60e01b815260040160405180910390fd5b5f5b83811015612d3457612d2c858583818110612cf957612cf9615457565b9050602002016020810190612d0e9190614b22565b848484818110612d2057612d20615457565b90506020020135612853565b600101612cdc565b5050505050565b5f61157e81612869565b612d50848383613bba565b6001600160a01b038316612d6d57612d688483613cb4565b612dc2565b5f612d78858561239c565b90505f81118015612d8957505f1981105b15612db55782811015612da757612da285855f5f613871565b612db5565b612db585858584035f613871565b612dc0858585613ce8565b505b836001600160a01b0316612dd4612558565b6001600160a01b03167f9aaf0e2b2a23aa776f679b9fe17552a7fa59d6cb1057b37156024a8c587a947f8484604051612e0e92919061592e565b60405180910390a350505050565b306001600160a01b037f0000000000000000000000000000000000000000000000000000000000000000161480612ea257507f00000000000000000000000000000000000000000000000000000000000000006001600160a01b0316612e965f516020615c645f395f51905f52546001600160a01b031690565b6001600160a01b031614155b15611a155760405163703e46dd60e11b815260040160405180910390fd5b7f233d5d22cfc2df30a1764cac21e2207537a3711647f2c29fe3702201f65c14446111ee81612869565b816001600160a01b03166352d1902d6040518163ffffffff1660e01b8152600401602060405180830381865afa925050508015612f44575060408051601f3d908101601f19168201909252612f4191810190615974565b60015b612f7157604051634c9c8ce360e01b81526001600160a01b03831660048201526024015b60405180910390fd5b5f516020615c645f395f51905f528114612fa157604051632a87526960e21b815260048101829052602401612f68565b6115258383613d45565b306001600160a01b037f00000000000000000000000000000000000000000000000000000000000000001614611a155760405163703e46dd60e11b815260040160405180910390fd5b5f807fcd5ed15c6e187e77e9aee88184c21f4f2182ab5827cb3b7e07fbedcd63f0330061181d565b8261303a57604051630c7e659960e01b815260040160405180910390fd5b82811461305a576040516307a4e50160e21b815260040160405180910390fd5b5f5b83811015612d34576130ac85858381811061307957613079615457565b905060200201602081019061308e9190614b22565b8484848181106130a0576130a0615457565b9050602002013561269c565b60010161305c565b5f6130bf8483613d9a565b6130ca57505f6118ca565b6130d685858585613de1565b90506118ca565b7f5bfe08abba057c54e6a28bce27ce8c53eb21d7a94376a70d475b5dee60b6c4e2612b6f81612869565b613112828483613dee565b826001600160a01b0316826001600160a01b03167f7c2b9369bf4a6bd9745889c658ad00a4d57e280c4c80fa1c74db2a9e52c136358360405161315791815260200190565b60405180910390a3611525838383612b77565b60605f6131756124ce565b905060ff83166131aa57505060408051808201909152600d81526c2737a932b9ba3934b1ba34b7b760991b6020820152919050565b60011960ff8416016131e157505060408051808201909152600d81526c456e666f72636564506175736560981b6020820152919050565b5f1960ff84160161321d57505060408051808201909152601381527210dbdb9d1c9858dd11195858dd1a5d985d1959606a1b6020820152919050565b60021960ff84160161325757505060408051808201909152601081526f20b23239233937b6a4b9a33937bd32b760811b6020820152919050565b60031960ff84160161328f57505060408051808201909152600e81526d20b232392a37a4b9a33937bd32b760911b6020820152919050565b60041960ff8416016132cc57505060408051808201909152601381527220b2323929b832b73232b924b9a33937bd32b760691b6020820152919050565b6001600160a01b0381161561334657604051637f4ab1dd60e01b815260ff841660048201526001600160a01b03821690637f4ab1dd906024015f60405180830381865afa15801561331f573d5f5f3e3d5ffd5b505050506040513d5f823e601f3d908101601f191682016040526113a2919081019061598b565b505060408051808201909152600b81526a556e6b6e6f776e436f646560a81b6020820152919050565b613377613954565b7fcd5ed15c6e187e77e9aee88184c21f4f2182ab5827cb3b7e07fbedcd63f03300805460ff191660011781557f62e78cea01bee320cd4e420270b5ea74000d11b0c9f74754ebdbfc544b05a258611e5f612558565b5f836133eb57604051634723eac960e01b815260040160405180910390fd5b5f6133f4612558565b905084831461341657604051637e81047760e11b815260040160405180910390fd5b5f5b85811015613471576134698288888481811061343657613436615457565b905060200201602081019061344b9190614b22565b87878581811061345d5761345d615457565b90506020020135613e4c565b600101613418565b5060019695505050505050565b6001600160a01b0381165f9081525f516020615c245f395f51905f52602081905260408220546134ad8461188a565b6113a29190615961565b5f9182525f516020615c845f395f51905f52602090815260408084206001600160a01b0393909316845291905290205460ff1690565b60606110db613e63565b7f77c8cc897d160e7bf5b10921804e357da17ae27460d4a6b5d9b27ffddf159d0080546001600160a01b0319166001600160a01b03831690811782556040517f37213fe93a5aae50df0ef53f98b81c048e51b3ab2969309a103a647e44b61918905f90a25050565b5f5f613569612558565b90506135775f8286866139b3565b6110f7818585613ce8565b7f0c7bc8a17be064111d299d7669f49519cb26c58611b72d9f6ccc40a1e1184e0061136c81858585613a45565b6135b7611827565b611a1557604051638dfc202b60e01b815260040160405180910390fd5b7f921df7a58eb4ea112afa962b8186161404ecda2e8fe97f8246026d02ad1a74b761157e81612869565b5f516020615c045f395f51905f526111ee8183613ea1565b5f5f613621856111f2565b90508015613651575f816136348761188a565b61363e9190615961565b90508084111561364f5760066120e9565b505b61365c858585613f0b565b95945050505050565b6005820161367382826159bc565b507fff8fea957fb7cb582ef297c1c74436fe7a9914efbc52adf197600dc9d171efbc816040516136a39190614a01565b60405180910390a15050565b816136ba82826159bc565b50806040516136c99190615a76565b60405180910390207f6403c68076c59949275ad9be2137a73c51043d7d6af6a38473047a0bc45df492826040516137009190614a01565b60405180910390a25050565b7f809a0fc49fc0600540f1d39e23454e1f6f215bc7505fa22b17c154616570ddef61157e81612869565b81546001600160a01b0319166001600160a01b03821690811783556040517f3dc265c6e8a49e40f12f64811a094f799e44b4d033c7478793093908cbbb5bca905f90a25050565b5f6137888483613d9a565b61379357505f6113a2565b61379e848484613f64565b90506113a2565b5f6001600160e01b03198216637965db0b60e01b14806110cb57506110cb826124f6565b7f9bd8d607565c0370ae5f91651ca67fd26d4438022bf72037316600e29e6a3a0180546060915f516020615c445f395f51905f529161123c9061546b565b5f36601480821080159061384357507f00000000000000000000000000000000000000000000000000000000000000006001600160a01b031633145b156138695761385636828403815f615a8c565b61385f91615ab3565b60601c9250505090565b339250505090565b5f516020615be45f395f51905f526001600160a01b0385166138a85760405163e602df0560e01b81525f6004820152602401612f68565b6001600160a01b0384166138d157604051634a1406b160e11b81525f6004820152602401612f68565b6001600160a01b038086165f90815260018301602090815260408083209388168352929052208390558115612d3457836001600160a01b0316856001600160a01b03167f8c5be1e5ebec7d5bd14f71427d1e84f3dd0314c0f7b2291e5b200ac8c7c3b9258560405161394591815260200190565b60405180910390a35050505050565b61395c611827565b15611a155760405163d93c066560e01b815260040160405180910390fd5b6139848282611a5e565b6111ee5760405163e2517d3f60e01b81526001600160a01b038216600482015260248101839052604401612f68565b6139bf84848484613f70565b6139cb84848484613f7a565b8383839091926127735760405163013a574760e41b8152600401612f68939291906158e3565b6139fd5f5f84846139b3565b6111ee8282614088565b82613a2557604051630e35356160e11b815260040160405180910390fd5b82811461136c5760405163142e444b60e01b815260040160405180910390fd5b6001600160a01b0383165f908152602085905260409020805460ff1916831515179055613a70612558565b6001600160a01b0316821515846001600160a01b03167f5c115173b119951ab162218e6a2495eb7b93888dda22421e2be9c4ee5d71088284604051613ab59190614a01565b60405180910390a450505050565b5f5f613ad0858585614092565b9050801561139f57613ae0612558565b6001600160a01b0316856001600160a01b03167f7c2b9369bf4a6bd9745889c658ad00a4d57e280c4c80fa1c74db2a9e52c1363585604051613b2491815260200190565b60405180910390a3949350505050565b613b405f835f846139b3565b6111ee82826140b4565b5f805f516020615c445f395f51905f5261181d565b613b676140be565b611a1557604051631afcd79f60e31b815260040160405180910390fd5b613b8c613b5f565b613b946140d7565b613b9c6140d7565b613ba5836140df565b613bae81614108565b61136c8484848461411b565b5f613bc48461188a565b905080831115613be7576040516349d7d08d60e11b815260040160405180910390fd5b6001600160a01b0384165f9081525f516020615c245f395f51905f5260208190526040822054909190613c1a9084615961565b9050808511156112d6575f613c2f8287615961565b6001600160a01b0388165f90815260208590526040902054909150613c55908290615961565b6001600160a01b0388165f81815260208690526040908190209290925590517f57e0f3d4013a11f83fec76f5798b11b0ac9894fe75a459c7c18b95b248fa022590613ca3908490899061592e565b60405180910390a250505050505050565b6001600160a01b038216613cdd57604051634b637e8f60e11b81525f6004820152602401612f68565b6111ee825f83614138565b6001600160a01b038316613d1157604051634b637e8f60e11b81525f6004820152602401612f68565b6001600160a01b038216613d3a5760405163ec442f0560e01b81525f6004820152602401612f68565b611525838383614138565b613d4e82614143565b6040516001600160a01b038316907fbc7cd75a20ee27fd9adebab32041f755214dbc6bffa90cc0225b39da2e5c2d3b905f90a2805115613d925761152582826141a6565b6111ee61423f565b5f5f613da584612655565b905080156110f7575f81613db88661188a565b613dc29190615961565b905080841115613dd6575f925050506110cb565b506001949350505050565b5f6118c78585858561425e565b5f613df9848461239c565b90505f1981101561136c5781811015613e3e57604051637dc7a0d960e11b81526001600160a01b03841660048201526024810182905260448101839052606401612f68565b61136c84848484035f613871565b613e585f8484846139b3565b611525838383614282565b7f9bd8d607565c0370ae5f91651ca67fd26d4438022bf72037316600e29e6a3a0280546060915f516020615c445f395f51905f529161123c9061546b565b80516001830190613eb290826159bc565b506040810151600383015560208101516002830190613ed190826159bc565b504260048301556040517fb562a4a5636ab72872315c22d33f07b5af6c4e728ee9b6ee6bb515a37956272f906136a3906001850190615b72565b5f613f146117f9565b15613f2057600161379e565b613f28611827565b15613f3457600261379e565b613f3d84612451565b15613f4957600361379e565b613f5283612451565b15613f5e57600461379e565b5f61379e565b5f61139f848484614299565b61136c83826142bb565b5f613f868585856142e2565b613f9157505f6118ca565b5f613f9a6124ce565b90506001600160a01b0381161561407c576001600160a01b0386161561401e57604051631f2d7a6560e11b81526001600160a01b03821690633e5af4ca90613fec90899089908990899060040161589e565b5f604051808303815f87803b158015614003575f5ffd5b505af1158015614015573d5f5f3e3d5ffd5b5050505061407c565b6040516322ebca6d60e21b81526001600160a01b03821690638baf29b49061404e908890889088906004016158e3565b5f604051808303815f87803b158015614065575f5ffd5b505af1158015614077573d5f5f3e3d5ffd5b505050505b50506001949350505050565b6111ee828261431c565b5f5f61409c612558565b90506140a9858285613dee565b613dd6858585613ce8565b6111ee8282613cb4565b5f6140c7612c5d565b54600160401b900460ff16919050565b611a15613b5f565b6140e7613b5f565b6140ef6140d7565b6140f76140d7565b61157e815f01518260200151614350565b614110613b5f565b805161157e906143a0565b614123613b5f565b61136c848484846020015185604001516143c0565b61152583838361440f565b806001600160a01b03163b5f0361417857604051634c9c8ce360e01b81526001600160a01b0382166004820152602401612f68565b5f516020615c645f395f51905f5280546001600160a01b0319166001600160a01b0392909216919091179055565b60605f6141b384846144fd565b90508080156141d457505f3d11806141d457505f846001600160a01b03163b115b156141e9576141e1614510565b9150506110cb565b801561421357604051639996b31560e01b81526001600160a01b0385166004820152602401612f68565b3d1561422657614221614529565b61291c565b60405163d6bda27560e01b815260040160405180910390fd5b3415611a155760405163b398979f60e01b815260040160405180910390fd5b5f61426b85858585614534565b61427657505f6118ca565b6130d685858585614541565b61428e5f8484846139b3565b6115258383836145d7565b5f6142a58484846145e2565b6142b057505f6113a2565b61379e8484846145ef565b6142c58282613d9a565b6111ee576040516301c9bcfb60e31b815260040160405180910390fd5b5f6001600160a01b0383166142fa5761379e8261468b565b6001600160a01b0382166143115761379e8361468b565b61379e8484846146b7565b6001600160a01b0382166143455760405163ec442f0560e01b81525f6004820152602401612f68565b6111ee5f8383614138565b614358613b5f565b5f516020615be45f395f51905f527f52c63247e1f47db19d5ce0460030c497f067ca4cebf71ba98eeadabe20bace0361439184826159bc565b506004810161136c83826159bc565b6143a8613b5f565b6001600160a01b0381161561157e5761157e816134f7565b6143c8613b5f565b6143d185614701565b6143e78460400151855f0151866020015161473a565b6143fd835f015184602001518560400151614797565b614406826147cb565b612d348161480d565b5f614418611f43565b90506001600160a01b038116156144f2575f6144338561188a565b90505f61443f8561188a565b90505f61446a7f52c63247e1f47db19d5ce0460030c497f067ca4cebf71ba98eeadabe20bace025490565b905061447787878761483c565b604051631be4e35160e31b81526001600160a01b038881166004830152878116602483015260448201859052606482018490526084820183905285169063df271a889060a4015f604051808303815f87803b1580156144d4575f5ffd5b505af11580156144e6573d5f5f3e3d5ffd5b5050505050505061136c565b61136c84848461483c565b5f5f5f835160208501865af49392505050565b6040513d81523d5f602083013e3d602001810160405290565b6040513d5f823e3d81fd5b5f6118c785858585614967565b5f5f61454b6124ce565b90506001600160a01b038116156145cd57604051637157797f60e01b81526001600160a01b03821690637157797f9061458e90899089908990899060040161589e565b602060405180830381865afa1580156145a9573d5f5f3e3d5ffd5b505050506040513d601f19601f82011682018060405250810190611f889190615bc8565b60019150506118ca565b611525838383613ce8565b5f61139f5f858585614967565b5f5f6145f96124ce565b90506001600160a01b03811615614681576040516372331c7360e11b81526001600160a01b0382169063e46638e69061463a908890889088906004016158e3565b602060405180830381865afa158015614655573d5f5f3e3d5ffd5b505050506040513d601f19601f820116820180604052508101906146799190615bc8565b9150506113a2565b60019150506113a2565b5f6146946117f9565b806146a357506146a382612451565b156146af57505f919050565b506001919050565b5f6146c184612451565b806146d057506146d083612451565b806146df57506146df82612451565b806146ed57506146ed611827565b156146f957505f6113a2565b5060016113a2565b614709613b5f565b6001600160a01b0381166147305760405163011d80f760e01b815260040160405180910390fd5b6111ee5f8261287a565b614742613b5f565b5f516020615c445f395f51905f52805460ff191660ff85161781557f9bd8d607565c0370ae5f91651ca67fd26d4438022bf72037316600e29e6a3a0261478883826159bc565b5060018101612d3484826159bc565b61479f613b5f565b5f516020615c045f395f51905f526147b781856136af565b6147c18184613ea1565b61136c8183613665565b6147d3613b5f565b6001600160a01b0381161561157e577f1387b97dfab601d3023cb57858a6be29329babb05c85597ddbe4926c1193a9006111ee8183613736565b614815613b5f565b6001600160a01b0381161561157e575f516020615cc65f395f51905f526111ee8183612956565b5f516020615be45f395f51905f526001600160a01b0384166148765781816002015f82825461486b919061591b565b909155506148e69050565b6001600160a01b0384165f90815260208290526040902054828110156148c85760405163391434e360e21b81526001600160a01b03861660048201526024810182905260448101849052606401612f68565b6001600160a01b0385165f9081526020839052604090209083900390555b6001600160a01b038316614904576002810180548390039055614922565b6001600160a01b0383165f9081526020829052604090208054830190555b826001600160a01b0316846001600160a01b03167fddf252ad1be2c89b69c2b068fc378daa952ba7f163c4a11628f55a4df523b3ef84604051612e0e91815260200190565b5f6118c78585856142e2565b6040518060400160405280606081526020016149a76040518060600160405280606081526020015f81526020015f81525090565b905290565b5f602082840312156149bc575f5ffd5b81356001600160e01b0319811681146113a2575f5ffd5b5f81518084528060208401602086015e5f602082860101526020601f19601f83011685010191505092915050565b602081525f6113a260208301846149d3565b6001600160a01b038116811461157e575f5ffd5b5f5f60408385031215614a38575f5ffd5b8235614a4381614a13565b946020939093013593505050565b5f5f83601f840112614a61575f5ffd5b5081356001600160401b03811115614a77575f5ffd5b6020830191508360208260051b8501011115614a91575f5ffd5b9250929050565b5f5f60208385031215614aa9575f5ffd5b82356001600160401b03811115614abe575f5ffd5b614aca85828601614a51565b90969095509350505050565b604080825283519082018190525f9060208501906060840190835b81811015614b0f578351835260209384019390920191600101614af1565b5050602093909301939093525092915050565b5f60208284031215614b32575f5ffd5b81356113a281614a13565b5f5f83601f840112614b4d575f5ffd5b5081356001600160401b03811115614b63575f5ffd5b602083019150836020828501011115614a91575f5ffd5b5f5f5f5f5f5f60a08789031215614b8f575f5ffd5b8635614b9a81614a13565b95506020870135614baa81614a13565b9450604087013593506060870135925060808701356001600160401b03811115614bd2575f5ffd5b614bde89828a01614b3d565b979a9699509497509295939492505050565b5f5f5f5f60408587031215614c03575f5ffd5b84356001600160401b03811115614c18575f5ffd5b614c2487828801614a51565b90955093505060208501356001600160401b03811115614c42575f5ffd5b614c4e87828801614a51565b95989497509550505050565b5f5f5f60608486031215614c6c575f5ffd5b8335614c7781614a13565b92506020840135614c8781614a13565b929592945050506040919091013590565b5f60208284031215614ca8575f5ffd5b5035919050565b5f5f60408385031215614cc0575f5ffd5b823591506020830135614cd281614a13565b809150509250929050565b5f5f5f5f60608587031215614cf0575f5ffd5b8435614cfb81614a13565b93506020850135925060408501356001600160401b03811115614d1c575f5ffd5b614c4e87828801614b3d565b634e487b7160e01b5f52604160045260245ffd5b604051606081016001600160401b0381118282101715614d5e57614d5e614d28565b60405290565b604051601f8201601f191681016001600160401b0381118282101715614d8c57614d8c614d28565b604052919050565b5f6001600160401b03821115614dac57614dac614d28565b50601f01601f191660200190565b5f82601f830112614dc9575f5ffd5b8135602083015f614de1614ddc84614d94565b614d64565b9050828152858383011115614df4575f5ffd5b828260208301375f92810160200192909252509392505050565b60ff8116811461157e575f5ffd5b5f60608284031215614e2c575f5ffd5b614e34614d3c565b905081356001600160401b03811115614e4b575f5ffd5b614e5784828501614dba565b82525060208201356001600160401b03811115614e72575f5ffd5b614e7e84828501614dba565b60208301525060409182013591810191909152919050565b5f60608284031215614ea6575f5ffd5b614eae614d3c565b905081356001600160401b03811115614ec5575f5ffd5b614ed184828501614dba565b82525060208201356001600160401b03811115614eec575f5ffd5b614ef884828501614e1c565b60208301525060408201356001600160401b03811115614f16575f5ffd5b614f2284828501614dba565b60408301525092915050565b5f60608284031215614f3e575f5ffd5b614f46614d3c565b90508135614f5381614a13565b81526020820135614f6381614a13565b60208201526040820135614f7681614a13565b604082015292915050565b5f5f5f5f60c08587031215614f94575f5ffd5b8435614f9f81614a13565b935060208501356001600160401b03811115614fb9575f5ffd5b850160608188031215614fca575f5ffd5b614fd2614d3c565b81356001600160401b03811115614fe7575f5ffd5b614ff389828501614dba565b82525060208201356001600160401b0381111561500e575f5ffd5b61501a89828501614dba565b6020830152506040820135915061503082614e0e565b60408181019290925293508501356001600160401b03811115615051575f5ffd5b61505d87828801614e96565b92505061506d8660608701614f2e565b905092959194509250565b5f5f5f5f5f6080868803121561508c575f5ffd5b853561509781614a13565b945060208601356150a781614a13565b93506040860135925060608601356001600160401b038111156150c8575f5ffd5b6150d488828901614b3d565b969995985093965092949392505050565b5f5f604083850312156150f6575f5ffd5b823561510181614a13565b915060208301356001600160401b0381111561511b575f5ffd5b61512785828601614dba565b9150509250929050565b5f5f5f5f60808587031215615144575f5ffd5b843561514f81614a13565b9350602085013561515f81614a13565b9250604085013561516f81614a13565b9396929550929360600135925050565b5f6020828403121561518f575f5ffd5b81356001600160401b038111156151a4575f5ffd5b6118ca84828501614dba565b5f8151606084526151c460608501826149d3565b905060208301516020850152604083015160408501528091505092915050565b602081525f6113a260208301846151b0565b5f60208284031215615206575f5ffd5b81356113a281614e0e565b5f602082016020835280845180835260408501915060408160051b8601019250602086015f5b8281101561526857603f198786030184526152538583516149d3565b94506020938401939190910190600101615237565b50929695505050505050565b801515811461157e575f5ffd5b5f5f5f5f60608587031215615294575f5ffd5b843561529f81614a13565b935060208501356152af81615274565b925060408501356001600160401b03811115614d1c575f5ffd5b5f5f5f5f5f606086880312156152dd575f5ffd5b85356001600160401b038111156152f2575f5ffd5b6152fe88828901614a51565b90965094505060208601356001600160401b0381111561531c575f5ffd5b61532888828901614a51565b90945092505060408601356001600160401b03811115615346575f5ffd5b61535288828901614dba565b9150509295509295909350565b5f5f60208385031215615370575f5ffd5b82356001600160401b03811115615385575f5ffd5b614aca85828601614b3d565b5f5f604083850312156153a2575f5ffd5b82356153ad81614a13565b91506020830135614cd281615274565b5f602082840312156153cd575f5ffd5b81356001600160401b038111156153e2575f5ffd5b8201606081850312156113a2575f5ffd5b602081525f82516040602084015261540e60608401826149d3565b90506020840151601f1984830301604085015261365c82826151b0565b5f5f6040838503121561543c575f5ffd5b823561544781614a13565b91506020830135614cd281614a13565b634e487b7160e01b5f52603260045260245ffd5b600181811c9082168061547f57607f821691505b6020821081036119c957634e487b7160e01b5f52602260045260245ffd5b8183526020830192505f815f5b848110156154db5781356154bd81614a13565b6001600160a01b0316865260209586019591909101906001016154aa565b5093949350505050565b8183525f6001600160fb1b038311156154fc575f5ffd5b8260051b80836020870137939093016020019392505050565b606081525f61552860608301868861549d565b828103602084015261553b8185876154e5565b83810360409094019390935250505f8152602001949350505050565b604081525f61556a60408301868861549d565b828103602084015261557d8185876154e5565b979650505050505050565b5f82601f830112615597575f5ffd5b81516155a5614ddc82614d94565b8181528460208386010111156155b9575f5ffd5b8160208501602083015e5f918101602001919091529392505050565b5f602082840312156155e5575f5ffd5b81516001600160401b038111156155fa575f5ffd5b82016060818503121561560b575f5ffd5b615613614d3c565b81516001600160401b03811115615628575f5ffd5b61563486828501615588565b82525060208281015190820152604091820151918101919091529392505050565b5f60208284031215615665575f5ffd5b81516001600160401b0381111561567a575f5ffd5b8201601f8101841361568a575f5ffd5b80516001600160401b038111156156a3576156a3614d28565b8060051b6156b360208201614d64565b918252602081840181019290810190878411156156ce575f5ffd5b6020850192505b8383101561557d5782516001600160401b038111156156f2575f5ffd5b61570189602083890101615588565b835250602092830192909101906156d5565b606081525f61572660608301878961549d565b82810360208401526157398186886154e5565b9050828103604084015261574d81856149d3565b98975050505050505050565b601f82111561152557805f5260205f20601f840160051c8101602085101561577e5750805b601f840160051c820191505b81811015612d34575f815560010161578a565b6001600160401b038311156157b4576157b4614d28565b6157c8836157c2835461546b565b83615759565b5f601f8411600181146157f9575f85156157e25750838201355b5f19600387901b1c1916600186901b178355612d34565b5f83815260208120601f198716915b828110156158285786850135825560209485019460019092019101615808565b5086821015615844575f1960f88860031b161c19848701351681555b505060018560011b0183555050505050565b818382375f9101908152919050565b60208152816020820152818360408301375f818301604090810191909152601f909201601f19160101919050565b5f6110cb3683614e1c565b6001600160a01b039485168152928416602084015292166040820152606081019190915260800190565b5f602082840312156158d8575f5ffd5b81516113a281614e0e565b6001600160a01b039384168152919092166020820152604081019190915260600190565b634e487b7160e01b5f52601160045260245ffd5b808201808211156110cb576110cb615907565b828152604060208201525f61139f60408301846149d3565b5f60208284031215615956575f5ffd5b81356113a281615274565b818103818111156110cb576110cb615907565b5f60208284031215615984575f5ffd5b5051919050565b5f6020828403121561599b575f5ffd5b81516001600160401b038111156159b0575f5ffd5b6118ca84828501615588565b81516001600160401b038111156159d5576159d5614d28565b6159e9816159e3845461546b565b84615759565b6020601f821160018114615a1b575f8315615a045750848201515b5f19600385901b1c1916600184901b178455612d34565b5f84815260208120601f198516915b82811015615a4a5787850151825560209485019460019092019101615a2a565b5084821015615a6757868401515f19600387901b60f8161c191681555b50505050600190811b01905550565b5f82518060208501845e5f920191825250919050565b5f5f85851115615a9a575f5ffd5b83861115615aa6575f5ffd5b5050820193919092039150565b80356bffffffffffffffffffffffff19811690601484101561291c576bffffffffffffffffffffffff1960149490940360031b84901b1690921692915050565b5f8154615aff8161546b565b808552600182168015615b195760018114615b3557615b69565b60ff1983166020870152602082151560051b8701019350615b69565b845f5260205f205f5b83811015615b605781546020828a010152600182019150602081019050615b3e565b87016020019450505b50505092915050565b60208152604060208201525f615b8b6060830184615af3565b601f1983820301604084015260608152615bab6060820160018601615af3565b600285015460208301526003909401546040909101525090919050565b5f60208284031215615bd8575f5ffd5b81516113a28161527456fe52c63247e1f47db19d5ce0460030c497f067ca4cebf71ba98eeadabe20bace00d2d5d34c4a4dea00599692d3257c0aebc5e0359176118cd2364ab9b008c2d1009d8059a24cb596f1948a937c2c163cf14465c2a24abfd3cd009eec4ac4c398009bd8d607565c0370ae5f91651ca67fd26d4438022bf72037316600e29e6a3a00360894a13ba1a3210667c828492db98dca3e2076cc3735a920a3ca505d382bbc02dd7bc7dec4dceedda775e58dd541e08a116c6c53815c0bd028192f7b6268004164647246726f6d3a696e73756666696369656e7441637469766542616c616e6365bd0905600c85d707dc53eba2e146c1c2527cd32ac3ff6b86846155151b3e2700a26469706673582212205fa16e8f73b1292e56b2ef0b94c576602a137e6adb3899c2241ec0dd7b59781864736f6c634300081e0033",
  "linkReferences": {},
  "deployedLinkReferences": {}
}