{
  "_format": "hh-sol-artifact-1",
  "contractName": "CMTATUpgradeable",
  "sourceName": "contracts/deployment/CMTATUpgradeable.sol",
  "abi": [
    {
      "inputs": [
        {
          "internalType": "address",
          "name": "forwarderIrrevocable",
          "type": "address"
        }
      ],
      "stateMutability": "nonpayable",
      "type": "constructor"
    },
    {
      "inputs": [],
      "name": "AccessControlBadConfirmation",
      "type": "error"
    },
    {
      "inputs": [
        {
          "internalType": "address",
          "name": "account",
          "type": "address"
        },
        {
          "internalType": "bytes32",
          "name": "neededRole",
          "type": "bytes32"
        }
      ],
      "name": "AccessControlUnauthorizedAccount",
      "type": "error"
    },
    {
      "inputs": [],
      "name": "CMTAT_AccessControlModule_AddressZeroNotAllowed",
      "type": "error"
    },
    {
      "inputs": [],
      "name": "CMTAT_BurnModule_AccountsValueslengthMismatch",
      "type": "error"
    },
    {
      "inputs": [],
      "name": "CMTAT_BurnModule_EmptyAccounts",
      "type": "error"
    },
    {
      "inputs": [],
      "name": "CMTAT_CCIPModule_SameValue",
      "type": "error"
    },
    {
      "inputs": [],
      "name": "CMTAT_DocumentEngineModule_SameValue",
      "type": "error"
    },
    {
      "inputs": [],
      "name": "CMTAT_ERC20EnforcementModule_ValueExceedsActiveBalance",
      "type": "error"
    },
    {
      "inputs": [],
      "name": "CMTAT_ERC20EnforcementModule_ValueExceedsAvailableBalance",
      "type": "error"
    },
    {
      "inputs": [],
      "name": "CMTAT_ERC20EnforcementModule_ValueExceedsFrozenBalance",
      "type": "error"
    },
    {
      "inputs": [],
      "name": "CMTAT_Enforcement_AccountsValueslengthMismatch",
      "type": "error"
    },
    {
      "inputs": [],
      "name": "CMTAT_Enforcement_EmptyAccounts",
      "type": "error"
    },
    {
      "inputs": [
        {
          "internalType": "address",
          "name": "from",
          "type": "address"
        },
        {
          "internalType": "address",
          "name": "to",
          "type": "address"
        },
        {
          "internalType": "uint256",
          "name": "amount",
          "type": "uint256"
        }
      ],
      "name": "CMTAT_InvalidTransfer",
      "type": "error"
    },
    {
      "inputs": [],
      "name": "CMTAT_MintModule_AccountsValueslengthMismatch",
      "type": "error"
    },
    {
      "inputs": [],
      "name": "CMTAT_MintModule_EmptyAccounts",
      "type": "error"
    },
    {
      "inputs": [],
      "name": "CMTAT_MintModule_EmptyTos",
      "type": "error"
    },
    {
      "inputs": [],
      "name": "CMTAT_MintModule_TosValueslengthMismatch",
      "type": "error"
    },
    {
      "inputs": [],
      "name": "CMTAT_PauseModule_ContractIsDeactivated",
      "type": "error"
    },
    {
      "inputs": [],
      "name": "CMTAT_SnapshotModule_SameValue",
      "type": "error"
    },
    {
      "inputs": [],
      "name": "CMTAT_ValidationModule_SameValue",
      "type": "error"
    },
    {
      "inputs": [
        {
          "internalType": "address",
          "name": "spender",
          "type": "address"
        },
        {
          "internalType": "uint256",
          "name": "allowance",
          "type": "uint256"
        },
        {
          "internalType": "uint256",
          "name": "needed",
          "type": "uint256"
        }
      ],
      "name": "ERC20InsufficientAllowance",
      "type": "error"
    },
    {
      "inputs": [
        {
          "internalType": "address",
          "name": "sender",
          "type": "address"
        },
        {
          "internalType": "uint256",
          "name": "balance",
          "type": "uint256"
        },
        {
          "internalType": "uint256",
          "name": "needed",
          "type": "uint256"
        }
      ],
      "name": "ERC20InsufficientBalance",
      "type": "error"
    },
    {
      "inputs": [
        {
          "internalType": "address",
          "name": "approver",
          "type": "address"
        }
      ],
      "name": "ERC20InvalidApprover",
      "type": "error"
    },
    {
      "inputs": [
        {
          "internalType": "address",
          "name": "receiver",
          "type": "address"
        }
      ],
      "name": "ERC20InvalidReceiver",
      "type": "error"
    },
    {
      "inputs": [
        {
          "internalType": "address",
          "name": "sender",
          "type": "address"
        }
      ],
      "name": "ERC20InvalidSender",
      "type": "error"
    },
    {
      "inputs": [
        {
          "internalType": "address",
          "name": "spender",
          "type": "address"
        }
      ],
      "name": "ERC20InvalidSpender",
      "type": "error"
    },
    {
      "inputs": [],
      "name": "EnforcedPause",
      "type": "error"
    },
    {
      "inputs": [],
      "name": "ExpectedPause",
      "type": "error"
    },
    {
      "inputs": [],
      "name": "InvalidInitialization",
      "type": "error"
    },
    {
      "inputs": [],
      "name": "NotInitializing",
      "type": "error"
    },
    {
      "anonymous": false,
      "inputs": [
        {
          "indexed": true,
          "internalType": "address",
          "name": "account",
          "type": "address"
        },
        {
          "indexed": true,
          "internalType": "bool",
          "name": "isFrozen",
          "type": "bool"
        },
        {
          "indexed": true,
          "internalType": "address",
          "name": "enforcer",
          "type": "address"
        },
        {
          "indexed": false,
          "internalType": "bytes",
          "name": "data",
          "type": "bytes"
        }
      ],
      "name": "AddressFrozen",
      "type": "event"
    },
    {
      "anonymous": false,
      "inputs": [
        {
          "indexed": true,
          "internalType": "address",
          "name": "owner",
          "type": "address"
        },
        {
          "indexed": true,
          "internalType": "address",
          "name": "spender",
          "type": "address"
        },
        {
          "indexed": false,
          "internalType": "uint256",
          "name": "value",
          "type": "uint256"
        }
      ],
      "name": "Approval",
      "type": "event"
    },
    {
      "anonymous": false,
      "inputs": [
        {
          "indexed": true,
          "internalType": "address",
          "name": "burner",
          "type": "address"
        },
        {
          "indexed": false,
          "internalType": "address[]",
          "name": "accounts",
          "type": "address[]"
        },
        {
          "indexed": false,
          "internalType": "uint256[]",
          "name": "values",
          "type": "uint256[]"
        },
        {
          "indexed": false,
          "internalType": "bytes",
          "name": "data",
          "type": "bytes"
        }
      ],
      "name": "BatchBurn",
      "type": "event"
    },
    {
      "anonymous": false,
      "inputs": [
        {
          "indexed": true,
          "internalType": "address",
          "name": "minter",
          "type": "address"
        },
        {
          "indexed": false,
          "internalType": "address[]",
          "name": "accounts",
          "type": "address[]"
        },
        {
          "indexed": false,
          "internalType": "uint256[]",
          "name": "values",
          "type": "uint256[]"
        }
      ],
      "name": "BatchMint",
      "type": "event"
    },
    {
      "anonymous": false,
      "inputs": [
        {
          "indexed": true,
          "internalType": "address",
          "name": "burner",
          "type": "address"
        },
        {
          "indexed": true,
          "internalType": "address",
          "name": "account",
          "type": "address"
        },
        {
          "indexed": false,
          "internalType": "uint256",
          "name": "value",
          "type": "uint256"
        },
        {
          "indexed": false,
          "internalType": "bytes",
          "name": "data",
          "type": "bytes"
        }
      ],
      "name": "Burn",
      "type": "event"
    },
    {
      "anonymous": false,
      "inputs": [
        {
          "indexed": true,
          "internalType": "address",
          "name": "burner",
          "type": "address"
        },
        {
          "indexed": true,
          "internalType": "address",
          "name": "account",
          "type": "address"
        },
        {
          "indexed": true,
          "internalType": "address",
          "name": "spender",
          "type": "address"
        },
        {
          "indexed": false,
          "internalType": "uint256",
          "name": "value",
          "type": "uint256"
        }
      ],
      "name": "BurnFrom",
      "type": "event"
    },
    {
      "anonymous": false,
      "inputs": [
        {
          "indexed": true,
          "internalType": "address",
          "name": "previousAdmin",
          "type": "address"
        },
        {
          "indexed": true,
          "internalType": "address",
          "name": "newAdmin",
          "type": "address"
        }
      ],
      "name": "CCIPAdminTransferred",
      "type": "event"
    },
    {
      "anonymous": false,
      "inputs": [
        {
          "indexed": true,
          "internalType": "address",
          "name": "from",
          "type": "address"
        },
        {
          "indexed": false,
          "internalType": "uint256",
          "name": "value",
          "type": "uint256"
        },
        {
          "indexed": true,
          "internalType": "address",
          "name": "sender",
          "type": "address"
        }
      ],
      "name": "CrosschainBurn",
      "type": "event"
    },
    {
      "anonymous": false,
      "inputs": [
        {
          "indexed": true,
          "internalType": "address",
          "name": "to",
          "type": "address"
        },
        {
          "indexed": false,
          "internalType": "uint256",
          "name": "value",
          "type": "uint256"
        },
        {
          "indexed": true,
          "internalType": "address",
          "name": "sender",
          "type": "address"
        }
      ],
      "name": "CrosschainMint",
      "type": "event"
    },
    {
      "anonymous": false,
      "inputs": [
        {
          "indexed": false,
          "internalType": "address",
          "name": "account",
          "type": "address"
        }
      ],
      "name": "Deactivated",
      "type": "event"
    },
    {
      "anonymous": false,
      "inputs": [
        {
          "indexed": true,
          "internalType": "contract IERC1643",
          "name": "newDocumentEngine",
          "type": "address"
        }
      ],
      "name": "DocumentEngine",
      "type": "event"
    },
    {
      "anonymous": false,
      "inputs": [
        {
          "indexed": true,
          "internalType": "address",
          "name": "enforcer",
          "type": "address"
        },
        {
          "indexed": true,
          "internalType": "address",
          "name": "account",
          "type": "address"
        },
        {
          "indexed": false,
          "internalType": "uint256",
          "name": "amount",
          "type": "uint256"
        },
        {
          "indexed": false,
          "internalType": "bytes",
          "name": "data",
          "type": "bytes"
        }
      ],
      "name": "Enforcement",
      "type": "event"
    },
    {
      "anonymous": false,
      "inputs": [
        {
          "indexed": false,
          "internalType": "string",
          "name": "newInformation",
          "type": "string"
        }
      ],
      "name": "Information",
      "type": "event"
    },
    {
      "anonymous": false,
      "inputs": [
        {
          "indexed": false,
          "internalType": "uint64",
          "name": "version",
          "type": "uint64"
        }
      ],
      "name": "Initialized",
      "type": "event"
    },
    {
      "anonymous": false,
      "inputs": [
        {
          "indexed": true,
          "internalType": "address",
          "name": "minter",
          "type": "address"
        },
        {
          "indexed": true,
          "internalType": "address",
          "name": "account",
          "type": "address"
        },
        {
          "indexed": false,
          "internalType": "uint256",
          "name": "value",
          "type": "uint256"
        },
        {
          "indexed": false,
          "internalType": "bytes",
          "name": "data",
          "type": "bytes"
        }
      ],
      "name": "Mint",
      "type": "event"
    },
    {
      "anonymous": false,
      "inputs": [
        {
          "indexed": true,
          "internalType": "string",
          "name": "newNameIndexed",
          "type": "string"
        },
        {
          "indexed": false,
          "internalType": "string",
          "name": "newName",
          "type": "string"
        }
      ],
      "name": "Name",
      "type": "event"
    },
    {
      "anonymous": false,
      "inputs": [
        {
          "indexed": false,
          "internalType": "address",
          "name": "account",
          "type": "address"
        }
      ],
      "name": "Paused",
      "type": "event"
    },
    {
      "anonymous": false,
      "inputs": [
        {
          "indexed": true,
          "internalType": "bytes32",
          "name": "role",
          "type": "bytes32"
        },
        {
          "indexed": true,
          "internalType": "bytes32",
          "name": "previousAdminRole",
          "type": "bytes32"
        },
        {
          "indexed": true,
          "internalType": "bytes32",
          "name": "newAdminRole",
          "type": "bytes32"
        }
      ],
      "name": "RoleAdminChanged",
      "type": "event"
    },
    {
      "anonymous": false,
      "inputs": [
        {
          "indexed": true,
          "internalType": "bytes32",
          "name": "role",
          "type": "bytes32"
        },
        {
          "indexed": true,
          "internalType": "address",
          "name": "account",
          "type": "address"
        },
        {
          "indexed": true,
          "internalType": "address",
          "name": "sender",
          "type": "address"
        }
      ],
      "name": "RoleGranted",
      "type": "event"
    },
    {
      "anonymous": false,
      "inputs": [
        {
          "indexed": true,
          "internalType": "bytes32",
          "name": "role",
          "type": "bytes32"
        },
        {
          "indexed": true,
          "internalType": "address",
          "name": "account",
          "type": "address"
        },
        {
          "indexed": true,
          "internalType": "address",
          "name": "sender",
          "type": "address"
        }
      ],
      "name": "RoleRevoked",
      "type": "event"
    },
    {
      "anonymous": false,
      "inputs": [
        {
          "indexed": true,
          "internalType": "contract IRuleEngine",
          "name": "newRuleEngine",
          "type": "address"
        }
      ],
      "name": "RuleEngine",
      "type": "event"
    },
    {
      "anonymous": false,
      "inputs": [
        {
          "indexed": true,
          "internalType": "contract ISnapshotEngine",
          "name": "newSnapshotEngine",
          "type": "address"
        }
      ],
      "name": "SnapshotEngine",
      "type": "event"
    },
    {
      "anonymous": false,
      "inputs": [
        {
          "indexed": true,
          "internalType": "address",
          "name": "account",
          "type": "address"
        },
        {
          "indexed": true,
          "internalType": "address",
          "name": "spender",
          "type": "address"
        },
        {
          "indexed": false,
          "internalType": "uint256",
          "name": "value",
          "type": "uint256"
        }
      ],
      "name": "Spend",
      "type": "event"
    },
    {
      "anonymous": false,
      "inputs": [
        {
          "indexed": true,
          "internalType": "string",
          "name": "newSymbolIndexed",
          "type": "string"
        },
        {
          "indexed": false,
          "internalType": "string",
          "name": "newSymbol",
          "type": "string"
        }
      ],
      "name": "Symbol",
      "type": "event"
    },
    {
      "anonymous": false,
      "inputs": [
        {
          "components": [
            {
              "internalType": "string",
              "name": "name",
              "type": "string"
            },
            {
              "components": [
                {
                  "internalType": "string",
                  "name": "uri",
                  "type": "string"
                },
                {
                  "internalType": "bytes32",
                  "name": "documentHash",
                  "type": "bytes32"
                },
                {
                  "internalType": "uint256",
                  "name": "lastModified",
                  "type": "uint256"
                }
              ],
              "internalType": "struct IERC1643.Document",
              "name": "doc",
              "type": "tuple"
            }
          ],
          "indexed": false,
          "internalType": "struct ICMTATBase.CMTATTerms",
          "name": "newTerm",
          "type": "tuple"
        }
      ],
      "name": "Terms",
      "type": "event"
    },
    {
      "anonymous": false,
      "inputs": [
        {
          "indexed": true,
          "internalType": "string",
          "name": "newTokenIdIndexed",
          "type": "string"
        },
        {
          "indexed": false,
          "internalType": "string",
          "name": "newTokenId",
          "type": "string"
        }
      ],
      "name": "TokenId",
      "type": "event"
    },
    {
      "anonymous": false,
      "inputs": [
        {
          "indexed": true,
          "internalType": "address",
          "name": "account",
          "type": "address"
        },
        {
          "indexed": false,
          "internalType": "uint256",
          "name": "value",
          "type": "uint256"
        },
        {
          "indexed": false,
          "internalType": "bytes",
          "name": "data",
          "type": "bytes"
        }
      ],
      "name": "TokensFrozen",
      "type": "event"
    },
    {
      "anonymous": false,
      "inputs": [
        {
          "indexed": true,
          "internalType": "address",
          "name": "account",
          "type": "address"
        },
        {
          "indexed": false,
          "internalType": "uint256",
          "name": "value",
          "type": "uint256"
        },
        {
          "indexed": false,
          "internalType": "bytes",
          "name": "data",
          "type": "bytes"
        }
      ],
      "name": "TokensUnfrozen",
      "type": "event"
    },
    {
      "anonymous": false,
      "inputs": [
        {
          "indexed": true,
          "internalType": "address",
          "name": "from",
          "type": "address"
        },
        {
          "indexed": true,
          "internalType": "address",
          "name": "to",
          "type": "address"
        },
        {
          "indexed": false,
          "internalType": "uint256",
          "name": "value",
          "type": "uint256"
        }
      ],
      "name": "Transfer",
      "type": "event"
    },
    {
      "anonymous": false,
      "inputs": [
        {
          "indexed": false,
          "internalType": "address",
          "name": "account",
          "type": "address"
        }
      ],
      "name": "Unpaused",
      "type": "event"
    },
    {
      "inputs": [],
      "name": "BURNER_FROM_ROLE",
      "outputs": [
        {
          "internalType": "bytes32",
          "name": "",
          "type": "bytes32"
        }
      ],
      "stateMutability": "view",
      "type": "function"
    },
    {
      "inputs": [],
      "name": "BURNER_ROLE",
      "outputs": [
        {
          "internalType": "bytes32",
          "name": "",
          "type": "bytes32"
        }
      ],
      "stateMutability": "view",
      "type": "function"
    },
    {
      "inputs": [],
      "name": "BURNER_SELF_ROLE",
      "outputs": [
        {
          "internalType": "bytes32",
          "name": "",
          "type": "bytes32"
        }
      ],
      "stateMutability": "view",
      "type": "function"
    },
    {
      "inputs": [],
      "name": "CROSS_CHAIN_ROLE",
      "outputs": [
        {
          "internalType": "bytes32",
          "name": "",
          "type": "bytes32"
        }
      ],
      "stateMutability": "view",
      "type": "function"
    },
    {
      "inputs": [],
      "name": "DEFAULT_ADMIN_ROLE",
      "outputs": [
        {
          "internalType": "bytes32",
          "name": "",
          "type": "bytes32"
        }
      ],
      "stateMutability": "view",
      "type": "function"
    },
    {
      "inputs": [],
      "name": "DOCUMENT_ROLE",
      "outputs": [
        {
          "internalType": "bytes32",
          "name": "",
          "type": "bytes32"
        }
      ],
      "stateMutability": "view",
      "type": "function"
    },
    {
      "inputs": [],
      "name": "ENFORCER_ROLE",
      "outputs": [
        {
          "internalType": "bytes32",
          "name": "",
          "type": "bytes32"
        }
      ],
      "stateMutability": "view",
      "type": "function"
    },
    {
      "inputs": [],
      "name": "ERC20ENFORCER_ROLE",
      "outputs": [
        {
          "internalType": "bytes32",
          "name": "",
          "type": "bytes32"
        }
      ],
      "stateMutability": "view",
      "type": "function"
    },
    {
      "inputs": [],
      "name": "EXTRA_INFORMATION_ROLE",
      "outputs": [
        {
          "internalType": "bytes32",
          "name": "",
          "type": "bytes32"
        }
      ],
      "stateMutability": "view",
      "type": "function"
    },
    {
      "inputs": [],
      "name": "MINTER_ROLE",
      "outputs": [
        {
          "internalType": "bytes32",
          "name": "",
          "type": "bytes32"
        }
      ],
      "stateMutability": "view",
      "type": "function"
    },
    {
      "inputs": [],
      "name": "PAUSER_ROLE",
      "outputs": [
        {
          "internalType": "bytes32",
          "name": "",
          "type": "bytes32"
        }
      ],
      "stateMutability": "view",
      "type": "function"
    },
    {
      "inputs": [],
      "name": "SNAPSHOOTER_ROLE",
      "outputs": [
        {
          "internalType": "bytes32",
          "name": "",
          "type": "bytes32"
        }
      ],
      "stateMutability": "view",
      "type": "function"
    },
    {
      "inputs": [
        {
          "internalType": "address",
          "name": "owner",
          "type": "address"
        },
        {
          "internalType": "address",
          "name": "spender",
          "type": "address"
        }
      ],
      "name": "allowance",
      "outputs": [
        {
          "internalType": "uint256",
          "name": "",
          "type": "uint256"
        }
      ],
      "stateMutability": "view",
      "type": "function"
    },
    {
      "inputs": [
        {
          "internalType": "address",
          "name": "spender",
          "type": "address"
        },
        {
          "internalType": "uint256",
          "name": "value",
          "type": "uint256"
        }
      ],
      "name": "approve",
      "outputs": [
        {
          "internalType": "bool",
          "name": "",
          "type": "bool"
        }
      ],
      "stateMutability": "nonpayable",
      "type": "function"
    },
    {
      "inputs": [
        {
          "internalType": "address",
          "name": "account",
          "type": "address"
        }
      ],
      "name": "balanceOf",
      "outputs": [
        {
          "internalType": "uint256",
          "name": "",
          "type": "uint256"
        }
      ],
      "stateMutability": "view",
      "type": "function"
    },
    {
      "inputs": [
        {
          "internalType": "address[]",
          "name": "addresses",
          "type": "address[]"
        }
      ],
      "name": "batchBalanceOf",
      "outputs": [
        {
          "internalType": "uint256[]",
          "name": "balances",
          "type": "uint256[]"
        },
        {
          "internalType": "uint256",
          "name": "totalSupply_",
          "type": "uint256"
        }
      ],
      "stateMutability": "view",
      "type": "function"
    },
    {
      "inputs": [
        {
          "internalType": "address[]",
          "name": "accounts",
          "type": "address[]"
        },
        {
          "internalType": "uint256[]",
          "name": "values",
          "type": "uint256[]"
        }
      ],
      "name": "batchBurn",
      "outputs": [],
      "stateMutability": "nonpayable",
      "type": "function"
    },
    {
      "inputs": [
        {
          "internalType": "address[]",
          "name": "accounts",
          "type": "address[]"
        },
        {
          "internalType": "uint256[]",
          "name": "values",
          "type": "uint256[]"
        },
        {
          "internalType": "bytes",
          "name": "data",
          "type": "bytes"
        }
      ],
      "name": "batchBurn",
      "outputs": [],
      "stateMutability": "nonpayable",
      "type": "function"
    },
    {
      "inputs": [
        {
          "internalType": "address[]",
          "name": "accounts",
          "type": "address[]"
        },
        {
          "internalType": "uint256[]",
          "name": "values",
          "type": "uint256[]"
        }
      ],
      "name": "batchMint",
      "outputs": [],
      "stateMutability": "nonpayable",
      "type": "function"
    },
    {
      "inputs": [
        {
          "internalType": "address[]",
          "name": "accounts",
          "type": "address[]"
        },
        {
          "internalType": "bool[]",
          "name": "freezes",
          "type": "bool[]"
        }
      ],
      "name": "batchSetAddressFrozen",
      "outputs": [],
      "stateMutability": "nonpayable",
      "type": "function"
    },
    {
      "inputs": [
        {
          "internalType": "address[]",
          "name": "tos",
          "type": "address[]"
        },
        {
          "internalType": "uint256[]",
          "name": "values",
          "type": "uint256[]"
        }
      ],
      "name": "batchTransfer",
      "outputs": [
        {
          "internalType": "bool",
          "name": "success_",
          "type": "bool"
        }
      ],
      "stateMutability": "nonpayable",
      "type": "function"
    },
    {
      "inputs": [
        {
          "internalType": "uint256",
          "name": "value",
          "type": "uint256"
        }
      ],
      "name": "burn",
      "outputs": [],
      "stateMutability": "nonpayable",
      "type": "function"
    },
    {
      "inputs": [
        {
          "internalType": "address",
          "name": "account",
          "type": "address"
        },
        {
          "internalType": "uint256",
          "name": "value",
          "type": "uint256"
        },
        {
          "internalType": "bytes",
          "name": "data",
          "type": "bytes"
        }
      ],
      "name": "burn",
      "outputs": [],
      "stateMutability": "nonpayable",
      "type": "function"
    },
    {
      "inputs": [
        {
          "internalType": "address",
          "name": "account",
          "type": "address"
        },
        {
          "internalType": "uint256",
          "name": "value",
          "type": "uint256"
        }
      ],
      "name": "burn",
      "outputs": [],
      "stateMutability": "nonpayable",
      "type": "function"
    },
    {
      "inputs": [
        {
          "internalType": "address",
          "name": "from",
          "type": "address"
        },
        {
          "internalType": "address",
          "name": "to",
          "type": "address"
        },
        {
          "internalType": "uint256",
          "name": "amountToBurn",
          "type": "uint256"
        },
        {
          "internalType": "uint256",
          "name": "amountToMint",
          "type": "uint256"
        },
        {
          "internalType": "bytes",
          "name": "data",
          "type": "bytes"
        }
      ],
      "name": "burnAndMint",
      "outputs": [],
      "stateMutability": "nonpayable",
      "type": "function"
    },
    {
      "inputs": [
        {
          "internalType": "address",
          "name": "account",
          "type": "address"
        },
        {
          "internalType": "uint256",
          "name": "value",
          "type": "uint256"
        }
      ],
      "name": "burnFrom",
      "outputs": [],
      "stateMutability": "nonpayable",
      "type": "function"
    },
    {
      "inputs": [
        {
          "internalType": "address",
          "name": "from",
          "type": "address"
        },
        {
          "internalType": "address",
          "name": "to",
          "type": "address"
        },
        {
          "internalType": "uint256",
          "name": "value",
          "type": "uint256"
        }
      ],
      "name": "canTransfer",
      "outputs": [
        {
          "internalType": "bool",
          "name": "",
          "type": "bool"
        }
      ],
      "stateMutability": "view",
      "type": "function"
    },
    {
      "inputs": [
        {
          "internalType": "address",
          "name": "spender",
          "type": "address"
        },
        {
          "internalType": "address",
          "name": "from",
          "type": "address"
        },
        {
          "internalType": "address",
          "name": "to",
          "type": "address"
        },
        {
          "internalType": "uint256",
          "name": "value",
          "type": "uint256"
        }
      ],
      "name": "canTransferFrom",
      "outputs": [
        {
          "internalType": "bool",
          "name": "",
          "type": "bool"
        }
      ],
      "stateMutability": "view",
      "type": "function"
    },
    {
      "inputs": [
        {
          "internalType": "address",
          "name": "from",
          "type": "address"
        },
        {
          "internalType": "uint256",
          "name": "value",
          "type": "uint256"
        }
      ],
      "name": "crosschainBurn",
      "outputs": [],
      "stateMutability": "nonpayable",
      "type": "function"
    },
    {
      "inputs": [
        {
          "internalType": "address",
          "name": "to",
          "type": "address"
        },
        {
          "internalType": "uint256",
          "name": "value",
          "type": "uint256"
        }
      ],
      "name": "crosschainMint",
      "outputs": [],
      "stateMutability": "nonpayable",
      "type": "function"
    },
    {
      "inputs": [],
      "name": "deactivateContract",
      "outputs": [],
      "stateMutability": "nonpayable",
      "type": "function"
    },
    {
      "inputs": [],
      "name": "deactivated",
      "outputs": [
        {
          "internalType": "bool",
          "name": "",
          "type": "bool"
        }
      ],
      "stateMutability": "view",
      "type": "function"
    },
    {
      "inputs": [],
      "name": "decimals",
      "outputs": [
        {
          "internalType": "uint8",
          "name": "",
          "type": "uint8"
        }
      ],
      "stateMutability": "view",
      "type": "function"
    },
    {
      "inputs": [
        {
          "internalType": "address",
          "name": "from",
          "type": "address"
        },
        {
          "internalType": "address",
          "name": "to",
          "type": "address"
        },
        {
          "internalType": "uint256",
          "name": "value",
          "type": "uint256"
        }
      ],
      "name": "detectTransferRestriction",
      "outputs": [
        {
          "internalType": "uint8",
          "name": "code",
          "type": "uint8"
        }
      ],
      "stateMutability": "view",
      "type": "function"
    },
    {
      "inputs": [
        {
          "internalType": "address",
          "name": "spender",
          "type": "address"
        },
        {
          "internalType": "address",
          "name": "from",
          "type": "address"
        },
        {
          "internalType": "address",
          "name": "to",
          "type": "address"
        },
        {
          "internalType": "uint256",
          "name": "value",
          "type": "uint256"
        }
      ],
      "name": "detectTransferRestrictionFrom",
      "outputs": [
        {
          "internalType": "uint8",
          "name": "code",
          "type": "uint8"
        }
      ],
      "stateMutability": "view",
      "type": "function"
    },
    {
      "inputs": [],
      "name": "documentEngine",
      "outputs": [
        {
          "internalType": "contract IERC1643",
          "name": "documentEngine_",
          "type": "address"
        }
      ],
      "stateMutability": "view",
      "type": "function"
    },
    {
      "inputs": [
        {
          "internalType": "address",
          "name": "from",
          "type": "address"
        },
        {
          "internalType": "address",
          "name": "to",
          "type": "address"
        },
        {
          "internalType": "uint256",
          "name": "value",
          "type": "uint256"
        },
        {
          "internalType": "bytes",
          "name": "data",
          "type": "bytes"
        }
      ],
      "name": "forcedTransfer",
      "outputs": [
        {
          "internalType": "bool",
          "name": "",
          "type": "bool"
        }
      ],
      "stateMutability": "nonpayable",
      "type": "function"
    },
    {
      "inputs": [
        {
          "internalType": "address",
          "name": "from",
          "type": "address"
        },
        {
          "internalType": "address",
          "name": "to",
          "type": "address"
        },
        {
          "internalType": "uint256",
          "name": "value",
          "type": "uint256"
        }
      ],
      "name": "forcedTransfer",
      "outputs": [
        {
          "internalType": "bool",
          "name": "",
          "type": "bool"
        }
      ],
      "stateMutability": "nonpayable",
      "type": "function"
    },
    {
      "inputs": [
        {
          "internalType": "address",
          "name": "account",
          "type": "address"
        },
        {
          "internalType": "uint256",
          "name": "value",
          "type": "uint256"
        }
      ],
      "name": "freezePartialTokens",
      "outputs": [],
      "stateMutability": "nonpayable",
      "type": "function"
    },
    {
      "inputs": [
        {
          "internalType": "address",
          "name": "account",
          "type": "address"
        },
        {
          "internalType": "uint256",
          "name": "value",
          "type": "uint256"
        },
        {
          "internalType": "bytes",
          "name": "data",
          "type": "bytes"
        }
      ],
      "name": "freezePartialTokens",
      "outputs": [],
      "stateMutability": "nonpayable",
      "type": "function"
    },
    {
      "inputs": [
        {
          "internalType": "address",
          "name": "account",
          "type": "address"
        }
      ],
      "name": "getActiveBalanceOf",
      "outputs": [
        {
          "internalType": "uint256",
          "name": "activeBalance_",
          "type": "uint256"
        }
      ],
      "stateMutability": "view",
      "type": "function"
    },
    {
      "inputs": [],
      "name": "getAllDocuments",
      "outputs": [
        {
          "internalType": "string[]",
          "name": "documentNames_",
          "type": "string[]"
        }
      ],
      "stateMutability": "view",
      "type": "function"
    },
    {
      "inputs": [],
      "name": "getCCIPAdmin",
      "outputs": [
        {
          "internalType": "address",
          "name": "",
          "type": "address"
        }
      ],
      "stateMutability": "view",
      "type": "function"
    },
    {
      "inputs": [
        {
          "internalType": "string",
          "name": "name",
          "type": "string"
        }
      ],
      "name": "getDocument",
      "outputs": [
        {
          "components": [
            {
              "internalType": "string",
              "name": "uri",
              "type": "string"
            },
            {
              "internalType": "bytes32",
              "name": "documentHash",
              "type": "bytes32"
            },
            {
              "internalType": "uint256",
              "name": "lastModified",
              "type": "uint256"
            }
          ],
          "internalType": "struct IERC1643.Document",
          "name": "document",
          "type": "tuple"
        }
      ],
      "stateMutability": "view",
      "type": "function"
    },
    {
      "inputs": [
        {
          "internalType": "address",
          "name": "account",
          "type": "address"
        }
      ],
      "name": "getFrozenTokens",
      "outputs": [
        {
          "internalType": "uint256",
          "name": "frozenBalance_",
          "type": "uint256"
        }
      ],
      "stateMutability": "view",
      "type": "function"
    },
    {
      "inputs": [
        {
          "internalType": "bytes32",
          "name": "role",
          "type": "bytes32"
        }
      ],
      "name": "getRoleAdmin",
      "outputs": [
        {
          "internalType": "bytes32",
          "name": "",
          "type": "bytes32"
        }
      ],
      "stateMutability": "view",
      "type": "function"
    },
    {
      "inputs": [
        {
          "internalType": "bytes32",
          "name": "role",
          "type": "bytes32"
        },
        {
          "internalType": "address",
          "name": "account",
          "type": "address"
        }
      ],
      "name": "grantRole",
      "outputs": [],
      "stateMutability": "nonpayable",
      "type": "function"
    },
    {
      "inputs": [
        {
          "internalType": "bytes32",
          "name": "role",
          "type": "bytes32"
        },
        {
          "internalType": "address",
          "name": "account",
          "type": "address"
        }
      ],
      "name": "hasRole",
      "outputs": [
        {
          "internalType": "bool",
          "name": "",
          "type": "bool"
        }
      ],
      "stateMutability": "view",
      "type": "function"
    },
    {
      "inputs": [],
      "name": "information",
      "outputs": [
        {
          "internalType": "string",
          "name": "information_",
          "type": "string"
        }
      ],
      "stateMutability": "view",
      "type": "function"
    },
    {
      "inputs": [
        {
          "internalType": "address",
          "name": "admin",
          "type": "address"
        },
        {
          "components": [
            {
              "internalType": "string",
              "name": "name",
              "type": "string"
            },
            {
              "internalType": "string",
              "name": "symbol",
              "type": "string"
            },
            {
              "internalType": "uint8",
              "name": "decimalsIrrevocable",
              "type": "uint8"
            }
          ],
          "internalType": "struct ICMTATConstructor.ERC20Attributes",
          "name": "ERC20Attributes_",
          "type": "tuple"
        },
        {
          "components": [
            {
              "internalType": "string",
              "name": "tokenId",
              "type": "string"
            },
            {
              "components": [
                {
                  "internalType": "string",
                  "name": "name",
                  "type": "string"
                },
                {
                  "internalType": "string",
                  "name": "uri",
                  "type": "string"
                },
                {
                  "internalType": "bytes32",
                  "name": "documentHash",
                  "type": "bytes32"
                }
              ],
              "internalType": "struct IERC1643CMTAT.DocumentInfo",
              "name": "terms",
              "type": "tuple"
            },
            {
              "internalType": "string",
              "name": "information",
              "type": "string"
            }
          ],
          "internalType": "struct ICMTATConstructor.ExtraInformationAttributes",
          "name": "extraInformationAttributes_",
          "type": "tuple"
        },
        {
          "components": [
            {
              "internalType": "contract IRuleEngine",
              "name": "ruleEngine",
              "type": "address"
            },
            {
              "internalType": "contract ISnapshotEngine",
              "name": "snapshotEngine",
              "type": "address"
            },
            {
              "internalType": "contract IERC1643",
              "name": "documentEngine",
              "type": "address"
            }
          ],
          "internalType": "struct ICMTATConstructor.Engine",
          "name": "engines_",
          "type": "tuple"
        }
      ],
      "name": "initialize",
      "outputs": [],
      "stateMutability": "nonpayable",
      "type": "function"
    },
    {
      "inputs": [
        {
          "internalType": "address",
          "name": "account",
          "type": "address"
        }
      ],
      "name": "isFrozen",
      "outputs": [
        {
          "internalType": "bool",
          "name": "isFrozen_",
          "type": "bool"
        }
      ],
      "stateMutability": "view",
      "type": "function"
    },
    {
      "inputs": [
        {
          "internalType": "address",
          "name": "forwarder",
          "type": "address"
        }
      ],
      "name": "isTrustedForwarder",
      "outputs": [
        {
          "internalType": "bool",
          "name": "",
          "type": "bool"
        }
      ],
      "stateMutability": "view",
      "type": "function"
    },
    {
      "inputs": [
        {
          "internalType": "uint8",
          "name": "restrictionCode",
          "type": "uint8"
        }
      ],
      "name": "messageForTransferRestriction",
      "outputs": [
        {
          "internalType": "string",
          "name": "message",
          "type": "string"
        }
      ],
      "stateMutability": "view",
      "type": "function"
    },
    {
      "inputs": [
        {
          "internalType": "address",
          "name": "account",
          "type": "address"
        },
        {
          "internalType": "uint256",
          "name": "value",
          "type": "uint256"
        }
      ],
      "name": "mint",
      "outputs": [],
      "stateMutability": "nonpayable",
      "type": "function"
    },
    {
      "inputs": [
        {
          "internalType": "address",
          "name": "account",
          "type": "address"
        },
        {
          "internalType": "uint256",
          "name": "value",
          "type": "uint256"
        },
        {
          "internalType": "bytes",
          "name": "data",
          "type": "bytes"
        }
      ],
      "name": "mint",
      "outputs": [],
      "stateMutability": "nonpayable",
      "type": "function"
    },
    {
      "inputs": [],
      "name": "name",
      "outputs": [
        {
          "internalType": "string",
          "name": "",
          "type": "string"
        }
      ],
      "stateMutability": "view",
      "type": "function"
    },
    {
      "inputs": [],
      "name": "pause",
      "outputs": [],
      "stateMutability": "nonpayable",
      "type": "function"
    },
    {
      "inputs": [],
      "name": "paused",
      "outputs": [
        {
          "internalType": "bool",
          "name": "",
          "type": "bool"
        }
      ],
      "stateMutability": "view",
      "type": "function"
    },
    {
      "inputs": [
        {
          "internalType": "bytes32",
          "name": "role",
          "type": "bytes32"
        },
        {
          "internalType": "address",
          "name": "callerConfirmation",
          "type": "address"
        }
      ],
      "name": "renounceRole",
      "outputs": [],
      "stateMutability": "nonpayable",
      "type": "function"
    },
    {
      "inputs": [
        {
          "internalType": "bytes32",
          "name": "role",
          "type": "bytes32"
        },
        {
          "internalType": "address",
          "name": "account",
          "type": "address"
        }
      ],
      "name": "revokeRole",
      "outputs": [],
      "stateMutability": "nonpayable",
      "type": "function"
    },
    {
      "inputs": [],
      "name": "ruleEngine",
      "outputs": [
        {
          "internalType": "contract IRuleEngine",
          "name": "",
          "type": "address"
        }
      ],
      "stateMutability": "view",
      "type": "function"
    },
    {
      "inputs": [
        {
          "internalType": "address",
          "name": "account",
          "type": "address"
        },
        {
          "internalType": "bool",
          "name": "freeze",
          "type": "bool"
        },
        {
          "internalType": "bytes",
          "name": "data",
          "type": "bytes"
        }
      ],
      "name": "setAddressFrozen",
      "outputs": [],
      "stateMutability": "nonpayable",
      "type": "function"
    },
    {
      "inputs": [
        {
          "internalType": "address",
          "name": "account",
          "type": "address"
        },
        {
          "internalType": "bool",
          "name": "freeze",
          "type": "bool"
        }
      ],
      "name": "setAddressFrozen",
      "outputs": [],
      "stateMutability": "nonpayable",
      "type": "function"
    },
    {
      "inputs": [
        {
          "internalType": "address",
          "name": "newAdmin",
          "type": "address"
        }
      ],
      "name": "setCCIPAdmin",
      "outputs": [],
      "stateMutability": "nonpayable",
      "type": "function"
    },
    {
      "inputs": [
        {
          "internalType": "contract IERC1643",
          "name": "documentEngine_",
          "type": "address"
        }
      ],
      "name": "setDocumentEngine",
      "outputs": [],
      "stateMutability": "nonpayable",
      "type": "function"
    },
    {
      "inputs": [
        {
          "internalType": "string",
          "name": "information_",
          "type": "string"
        }
      ],
      "name": "setInformation",
      "outputs": [],
      "stateMutability": "nonpayable",
      "type": "function"
    },
    {
      "inputs": [
        {
          "internalType": "string",
          "name": "name_",
          "type": "string"
        }
      ],
      "name": "setName",
      "outputs": [],
      "stateMutability": "nonpayable",
      "type": "function"
    },
    {
      "inputs": [
        {
          "internalType": "contract IRuleEngine",
          "name": "ruleEngine_",
          "type": "address"
        }
      ],
      "name": "setRuleEngine",
      "outputs": [],
      "stateMutability": "nonpayable",
      "type": "function"
    },
    {
      "inputs": [
        {
          "internalType": "contract ISnapshotEngine",
          "name": "snapshotEngine_",
          "type": "address"
        }
      ],
      "name": "setSnapshotEngine",
      "outputs": [],
      "stateMutability": "nonpayable",
      "type": "function"
    },
    {
      "inputs": [
        {
          "internalType": "string",
          "name": "symbol_",
          "type": "string"
        }
      ],
      "name": "setSymbol",
      "outputs": [],
      "stateMutability": "nonpayable",
      "type": "function"
    },
    {
      "inputs": [
        {
          "components": [
            {
              "internalType": "string",
              "name": "name",
              "type": "string"
            },
            {
              "internalType": "string",
              "name": "uri",
              "type": "string"
            },
            {
              "internalType": "bytes32",
              "name": "documentHash",
              "type": "bytes32"
            }
          ],
          "internalType": "struct IERC1643CMTAT.DocumentInfo",
          "name": "terms_",
          "type": "tuple"
        }
      ],
      "name": "setTerms",
      "outputs": [],
      "stateMutability": "nonpayable",
      "type": "function"
    },
    {
      "inputs": [
        {
          "internalType": "string",
          "name": "tokenId_",
          "type": "string"
        }
      ],
      "name": "setTokenId",
      "outputs": [],
      "stateMutability": "nonpayable",
      "type": "function"
    },
    {
      "inputs": [],
      "name": "snapshotEngine",
      "outputs": [
        {
          "internalType": "contract ISnapshotEngine",
          "name": "",
          "type": "address"
        }
      ],
      "stateMutability": "view",
      "type": "function"
    },
    {
      "inputs": [
        {
          "internalType": "bytes4",
          "name": "_interfaceId",
          "type": "bytes4"
        }
      ],
      "name": "supportsInterface",
      "outputs": [
        {
          "internalType": "bool",
          "name": "",
          "type": "bool"
        }
      ],
      "stateMutability": "view",
      "type": "function"
    },
    {
      "inputs": [],
      "name": "symbol",
      "outputs": [
        {
          "internalType": "string",
          "name": "",
          "type": "string"
        }
      ],
      "stateMutability": "view",
      "type": "function"
    },
    {
      "inputs": [],
      "name": "terms",
      "outputs": [
        {
          "components": [
            {
              "internalType": "string",
              "name": "name",
              "type": "string"
            },
            {
              "components": [
                {
                  "internalType": "string",
                  "name": "uri",
                  "type": "string"
                },
                {
                  "internalType": "bytes32",
                  "name": "documentHash",
                  "type": "bytes32"
                },
                {
                  "internalType": "uint256",
                  "name": "lastModified",
                  "type": "uint256"
                }
              ],
              "internalType": "struct IERC1643.Document",
              "name": "doc",
              "type": "tuple"
            }
          ],
          "internalType": "struct ICMTATBase.CMTATTerms",
          "name": "terms_",
          "type": "tuple"
        }
      ],
      "stateMutability": "view",
      "type": "function"
    },
    {
      "inputs": [],
      "name": "tokenId",
      "outputs": [
        {
          "internalType": "string",
          "name": "tokenId_",
          "type": "string"
        }
      ],
      "stateMutability": "view",
      "type": "function"
    },
    {
      "inputs": [],
      "name": "totalSupply",
      "outputs": [
        {
          "internalType": "uint256",
          "name": "",
          "type": "uint256"
        }
      ],
      "stateMutability": "view",
      "type": "function"
    },
    {
      "inputs": [
        {
          "internalType": "address",
          "name": "to",
          "type": "address"
        },
        {
          "internalType": "uint256",
          "name": "value",
          "type": "uint256"
        }
      ],
      "name": "transfer",
      "outputs": [
        {
          "internalType": "bool",
          "name": "",
          "type": "bool"
        }
      ],
      "stateMutability": "nonpayable",
      "type": "function"
    },
    {
      "inputs": [
        {
          "internalType": "address",
          "name": "from",
          "type": "address"
        },
        {
          "internalType": "address",
          "name": "to",
          "type": "address"
        },
        {
          "internalType": "uint256",
          "name": "value",
          "type": "uint256"
        }
      ],
      "name": "transferFrom",
      "outputs": [
        {
          "internalType": "bool",
          "name": "",
          "type": "bool"
        }
      ],
      "stateMutability": "nonpayable",
      "type": "function"
    },
    {
      "inputs": [],
      "name": "trustedForwarder",
      "outputs": [
        {
          "internalType": "address",
          "name": "",
          "type": "address"
        }
      ],
      "stateMutability": "view",
      "type": "function"
    },
    {
      "inputs": [
        {
          "internalType": "address",
          "name": "account",
          "type": "address"
        },
        {
          "internalType": "uint256",
          "name": "value",
          "type": "uint256"
        }
      ],
      "name": "unfreezePartialTokens",
      "outputs": [],
      "stateMutability": "nonpayable",
      "type": "function"
    },
    {
      "inputs": [
        {
          "internalType": "address",
          "name": "account",
          "type": "address"
        },
        {
          "internalType": "uint256",
          "name": "value",
          "type": "uint256"
        },
        {
          "internalType": "bytes",
          "name": "data",
          "type": "bytes"
        }
      ],
      "name": "unfreezePartialTokens",
      "outputs": [],
      "stateMutability": "nonpayable",
      "type": "function"
    },
    {
      "inputs": [],
      "name": "unpause",
      "outputs": [],
      "stateMutability": "nonpayable",
      "type": "function"
    },
    {
      "inputs": [],
      "name": "version",
      "outputs": [
        {
          "internalType": "string",
          "name": "version_",
          "type": "string"
        }
      ],
      "stateMutability": "view",
      "type": "function"
    }
  ],
  "bytecode": "0x60a060405234801561000f575f5ffd5b506040516155a93803806155a983398101604081905261002e916100fb565b6001600160a01b038116608052610043610049565b50610128565b7ff0c57e16840df040f15088dc2f81fe391c3923bec73e23a9662efc9c229c6a00805468010000000000000000900460ff16156100995760405163f92ee8a960e01b815260040160405180910390fd5b80546001600160401b03908116146100f85780546001600160401b0319166001600160401b0390811782556040519081527fc7f505b2f371ae2175ee4913f4499e1f2633a7b5936321eed1cdaeb6115181d29060200160405180910390a15b50565b5f6020828403121561010b575f5ffd5b81516001600160a01b0381168114610121575f5ffd5b9392505050565b60805161545b61014e5f395f8181610801015281816108ce0152613164015261545b5ff3fe608060405234801561000f575f5ffd5b50600436106104a6575f3560e01c80637ccb6a641161026e578063bbf91f6511610156578063d7ffbbaa116100ca578063e236aabf1161008f578063e236aabf14610b9c578063e46638e614610baf578063e583983614610bc2578063e63ab1e914610bd5578063f47b774014610bfc578063fcf196b414610c04575f5ffd5b8063d7ffbbaa14610b29578063dcfd616f14610b3c578063dd347bef14610b4f578063dd62ed3e14610b62578063e1833a2f14610b75575f5ffd5b8063cf790d8d1161011b578063cf790d8d14610aac578063d32c7bb514610ab4578063d4ce141514610ac7578063d502562514610ada578063d539139314610aef578063d547741f14610b16575f5ffd5b8063bbf91f6514610a44578063bca353be14610a6b578063c47f002714610a73578063c69c09cf14610a86578063ce34e6eb14610a99575f5ffd5b80639dc29fac116101ed578063a76aa6fc116101b2578063a76aa6fc146109be578063a8fa343c146109e5578063a9059cbb146109f8578063a99ac24514610a0b578063b1f5569f14610a1e578063b84c824614610a31575f5ffd5b80639dc29fac146109695780639fa5f50b1461097c5780639fc1d0e714610991578063a217fddf146109a4578063a4a0a301146109ab575f5ffd5b80638fd6a6ac116102335780638fd6a6ac146109205780639082a6fb1461092857806391d148541461093b57806394d008ef1461094e57806395d89b4114610961575f5ffd5b80637ccb6a64146108ac5780637da0a877146108cc5780637f4ab1dd146108f25780638456cb591461090557806388d695b21461090d575f5ffd5b8063313ce567116103915780634a6cc677116103105780635c975abb116102d55780635c975abb146108315780636439fd7514610839578063685731071461086057806370a08231146108735780637157797f1461088657806379cc679014610899575f5ffd5b80634a6cc677146107a25780634d5592ea146107b557806354fd4d50146107c8578063556ed30e146107e9578063572b6c05146107f1575f5ffd5b80633f4ba83a116103565780633f4ba83a1461074e57806340c10f191461075657806342966c681461076957806344d171871461077c578063492c66101461078f575f5ffd5b8063313ce567146106d4578063334c0a6d146106ee578063336110791461070157806336568abe146107145780633c626e0c14610727575f5ffd5b806318bf507711610428578063248a9ca3116103ed578063248a9ca314610626578063282c51f3146106395780632a8437cc146106605780632b8c49e3146106875780632c721b981461069a5780632f2ff15d146106c1575f5ffd5b806318bf5077146105b35780631a7af379146105c65780631fe56f7d146105d957806323b872dd146105ec578063246b72ec146105ff575f5ffd5b8063158b1a571161046e578063158b1a57146105305780631758a8e91461055157806317d70f7c1461057157806318160ddd1461057957806318796d44146105a0575f5ffd5b806301ffc9a7146104aa57806306fdde03146104d2578063095ea7b3146104e75780630c3cc61a146104fa578063125c4a331461051b575b5f5ffd5b6104bd6104b8366004614156565b610c0c565b60405190151581526020015b60405180910390f35b6104da610c2b565b6040516104c991906141ab565b6104bd6104f53660046141d1565b610c3a565b61050d610508366004614242565b610c5b565b6040516104c9929190614280565b61052e6105293660046141d1565b610d27565b005b61054361053e3660046142cc565b610d4c565b6040519081526020016104c9565b610559610d56565b6040516001600160a01b0390911681526020016104c9565b6104da610d77565b7f52c63247e1f47db19d5ce0460030c497f067ca4cebf71ba98eeadabe20bace0254610543565b61052e6105ae366004614324565b610e18565b61052e6105c13660046141d1565b610e38565b61052e6105d436600461439a565b610ea3565b61052e6105e73660046141d1565b610ecc565b6104bd6105fa366004614404565b610eed565b6105437f809a0fc49fc0600540f1d39e23454e1f6f215bc7505fa22b17c154616570ddef81565b610543610634366004614442565b610f03565b6105437f3c11d16cbaffd01df69ce1c404f6340ee057498f5f00246190ea54220576a84881565b6105437f5bfe08abba057c54e6a28bce27ce8c53eb21d7a94376a70d475b5dee60b6c4e281565b61052e6106953660046141d1565b610f23565b6105437fdd7c9aafbb91d54fb2041db1d5b172ea665309b32f5fffdbddf452802a1e3b2081565b61052e6106cf366004614459565b610f82565b6106dc610f9e565b60405160ff90911681526020016104c9565b61052e6106fc366004614487565b610fa7565b61052e61070f3660046142cc565b610fef565b61052e610722366004614459565b61103c565b6105437fd62f75bf68b069bc8e2abd495a949fafec67a4e5a5b7cb36aedf0dd51eec7e7281565b61052e611084565b61052e6107643660046141d1565b6110db565b61052e610777366004614442565b6110fc565b61052e61078a366004614487565b61111a565b61052e61079d366004614730565b611162565b61052e6107b036600461439a565b61125f565b6104bd6107c3366004614827565b6112c7565b6040805180820190915260058152640332e312e360dc1b60208201526104da565b6104bd61131d565b6104bd6107ff3660046142cc565b7f00000000000000000000000000000000000000000000000000000000000000006001600160a01b0390811691161490565b6104bd61134b565b6105437f973ef39d76cc2c6090feab1c030bec6ab5db557f64df047a4c4f9b5953cf1df381565b61052e61086e36600461439a565b611354565b6105436108813660046142cc565b6113ae565b6104bd610894366004614894565b6113de565b61052e6108a73660046141d1565b6113f6565b6108bf6108ba3660046148e2565b611414565b6040516104c99190614947565b7f0000000000000000000000000000000000000000000000000000000000000000610559565b6104da610900366004614959565b6114f3565b61052e611529565b6104bd61091b36600461439a565b61153b565b610559611550565b6105436109363660046142cc565b611578565b6104bd610949366004614459565b611582565b61052e61095c366004614487565b6115ab565b6104da6115f3565b61052e6109773660046141d1565b6115fd565b61098461161e565b6040516104c99190614974565b6104bd61099f366004614404565b6116b4565b6105435f81565b61052e6109b93660046142cc565b6116d7565b6105437f620d362b92b6ef580d4e86c5675d679fe08d31dff47b72f281959a4eecdd036a81565b61052e6109f33660046142cc565b611721565b6104bd610a063660046141d1565b6117c7565b61052e610a193660046149e4565b6117d2565b61052e610a2c366004614a2c565b61181a565b61052e610a3f366004614ad5565b611885565b6105437f13d9f3ea33477b975af6cd01437366c28412d5bd9b872fa0fc25bd3a160683af81565b61052e61191e565b61052e610a81366004614ad5565b6119a1565b61052e610a94366004614b07565b611a2d565b61052e610aa7366004614b33565b611a4e565b610559611a67565b6106dc610ac2366004614894565b611a8f565b6106dc610ad5366004614404565b611b63565b610ae2611c1c565b6040516104c99190614b69565b6105437f9f2df0fed2c77648de5860a4cc508cd0818c85b8b8a1ab4ceeef8d981c8956a681565b61052e610b24366004614459565b611dac565b61052e610b37366004614ad5565b611dc8565b61052e610b4a366004614ad5565b611e20565b61052e610b5d366004614487565b611e78565b610543610b70366004614ba1565b611ec0565b6105437f921df7a58eb4ea112afa962b8186161404ecda2e8fe97f8246026d02ad1a74b781565b61052e610baa3660046142cc565b611f09565b6104bd610bbd366004614404565b611f69565b6104bd610bd03660046142cc565b611f75565b6105437f65d7a28e3265b37a6474929f336521b332c1681b933f6cb9f3376673440d862a81565b6104da611fb4565b610559611ff2565b5f610c168261201a565b80610c255750610c258261204e565b92915050565b6060610c35612072565b905090565b5f5f610c4461207c565b9050610c51818585612085565b5060019392505050565b60605f826001600160401b03811115610c7657610c766144d2565b604051908082528060200260200182016040528015610c9f578160200160208202803683370190505b5091505f5b83811015610cfb57610cd6858583818110610cc157610cc1614bcd565b905060200201602081019061088191906142cc565b838281518110610ce857610ce8614bcd565b6020908102919091010152600101610ca4565b507f52c63247e1f47db19d5ce0460030c497f067ca4cebf71ba98eeadabe20bace025490509250929050565b610d2f612092565b610d48828260405180602001604052805f8152506120bc565b5050565b5f610c2582612179565b5f805f5160206154065f395f51905f525b546001600160a01b031692915050565b5f5160206153645f395f51905f528054606091908190610d9690614be1565b80601f0160208091040260200160405190810160405280929190818152602001828054610dc290614be1565b8015610e0d5780601f10610de457610100808354040283529160200191610e0d565b820191905f5260205f20905b815481529060010190602001808311610df057829003601f168201915b505050505091505090565b610e248685848461111a565b610e30858484846115ab565b505050505050565b610e413361218e565b610e4b82826121c0565b610e5361207c565b6001600160a01b0316826001600160a01b03167fde22baff038e3a3e08407cbdf617deed74e869a7ba517df611e33131c6e6ea0483604051610e9791815260200190565b60405180910390a35050565b610eab6121d6565b610ec68484848460405180602001604052805f815250612200565b50505050565b610ed4612092565b610d48828260405180602001604052805f8152506122a0565b5f610ef9848484612358565b90505b9392505050565b5f9081525f5160206153c45f395f51905f52602052604090206001015490565b610f2c3361218e565b610f368282612377565b610f3e61207c565b6001600160a01b0316826001600160a01b03167fb90795a66650155983e242cac3e1ac1a4dc26f8ed2987f3ce416a34e00111fd483604051610e9791815260200190565b610f8b82610f03565b610f948161238d565b610ec6838361239e565b5f610c35612447565b610faf612092565b610ec6848484848080601f0160208091040260200160405190810160405280939291908181526020018383808284375f920191909152506122a092505050565b610ff7612450565b5f5160206154065f395f51905f5280546001600160a01b03838116911603611032576040516399e8777160e01b815260040160405180910390fd5b610d48818361247a565b61104461207c565b6001600160a01b0316816001600160a01b0316146110755760405163334bd91960e11b815260040160405180910390fd5b61107f82826124c1565b505050565b61108c612558565b7fab1527b6135145d8da1edcbd6b7b270624e17f2b41c74a8c746ff388ad454700805460ff16156110d057604051631b19da4d60e11b815260040160405180910390fd5b6110d8612582565b50565b6110e36125dc565b610d48828260405180602001604052805f815250612606565b611104612669565b5f61110d61207c565b9050610d4881828461269b565b611122612701565b610ec6848484848080601f0160208091040260200160405190810160405280939291908181526020018383808284375f9201919091525061272b92505050565b5f61116b612781565b805490915060ff600160401b82041615906001600160401b03165f811580156111915750825b90505f826001600160401b031660011480156111ac5750303b155b9050811580156111ba575080155b156111d85760405163f92ee8a960e01b815260040160405180910390fd5b845467ffffffffffffffff19166001178555831561120257845460ff60401b1916600160401b1785555b61120e898989896127a9565b831561125457845460ff60401b19168555604051600181527fc7f505b2f371ae2175ee4913f4499e1f2633a7b5936321eed1cdaeb6115181d29060200160405180910390a15b505050505050505050565b611267612701565b611273848484846127bd565b61127b61207c565b6001600160a01b03167f72daf4490e83933de80c122aa40ad26e3d1312ac3efbf2edcee640aa8556ddc6858585856040516112b99493929190614c8b565b60405180910390a250505050565b5f6112d061285f565b61131186868686868080601f0160208091040260200160405190810160405280939291908181526020018383808284375f9201919091525061286992505050565b50600195945050505050565b5f807fab1527b6135145d8da1edcbd6b7b270624e17f2b41c74a8c746ff388ad4547005b5460ff1692915050565b5f610c35612940565b61135c6125dc565b61136884848484612968565b61137061207c565b6001600160a01b03167fbc3f1481a323af3866d85a300235055c5b81e0ab3563d50b17226f63072161f0858585856040516112b99493929190614ccd565b5f805f5160206153445f395f51905f525b6001600160a01b039093165f9081526020939093525050604090205490565b5f6113eb85858585612a00565b90505b949350505050565b6113fe612a29565b5f61140761207c565b905061107f818484612a53565b6114366040518060600160405280606081526020015f81526020015f81525090565b5f5160206154065f395f51905f5280546001600160a01b0316156114c4578054604051631f32da9960e21b81526001600160a01b0390911690637ccb6a64906114839086906004016141ab565b5f60405180830381865afa15801561149d573d5f5f3e3d5ffd5b505050506040513d5f823e601f3d908101601f19168201604052610efc9190810190614d4b565b5050604080516080810182525f6060820181815282526020820181905291810191909152919050565b50919050565b606060051960ff831601611520576040518060600160405280602281526020016153e46022913992915050565b610c2582612ab6565b611531612558565b611539612cbb565b565b5f6115446125dc565b6113eb85858585612d18565b5f807f364fbfd89c0eee55bbc8dd10b1a9bf3e04fba9f3ee606f4c79a82f9941ad7a00610d67565b5f610c2582612dca565b5f61158d8183612e03565b1561159a57506001610c25565b6115a48383612e03565b9050610c25565b6115b36125dc565b610ec6848484848080601f0160208091040260200160405190810160405280939291908181526020018383808284375f9201919091525061260692505050565b6060610c35612e39565b611605612701565b610d48828260405180602001604052805f81525061272b565b5f5160206154065f395f51905f528054606091906001600160a01b0316156116b057805460408051639fa5f50b60e01b815290516001600160a01b0390921691639fa5f50b916004808201925f929091908290030181865afa158015611686573d5f5f3e3d5ffd5b505050506040513d5f823e601f3d908101601f191682016040526116ad9190810190614dcc565b91505b5090565b5f6116bd61285f565b610c5184848460405180602001604052805f815250612869565b6116df61285f565b6116e7611ff2565b6001600160a01b0316816001600160a01b03160361171857604051630725a47560e31b815260040160405180910390fd5b6110d881612e43565b61172961285f565b7f364fbfd89c0eee55bbc8dd10b1a9bf3e04fba9f3ee606f4c79a82f9941ad7a0080546001600160a01b0390811690831681900361177a5760405163348e78c960e11b815260040160405180910390fd5b81546001600160a01b0319166001600160a01b038481169182178455604051908316907f9524c9e4b0b61eb018dd58a1cd856e3e74009528328ab4a613b434fa631d7242905f90a3505050565b5f610efc8383612eab565b6117da6121d6565b610ec6848484848080601f0160208091040260200160405190810160405280939291908181526020018383808284375f92019190915250612ece92505050565b611822612701565b61182e858585856127bd565b61183661207c565b6001600160a01b03167f72daf4490e83933de80c122aa40ad26e3d1312ac3efbf2edcee640aa8556ddc68686868686604051611876959493929190614e8a565b60405180910390a25050505050565b61188d61285f565b5f5160206153a45f395f51905f527f9bd8d607565c0370ae5f91651ca67fd26d4438022bf72037316600e29e6a3a026118c7838583614f14565b5082826040516118d8929190614fcd565b60405180910390207f4a48eefa86906ea82ddc91803a5f00818355982247dc29c521714f6dc207aacd8484604051611911929190614fdc565b60405180910390a2505050565b61192661285f565b61192e612efb565b7fab1527b6135145d8da1edcbd6b7b270624e17f2b41c74a8c746ff388ad454700805460ff191660011781557f749cb6b4c510bc468cf6b9c2086d6f0a54d6b18e25d37bf3200e68eab0880c0061198361207c565b6040516001600160a01b03909116815260200160405180910390a150565b6119a961285f565b5f5160206153a45f395f51905f527f9bd8d607565c0370ae5f91651ca67fd26d4438022bf72037316600e29e6a3a016119e3838583614f14565b5082826040516119f4929190614fcd565b60405180910390207fe4e4a54c5c394e44fde10a0ae1277d8bd8621848cc8dfd73eddd39bcf9f2d9b28484604051611911929190614fdc565b611a356121d6565b610d48828260405180602001604052805f815250612ece565b611a56612f20565b6110d8611a628261500a565b612f4a565b5f807f1387b97dfab601d3023cb57858a6be29329babb05c85597ddbe4926c1193a900610d67565b5f5f611a99611ff2565b9050611aa486611f75565b15611ab45760055b9150506113ee565b5f611ac0868686612f62565b905060ff811615611ad45791506113ee9050565b6001600160a01b03821615611b5d5760405163d32c7bb560e01b81526001600160a01b0383169063d32c7bb590611b15908a908a908a908a90600401615015565b602060405180830381865afa158015611b30573d5f5f3e3d5ffd5b505050506040513d601f19601f82011682018060405250810190611b54919061503f565b925050506113ee565b5f611b54565b5f5f611b6d611ff2565b90505f611b7b868686612f62565b905060ff811615611b8f579150610efc9050565b6001600160a01b03821615611c165760405163d4ce141560e01b81526001600160a01b0383169063d4ce141590611bce9089908990899060040161505a565b602060405180830381865afa158015611be9573d5f5f3e3d5ffd5b505050506040513d601f19601f82011682018060405250810190611c0d919061503f565b92505050610efc565b5f611c0d565b611c2461411d565b604080518082019091527fd2d5d34c4a4dea00599692d3257c0aebc5e0359176118cd2364ab9b008c2d10180545f5160206153645f395f51905f5292919082908290611c6f90614be1565b80601f0160208091040260200160405190810160405280929190818152602001828054611c9b90614be1565b8015611ce65780601f10611cbd57610100808354040283529160200191611ce6565b820191905f5260205f20905b815481529060010190602001808311611cc957829003601f168201915b50505050508152602001600182016040518060600160405290815f82018054611d0e90614be1565b80601f0160208091040260200160405190810160405280929190818152602001828054611d3a90614be1565b8015611d855780601f10611d5c57610100808354040283529160200191611d85565b820191905f5260205f20905b815481529060010190602001808311611d6857829003601f168201915b50505050508152602001600182015481526020016002820154815250508152505091505090565b611db582610f03565b611dbe8161238d565b610ec683836124c1565b611dd0612f20565b5f5f5160206153645f395f51905f52905061107f8184848080601f0160208091040260200160405190810160405280939291908181526020018383808284375f92019190915250612fb192505050565b611e28612f20565b5f5f5160206153645f395f51905f52905061107f8184848080601f0160208091040260200160405190810160405280939291908181526020018383808284375f92019190915250612ffb92505050565b611e80612092565b610ec6848484848080601f0160208091040260200160405190810160405280939291908181526020018383808284375f920191909152506120bc92505050565b6001600160a01b039182165f9081527f52c63247e1f47db19d5ce0460030c497f067ca4cebf71ba98eeadabe20bace016020908152604080832093909416825291909152205490565b611f11613058565b7f1387b97dfab601d3023cb57858a6be29329babb05c85597ddbe4926c1193a90080546001600160a01b03838116911603611f5f576040516311ecd5d560e21b815260040160405180910390fd5b610d488183613082565b5f610ef98484846130c9565b6001600160a01b0381165f9081527f0c7bc8a17be064111d299d7669f49519cb26c58611b72d9f6ccc40a1e1184e00602052604081205460ff16610c25565b7fd2d5d34c4a4dea00599692d3257c0aebc5e0359176118cd2364ab9b008c2d10580546060915f5160206153645f395f51905f5291610d9690614be1565b5f807f77c8cc897d160e7bf5b10921804e357da17ae27460d4a6b5d9b27ffddf159d00610d67565b5f6001600160e01b03198216630cccc66560e21b1480610c2557506301ffc9a760e01b6001600160e01b0319831614610c25565b5f631a002f2d60e31b6001600160e01b031983161480610c255750610c25826130f1565b6060610c35613115565b5f610c35613153565b61107f83838360016131bd565b7fd62f75bf68b069bc8e2abd495a949fafec67a4e5a5b7cb36aedf0dd51eec7e726110d88161238d565b5f5160206153845f395f51905f525f6120d4856113ae565b6001600160a01b0386165f90815260208490526040812054919250906120fb908690615092565b90508082101561211e576040516349d7d08d60e11b815260040160405180910390fd5b6001600160a01b0386165f8181526020859052604090819020839055517eee657b17bb8f27ffd14d58b7a6f3f8d780dc721da687b065b4ce100c332e259061216990889088906150a5565b60405180910390a2505050505050565b5f805f5160206153845f395f51905f526113bf565b6121966132a5565b6110d87f620d362b92b6ef580d4e86c5675d679fe08d31dff47b72f281959a4eecdd036a826132cb565b6121cc5f5f8484613304565b610d488282613342565b7f973ef39d76cc2c6090feab1c030bec6ab5db557f64df047a4c4f9b5953cf1df36110d88161238d565b61220c85858585613358565b7f0c7bc8a17be064111d299d7669f49519cb26c58611b72d9f6ccc40a1e1184e005f5b858110156122975761228f8288888481811061224d5761224d614bcd565b905060200201602081019061226291906142cc565b87878581811061227457612274614bcd565b905060200201602081019061228991906150bd565b86613396565b60010161222f565b50505050505050565b6001600160a01b0383165f9081525f5160206153845f395f51905f5260208190526040909120548311156122e7576040516309f1994960e41b815260040160405180910390fd5b6001600160a01b0384165f9081526020829052604090205461230a9084906150d8565b6001600160a01b0385165f81815260208490526040908190209290925590517f57e0f3d4013a11f83fec76f5798b11b0ac9894fe75a459c7c18b95b248fa0225906112b990869086906150a5565b5f61236c61236461207c565b858585613304565b610ef9848484613414565b6123835f835f84613304565b610d488282613485565b6110d88161239961207c565b6132cb565b5f5f5160206153c45f395f51905f526123b78484611582565b612437575f848152602082815260408083206001600160a01b03871684529091529020805460ff191660011790556123ed61207c565b6001600160a01b0316836001600160a01b0316857f2f8788117e7eff1d82e926ec794901d17c78024a50270940304540a733656f0d60405160405180910390a46001915050610c25565b5f915050610c25565b5092915050565b5f610c3561349b565b7fdd7c9aafbb91d54fb2041db1d5b172ea665309b32f5fffdbddf452802a1e3b206110d88161238d565b81546001600160a01b0319166001600160a01b03821690811783556040517f24456fffb8d75313fe808b19e17ae308e592a8159329a02fb396773d5aacbd10905f90a25050565b5f5f5160206153c45f395f51905f526124da8484611582565b15612437575f848152602082815260408083206001600160a01b03871684529091529020805460ff1916905561250e61207c565b6001600160a01b0316836001600160a01b0316857ff6391f5c32d9c69d2a47ea670b442974b53935d1edc7fd64eb21e047a839171b60405160405180910390a46001915050610c25565b7f65d7a28e3265b37a6474929f336521b332c1681b933f6cb9f3376673440d862a6110d88161238d565b61258a612efb565b7fcd5ed15c6e187e77e9aee88184c21f4f2182ab5827cb3b7e07fbedcd63f03300805460ff191681557f5db9ee0a495bf2e6ff9c91a7834c1ba4fdd244a5e8aa4e537bd38aeae4b073aa61198361207c565b7f9f2df0fed2c77648de5860a4cc508cd0818c85b8b8a1ab4ceeef8d981c8956a66110d88161238d565b61261083836121c0565b826001600160a01b031661262261207c565b6001600160a01b03167f30c99b8e9449992bd7616d2645b02ee0a2b6f229a45d6b56b686963ff0c53497848460405161265c9291906150a5565b60405180910390a3505050565b7f13d9f3ea33477b975af6cd01437366c28412d5bd9b872fa0fc25bd3a160683af6126938161238d565b6110d86132a5565b6126a58282612377565b826001600160a01b0316826001600160a01b0316846001600160a01b03167f543d84a473f60119968e980557a2b597b79e98849b4f68fb540e9900408a1043846040516126f491815260200190565b60405180910390a4505050565b7f3c11d16cbaffd01df69ce1c404f6340ee057498f5f00246190ea54220576a8486110d88161238d565b6127358383612377565b826001600160a01b031661274761207c565b6001600160a01b03167f21e3428dd0c1de86ad5cb0d4df91049f26e9711489b51d1e9b5d5a53ebae1f63848460405161265c9291906150a5565b5f807ff0c57e16840df040f15088dc2f81fe391c3923bec73e23a9662efc9c229c6a00610c25565b6127b16134b0565b610ec6848484846134d5565b5f8390036127de576040516311eaa8e760e21b815260040160405180910390fd5b8281146127fe57604051637a9d6e6d60e01b815260040160405180910390fd5b5f5b838110156128585761285085858381811061281d5761281d614bcd565b905060200201602081019061283291906142cc565b84848481811061284457612844614bcd565b90506020020135612377565b600101612800565b5050505050565b5f6110d88161238d565b61287484838361350b565b6001600160a01b0383166128915761288c8483613605565b6128e6565b5f61289c8585611ec0565b90505f811180156128ad57505f1981105b156128d957828110156128cb576128c685855f5f6131bd565b6128d9565b6128d985858584035f6131bd565b6128e4858585613639565b505b836001600160a01b03166128f861207c565b6001600160a01b03167f9aaf0e2b2a23aa776f679b9fe17552a7fa59d6cb1057b37156024a8c587a947f84846040516129329291906150a5565b60405180910390a350505050565b5f807fcd5ed15c6e187e77e9aee88184c21f4f2182ab5827cb3b7e07fbedcd63f03300611341565b8261298657604051630c7e659960e01b815260040160405180910390fd5b8281146129a6576040516307a4e50160e21b815260040160405180910390fd5b5f5b83811015612858576129f88585838181106129c5576129c5614bcd565b90506020020160208101906129da91906142cc565b8484848181106129ec576129ec614bcd565b905060200201356121c0565b6001016129a8565b5f612a0b8483613696565b612a1657505f6113ee565b612a22858585856136dd565b90506113ee565b7f5bfe08abba057c54e6a28bce27ce8c53eb21d7a94376a70d475b5dee60b6c4e26126938161238d565b612a5e8284836136ea565b826001600160a01b0316826001600160a01b03167f7c2b9369bf4a6bd9745889c658ad00a4d57e280c4c80fa1c74db2a9e52c1363583604051612aa391815260200190565b60405180910390a361107f83838361269b565b60605f612ac1611ff2565b905060ff8316612af657505060408051808201909152600d81526c2737a932b9ba3934b1ba34b7b760991b6020820152919050565b60011960ff841601612b2d57505060408051808201909152600d81526c456e666f72636564506175736560981b6020820152919050565b5f1960ff841601612b6957505060408051808201909152601381527210dbdb9d1c9858dd11195858dd1a5d985d1959606a1b6020820152919050565b60021960ff841601612ba357505060408051808201909152601081526f20b23239233937b6a4b9a33937bd32b760811b6020820152919050565b60031960ff841601612bdb57505060408051808201909152600e81526d20b232392a37a4b9a33937bd32b760911b6020820152919050565b60041960ff841601612c1857505060408051808201909152601381527220b2323929b832b73232b924b9a33937bd32b760691b6020820152919050565b6001600160a01b03811615612c9257604051637f4ab1dd60e01b815260ff841660048201526001600160a01b03821690637f4ab1dd906024015f60405180830381865afa158015612c6b573d5f5f3e3d5ffd5b505050506040513d5f823e601f3d908101601f19168201604052610efc91908101906150eb565b505060408051808201909152600b81526a556e6b6e6f776e436f646560a81b6020820152919050565b612cc36132a5565b7fcd5ed15c6e187e77e9aee88184c21f4f2182ab5827cb3b7e07fbedcd63f03300805460ff191660011781557f62e78cea01bee320cd4e420270b5ea74000d11b0c9f74754ebdbfc544b05a25861198361207c565b5f83612d3757604051634723eac960e01b815260040160405180910390fd5b5f612d4061207c565b9050848314612d6257604051637e81047760e11b815260040160405180910390fd5b5f5b85811015612dbd57612db582888884818110612d8257612d82614bcd565b9050602002016020810190612d9791906142cc565b878785818110612da957612da9614bcd565b90506020020135613748565b600101612d64565b5060019695505050505050565b6001600160a01b0381165f9081525f5160206153845f395f51905f5260208190526040822054612df9846113ae565b610efc91906150d8565b5f9182525f5160206153c45f395f51905f52602090815260408084206001600160a01b0393909316845291905290205460ff1690565b6060610c3561375f565b7f77c8cc897d160e7bf5b10921804e357da17ae27460d4a6b5d9b27ffddf159d0080546001600160a01b0319166001600160a01b03831690811782556040517f37213fe93a5aae50df0ef53f98b81c048e51b3ab2969309a103a647e44b61918905f90a25050565b5f5f612eb561207c565b9050612ec35f828686613304565b610c51818585613639565b7f0c7bc8a17be064111d299d7669f49519cb26c58611b72d9f6ccc40a1e1184e00610ec681858585613396565b612f0361134b565b61153957604051638dfc202b60e01b815260040160405180910390fd5b7f921df7a58eb4ea112afa962b8186161404ecda2e8fe97f8246026d02ad1a74b76110d88161238d565b5f5160206153645f395f51905f52610d48818361379d565b5f5f612f6d85610d4c565b90508015612f9d575f81612f80876113ae565b612f8a91906150d8565b905080841115612f9b576006611c0d565b505b612fa8858585613807565b95945050505050565b60058201612fbf828261511c565b507fff8fea957fb7cb582ef297c1c74436fe7a9914efbc52adf197600dc9d171efbc81604051612fef91906141ab565b60405180910390a15050565b81613006828261511c565b508060405161301591906151d6565b60405180910390207f6403c68076c59949275ad9be2137a73c51043d7d6af6a38473047a0bc45df4928260405161304c91906141ab565b60405180910390a25050565b7f809a0fc49fc0600540f1d39e23454e1f6f215bc7505fa22b17c154616570ddef6110d88161238d565b81546001600160a01b0319166001600160a01b03821690811783556040517f3dc265c6e8a49e40f12f64811a094f799e44b4d033c7478793093908cbbb5bca905f90a25050565b5f6130d48483613696565b6130df57505f610efc565b6130ea848484613860565b9050610efc565b5f6001600160e01b03198216637965db0b60e01b1480610c255750610c258261201a565b7f9bd8d607565c0370ae5f91651ca67fd26d4438022bf72037316600e29e6a3a0180546060915f5160206153a45f395f51905f5291610d9690614be1565b5f36601480821080159061318f57507f00000000000000000000000000000000000000000000000000000000000000006001600160a01b031633145b156131b5576131a236828403815f6151ec565b6131ab91615213565b60601c9250505090565b339250505090565b5f5160206153445f395f51905f526001600160a01b0385166131f95760405163e602df0560e01b81525f60048201526024015b60405180910390fd5b6001600160a01b03841661322257604051634a1406b160e11b81525f60048201526024016131f0565b6001600160a01b038086165f9081526001830160209081526040808320938816835292905220839055811561285857836001600160a01b0316856001600160a01b03167f8c5be1e5ebec7d5bd14f71427d1e84f3dd0314c0f7b2291e5b200ac8c7c3b9258560405161329691815260200190565b60405180910390a35050505050565b6132ad61134b565b156115395760405163d93c066560e01b815260040160405180910390fd5b6132d58282611582565b610d485760405163e2517d3f60e01b81526001600160a01b0382166004820152602481018390526044016131f0565b6133108484848461386c565b61331c84848484613876565b8383839091926122975760405163013a574760e41b81526004016131f09392919061505a565b61334e5f5f8484613304565b610d488282613984565b8261337657604051630e35356160e11b815260040160405180910390fd5b828114610ec65760405163142e444b60e01b815260040160405180910390fd5b6001600160a01b0383165f908152602085905260409020805460ff19168315151790556133c161207c565b6001600160a01b0316821515846001600160a01b03167f5c115173b119951ab162218e6a2495eb7b93888dda22421e2be9c4ee5d7108828460405161340691906141ab565b60405180910390a450505050565b5f5f61342185858561398e565b90508015610ef95761343161207c565b6001600160a01b0316856001600160a01b03167f7c2b9369bf4a6bd9745889c658ad00a4d57e280c4c80fa1c74db2a9e52c136358560405161347591815260200190565b60405180910390a3949350505050565b6134915f835f84613304565b610d4882826139b0565b5f805f5160206153a45f395f51905f52611341565b6134b86139ba565b61153957604051631afcd79f60e31b815260040160405180910390fd5b6134dd6134b0565b6134e56139d3565b6134ed6139d3565b6134f6836139db565b6134ff81613a04565b610ec684848484613a17565b5f613515846113ae565b905080831115613538576040516349d7d08d60e11b815260040160405180910390fd5b6001600160a01b0384165f9081525f5160206153845f395f51905f526020819052604082205490919061356b90846150d8565b905080851115610e30575f61358082876150d8565b6001600160a01b0388165f908152602085905260409020549091506135a69082906150d8565b6001600160a01b0388165f81815260208690526040908190209290925590517f57e0f3d4013a11f83fec76f5798b11b0ac9894fe75a459c7c18b95b248fa0225906135f490849089906150a5565b60405180910390a250505050505050565b6001600160a01b03821661362e57604051634b637e8f60e11b81525f60048201526024016131f0565b610d48825f83613a34565b6001600160a01b03831661366257604051634b637e8f60e11b81525f60048201526024016131f0565b6001600160a01b03821661368b5760405163ec442f0560e01b81525f60048201526024016131f0565b61107f838383613a34565b5f5f6136a184612179565b90508015610c51575f816136b4866113ae565b6136be91906150d8565b9050808411156136d2575f92505050610c25565b506001949350505050565b5f6113eb85858585613a3f565b5f6136f58484611ec0565b90505f19811015610ec6578181101561373a57604051637dc7a0d960e11b81526001600160a01b038416600482015260248101829052604481018390526064016131f0565b610ec684848484035f6131bd565b6137545f848484613304565b61107f838383613a63565b7f9bd8d607565c0370ae5f91651ca67fd26d4438022bf72037316600e29e6a3a0280546060915f5160206153a45f395f51905f5291610d9690614be1565b805160018301906137ae908261511c565b5060408101516003830155602081015160028301906137cd908261511c565b504260048301556040517fb562a4a5636ab72872315c22d33f07b5af6c4e728ee9b6ee6bb515a37956272f90612fef9060018501906152d2565b5f61381061131d565b1561381c5760016130ea565b61382461134b565b156138305760026130ea565b61383984611f75565b156138455760036130ea565b61384e83611f75565b1561385a5760046130ea565b5f6130ea565b5f610ef9848484613a7a565b610ec68382613a9c565b5f613882858585613ac3565b61388d57505f6113ee565b5f613896611ff2565b90506001600160a01b03811615613978576001600160a01b0386161561391a57604051631f2d7a6560e11b81526001600160a01b03821690633e5af4ca906138e8908990899089908990600401615015565b5f604051808303815f87803b1580156138ff575f5ffd5b505af1158015613911573d5f5f3e3d5ffd5b50505050613978565b6040516322ebca6d60e21b81526001600160a01b03821690638baf29b49061394a9088908890889060040161505a565b5f604051808303815f87803b158015613961575f5ffd5b505af1158015613973573d5f5f3e3d5ffd5b505050505b50506001949350505050565b610d488282613afd565b5f5f61399861207c565b90506139a58582856136ea565b6136d2858585613639565b610d488282613605565b5f6139c3612781565b54600160401b900460ff16919050565b6115396134b0565b6139e36134b0565b6139eb6139d3565b6139f36139d3565b6110d8815f01518260200151613b31565b613a0c6134b0565b80516110d890613b81565b613a1f6134b0565b610ec684848484602001518560400151613ba1565b61107f838383613bf0565b5f613a4c85858585613cde565b613a5757505f6113ee565b612a2285858585613ceb565b613a6f5f848484613304565b61107f838383613d81565b5f613a86848484613d8c565b613a9157505f610efc565b6130ea848484613d99565b613aa68282613696565b610d48576040516301c9bcfb60e31b815260040160405180910390fd5b5f6001600160a01b038316613adb576130ea82613e35565b6001600160a01b038216613af2576130ea83613e35565b6130ea848484613e61565b6001600160a01b038216613b265760405163ec442f0560e01b81525f60048201526024016131f0565b610d485f8383613a34565b613b396134b0565b5f5160206153445f395f51905f527f52c63247e1f47db19d5ce0460030c497f067ca4cebf71ba98eeadabe20bace03613b72848261511c565b5060048101610ec6838261511c565b613b896134b0565b6001600160a01b038116156110d8576110d881612e43565b613ba96134b0565b613bb285613eab565b613bc88460400151855f01518660200151613ee4565b613bde835f015184602001518560400151613f41565b613be782613f75565b61285881613fb7565b5f613bf9611a67565b90506001600160a01b03811615613cd3575f613c14856113ae565b90505f613c20856113ae565b90505f613c4b7f52c63247e1f47db19d5ce0460030c497f067ca4cebf71ba98eeadabe20bace025490565b9050613c58878787613fe6565b604051631be4e35160e31b81526001600160a01b038881166004830152878116602483015260448201859052606482018490526084820183905285169063df271a889060a4015f604051808303815f87803b158015613cb5575f5ffd5b505af1158015613cc7573d5f5f3e3d5ffd5b50505050505050610ec6565b610ec6848484613fe6565b5f6113eb85858585614111565b5f5f613cf5611ff2565b90506001600160a01b03811615613d7757604051637157797f60e01b81526001600160a01b03821690637157797f90613d38908990899089908990600401615015565b602060405180830381865afa158015613d53573d5f5f3e3d5ffd5b505050506040513d601f19601f82011682018060405250810190611aac9190615328565b60019150506113ee565b61107f838383613639565b5f610ef95f858585614111565b5f5f613da3611ff2565b90506001600160a01b03811615613e2b576040516372331c7360e11b81526001600160a01b0382169063e46638e690613de49088908890889060040161505a565b602060405180830381865afa158015613dff573d5f5f3e3d5ffd5b505050506040513d601f19601f82011682018060405250810190613e239190615328565b915050610efc565b6001915050610efc565b5f613e3e61131d565b80613e4d5750613e4d82611f75565b15613e5957505f919050565b506001919050565b5f613e6b84611f75565b80613e7a5750613e7a83611f75565b80613e895750613e8982611f75565b80613e975750613e9761134b565b15613ea357505f610efc565b506001610efc565b613eb36134b0565b6001600160a01b038116613eda5760405163011d80f760e01b815260040160405180910390fd5b610d485f8261239e565b613eec6134b0565b5f5160206153a45f395f51905f52805460ff191660ff85161781557f9bd8d607565c0370ae5f91651ca67fd26d4438022bf72037316600e29e6a3a02613f32838261511c565b5060018101612858848261511c565b613f496134b0565b5f5160206153645f395f51905f52613f618185612ffb565b613f6b818461379d565b610ec68183612fb1565b613f7d6134b0565b6001600160a01b038116156110d8577f1387b97dfab601d3023cb57858a6be29329babb05c85597ddbe4926c1193a900610d488183613082565b613fbf6134b0565b6001600160a01b038116156110d8575f5160206154065f395f51905f52610d48818361247a565b5f5160206153445f395f51905f526001600160a01b0384166140205781816002015f8282546140159190615092565b909155506140909050565b6001600160a01b0384165f90815260208290526040902054828110156140725760405163391434e360e21b81526001600160a01b038616600482015260248101829052604481018490526064016131f0565b6001600160a01b0385165f9081526020839052604090209083900390555b6001600160a01b0383166140ae5760028101805483900390556140cc565b6001600160a01b0383165f9081526020829052604090208054830190555b826001600160a01b0316846001600160a01b03167fddf252ad1be2c89b69c2b068fc378daa952ba7f163c4a11628f55a4df523b3ef8460405161293291815260200190565b5f6113eb858585613ac3565b6040518060400160405280606081526020016141516040518060600160405280606081526020015f81526020015f81525090565b905290565b5f60208284031215614166575f5ffd5b81356001600160e01b031981168114610efc575f5ffd5b5f81518084528060208401602086015e5f602082860101526020601f19601f83011685010191505092915050565b602081525f610efc602083018461417d565b6001600160a01b03811681146110d8575f5ffd5b5f5f604083850312156141e2575f5ffd5b82356141ed816141bd565b946020939093013593505050565b5f5f83601f84011261420b575f5ffd5b5081356001600160401b03811115614221575f5ffd5b6020830191508360208260051b850101111561423b575f5ffd5b9250929050565b5f5f60208385031215614253575f5ffd5b82356001600160401b03811115614268575f5ffd5b614274858286016141fb565b90969095509350505050565b604080825283519082018190525f9060208501906060840190835b818110156142b957835183526020938401939092019160010161429b565b5050602093909301939093525092915050565b5f602082840312156142dc575f5ffd5b8135610efc816141bd565b5f5f83601f8401126142f7575f5ffd5b5081356001600160401b0381111561430d575f5ffd5b60208301915083602082850101111561423b575f5ffd5b5f5f5f5f5f5f60a08789031215614339575f5ffd5b8635614344816141bd565b95506020870135614354816141bd565b9450604087013593506060870135925060808701356001600160401b0381111561437c575f5ffd5b61438889828a016142e7565b979a9699509497509295939492505050565b5f5f5f5f604085870312156143ad575f5ffd5b84356001600160401b038111156143c2575f5ffd5b6143ce878288016141fb565b90955093505060208501356001600160401b038111156143ec575f5ffd5b6143f8878288016141fb565b95989497509550505050565b5f5f5f60608486031215614416575f5ffd5b8335614421816141bd565b92506020840135614431816141bd565b929592945050506040919091013590565b5f60208284031215614452575f5ffd5b5035919050565b5f5f6040838503121561446a575f5ffd5b82359150602083013561447c816141bd565b809150509250929050565b5f5f5f5f6060858703121561449a575f5ffd5b84356144a5816141bd565b93506020850135925060408501356001600160401b038111156144c6575f5ffd5b6143f8878288016142e7565b634e487b7160e01b5f52604160045260245ffd5b604051606081016001600160401b0381118282101715614508576145086144d2565b60405290565b604051601f8201601f191681016001600160401b0381118282101715614536576145366144d2565b604052919050565b5f6001600160401b03821115614556576145566144d2565b50601f01601f191660200190565b5f6145766145718461453e565b61450e565b9050828152838383011115614589575f5ffd5b828260208301375f602084830101529392505050565b5f82601f8301126145ae575f5ffd5b610efc83833560208501614564565b60ff811681146110d8575f5ffd5b5f606082840312156145db575f5ffd5b6145e36144e6565b905081356001600160401b038111156145fa575f5ffd5b6146068482850161459f565b82525060208201356001600160401b03811115614621575f5ffd5b61462d8482850161459f565b60208301525060409182013591810191909152919050565b5f60608284031215614655575f5ffd5b61465d6144e6565b905081356001600160401b03811115614674575f5ffd5b6146808482850161459f565b82525060208201356001600160401b0381111561469b575f5ffd5b6146a7848285016145cb565b60208301525060408201356001600160401b038111156146c5575f5ffd5b6146d18482850161459f565b60408301525092915050565b5f606082840312156146ed575f5ffd5b6146f56144e6565b90508135614702816141bd565b81526020820135614712816141bd565b60208201526040820135614725816141bd565b604082015292915050565b5f5f5f5f60c08587031215614743575f5ffd5b843561474e816141bd565b935060208501356001600160401b03811115614768575f5ffd5b850160608188031215614779575f5ffd5b6147816144e6565b81356001600160401b03811115614796575f5ffd5b6147a28982850161459f565b82525060208201356001600160401b038111156147bd575f5ffd5b6147c98982850161459f565b602083015250604082013591506147df826145bd565b60408181019290925293508501356001600160401b03811115614800575f5ffd5b61480c87828801614645565b92505061481c86606087016146dd565b905092959194509250565b5f5f5f5f5f6080868803121561483b575f5ffd5b8535614846816141bd565b94506020860135614856816141bd565b93506040860135925060608601356001600160401b03811115614877575f5ffd5b614883888289016142e7565b969995985093965092949392505050565b5f5f5f5f608085870312156148a7575f5ffd5b84356148b2816141bd565b935060208501356148c2816141bd565b925060408501356148d2816141bd565b9396929550929360600135925050565b5f602082840312156148f2575f5ffd5b81356001600160401b03811115614907575f5ffd5b6113ee8482850161459f565b5f815160608452614927606085018261417d565b905060208301516020850152604083015160408501528091505092915050565b602081525f610efc6020830184614913565b5f60208284031215614969575f5ffd5b8135610efc816145bd565b5f602082016020835280845180835260408501915060408160051b8601019250602086015f5b828110156149cb57603f198786030184526149b685835161417d565b9450602093840193919091019060010161499a565b50929695505050505050565b80151581146110d8575f5ffd5b5f5f5f5f606085870312156149f7575f5ffd5b8435614a02816141bd565b93506020850135614a12816149d7565b925060408501356001600160401b038111156144c6575f5ffd5b5f5f5f5f5f60608688031215614a40575f5ffd5b85356001600160401b03811115614a55575f5ffd5b614a61888289016141fb565b90965094505060208601356001600160401b03811115614a7f575f5ffd5b614a8b888289016141fb565b90945092505060408601356001600160401b03811115614aa9575f5ffd5b8601601f81018813614ab9575f5ffd5b614ac888823560208401614564565b9150509295509295909350565b5f5f60208385031215614ae6575f5ffd5b82356001600160401b03811115614afb575f5ffd5b614274858286016142e7565b5f5f60408385031215614b18575f5ffd5b8235614b23816141bd565b9150602083013561447c816149d7565b5f60208284031215614b43575f5ffd5b81356001600160401b03811115614b58575f5ffd5b820160608185031215610efc575f5ffd5b602081525f825160406020840152614b84606084018261417d565b90506020840151601f19848303016040850152612fa88282614913565b5f5f60408385031215614bb2575f5ffd5b8235614bbd816141bd565b9150602083013561447c816141bd565b634e487b7160e01b5f52603260045260245ffd5b600181811c90821680614bf557607f821691505b6020821081036114ed57634e487b7160e01b5f52602260045260245ffd5b8183526020830192505f815f5b84811015614c51578135614c33816141bd565b6001600160a01b031686526020958601959190910190600101614c20565b5093949350505050565b8183525f6001600160fb1b03831115614c72575f5ffd5b8260051b80836020870137939093016020019392505050565b606081525f614c9e606083018688614c13565b8281036020840152614cb1818587614c5b565b83810360409094019390935250505f8152602001949350505050565b604081525f614ce0604083018688614c13565b8281036020840152614cf3818587614c5b565b979650505050505050565b5f82601f830112614d0d575f5ffd5b8151614d1b6145718261453e565b818152846020838601011115614d2f575f5ffd5b8160208501602083015e5f918101602001919091529392505050565b5f60208284031215614d5b575f5ffd5b81516001600160401b03811115614d70575f5ffd5b820160608185031215614d81575f5ffd5b614d896144e6565b81516001600160401b03811115614d9e575f5ffd5b614daa86828501614cfe565b8252506020820151602082015260408201516040820152809250505092915050565b5f60208284031215614ddc575f5ffd5b81516001600160401b03811115614df1575f5ffd5b8201601f81018413614e01575f5ffd5b80516001600160401b03811115614e1a57614e1a6144d2565b8060051b614e2a6020820161450e565b91825260208184018101929081019087841115614e45575f5ffd5b6020850192505b83831015614cf35782516001600160401b03811115614e69575f5ffd5b614e7889602083890101614cfe565b83525060209283019290910190614e4c565b606081525f614e9d606083018789614c13565b8281036020840152614eb0818688614c5b565b90508281036040840152614ec4818561417d565b98975050505050505050565b601f82111561107f57805f5260205f20601f840160051c81016020851015614ef55750805b601f840160051c820191505b81811015612858575f8155600101614f01565b6001600160401b03831115614f2b57614f2b6144d2565b614f3f83614f398354614be1565b83614ed0565b5f601f841160018114614f70575f8515614f595750838201355b5f19600387901b1c1916600186901b178355612858565b5f83815260208120601f198716915b82811015614f9f5786850135825560209485019460019092019101614f7f565b5086821015614fbb575f1960f88860031b161c19848701351681555b505060018560011b0183555050505050565b818382375f9101908152919050565b60208152816020820152818360408301375f818301604090810191909152601f909201601f19160101919050565b5f610c2536836145cb565b6001600160a01b039485168152928416602084015292166040820152606081019190915260800190565b5f6020828403121561504f575f5ffd5b8151610efc816145bd565b6001600160a01b039384168152919092166020820152604081019190915260600190565b634e487b7160e01b5f52601160045260245ffd5b80820180821115610c2557610c2561507e565b828152604060208201525f610ef9604083018461417d565b5f602082840312156150cd575f5ffd5b8135610efc816149d7565b81810381811115610c2557610c2561507e565b5f602082840312156150fb575f5ffd5b81516001600160401b03811115615110575f5ffd5b6113ee84828501614cfe565b81516001600160401b03811115615135576151356144d2565b615149816151438454614be1565b84614ed0565b6020601f82116001811461517b575f83156151645750848201515b5f19600385901b1c1916600184901b178455612858565b5f84815260208120601f198516915b828110156151aa578785015182556020948501946001909201910161518a565b50848210156151c757868401515f19600387901b60f8161c191681555b50505050600190811b01905550565b5f82518060208501845e5f920191825250919050565b5f5f858511156151fa575f5ffd5b83861115615206575f5ffd5b5050820193919092039150565b80356bffffffffffffffffffffffff198116906014841015612440576bffffffffffffffffffffffff1960149490940360031b84901b1690921692915050565b5f815461525f81614be1565b8085526001821680156152795760018114615295576152c9565b60ff1983166020870152602082151560051b87010193506152c9565b845f5260205f205f5b838110156152c05781546020828a01015260018201915060208101905061529e565b87016020019450505b50505092915050565b60208152604060208201525f6152eb6060830184615253565b601f198382030160408401526060815261530b6060820160018601615253565b600285015460208301526003909401546040909101525090919050565b5f60208284031215615338575f5ffd5b8151610efc816149d756fe52c63247e1f47db19d5ce0460030c497f067ca4cebf71ba98eeadabe20bace00d2d5d34c4a4dea00599692d3257c0aebc5e0359176118cd2364ab9b008c2d1009d8059a24cb596f1948a937c2c163cf14465c2a24abfd3cd009eec4ac4c398009bd8d607565c0370ae5f91651ca67fd26d4438022bf72037316600e29e6a3a0002dd7bc7dec4dceedda775e58dd541e08a116c6c53815c0bd028192f7b6268004164647246726f6d3a696e73756666696369656e7441637469766542616c616e6365bd0905600c85d707dc53eba2e146c1c2527cd32ac3ff6b86846155151b3e2700a2646970667358221220d78a2225c1a319c4405ffcaa613c03b71616ba8038bf141d658fde0ef53e495964736f6c634300081e0033",
  "linkReferences": {},
  "deployedLinkReferences": {}
}